Component: ARM Compiler 5.06 update 7 (build 960) Tool: armlink [4d3601]

==============================================================================

Section Cross References

    startup_stm32f10x_hd.o(RESET) refers to startup_stm32f10x_hd.o(STACK) for __initial_sp
    startup_stm32f10x_hd.o(RESET) refers to startup_stm32f10x_hd.o(.text) for Reset_Handler
    startup_stm32f10x_hd.o(RESET) refers to stm32f10x_it.o(i.NMI_Handler) for NMI_Handler
    startup_stm32f10x_hd.o(RESET) refers to stm32f10x_it.o(i.HardFault_Handler) for HardFault_Handler
    startup_stm32f10x_hd.o(RESET) refers to stm32f10x_it.o(i.MemManage_Handler) for MemManage_Handler
    startup_stm32f10x_hd.o(RESET) refers to stm32f10x_it.o(i.BusFault_Handler) for BusFault_Handler
    startup_stm32f10x_hd.o(RESET) refers to stm32f10x_it.o(i.UsageFault_Handler) for UsageFault_Handler
    startup_stm32f10x_hd.o(RESET) refers to port.o(.emb_text) for SVC_Handler
    startup_stm32f10x_hd.o(RESET) refers to stm32f10x_it.o(i.DebugMon_Handler) for DebugMon_Handler
    startup_stm32f10x_hd.o(RESET) refers to stm32f10x_it.o(i.SysTick_Handler) for SysTick_Handler
    startup_stm32f10x_hd.o(.text) refers to system_stm32f10x.o(i.SystemInit) for SystemInit
    startup_stm32f10x_hd.o(.text) refers to entry.o(.ARM.Collect$$$$00000000) for __main
    system_stm32f10x.o(i.SetSysClock) refers to system_stm32f10x.o(i.SetSysClockTo72) for SetSysClockTo72
    system_stm32f10x.o(i.SystemCoreClockUpdate) refers to system_stm32f10x.o(.data) for SystemCoreClock
    system_stm32f10x.o(i.SystemInit) refers to system_stm32f10x.o(i.SetSysClock) for SetSysClock
    stm32f10x_gpio.o(i.GPIO_AFIODeInit) refers to stm32f10x_rcc.o(i.RCC_APB2PeriphResetCmd) for RCC_APB2PeriphResetCmd
    stm32f10x_gpio.o(i.GPIO_DeInit) refers to stm32f10x_rcc.o(i.RCC_APB2PeriphResetCmd) for RCC_APB2PeriphResetCmd
    stm32f10x_rcc.o(i.RCC_GetClocksFreq) refers to stm32f10x_rcc.o(.data) for APBAHBPrescTable
==============================================================================

Removing Unused input sections from the image.

    Removing startup_stm32f10x_hd.o(HEAP), (512 bytes).
    Removing core_cm3.o(.emb_text), (32 bytes).
    Removing system_stm32f10x.o(i.SystemCoreClockUpdate), (164 bytes).
    Removing stm32f10x_gpio.o(i.GPIO_AFIODeInit), (20 bytes).
    Removing stm32f10x_gpio.o(i.GPIO_DeInit), (200 bytes).
    Removing stm32f10x_gpio.o(i.GPIO_ETH_MediaInterfaceConfig), (12 bytes).
    Removing stm32f10x_gpio.o(i.GPIO_EXTILineConfig), (64 bytes).
    Removing stm32f10x_gpio.o(i.GPIO_EventOutputCmd), (12 bytes).
    Removing stm32f10x_gpio.o(i.GPIO_EventOutputConfig), (32 bytes).
    Removing stm32f10x_gpio.o(i.GPIO_PinLockConfig), (18 bytes).
    Removing stm32f10x_gpio.o(i.GPIO_PinRemapConfig), (144 bytes).
    Removing stm32f10x_gpio.o(i.GPIO_ReadInputData), (8 bytes).
    Removing stm32f10x_gpio.o(i.GPIO_ReadOutputData), (8 bytes).
    Removing stm32f10x_gpio.o(i.GPIO_ReadOutputDataBit), (18 bytes).
    Removing stm32f10x_gpio.o(i.GPIO_ResetBits), (4 bytes).
    Removing stm32f10x_gpio.o(i.GPIO_StructInit), (16 bytes).
    Removing stm32f10x_gpio.o(i.GPIO_Write), (4 bytes).
    Removing stm32f10x_gpio.o(i.GPIO_WriteBit), (10 bytes).
==============================================================================

Image Symbol Table

    Local Symbols

    Symbol Name                              Value     Ov Type        Size  Object(Section)

    ../clib/microlib/division.c              0x00000000   Number         0  uldiv.o ABSOLUTE
    ../clib/microlib/division.c              0x00000000   Number         0  uidiv.o ABSOLUTE
    ../clib/microlib/init/entry.s            0x00000000   Number         0  entry10b.o ABSOLUTE
    ../clib/microlib/init/entry.s            0x00000000   Number         0  entry7a.o ABSOLUTE
    ../clib/microlib/init/entry.s            0x00000000   Number         0  entry10a.o ABSOLUTE
    ../clib/microlib/init/entry.s            0x00000000   Number         0  entry12b.o ABSOLUTE
    ../clib/microlib/init/entry.s            0x00000000   Number         0  entry9a.o ABSOLUTE
    ../clib/microlib/init/entry.s            0x00000000   Number         0  entry12a.o ABSOLUTE
    ../clib/microlib/init/entry.s            0x00000000   Number         0  entry9b.o ABSOLUTE
    ../clib/microlib/init/entry.s            0x00000000   Number         0  entry5.o ABSOLUTE
    ../clib/microlib/init/entry.s            0x00000000   Number         0  entry11a.o ABSOLUTE
    ../clib/microlib/init/entry.s            0x00000000   Number         0  entry.o ABSOLUTE
    ../clib/microlib/init/entry.s            0x00000000   Number         0  entry8b.o ABSOLUTE
    ../clib/microlib/init/entry.s            0x00000000   Number         0  entry8a.o ABSOLUTE
    ../clib/microlib/init/entry.s            0x00000000   Number         0  entry2.o ABSOLUTE
    ../clib/microlib/init/entry.s            0x00000000   Number         0  entry11b.o ABSOLUTE
    ../clib/microlib/init/entry.s            0x00000000   Number         0  entry7b.o ABSOLUTE
    ../clib/microlib/longlong.c              0x00000000   Number         0  llshl.o ABSOLUTE
    ../clib/microlib/longlong.c              0x00000000   Number         0  llushr.o ABSOLUTE
    ../clib/microlib/longlong.c              0x00000000   Number         0  llsshr.o ABSOLUTE
    ../clib/microlib/printf/printf.c         0x00000000   Number         0  printf8.o ABSOLUTE
    ../clib/microlib/printf/printf.c         0x00000000   Number         0  printf7.o ABSOLUTE
    ../clib/microlib/printf/printf.c         0x00000000   Number         0  printfb.o ABSOLUTE
    ../clib/microlib/printf/printf.c         0x00000000   Number         0  printf6.o ABSOLUTE
    ../clib/microlib/printf/printf.c         0x00000000   Number         0  printf4.o ABSOLUTE
    ../clib/microlib/printf/printf.c         0x00000000   Number         0  printf3.o ABSOLUTE
    ../clib/microlib/printf/printf.c         0x00000000   Number         0  printf2.o ABSOLUTE
    ../clib/microlib/printf/printf.c         0x00000000   Number         0  printf1.o ABSOLUTE
    ../clib/microlib/printf/printf.c         0x00000000   Number         0  printf5.o ABSOLUTE
    ../clib/microlib/printf/printf.c         0x00000000   Number         0  printfa.o ABSOLUTE
    ../clib/microlib/printf/printf.c         0x00000000   Number         0  printf0.o ABSOLUTE
    ../clib/microlib/printf/stubs.s          0x00000000   Number         0  stubs.o ABSOLUTE
    ../clib/microlib/stdio/streams.c         0x00000000   Number         0  stdout.o ABSOLUTE
    ../clib/microlib/string/memcpy.c         0x00000000   Number         0  memcpyb.o ABSOLUTE
    ../clib/microlib/string/memcpy.c         0x00000000   Number         0  memcpya.o ABSOLUTE
    ../clib/microlib/stubs.s                 0x00000000   Number         0  iusefp.o ABSOLUTE
    ../fplib/microlib/fpadd.c                0x00000000   Number         0  dadd.o ABSOLUTE
    ../fplib/microlib/fpdiv.c                0x00000000   Number         0  ddiv.o ABSOLUTE
    ../fplib/microlib/fpepilogue.c           0x00000000   Number         0  depilogue.o ABSOLUTE
    ../fplib/microlib/fpfix.c                0x00000000   Number         0  dfixul.o ABSOLUTE
    ../fplib/microlib/fpmul.c                0x00000000   Number         0  dmul.o ABSOLUTE
    ..\FreeRTOS\port\MemMang\heap_4.c        0x00000000   Number         0  heap_4.o ABSOLUTE
    ..\FreeRTOS\port\RVDS\ARM_CM3\port.c     0x00000000   Number         0  port.o ABSOLUTE
    ..\FreeRTOS\src\croutine.c               0x00000000   Number         0  croutine.o ABSOLUTE
    ..\FreeRTOS\src\event_groups.c           0x00000000   Number         0  event_groups.o ABSOLUTE
    ..\FreeRTOS\src\list.c                   0x00000000   Number         0  list.o ABSOLUTE
    ..\FreeRTOS\src\queue.c                  0x00000000   Number         0  queue.o ABSOLUTE
    ..\FreeRTOS\src\tasks.c                  0x00000000   Number         0  tasks.o ABSOLUTE
    ..\FreeRTOS\src\timers.c                 0x00000000   Number         0  timers.o ABSOLUTE
    ..\Libraries\CMSIS\core_cm3.c            0x00000000   Number         0  core_cm3.o ABSOLUTE
    ..\Libraries\CMSIS\startup\startup_stm32f10x_hd.s 0x00000000   Number         0  startup_stm32f10x_hd.o ABSOLUTE
    ..\Libraries\CMSIS\system_stm32f10x.c    0x00000000   Number         0  system_stm32f10x.o ABSOLUTE
    ..\Libraries\FWlib\src\misc.c            0x00000000   Number         0  misc.o ABSOLUTE
    ..\Libraries\FWlib\src\stm32f10x_gpio.c  0x00000000   Number         0  stm32f10x_gpio.o ABSOLUTE
    ..\Libraries\FWlib\src\stm32f10x_rcc.c   0x00000000   Number         0  stm32f10x_rcc.o ABSOLUTE
    ..\Libraries\FWlib\src\stm32f10x_usart.c 0x00000000   Number         0  stm32f10x_usart.o ABSOLUTE
    ..\User\HARDWARE\src\key.c               0x00000000   Number         0  key.o ABSOLUTE
    ..\User\HARDWARE\src\led.c               0x00000000   Number         0  led.o ABSOLUTE
    ..\User\HARDWARE\src\usart.c             0x00000000   Number         0  usart.o ABSOLUTE
    ..\User\main.c                           0x00000000   Number         0  main.o ABSOLUTE
    ..\User\stm32f10x_it.c                   0x00000000   Number         0  stm32f10x_it.o ABSOLUTE
    ..\\FreeRTOS\\port\\RVDS\\ARM_CM3\\port.c 0x00000000   Number         0  port.o ABSOLUTE
    ..\\Libraries\\CMSIS\\core_cm3.c         0x00000000   Number         0  core_cm3.o ABSOLUTE
    cdrcmple.s                               0x00000000   Number         0  cdrcmple.o ABSOLUTE
    dc.s                                     0x00000000   Number         0  dc.o ABSOLUTE
    handlers.s                               0x00000000   Number         0  handlers.o ABSOLUTE
    init.s                                   0x00000000   Number         0  init.o ABSOLUTE
    RESET                                    0x08000000   Section      304  startup_stm32f10x_hd.o(RESET)
    .ARM.Collect$$$$00000000                 0x08000130   Section        0  entry.o(.ARM.Collect$$$$00000000)
    .ARM.Collect$$$$00000001                 0x08000130   Section        4  entry2.o(.ARM.Collect$$$$00000001)
    .ARM.Collect$$$$00000004                 0x08000134   Section        4  entry5.o(.ARM.Collect$$$$00000004)
    .ARM.Collect$$$$00000008                 0x08000138   Section        0  entry7b.o(.ARM.Collect$$$$00000008)
    .ARM.Collect$$$$0000000A                 0x08000138   Section        0  entry8b.o(.ARM.Collect$$$$0000000A)
    .ARM.Collect$$$$0000000B                 0x08000138   Section        8  entry9a.o(.ARM.Collect$$$$0000000B)
    .ARM.Collect$$$$0000000E                 0x08000140   Section        4  entry12b.o(.ARM.Collect$$$$0000000E)
    .ARM.Collect$$$$0000000F                 0x08000144   Section        0  entry10a.o(.ARM.Collect$$$$0000000F)
    .ARM.Collect$$$$00000011                 0x08000144   Section        0  entry11a.o(.ARM.Collect$$$$00000011)
    .ARM.Collect$$$$00002712                 0x08000144   Section        4  entry2.o(.ARM.Collect$$$$00002712)
    __lit__00000000                          0x08000144   Data           4  entry2.o(.ARM.Collect$$$$00002712)
    .emb_text                                0x08000148   Section      150  port.o(.emb_text)
    .text                                    0x080001e0   Section       36  startup_stm32f10x_hd.o(.text)
    .text                                    0x08000204   Section        0  uidiv.o(.text)
    .text                                    0x08000230   Section       36  init.o(.text)
    i.AppTaskCreate                          0x08000254   Section        0  main.o(i.AppTaskCreate)
    AppTaskCreate                            0x08000255   Thumb Code   138  main.o(i.AppTaskCreate)
    i.BSP_Init                               0x08000394   Section        0  main.o(i.BSP_Init)
    BSP_Init                                 0x08000395   Thumb Code    28  main.o(i.BSP_Init)
    i.BusFault_Handler                       0x080003b0   Section        0  stm32f10x_it.o(i.BusFault_Handler)
    i.DebugMon_Handler                       0x080003b4   Section        0  stm32f10x_it.o(i.DebugMon_Handler)
    i.GPIO_Init                              0x080003b6   Section        0  stm32f10x_gpio.o(i.GPIO_Init)
    i.GPIO_ReadInputDataBit                  0x080004cc   Section        0  stm32f10x_gpio.o(i.GPIO_ReadInputDataBit)
    i.GPIO_SetBits                           0x080004de   Section        0  stm32f10x_gpio.o(i.GPIO_SetBits)
    i.HardFault_Handler                      0x080004e2   Section        0  stm32f10x_it.o(i.HardFault_Handler)
    i.KEY_Init                               0x080004e8   Section        0  key.o(i.KEY_Init)
    i.KEY_Scan                               0x0800052c   Section        0  key.o(i.KEY_Scan)
    i.Key_Task                               0x080005e0   Section        0  main.o(i.Key_Task)
    Key_Task                                 0x080005e1   Thumb Code    84  main.o(i.Key_Task)
    i.LED0_Task                              0x08000678   Section        0  main.o(i.LED0_Task)
    LED0_Task                                0x08000679   Thumb Code    62  main.o(i.LED0_Task)
    i.LED1_Task                              0x080006e4   Section        0  main.o(i.LED1_Task)
    LED1_Task                                0x080006e5   Thumb Code    66  main.o(i.LED1_Task)
    i.LED_Init                               0x08000754   Section        0  led.o(i.LED_Init)
    i.MemManage_Handler                      0x080007a8   Section        0  stm32f10x_it.o(i.MemManage_Handler)
    i.NMI_Handler                            0x080007ac   Section        0  stm32f10x_it.o(i.NMI_Handler)
    i.NVIC_PriorityGroupConfig               0x080007b0   Section        0  misc.o(i.NVIC_PriorityGroupConfig)
    i.RCC_APB2PeriphClockCmd                 0x080007c4   Section        0  stm32f10x_rcc.o(i.RCC_APB2PeriphClockCmd)
    i.RCC_GetClocksFreq                      0x080007e4   Section        0  stm32f10x_rcc.o(i.RCC_GetClocksFreq)
    i.SetSysClock                            0x080008b8   Section        0  system_stm32f10x.o(i.SetSysClock)
    SetSysClock                              0x080008b9   Thumb Code     8  system_stm32f10x.o(i.SetSysClock)
    i.SetSysClockTo72                        0x080008c0   Section        0  system_stm32f10x.o(i.SetSysClockTo72)
    SetSysClockTo72                          0x080008c1   Thumb Code   214  system_stm32f10x.o(i.SetSysClockTo72)
    i.SysTick_Handler                        0x080009a0   Section        0  stm32f10x_it.o(i.SysTick_Handler)
    i.SystemInit                             0x080009b0   Section        0  system_stm32f10x.o(i.SystemInit)
    i.USART1_Init                            0x08000a10   Section        0  usart.o(i.USART1_Init)
    i.USART_Cmd                              0x08000a94   Section        0  stm32f10x_usart.o(i.USART_Cmd)
    i.USART_GetFlagStatus                    0x08000aac   Section        0  stm32f10x_usart.o(i.USART_GetFlagStatus)
    i.USART_Init                             0x08000ac8   Section        0  stm32f10x_usart.o(i.USART_Init)
    i.USART_SendData                         0x08000ba0   Section        0  stm32f10x_usart.o(i.USART_SendData)
    i.UsageFault_Handler                     0x08000ba8   Section        0  stm32f10x_it.o(i.UsageFault_Handler)
    i.__0printf$3                            0x08000bac   Section        0  printf3.o(i.__0printf$3)
    i.__scatterload_copy                     0x08000bcc   Section       14  handlers.o(i.__scatterload_copy)
    i.__scatterload_null                     0x08000bda   Section        2  handlers.o(i.__scatterload_null)
    i.__scatterload_zeroinit                 0x08000bdc   Section       14  handlers.o(i.__scatterload_zeroinit)
    i._printf_core                           0x08000bec   Section        0  printf3.o(i._printf_core)
    _printf_core                             0x08000bed   Thumb Code   436  printf3.o(i._printf_core)
    i.delay_ms                               0x08000da4   Section        0  key.o(i.delay_ms)
    delay_ms                                 0x08000da5   Thumb Code    22  key.o(i.delay_ms)
    i.fputc                                  0x08000dbc   Section        0  usart.o(i.fputc)
    i.main                                   0x08000de0   Section        0  main.o(i.main)
    i.prvAddCurrentTaskToDelayedList         0x08000e54   Section        0  tasks.o(i.prvAddCurrentTaskToDelayedList)
    prvAddCurrentTaskToDelayedList           0x08000e55   Thumb Code   124  tasks.o(i.prvAddCurrentTaskToDelayedList)
    i.prvAddNewTaskToReadyList               0x08000eec   Section        0  tasks.o(i.prvAddNewTaskToReadyList)
    prvAddNewTaskToReadyList                 0x08000eed   Thumb Code   150  tasks.o(i.prvAddNewTaskToReadyList)
    i.prvCheckTasksWaitingTermination        0x08000fa0   Section        0  tasks.o(i.prvCheckTasksWaitingTermination)
    prvCheckTasksWaitingTermination          0x08000fa1   Thumb Code    86  tasks.o(i.prvCheckTasksWaitingTermination)
    i.prvDeleteTCB                           0x08001004   Section        0  tasks.o(i.prvDeleteTCB)
    prvDeleteTCB                             0x08001005   Thumb Code    18  tasks.o(i.prvDeleteTCB)
    i.prvHeapInit                            0x08001018   Section        0  heap_4.o(i.prvHeapInit)
    prvHeapInit                              0x08001019   Thumb Code    98  heap_4.o(i.prvHeapInit)
    i.prvIdleTask                            0x08001094   Section        0  tasks.o(i.prvIdleTask)
    prvIdleTask                              0x08001095   Thumb Code    32  tasks.o(i.prvIdleTask)
    i.prvInitialiseNewTask                   0x080010bc   Section        0  tasks.o(i.prvInitialiseNewTask)
    prvInitialiseNewTask                     0x080010bd   Thumb Code   154  tasks.o(i.prvInitialiseNewTask)
    i.prvInitialiseTaskLists                 0x08001180   Section        0  tasks.o(i.prvInitialiseTaskLists)
    prvInitialiseTaskLists                   0x08001181   Thumb Code    70  tasks.o(i.prvInitialiseTaskLists)
    i.prvInsertBlockIntoFreeList             0x080011e8   Section        0  heap_4.o(i.prvInsertBlockIntoFreeList)
    prvInsertBlockIntoFreeList               0x080011e9   Thumb Code    96  heap_4.o(i.prvInsertBlockIntoFreeList)
    i.prvResetNextTaskUnblockTime            0x08001250   Section        0  tasks.o(i.prvResetNextTaskUnblockTime)
    prvResetNextTaskUnblockTime              0x08001251   Thumb Code    42  tasks.o(i.prvResetNextTaskUnblockTime)
    i.prvTaskExitError                       0x08001284   Section        0  port.o(i.prvTaskExitError)
    prvTaskExitError                         0x08001285   Thumb Code    48  port.o(i.prvTaskExitError)
    i.prvTestWaitCondition                   0x080012f0   Section        0  event_groups.o(i.prvTestWaitCondition)
    prvTestWaitCondition                     0x080012f1   Thumb Code    30  event_groups.o(i.prvTestWaitCondition)
    i.pvPortMalloc                           0x08001310   Section        0  heap_4.o(i.pvPortMalloc)
    i.pxPortInitialiseStack                  0x08001460   Section        0  port.o(i.pxPortInitialiseStack)
    i.uxListRemove                           0x08001484   Section        0  list.o(i.uxListRemove)
    i.uxTaskResetEventItemValue              0x080014ac   Section        0  tasks.o(i.uxTaskResetEventItemValue)
    i.vListInitialise                        0x080014c8   Section        0  list.o(i.vListInitialise)
    i.vListInitialiseItem                    0x080014e2   Section        0  list.o(i.vListInitialiseItem)
    i.vListInsert                            0x080014e8   Section        0  list.o(i.vListInsert)
    i.vListInsertEnd                         0x0800151c   Section        0  list.o(i.vListInsertEnd)
    i.vPortEnterCritical                     0x08001534   Section        0  port.o(i.vPortEnterCritical)
    i.vPortExitCritical                      0x080015b8   Section        0  port.o(i.vPortExitCritical)
    i.vPortFree                              0x08001624   Section        0  heap_4.o(i.vPortFree)
    i.vPortSetupTimerInterrupt               0x080016d8   Section        0  port.o(i.vPortSetupTimerInterrupt)
    i.vTaskDelay                             0x080016f8   Section        0  tasks.o(i.vTaskDelay)
    i.vTaskDelete                            0x08001770   Section        0  tasks.o(i.vTaskDelete)
    i.vTaskPlaceOnUnorderedEventList         0x08001880   Section        0  tasks.o(i.vTaskPlaceOnUnorderedEventList)
    i.vTaskStartScheduler                    0x08001900   Section        0  tasks.o(i.vTaskStartScheduler)
    i.vTaskSuspendAll                        0x080019a8   Section        0  tasks.o(i.vTaskSuspendAll)
    i.vTaskSwitchContext                     0x080019b8   Section        0  tasks.o(i.vTaskSwitchContext)
    i.xEventGroupCreate                      0x08001a64   Section        0  event_groups.o(i.xEventGroupCreate)
    i.xEventGroupSetBits                     0x08001a80   Section        0  event_groups.o(i.xEventGroupSetBits)
    i.xEventGroupWaitBits                    0x08001b6c   Section        0  event_groups.o(i.xEventGroupWaitBits)
    i.xPortStartScheduler                    0x08001cc8   Section        0  port.o(i.xPortStartScheduler)
    i.xPortSysTickHandler                    0x08001d68   Section        0  port.o(i.xPortSysTickHandler)
    i.xTaskCreate                            0x08001d9c   Section        0  tasks.o(i.xTaskCreate)
    i.xTaskGetSchedulerState                 0x08001dfc   Section        0  tasks.o(i.xTaskGetSchedulerState)
    i.xTaskIncrementTick                     0x08001e1c   Section        0  tasks.o(i.xTaskIncrementTick)
    i.xTaskRemoveFromUnorderedEventList      0x08001f80   Section        0  tasks.o(i.xTaskRemoveFromUnorderedEventList)
    i.xTaskResumeAll                         0x08002044   Section        0  tasks.o(i.xTaskResumeAll)
    .data                                    0x20000000   Section       20  system_stm32f10x.o(.data)
    .data                                    0x20000014   Section       20  stm32f10x_rcc.o(.data)
    APBAHBPrescTable                         0x20000014   Data          16  stm32f10x_rcc.o(.data)
    ADCPrescTable                            0x20000024   Data           4  stm32f10x_rcc.o(.data)
    .data                                    0x20000028   Section       20  main.o(.data)
    AppTaskCreate_Handle                     0x20000028   Data           4  main.o(.data)
    LED0_Task_Handle                         0x2000002c   Data           4  main.o(.data)
    LED1_Task_Handle                         0x20000030   Data           4  main.o(.data)
    KEY_Task_Handle                          0x20000034   Data           4  main.o(.data)
    Event_Handle                             0x20000038   Data           4  main.o(.data)
    .data                                    0x2000003c   Section       60  tasks.o(.data)
    pxDelayedTaskList                        0x20000040   Data           4  tasks.o(.data)
    pxOverflowDelayedTaskList                0x20000044   Data           4  tasks.o(.data)
    uxDeletedTasksWaitingCleanUp             0x20000048   Data           4  tasks.o(.data)
    uxCurrentNumberOfTasks                   0x2000004c   Data           4  tasks.o(.data)
    xTickCount                               0x20000050   Data           4  tasks.o(.data)
    uxTopReadyPriority                       0x20000054   Data           4  tasks.o(.data)
    xSchedulerRunning                        0x20000058   Data           4  tasks.o(.data)
    uxPendedTicks                            0x2000005c   Data           4  tasks.o(.data)
    xYieldPending                            0x20000060   Data           4  tasks.o(.data)
    xNumOfOverflows                          0x20000064   Data           4  tasks.o(.data)
    uxTaskNumber                             0x20000068   Data           4  tasks.o(.data)
    xNextTaskUnblockTime                     0x2000006c   Data           4  tasks.o(.data)
    xIdleTaskHandle                          0x20000070   Data           4  tasks.o(.data)
    uxSchedulerSuspended                     0x20000074   Data           4  tasks.o(.data)
    .data                                    0x20000078   Section       24  heap_4.o(.data)
    xStart                                   0x20000078   Data           8  heap_4.o(.data)
    pxEnd                                    0x20000080   Data           4  heap_4.o(.data)
    xFreeBytesRemaining                      0x20000084   Data           4  heap_4.o(.data)
    xMinimumEverFreeBytesRemaining           0x20000088   Data           4  heap_4.o(.data)
    xBlockAllocatedBit                       0x2000008c   Data           4  heap_4.o(.data)
    .data                                    0x20000090   Section       12  port.o(.data)
    uxCriticalNesting                        0x20000090   Data           4  port.o(.data)
    ucMaxSysCallPriority                     0x20000094   Data           1  port.o(.data)
    ulMaxPRIGROUPValue                       0x20000098   Data           4  port.o(.data)
    .data                                    0x2000009c   Section        1  key.o(.data)
    key_flay                                 0x2000009c   Data           1  key.o(.data)
    .data                                    0x200000a0   Section        4  stdout.o(.data)
    .bss                                     0x200000a4   Section      740  tasks.o(.bss)
    pxReadyTasksLists                        0x200000a4   Data         640  tasks.o(.bss)
    xDelayedTaskList1                        0x20000324   Data          20  tasks.o(.bss)
    xDelayedTaskList2                        0x20000338   Data          20  tasks.o(.bss)
    xPendingReadyList                        0x2000034c   Data          20  tasks.o(.bss)
    xTasksWaitingTermination                 0x20000360   Data          20  tasks.o(.bss)
    xSuspendedTaskList                       0x20000374   Data          20  tasks.o(.bss)
    .bss                                     0x20000388   Section    36864  heap_4.o(.bss)
    ucHeap                                   0x20000388   Data       36864  heap_4.o(.bss)
    STACK                                    0x20009388   Section     1024  startup_stm32f10x_hd.o(STACK)

    Global Symbols

    Symbol Name                              Value     Ov Type        Size  Object(Section)

    BuildAttributes$$THM_ISAv4$P$D$K$B$S$PE$A:L22UL41UL21$X:L11$S22US41US21$IEEE1$IW$USESV6$~STKCKD$USESV7$~SHL$OSPACE$ROPI$EBA8$MICROLIB$REQ8$PRES8$EABIv2 0x00000000   Number         0  anon$$obj.o ABSOLUTE
    __ARM_use_no_argv                        0x00000000   Number         0  main.o ABSOLUTE
    _printf_a                                0x00000000   Number         0  stubs.o ABSOLUTE
    _printf_c                                0x00000000   Number         0  stubs.o ABSOLUTE
    _printf_charcount                        0x00000000   Number         0  stubs.o ABSOLUTE
    _printf_d                                0x00000000   Number         0  stubs.o ABSOLUTE
    _printf_e                                0x00000000   Number         0  stubs.o ABSOLUTE
    _printf_f                                0x00000000   Number         0  stubs.o ABSOLUTE
    _printf_flags                            0x00000000   Number         0  stubs.o ABSOLUTE
    _printf_fp_dec                           0x00000000   Number         0  stubs.o ABSOLUTE
    _printf_fp_hex                           0x00000000   Number         0  stubs.o ABSOLUTE
    _printf_g                                0x00000000   Number         0  stubs.o ABSOLUTE
    _printf_i                                0x00000000   Number         0  stubs.o ABSOLUTE
    _printf_int_dec                          0x00000000   Number         0  stubs.o ABSOLUTE
    _printf_l                                0x00000000   Number         0  stubs.o ABSOLUTE
    _printf_lc                               0x00000000   Number         0  stubs.o ABSOLUTE
    _printf_ll                               0x00000000   Number         0  stubs.o ABSOLUTE
    _printf_lld                              0x00000000   Number         0  stubs.o ABSOLUTE
    _printf_lli                              0x00000000   Number         0  stubs.o ABSOLUTE
    _printf_llo                              0x00000000   Number         0  stubs.o ABSOLUTE
    _printf_llu                              0x00000000   Number         0  stubs.o ABSOLUTE
    _printf_llx                              0x00000000   Number         0  stubs.o ABSOLUTE
    _printf_longlong_dec                     0x00000000   Number         0  stubs.o ABSOLUTE
    _printf_longlong_hex                     0x00000000   Number         0  stubs.o ABSOLUTE
    _printf_longlong_oct                     0x00000000   Number         0  stubs.o ABSOLUTE
    _printf_ls                               0x00000000   Number         0  stubs.o ABSOLUTE
    _printf_mbtowc                           0x00000000   Number         0  stubs.o ABSOLUTE
    _printf_n                                0x00000000   Number         0  stubs.o ABSOLUTE
    _printf_o                                0x00000000   Number         0  stubs.o ABSOLUTE
    _printf_p                                0x00000000   Number         0  stubs.o ABSOLUTE
    _printf_percent                          0x00000000   Number         0  stubs.o ABSOLUTE
    _printf_pre_padding                      0x00000000   Number         0  stubs.o ABSOLUTE
    _printf_return_value                     0x00000000   Number         0  stubs.o ABSOLUTE
    _printf_s                                0x00000000   Number         0  stubs.o ABSOLUTE
    _printf_sizespec                         0x00000000   Number         0  stubs.o ABSOLUTE
    _printf_str                              0x00000000   Number         0  stubs.o ABSOLUTE
    _printf_truncate_signed                  0x00000000   Number         0  stubs.o ABSOLUTE
    _printf_truncate_unsigned                0x00000000   Number         0  stubs.o ABSOLUTE
    _printf_u                                0x00000000   Number         0  stubs.o ABSOLUTE
    _printf_wc                               0x00000000   Number         0  stubs.o ABSOLUTE
    _printf_wctomb                           0x00000000   Number         0  stubs.o ABSOLUTE
    _printf_widthprec                        0x00000000   Number         0  stubs.o ABSOLUTE
    _printf_x                                0x00000000   Number         0  stubs.o ABSOLUTE
    __arm_fini_                               - Undefined Weak Reference
    __cpp_initialize__aeabi_                  - Undefined Weak Reference
    __cxa_finalize                            - Undefined Weak Reference
    __decompress                              - Undefined Weak Reference
    _clock_init                               - Undefined Weak Reference
    _microlib_exit                            - Undefined Weak Reference
    __Vectors_Size                           0x00000130   Number         0  startup_stm32f10x_hd.o ABSOLUTE
    __Vectors                                0x08000000   Data           4  startup_stm32f10x_hd.o(RESET)
    __Vectors_End                            0x08000130   Data           0  startup_stm32f10x_hd.o(RESET)
    __main                                   0x08000131   Thumb Code     0  entry.o(.ARM.Collect$$$$00000000)
    _main_stk                                0x08000131   Thumb Code     0  entry2.o(.ARM.Collect$$$$00000001)
    _main_scatterload                        0x08000135   Thumb Code     0  entry5.o(.ARM.Collect$$$$00000004)
    __main_after_scatterload                 0x08000139   Thumb Code     0  entry5.o(.ARM.Collect$$$$00000004)
    _main_clock                              0x08000139   Thumb Code     0  entry7b.o(.ARM.Collect$$$$00000008)
    _main_cpp_init                           0x08000139   Thumb Code     0  entry8b.o(.ARM.Collect$$$$0000000A)
    _main_init                               0x08000139   Thumb Code     0  entry9a.o(.ARM.Collect$$$$0000000B)
    __rt_lib_shutdown_fini                   0x08000141   Thumb Code     0  entry12b.o(.ARM.Collect$$$$0000000E)
    __rt_final_cpp                           0x08000145   Thumb Code     0  entry10a.o(.ARM.Collect$$$$0000000F)
    __rt_final_exit                          0x08000145   Thumb Code     0  entry11a.o(.ARM.Collect$$$$00000011)
    SVC_Handler                              0x08000149   Thumb Code    32  port.o(.emb_text)
    __asm___6_port_c_39a90d8d__prvStartFirstTask 0x0800016d   Thumb Code    28  port.o(.emb_text)
    PendSV_Handler                           0x0800018d   Thumb Code    72  port.o(.emb_text)
    vPortGetIPSR                             0x080001d9   Thumb Code     6  port.o(.emb_text)
    Reset_Handler                            0x080001e1   Thumb Code     8  startup_stm32f10x_hd.o(.text)
    ADC1_2_IRQHandler                        0x080001fb   Thumb Code     0  startup_stm32f10x_hd.o(.text)
    ADC3_IRQHandler                          0x080001fb   Thumb Code     0  startup_stm32f10x_hd.o(.text)
    CAN1_RX1_IRQHandler                      0x080001fb   Thumb Code     0  startup_stm32f10x_hd.o(.text)
    CAN1_SCE_IRQHandler                      0x080001fb   Thumb Code     0  startup_stm32f10x_hd.o(.text)
    DMA1_Channel1_IRQHandler                 0x080001fb   Thumb Code     0  startup_stm32f10x_hd.o(.text)
    DMA1_Channel2_IRQHandler                 0x080001fb   Thumb Code     0  startup_stm32f10x_hd.o(.text)
    DMA1_Channel3_IRQHandler                 0x080001fb   Thumb Code     0  startup_stm32f10x_hd.o(.text)
    DMA1_Channel4_IRQHandler                 0x080001fb   Thumb Code     0  startup_stm32f10x_hd.o(.text)
    DMA1_Channel5_IRQHandler                 0x080001fb   Thumb Code     0  startup_stm32f10x_hd.o(.text)
    DMA1_Channel6_IRQHandler                 0x080001fb   Thumb Code     0  startup_stm32f10x_hd.o(.text)
    DMA1_Channel7_IRQHandler                 0x080001fb   Thumb Code     0  startup_stm32f10x_hd.o(.text)
    DMA2_Channel1_IRQHandler                 0x080001fb   Thumb Code     0  startup_stm32f10x_hd.o(.text)
    DMA2_Channel2_IRQHandler                 0x080001fb   Thumb Code     0  startup_stm32f10x_hd.o(.text)
    DMA2_Channel3_IRQHandler                 0x080001fb   Thumb Code     0  startup_stm32f10x_hd.o(.text)
    DMA2_Channel4_5_IRQHandler               0x080001fb   Thumb Code     0  startup_stm32f10x_hd.o(.text)
    EXTI0_IRQHandler                         0x080001fb   Thumb Code     0  startup_stm32f10x_hd.o(.text)
    EXTI15_10_IRQHandler                     0x080001fb   Thumb Code     0  startup_stm32f10x_hd.o(.text)
    EXTI1_IRQHandler                         0x080001fb   Thumb Code     0  startup_stm32f10x_hd.o(.text)
    EXTI2_IRQHandler                         0x080001fb   Thumb Code     0  startup_stm32f10x_hd.o(.text)
    EXTI3_IRQHandler                         0x080001fb   Thumb Code     0  startup_stm32f10x_hd.o(.text)
    EXTI4_IRQHandler                         0x080001fb   Thumb Code     0  startup_stm32f10x_hd.o(.text)
    EXTI9_5_IRQHandler                       0x080001fb   Thumb Code     0  startup_stm32f10x_hd.o(.text)
    FLASH_IRQHandler                         0x080001fb   Thumb Code     0  startup_stm32f10x_hd.o(.text)
    FSMC_IRQHandler                          0x080001fb   Thumb Code     0  startup_stm32f10x_hd.o(.text)
    I2C1_ER_IRQHandler                       0x080001fb   Thumb Code     0  startup_stm32f10x_hd.o(.text)
    I2C1_EV_IRQHandler                       0x080001fb   Thumb Code     0  startup_stm32f10x_hd.o(.text)
    I2C2_ER_IRQHandler                       0x080001fb   Thumb Code     0  startup_stm32f10x_hd.o(.text)
    I2C2_EV_IRQHandler                       0x080001fb   Thumb Code     0  startup_stm32f10x_hd.o(.text)
    PVD_IRQHandler                           0x080001fb   Thumb Code     0  startup_stm32f10x_hd.o(.text)
    RCC_IRQHandler                           0x080001fb   Thumb Code     0  startup_stm32f10x_hd.o(.text)
    RTCAlarm_IRQHandler                      0x080001fb   Thumb Code     0  startup_stm32f10x_hd.o(.text)
    RTC_IRQHandler                           0x080001fb   Thumb Code     0  startup_stm32f10x_hd.o(.text)
    SDIO_IRQHandler                          0x080001fb   Thumb Code     0  startup_stm32f10x_hd.o(.text)
    SPI1_IRQHandler                          0x080001fb   Thumb Code     0  startup_stm32f10x_hd.o(.text)
    SPI2_IRQHandler                          0x080001fb   Thumb Code     0  startup_stm32f10x_hd.o(.text)
    SPI3_IRQHandler                          0x080001fb   Thumb Code     0  startup_stm32f10x_hd.o(.text)
    TAMPER_IRQHandler                        0x080001fb   Thumb Code     0  startup_stm32f10x_hd.o(.text)
    TIM1_BRK_IRQHandler                      0x080001fb   Thumb Code     0  startup_stm32f10x_hd.o(.text)
    TIM1_CC_IRQHandler                       0x080001fb   Thumb Code     0  startup_stm32f10x_hd.o(.text)
    TIM1_TRG_COM_IRQHandler                  0x080001fb   Thumb Code     0  startup_stm32f10x_hd.o(.text)
    TIM1_UP_IRQHandler                       0x080001fb   Thumb Code     0  startup_stm32f10x_hd.o(.text)
    TIM2_IRQHandler                          0x080001fb   Thumb Code     0  startup_stm32f10x_hd.o(.text)
    TIM3_IRQHandler                          0x080001fb   Thumb Code     0  startup_stm32f10x_hd.o(.text)
    TIM4_IRQHandler                          0x080001fb   Thumb Code     0  startup_stm32f10x_hd.o(.text)
    TIM5_IRQHandler                          0x080001fb   Thumb Code     0  startup_stm32f10x_hd.o(.text)
    TIM6_IRQHandler                          0x080001fb   Thumb Code     0  startup_stm32f10x_hd.o(.text)
    TIM7_IRQHandler                          0x080001fb   Thumb Code     0  startup_stm32f10x_hd.o(.text)
    TIM8_BRK_IRQHandler                      0x080001fb   Thumb Code     0  startup_stm32f10x_hd.o(.text)
    TIM8_CC_IRQHandler                       0x080001fb   Thumb Code     0  startup_stm32f10x_hd.o(.text)
    TIM8_TRG_COM_IRQHandler                  0x080001fb   Thumb Code     0  startup_stm32f10x_hd.o(.text)
    TIM8_UP_IRQHandler                       0x080001fb   Thumb Code     0  startup_stm32f10x_hd.o(.text)
    UART4_IRQHandler                         0x080001fb   Thumb Code     0  startup_stm32f10x_hd.o(.text)
    UART5_IRQHandler                         0x080001fb   Thumb Code     0  startup_stm32f10x_hd.o(.text)
    USART1_IRQHandler                        0x080001fb   Thumb Code     0  startup_stm32f10x_hd.o(.text)
    USART2_IRQHandler                        0x080001fb   Thumb Code     0  startup_stm32f10x_hd.o(.text)
    USART3_IRQHandler                        0x080001fb   Thumb Code     0  startup_stm32f10x_hd.o(.text)
    USBWakeUp_IRQHandler                     0x080001fb   Thumb Code     0  startup_stm32f10x_hd.o(.text)
    USB_HP_CAN1_TX_IRQHandler                0x080001fb   Thumb Code     0  startup_stm32f10x_hd.o(.text)
    USB_LP_CAN1_RX0_IRQHandler               0x080001fb   Thumb Code     0  startup_stm32f10x_hd.o(.text)
    WWDG_IRQHandler                          0x080001fb   Thumb Code     0  startup_stm32f10x_hd.o(.text)
    __aeabi_uidiv                            0x08000205   Thumb Code     0  uidiv.o(.text)
    __aeabi_uidivmod                         0x08000205   Thumb Code    44  uidiv.o(.text)
    __scatterload                            0x08000231   Thumb Code    28  init.o(.text)
    __scatterload_rt2                        0x08000231   Thumb Code     0  init.o(.text)
    BusFault_Handler                         0x080003b1   Thumb Code     4  stm32f10x_it.o(i.BusFault_Handler)
    DebugMon_Handler                         0x080003b5   Thumb Code     2  stm32f10x_it.o(i.DebugMon_Handler)
    GPIO_Init                                0x080003b7   Thumb Code   278  stm32f10x_gpio.o(i.GPIO_Init)
    GPIO_ReadInputDataBit                    0x080004cd   Thumb Code    18  stm32f10x_gpio.o(i.GPIO_ReadInputDataBit)
    GPIO_SetBits                             0x080004df   Thumb Code     4  stm32f10x_gpio.o(i.GPIO_SetBits)
    HardFault_Handler                        0x080004e3   Thumb Code     4  stm32f10x_it.o(i.HardFault_Handler)
    KEY_Init                                 0x080004e9   Thumb Code    60  key.o(i.KEY_Init)
    KEY_Scan                                 0x0800052d   Thumb Code   166  key.o(i.KEY_Scan)
    LED_Init                                 0x08000755   Thumb Code    76  led.o(i.LED_Init)
    MemManage_Handler                        0x080007a9   Thumb Code     4  stm32f10x_it.o(i.MemManage_Handler)
    NMI_Handler                              0x080007ad   Thumb Code     2  stm32f10x_it.o(i.NMI_Handler)
    NVIC_PriorityGroupConfig                 0x080007b1   Thumb Code    10  misc.o(i.NVIC_PriorityGroupConfig)
    RCC_APB2PeriphClockCmd                   0x080007c5   Thumb Code    26  stm32f10x_rcc.o(i.RCC_APB2PeriphClockCmd)
    RCC_GetClocksFreq                        0x080007e5   Thumb Code   192  stm32f10x_rcc.o(i.RCC_GetClocksFreq)
    SysTick_Handler                          0x080009a1   Thumb Code    16  stm32f10x_it.o(i.SysTick_Handler)
    SystemInit                               0x080009b1   Thumb Code    78  system_stm32f10x.o(i.SystemInit)
    USART1_Init                              0x08000a11   Thumb Code   124  usart.o(i.USART1_Init)
    USART_Cmd                                0x08000a95   Thumb Code    24  stm32f10x_usart.o(i.USART_Cmd)
    USART_GetFlagStatus                      0x08000aad   Thumb Code    26  stm32f10x_usart.o(i.USART_GetFlagStatus)
    USART_Init                               0x08000ac9   Thumb Code   210  stm32f10x_usart.o(i.USART_Init)
    USART_SendData                           0x08000ba1   Thumb Code     8  stm32f10x_usart.o(i.USART_SendData)
    UsageFault_Handler                       0x08000ba9   Thumb Code     4  stm32f10x_it.o(i.UsageFault_Handler)
    __0printf$3                              0x08000bad   Thumb Code    22  printf3.o(i.__0printf$3)
    __1printf$3                              0x08000bad   Thumb Code     0  printf3.o(i.__0printf$3)
    __2printf                                0x08000bad   Thumb Code     0  printf3.o(i.__0printf$3)
    __scatterload_copy                       0x08000bcd   Thumb Code    14  handlers.o(i.__scatterload_copy)
    __scatterload_null                       0x08000bdb   Thumb Code     2  handlers.o(i.__scatterload_null)
    __scatterload_zeroinit                   0x08000bdd   Thumb Code    14  handlers.o(i.__scatterload_zeroinit)
    fputc                                    0x08000dbd   Thumb Code    32  usart.o(i.fputc)
    main                                     0x08000de1   Thumb Code    56  main.o(i.main)
    pvPortMalloc                             0x08001311   Thumb Code   262  heap_4.o(i.pvPortMalloc)
    pxPortInitialiseStack                    0x08001461   Thumb Code    30  port.o(i.pxPortInitialiseStack)
    uxListRemove                             0x08001485   Thumb Code    40  list.o(i.uxListRemove)
    uxTaskResetEventItemValue                0x080014ad   Thumb Code    24  tasks.o(i.uxTaskResetEventItemValue)
    vListInitialise                          0x080014c9   Thumb Code    26  list.o(i.vListInitialise)
    vListInitialiseItem                      0x080014e3   Thumb Code     6  list.o(i.vListInitialiseItem)
    vListInsert                              0x080014e9   Thumb Code    52  list.o(i.vListInsert)
    vListInsertEnd                           0x0800151d   Thumb Code    24  list.o(i.vListInsertEnd)
    vPortEnterCritical                       0x08001535   Thumb Code    68  port.o(i.vPortEnterCritical)
    vPortExitCritical                        0x080015b9   Thumb Code    48  port.o(i.vPortExitCritical)
    vPortFree                                0x08001625   Thumb Code   120  heap_4.o(i.vPortFree)
    vPortSetupTimerInterrupt                 0x080016d9   Thumb Code    26  port.o(i.vPortSetupTimerInterrupt)
    vTaskDelay                               0x080016f9   Thumb Code    72  tasks.o(i.vTaskDelay)
    vTaskDelete                              0x08001771   Thumb Code   192  tasks.o(i.vTaskDelete)
    vTaskPlaceOnUnorderedEventList           0x08001881   Thumb Code    80  tasks.o(i.vTaskPlaceOnUnorderedEventList)
    vTaskStartScheduler                      0x08001901   Thumb Code    98  tasks.o(i.vTaskStartScheduler)
    vTaskSuspendAll                          0x080019a9   Thumb Code    12  tasks.o(i.vTaskSuspendAll)
    vTaskSwitchContext                       0x080019b9   Thumb Code   110  tasks.o(i.vTaskSwitchContext)
    xEventGroupCreate                        0x08001a65   Thumb Code    26  event_groups.o(i.xEventGroupCreate)
    xEventGroupSetBits                       0x08001a81   Thumb Code   186  event_groups.o(i.xEventGroupSetBits)
    xEventGroupWaitBits                      0x08001b6d   Thumb Code   294  event_groups.o(i.xEventGroupWaitBits)
    xPortStartScheduler                      0x08001cc9   Thumb Code   140  port.o(i.xPortStartScheduler)
    xPortSysTickHandler                      0x08001d69   Thumb Code    46  port.o(i.xPortSysTickHandler)
    xTaskCreate                              0x08001d9d   Thumb Code    96  tasks.o(i.xTaskCreate)
    xTaskGetSchedulerState                   0x08001dfd   Thumb Code    24  tasks.o(i.xTaskGetSchedulerState)
    xTaskIncrementTick                       0x08001e1d   Thumb Code   272  tasks.o(i.xTaskIncrementTick)
    xTaskRemoveFromUnorderedEventList        0x08001f81   Thumb Code   134  tasks.o(i.xTaskRemoveFromUnorderedEventList)
    xTaskResumeAll                           0x08002045   Thumb Code   214  tasks.o(i.xTaskResumeAll)
    Region$$Table$$Base                      0x08002168   Number         0  anon$$obj.o(Region$$Table)
    Region$$Table$$Limit                     0x08002188   Number         0  anon$$obj.o(Region$$Table)
    SystemCoreClock                          0x20000000   Data           4  system_stm32f10x.o(.data)
    AHBPrescTable                            0x20000004   Data          16  system_stm32f10x.o(.data)
    pxCurrentTCB                             0x2000003c   Data           4  tasks.o(.data)
    __stdout                                 0x200000a0   Data           4  stdout.o(.data)
    __initial_sp                             0x20009788   Data           0  startup_stm32f10x_hd.o(STACK)



==============================================================================

Memory Map of the image

  Image Entry point : 0x08000131

  Load Region LR_IROM1 (Base: 0x08000000, Size: 0x0000222c, Max: 0x00080000, ABSOLUTE)

    Execution Region ER_IROM1 (Exec base: 0x08000000, Load base: 0x08000000, Size: 0x00002188, Max: 0x00080000, ABSOLUTE)

    Exec Addr    Load Addr    Size         Type   Attr      Idx    E Section Name        Object

    0x08000000   0x08000000   0x00000130   Data   RO            3    RESET               startup_stm32f10x_hd.o
    0x08000130   0x08000130   0x00000000   Code   RO         1601  * .ARM.Collect$$$$00000000  mc_w.l(entry.o)
    0x08000130   0x08000130   0x00000004   Code   RO         1869    .ARM.Collect$$$$00000001  mc_w.l(entry2.o)
    0x08000134   0x08000134   0x00000004   Code   RO         1872    .ARM.Collect$$$$00000004  mc_w.l(entry5.o)
    0x08000138   0x08000138   0x00000000   Code   RO         1874    .ARM.Collect$$$$00000008  mc_w.l(entry7b.o)
    0x08000138   0x08000138   0x00000000   Code   RO         1876    .ARM.Collect$$$$0000000A  mc_w.l(entry8b.o)
    0x08000138   0x08000138   0x00000008   Code   RO         1877    .ARM.Collect$$$$0000000B  mc_w.l(entry9a.o)
    0x08000140   0x08000140   0x00000004   Code   RO         1884    .ARM.Collect$$$$0000000E  mc_w.l(entry12b.o)
    0x08000144   0x08000144   0x00000000   Code   RO         1879    .ARM.Collect$$$$0000000F  mc_w.l(entry10a.o)
    0x08000144   0x08000144   0x00000000   Code   RO         1881    .ARM.Collect$$$$00000011  mc_w.l(entry11a.o)
    0x08000144   0x08000144   0x00000004   Code   RO         1870    .ARM.Collect$$$$00002712  mc_w.l(entry2.o)
    0x08000148   0x08000148   0x00000096   Code   RO         1436    .emb_text           port.o
    0x080001de   0x080001de   0x00000002   PAD
    0x080001e0   0x080001e0   0x00000024   Code   RO            4    .text               startup_stm32f10x_hd.o
    0x08000204   0x08000204   0x0000002c   Code   RO         1886    .text               mc_w.l(uidiv.o)
    0x08000230   0x08000230   0x00000024   Code   RO         1901    .text               mc_w.l(init.o)
    0x08000254   0x08000254   0x00000140   Code   RO          671    i.AppTaskCreate     main.o
    0x08000394   0x08000394   0x0000001c   Code   RO          672    i.BSP_Init          main.o
    0x080003b0   0x080003b0   0x00000004   Code   RO          759    i.BusFault_Handler  stm32f10x_it.o
    0x080003b4   0x080003b4   0x00000002   Code   RO          760    i.DebugMon_Handler  stm32f10x_it.o
    0x080003b6   0x080003b6   0x00000116   Code   RO          143    i.GPIO_Init         stm32f10x_gpio.o
    0x080004cc   0x080004cc   0x00000012   Code   RO          147    i.GPIO_ReadInputDataBit  stm32f10x_gpio.o
    0x080004de   0x080004de   0x00000004   Code   RO          151    i.GPIO_SetBits      stm32f10x_gpio.o
    0x080004e2   0x080004e2   0x00000004   Code   RO          761    i.HardFault_Handler  stm32f10x_it.o
    0x080004e6   0x080004e6   0x00000002   PAD
    0x080004e8   0x080004e8   0x00000044   Code   RO         1565    i.KEY_Init          key.o
    0x0800052c   0x0800052c   0x000000b4   Code   RO         1566    i.KEY_Scan          key.o
    0x080005e0   0x080005e0   0x00000098   Code   RO          673    i.Key_Task          main.o
    0x08000678   0x08000678   0x0000006c   Code   RO          674    i.LED0_Task         main.o
    0x080006e4   0x080006e4   0x00000070   Code   RO          675    i.LED1_Task         main.o
    0x08000754   0x08000754   0x00000054   Code   RO         1589    i.LED_Init          led.o
    0x080007a8   0x080007a8   0x00000004   Code   RO          762    i.MemManage_Handler  stm32f10x_it.o
    0x080007ac   0x080007ac   0x00000002   Code   RO          763    i.NMI_Handler       stm32f10x_it.o
    0x080007ae   0x080007ae   0x00000002   PAD
    0x080007b0   0x080007b0   0x00000014   Code   RO          256    i.NVIC_PriorityGroupConfig  misc.o
    0x080007c4   0x080007c4   0x00000020   Code   RO          295    i.RCC_APB2PeriphClockCmd  stm32f10x_rcc.o
    0x080007e4   0x080007e4   0x000000d4   Code   RO          303    i.RCC_GetClocksFreq  stm32f10x_rcc.o
    0x080008b8   0x080008b8   0x00000008   Code   RO           24    i.SetSysClock       system_stm32f10x.o
    0x080008c0   0x080008c0   0x000000e0   Code   RO           25    i.SetSysClockTo72   system_stm32f10x.o
    0x080009a0   0x080009a0   0x00000010   Code   RO          764    i.SysTick_Handler   stm32f10x_it.o
    0x080009b0   0x080009b0   0x00000060   Code   RO           27    i.SystemInit        system_stm32f10x.o
    0x08000a10   0x08000a10   0x00000084   Code   RO         1513    i.USART1_Init       usart.o
    0x08000a94   0x08000a94   0x00000018   Code   RO          495    i.USART_Cmd         stm32f10x_usart.o
    0x08000aac   0x08000aac   0x0000001a   Code   RO          498    i.USART_GetFlagStatus  stm32f10x_usart.o
    0x08000ac6   0x08000ac6   0x00000002   PAD
    0x08000ac8   0x08000ac8   0x000000d8   Code   RO          502    i.USART_Init        stm32f10x_usart.o
    0x08000ba0   0x08000ba0   0x00000008   Code   RO          512    i.USART_SendData    stm32f10x_usart.o
    0x08000ba8   0x08000ba8   0x00000004   Code   RO          765    i.UsageFault_Handler  stm32f10x_it.o
    0x08000bac   0x08000bac   0x00000020   Code   RO         1697    i.__0printf$3       mc_w.l(printf3.o)
    0x08000bcc   0x08000bcc   0x0000000e   Code   RO         1913    i.__scatterload_copy  mc_w.l(handlers.o)
    0x08000bda   0x08000bda   0x00000002   Code   RO         1914    i.__scatterload_null  mc_w.l(handlers.o)
    0x08000bdc   0x08000bdc   0x0000000e   Code   RO         1915    i.__scatterload_zeroinit  mc_w.l(handlers.o)
    0x08000bea   0x08000bea   0x00000002   PAD
    0x08000bec   0x08000bec   0x000001b8   Code   RO         1704    i._printf_core      mc_w.l(printf3.o)
    0x08000da4   0x08000da4   0x00000016   Code   RO         1567    i.delay_ms          key.o
    0x08000dba   0x08000dba   0x00000002   PAD
    0x08000dbc   0x08000dbc   0x00000024   Code   RO         1519    i.fputc             usart.o
    0x08000de0   0x08000de0   0x00000074   Code   RO          676    i.main              main.o
    0x08000e54   0x08000e54   0x00000098   Code   RO         1097    i.prvAddCurrentTaskToDelayedList  tasks.o
    0x08000eec   0x08000eec   0x000000b4   Code   RO         1098    i.prvAddNewTaskToReadyList  tasks.o
    0x08000fa0   0x08000fa0   0x00000064   Code   RO         1099    i.prvCheckTasksWaitingTermination  tasks.o
    0x08001004   0x08001004   0x00000012   Code   RO         1100    i.prvDeleteTCB      tasks.o
    0x08001016   0x08001016   0x00000002   PAD
    0x08001018   0x08001018   0x0000007c   Code   RO         1387    i.prvHeapInit       heap_4.o
    0x08001094   0x08001094   0x00000028   Code   RO         1101    i.prvIdleTask       tasks.o
    0x080010bc   0x080010bc   0x000000c4   Code   RO         1102    i.prvInitialiseNewTask  tasks.o
    0x08001180   0x08001180   0x00000068   Code   RO         1103    i.prvInitialiseTaskLists  tasks.o
    0x080011e8   0x080011e8   0x00000068   Code   RO         1388    i.prvInsertBlockIntoFreeList  heap_4.o
    0x08001250   0x08001250   0x00000034   Code   RO         1104    i.prvResetNextTaskUnblockTime  tasks.o
    0x08001284   0x08001284   0x0000006c   Code   RO         1437    i.prvTaskExitError  port.o
    0x080012f0   0x080012f0   0x0000001e   Code   RO          819    i.prvTestWaitCondition  event_groups.o
    0x0800130e   0x0800130e   0x00000002   PAD
    0x08001310   0x08001310   0x00000150   Code   RO         1389    i.pvPortMalloc      heap_4.o
    0x08001460   0x08001460   0x00000024   Code   RO         1438    i.pxPortInitialiseStack  port.o
    0x08001484   0x08001484   0x00000028   Code   RO          912    i.uxListRemove      list.o
    0x080014ac   0x080014ac   0x0000001c   Code   RO         1110    i.uxTaskResetEventItemValue  tasks.o
    0x080014c8   0x080014c8   0x0000001a   Code   RO          913    i.vListInitialise   list.o
    0x080014e2   0x080014e2   0x00000006   Code   RO          914    i.vListInitialiseItem  list.o
    0x080014e8   0x080014e8   0x00000034   Code   RO          915    i.vListInsert       list.o
    0x0800151c   0x0800151c   0x00000018   Code   RO          916    i.vListInsertEnd    list.o
    0x08001534   0x08001534   0x00000084   Code   RO         1440    i.vPortEnterCritical  port.o
    0x080015b8   0x080015b8   0x0000006c   Code   RO         1441    i.vPortExitCritical  port.o
    0x08001624   0x08001624   0x000000b4   Code   RO         1390    i.vPortFree         heap_4.o
    0x080016d8   0x080016d8   0x00000020   Code   RO         1442    i.vPortSetupTimerInterrupt  port.o
    0x080016f8   0x080016f8   0x00000078   Code   RO         1111    i.vTaskDelay        tasks.o
    0x08001770   0x08001770   0x00000110   Code   RO         1113    i.vTaskDelete       tasks.o
    0x08001880   0x08001880   0x00000080   Code   RO         1118    i.vTaskPlaceOnUnorderedEventList  tasks.o
    0x08001900   0x08001900   0x000000a8   Code   RO         1122    i.vTaskStartScheduler  tasks.o
    0x080019a8   0x080019a8   0x00000010   Code   RO         1124    i.vTaskSuspendAll   tasks.o
    0x080019b8   0x080019b8   0x000000ac   Code   RO         1125    i.vTaskSwitchContext  tasks.o
    0x08001a64   0x08001a64   0x0000001a   Code   RO          824    i.xEventGroupCreate  event_groups.o
    0x08001a7e   0x08001a7e   0x00000002   PAD
    0x08001a80   0x08001a80   0x000000ec   Code   RO          826    i.xEventGroupSetBits  event_groups.o
    0x08001b6c   0x08001b6c   0x0000015c   Code   RO          828    i.xEventGroupWaitBits  event_groups.o
    0x08001cc8   0x08001cc8   0x000000a0   Code   RO         1444    i.xPortStartScheduler  port.o
    0x08001d68   0x08001d68   0x00000034   Code   RO         1445    i.xPortSysTickHandler  port.o
    0x08001d9c   0x08001d9c   0x00000060   Code   RO         1127    i.xTaskCreate       tasks.o
    0x08001dfc   0x08001dfc   0x00000020   Code   RO         1130    i.xTaskGetSchedulerState  tasks.o
    0x08001e1c   0x08001e1c   0x00000164   Code   RO         1133    i.xTaskIncrementTick  tasks.o
    0x08001f80   0x08001f80   0x000000c4   Code   RO         1137    i.xTaskRemoveFromUnorderedEventList  tasks.o
    0x08002044   0x08002044   0x00000124   Code   RO         1138    i.xTaskResumeAll    tasks.o
    0x08002168   0x08002168   0x00000020   Data   RO         1911    Region$$Table       anon$$obj.o


    Execution Region RW_IRAM1 (Exec base: 0x20000000, Load base: 0x08002188, Size: 0x00009788, Max: 0x00010000, ABSOLUTE)

    Exec Addr    Load Addr    Size         Type   Attr      Idx    E Section Name        Object

    0x20000000   0x08002188   0x00000014   Data   RW           28    .data               system_stm32f10x.o
    0x20000014   0x0800219c   0x00000014   Data   RW          323    .data               stm32f10x_rcc.o
    0x20000028   0x080021b0   0x00000014   Data   RW          677    .data               main.o
    0x2000003c   0x080021c4   0x0000003c   Data   RW         1141    .data               tasks.o
    0x20000078   0x08002200   0x00000018   Data   RW         1395    .data               heap_4.o
    0x20000090   0x08002218   0x0000000c   Data   RW         1446    .data               port.o
    0x2000009c   0x08002224   0x00000001   Data   RW         1568    .data               key.o
    0x2000009d   0x08002225   0x00000003   PAD
    0x200000a0   0x08002228   0x00000004   Data   RW         1885    .data               mc_w.l(stdout.o)
    0x200000a4        -       0x000002e4   Zero   RW         1140    .bss                tasks.o
    0x20000388        -       0x00009000   Zero   RW         1394    .bss                heap_4.o
    0x20009388        -       0x00000400   Zero   RW            1    STACK               startup_stm32f10x_hd.o


==============================================================================

Image component sizes


      Code (inc. data)   RO Data    RW Data    ZI Data      Debug   Object Name

         0          0          0          0          0       4516   core_cm3.o
       640        104          0          0          0      11587   event_groups.o
       744        168          0         24      36864       3759   heap_4.o
       270         22          0          1          0       1558   key.o
        84          8          0          0          0        507   led.o
       148          0          0          0          0       3054   list.o
       836        402          0         20          0      14015   main.o
        20         10          0          0          0        507   misc.o
       778        234          0         12          0       9316   port.o
        36          8        304          0       1024        860   startup_stm32f10x_hd.o
       300          0          0          0          0       3091   stm32f10x_gpio.o
        36          0          0          0          0       3003   stm32f10x_it.o
       244         26          0         20          0       3829   stm32f10x_rcc.o
       274          6          0          0          0       3976   stm32f10x_usart.o
       328         28          0         20          0     228521   system_stm32f10x.o
      2718        714          0         60        740      24389   tasks.o
       168         12          0          0          0       2466   usart.o

    ----------------------------------------------------------------------
      7640       1742        336        160      38628     318954   Object Totals
         0          0         32          0          0          0   (incl. Generated)
        16          0          0          3          0          0   (incl. Padding)

    ----------------------------------------------------------------------

      Code (inc. data)   RO Data    RW Data    ZI Data      Debug   Library Member Name

         0          0          0          0          0          0   entry.o
         0          0          0          0          0          0   entry10a.o
         0          0          0          0          0          0   entry11a.o
         4          0          0          0          0          0   entry12b.o
         8          4          0          0          0          0   entry2.o
         4          0          0          0          0          0   entry5.o
         0          0          0          0          0          0   entry7b.o
         0          0          0          0          0          0   entry8b.o
         8          4          0          0          0          0   entry9a.o
        30          0          0          0          0          0   handlers.o
        36          8          0          0          0         68   init.o
       472         14          0          0          0        184   printf3.o
         0          0          0          4          0          0   stdout.o
        44          0          0          0          0         80   uidiv.o

    ----------------------------------------------------------------------
       608         30          0          4          0        332   Library Totals
         2          0          0          0          0          0   (incl. Padding)

    ----------------------------------------------------------------------

      Code (inc. data)   RO Data    RW Data    ZI Data      Debug   Library Name

       606         30          0          4          0        332   mc_w.l

    ----------------------------------------------------------------------
       608         30          0          4          0        332   Library Totals

    ----------------------------------------------------------------------

==============================================================================


      Code (inc. data)   RO Data    RW Data    ZI Data      Debug   

      8248       1772        336        164      38628     315746   Grand Totals
      8248       1772        336        164      38628     315746   ELF Image Totals
      8248       1772        336        164          0          0   ROM Totals

==============================================================================

    Total RO  Size (Code + RO Data)                 8584 (   8.38kB)
    Total RW  Size (RW Data + ZI Data)             38792 (  37.88kB)
    Total ROM Size (Code + RO Data + RW Data)       8748 (   8.54kB)

==============================================================================

