:020000040800F2
:100000007032002075020008710900086B080008B2
:100010006D0900083D070008150F000800000000EA
:10002000000000000000000000000000DD010008EA
:10003000410700080000000021020008510C0008E0
:100040008F0200088F0200088F0200088F0200084C
:100050008F0200088F0200088F0200088F0200083C
:100060008F0200088F0200088F0200088F0200082C
:100070008F0200088F0200088F0200088F0200081C
:100080008F0200088F0200088F0200088F0200080C
:100090008F0200088F0200088F0200088F020008FC
:1000A0008F0200088F0200088F0200088F020008EC
:1000B0008F0200088F0200088F0200088F020008DC
:1000C0008F0200088F0200088F0200088F020008CC
:1000D0008F0200088F0200088F0200088F020008BC
:1000E0008F0200088F0200088F0200088F020008AC
:1000F0008F0200088F0200088F0200088F0200089C
:100100008F0200088F0200088F0200088F0200088B
:100110008F0200088F0200088F0200088F0200087B
:100120008F0200088F0200088F0200088F0200086B
:1001300000F002F800F042F80AA090E8000C8244B7
:100140008344AAF10107DA4501D100F037F8AFF294
:10015000090EBAE80F0013F0010F18BFFB1A43F0A5
:100160000103184784370000A4370000103A24BF69
:1001700078C878C1FAD8520724BF30C830C144BF0C
:1001800004680C607047000000230024002500264E
:10019000103A28BF78C1FBD8520728BF30C148BFEA
:1001A0000B607047642900F0F180732900F026820B
:1001B000002070471FB51FBD10B510BD00F08CFAB0
:1001C0001146FFF7F7FF00F05FFF00F0AAFA03B453
:1001D000FFF7F2FF03BC00F09FFE0000224B1968FE
:1001E0000868B0E8F00F80F30988BFF36F8F4FF015
:1001F000000080F311884EF00D0E704700000000E3
:1002000006480068006880F3088862B661B6BFF3EC
:100210004F8FBFF36F8F00DF00BF00BF08ED00E01E
:10022000EFF30980BFF36F8F0F4B1A6820E9F00FCF
:10023000106008B54FF0500080F31188BFF34F8F66
:10024000BFF36F8F02F038FA4FF0000080F311888F
:10025000BDE8084019680868B0E8F00F80F3098825
:10026000BFF36F8F704700BF44000020EFF305809D
:10027000704700000948804709480047FEE7FEE74D
:10028000FEE7FEE7FEE7FEE7FEE7FEE7FEE7FEE746
:1002900004480549054A064B70470000B50C0008A4
:1002A00031010008702C002070320020702E0020D8
:1002B000702E0020704700000FB4044910B503AA47
:1002C000029800F09FF910BC5DF814FB18000020A4
:1002D0002DE9F0410E460446002020622046E168E8
:1002E000884730B3252805D0D4E901219047206AFA
:1002F000401CF2E7E168204600278847050018D037
:10030000A5F14100192802D820354FF40067324684
:10031000294620462760FFF745FF40B1012804D059
:10032000F61D26F007060836D8E7361DD6E728461C
:10033000DAE7206ABDE8F08170B50C460546012A6F
:1003400005D02878800600D5EA69002302E0012361
:1003500005E05B1C934202D2E05C0028F9D1A86959
:10036000E618C01AA861286A184428622846AFF324
:10037000008004E0D5E9012114F8010B9047B44254
:10038000F8D32846AFF3008070BD00002DE9F0419E
:100390000646002410687529314616A510D0AFF323
:1003A0000080002802DA404213A507E031688A077E
:1003B00001D512A502E0490704D511A5012401E0E9
:1003C000AFF3008000210A2206F1240709E0B0FB08
:1003D000F2FCB0FBF2F302FB1C00303078541846FC
:1003E000491C0028F3D123462A463046BDE8F04197
:1003F00000F080B8000000002D0000002B0000007D
:1004000020000000032A40F2308010F0030C00F0BE
:10041000158011F8013BBCF1020F624498BF11F83E
:1004200001CB00F8013B38BF11F8013BA2F10402F7
:1004300098BF00F801CB38BF00F8013B11F003036F
:1004400000F0F280083AC0F0088051F8043B083A06
:1004500051F804CBA0E80810F5E7121D5CBF51F875
:10046000043B40F8043BAFF30080D20724BF11F8EF
:10047000013B11F801CB48BF11F8012B24BF00F854
:10048000013B00F801CB48BF00F8012B704702F098
:10049000FF0343EA032242EA024200F0F9B84FF0B8
:1004A000000200B5134694469646203922BFA0E8C4
:1004B0000C50A0E80C50B1F12001BFF4F7AF0907D0
:1004C00028BFA0E80C5048BF0CC05DF804EB8900C1
:1004D00028BF40F8042B08BF704748BF20F8022B04
:1004E00011F0804F18BF00F8012B7047704770471C
:1004F000704770472DE9F0470D46994692460446ED
:1005000000F124080168880604D5E06921F0100193
:10051000216000E00120A84201DD471B00E0002728
:10052000A1697A1902EB0900081AA0612078C006B7
:1005300002D42046AFF30080002608E0D4E9012170
:100540001AF806009047206A401C761C20624E452F
:10055000F4DB2078C0060AD52046AFF3008006E021
:10056000D4E9012130209047206A401C2062381EC7
:10057000A7F10107F4DC07E0D4E9012118F8050030
:100580009047206A401C2062281EA5F10105F3DC7B
:100590002046AFF300802078000602D50220BDE897
:1005A000F0870120FBE7000001694A1C026108781E
:1005B000704700B58FB0CDE90131002105910549A3
:1005C0007944CDE9031011466846FFF781FE0FB06C
:1005D00000BD0000E5FFFFFF10B5436913B1AFF3A5
:1005E000008001E0FFF7A8FE012010BD127800F1A5
:1005F00024010A7000224A700122EDE711684FF0D1
:10060000FF32E9E7074B70B50D467B44FFF7D1FF9A
:100610000446284600F05CF810B14FF0FF3070BD82
:10062000204670BD6F09000010B5203AC0F00B8065
:10063000B1E81850203AA0E81850B1E81850A0E8E6
:100640001850BFF4F5AF5FEA027C24BFB1E8185040
:10065000A0E8185044BF18C918C0BDE810405FEAB0
:10066000827C24BF51F8043B40F8043B08BF70472C
:10067000D20728BF31F8023B48BF11F8012B28BF31
:1006800020F8023B48BF00F8012B70474FF00002F2
:100690000429C0F0128010F0030C3FF402AFCCF13B
:1006A000040CBCF1020F18BF00F8012BA8BF20F802
:1006B000022BA1EB0C01FFF7F4BE5FEAC17C24BF63
:1006C00000F8012B00F8012B48BF00F8012B704700
:1006D000007B00F080007047754600F02BF8AE46B6
:1006E00005006946534620F00700854618B020B53E
:1006F000FFF7CEFDBDE820404FF000064FF00007A9
:100700004FF000084FF0000B21F00701AC46ACE8B9
:10071000C009ACE8C009ACE8C009ACE8C0098D4626
:10072000704710B50446AFF300802046BDE8104086
:10073000FFF74DBD00487047102C002000BFFEE7BA
:1007400070472DE9F04102460025002600200023D5
:100750000024002791F803C00CF00F0591F803C0A6
:100760000CF0100CBCF1000F03D091F802C04CEA61
:10077000050591F800C0BCF1000F31D014680020CD
:100780002BE04FF0010C0CFA00F3B1F800C00CEABA
:1007900003069E4220D183004FF00F0C0CFA03F7A2
:1007A000BC4305FA03FC4CEA040491F803C0BCF115
:1007B000280F06D14FF0010C0CFA00FCC2F814C04F
:1007C0000AE091F803C0BCF1480F05D14FF0010CCD
:1007D0000CFA00FCC2F810C0401C0828D1D31460E9
:1007E000B1F800C0BCF1FF0F34DD546800202EE0EA
:1007F00000F1080C4FF0010808FA0CF3B1F800C042
:100800000CEA03069E4221D183004FF00F0C0CFA34
:1008100003F7BC4305FA03FC4CEA040491F803C057
:10082000BCF1280F05D100F1080C08FA0CF8C2F849
:10083000148091F803C0BCF1480F07D100F1080CF7
:100840004FF0010808FA0CF8C2F81080401C082884
:10085000CED35460BDE8F0810246002093680B407F
:100860000BB1012000E00020704700BFFEE7000050
:1008700008B50121042000F087F80121402000F094
:1008800083F81820ADF8000048208DF80300694671
:100890000648FFF756FF0120ADF8000028208DF82C
:1008A000030069460248FFF74CFF08BD00180140ED
:1008B0000008014010B500242948007800283AD0EB
:1008C00001212848FFF7C8FF012809D01021264838
:1008D000FFF7C2FF20B108212348FFF7BDFF10BB7F
:1008E0000A2000F01BFB01211E48FFF7B5FF01287D
:1008F00009D010211C48FFF7AFFF20B108211A488A
:10090000FFF7AAFF78B90020154908701021164892
:10091000FFF7A2FF08B901240DE008211248FFF7F4
:100920009BFF08B9022406E001210E48FFF794FF5F
:10093000012800D1032401210A48FFF78DFF68B97F
:1009400010210948FFF788FF012807D10821064830
:10095000FFF782FF012801D101490870204610BD30
:1009600030000020000801400018014000BFFEE7F1
:100970007047000002490143024A116070470000BD
:100980000000FA050CED00E029B1064A9269024325
:10099000044B9A6104E0034A92698243014B9A61D5
:1009A000704700000010024030B5002100220024F2
:1009B00000232D4D6D6805F00C0121B1042905D0EF
:1009C000082923D105E0294D056022E0274D056067
:1009D0001FE0254D6D6805F47012234D6D6805F418
:1009E0008034022505EB92421CB9214D5543056028
:1009F0000BE01D4D6D6805F400351DB11C4D5543D0
:100A0000056002E0194D5543056002E0174D056091
:100A100000BF00BF144D6D6805F0F0010909154DC8
:100A20006B5C0568DD4045600F4D6D6805F4E06165
:100A3000090A104D6B5C4568DD4085600A4D6D68A4
:100A400005F46051C90A0B4D6B5C4568DD40C5601B
:100A5000054D6D6805F44041890B074D6B5CC56819
:100A6000B5FBF3F5056130BD0010024000127A00BD
:100A700000093D001C0000202C00002010B500F0F3
:100A800001F810BD0CB500200190009033480068BB
:100A900040F480303149086000BF3048006800F4FD
:100AA000003000900198401C0190009818B90198FE
:100AB000B0F5A06FF1D12948006800F4003010B102
:100AC0000120009001E0002000900098012843D10F
:100AD0002348006840F0100021490860084600687B
:100AE00020F0030008600846006840F0020008603B
:100AF0001A484068194948600846406848600846F6
:100B0000406840F4806048600846406820F47C10EB
:100B100048600846406840F4E810486008460068AD
:100B200040F08070086000BF0C48006800F0007062
:100B30000028F9D00948406820F0030007494860C0
:100B40000846406840F00200486000BF0348406823
:100B500000F00C000828F9D10CBD00000010024084
:100B6000002002407CB50546012401F0BDF917487C
:100B7000012100234022CDE9001015A1164802F002
:100B8000BBFA0446012C03D114A0FFF795FB02E049
:100B900018A0FFF791FB1D48022100234022CDE958
:100BA00000101BA11C4802F0A7FA0446012C03D137
:100BB0001AA0FFF781FB02E01EA0FFF77DFB234890
:100BC000006801F04DFB01F0D9F97CBD3C0000202C
:100BD0005461736B31000000150D00085461736B94
:100BE00031C8CECEF1B4B4BDA8B3C9B9A6210D0A9F
:100BF000000000005461736B31C8CECEF1B4B4BDB7
:100C0000A8CAA7B0DC210D0A0000000040000020A7
:100C10005461736B32000000790D00085461736BEE
:100C200032C8CECEF1B4B4BDA8B3C9B9A6210D0A5D
:100C3000000000005461736B32C8CECEF1B4B4BD75
:100C4000A8CAA7B0DC210D0A00000000380000206F
:100C500010B502F081FA012801D001F031FE10BD7B
:100C600010B500224FF0E0231A611A46126922F0F3
:100C700004021A61C31700EB5373C3F3CF030C4C88
:100C80002380C31700EB5373D9104FF47A7251438A
:100C90004FF0E022126942F002024FF0E0231A61A5
:100CA0001A465161126942F001021A6110BD00003A
:100CB0001400002010B51348006840F001001149ED
:100CC000086008464068104908400E4948600846D8
:100CD00000680E4908400B4908600846006820F487
:100CE000802008600846406820F4FE0048604FF409
:100CF0001F008860FFF7C2FE4FF0006004490860E3
:100D000010BD0000001002400000FFF8FFFFF6FEDB
:100D100008ED00E015E04FF0FF310A48006802F0EE
:100D20009FF80446012C09D10648006801F07AF8C2
:100D30000546294604A0FFF7BFFA02E008A0FFF726
:100D4000BBFAE8E734000020D0C5BAC5C1BFB5C4BE
:100D5000BCC6CAFDD6B5CEAAA3BA25640D0A00004A
:100D6000BCC6CAFDD0CDD0C5BAC5C1BFBBF1C8A1F4
:100D7000CAA7B0DC0D0A0000002410E0FFF79AFDBE
:100D800004464CB10648006830B100231A461946A3
:100D90000348006801F0AEFE0A2001F01DFAEDE7FD
:100DA0003400002010B586B00446012144F204004E
:100DB000FFF7EAFD4FF40070ADF8140018208DF82D
:100DC000170003208DF8160005A91448FFF7B9FC99
:100DD0004FF48060ADF8140004208DF81700032054
:100DE0008DF8160005A90D48FFF7ABFC0194002013
:100DF000ADF80800ADF80A00ADF80C00ADF8100031
:100E00000C20ADF80E0001A9054800F017F80121EB
:100E1000034800F007F806B010BD000000080140CC
:100E20000038014021B1828942F40052828104E0FD
:100E300082894DF6FF731A40828170472DE9F04791
:100E400086B005460E460024A24600BFA1460027F4
:100E5000B08900B100BF2F462C8A4CF6FF700440C9
:100E6000F08804432C82AC894EF6F3100440B0881D
:100E700031890843718908430443AC81AC8A4FF639
:100E8000FF400440B0890443AC8201A8FFF78CFD09
:100E90001F48874202D1DDF810A001E0DDF80CA068
:100EA000A88900F4004040B10AEBCA0000EB0A1028
:100EB00031684900B0FBF1F807E00AEBCA0000EB2B
:100EC0000A1031688900B0FBF1F86420B8FBF0F03B
:100ED00004012009642101FB1089A88900F4004065
:100EE00040B1322000EBC900B0FBF1F000F0070088
:100EF000044308E0322000EB09106421B0FBF1F05C
:100F000000F00F0004432C8106B0BDE8F08700001C
:100F10000038014000BFFEE700BF704730B504460F
:100F2000002504E04FF47A7000F004F86D1CA5422F
:100F3000F8D330BD70B5034600224FF0E026756946
:100F40000D4E368803FB06F44FF0E026B16910E041
:100F50004FF0E026B06988420BD0884202D20E1AC8
:100F6000324402E02E1A0E4432440146A24200D31B
:100F700000E0EDE700BF70BD1400002000BF054A8F
:100F8000128802F04002002AF9D0C2B2014B1B1DA8
:100F90001A807047003801401CB5012400216420EC
:100FA00001F0A8FC114908600846006818B110A0BB
:100FB000FFF782F902E016A0FFF77EF91C48012135
:100FC00000234022CDE900101AA11E4802F094F837
:100FD0000446012C03D11CA0FFF76EF902E022A009
:100FE000FFF76AF901F0FCFA1CBD00003400002094
:100FF000BCC6CAFDD0CDD0C5BAC5C1BFB4B4BDA8AA
:10100000B3C9B9A6A3A1A3A1A3A10D0A0000000022
:10101000BCC6CAFDD0CDD0C5BAC5C1BFB4B4BDA889
:10102000CAA7B0DCA3A1A3A1A3A10D0A00000000E0
:101030003800002053746172745461736B4372659D
:1010400061746500650B00085374617274546173B8
:101050006B437265617465C8CECEF1B4B4BDA8B3FC
:10106000C9B9A6210D0A00005374617274546173EA
:101070006B437265617465C8CECEF1B4B4BDA8CAC5
:10108000A7B0DC210D0A000010B54FF44070FFF747
:1010900071FC4820FFF7E4FD4FF4E130FFF782FEDA
:1010A000FFF7E6FBFFF778FF002010BD2DE9F041C8
:1010B00005460E462948076800202949096881F835
:1010C000590027480068001D00F098FE50B92448D8
:1010D000006890F82C10012088402249096881435B
:1010E00020480160681CD8B9D6B11F4948681C491E
:1010F000096888601A4982680968CA6018490968DD
:10110000091D8268516016490968091D8160164AE7
:10111000134909684A6111460968491C11601AE0BF
:101120007C190F4800684460BC4207D20C48016833
:10113000091D0E48006800F0B1FE0CE00848016887
:10114000091D0B48006800F0A9FE0A4800688442A7
:1011500001D208480460BDE8F0810000580000207A
:10116000440000205C000020D40300204C0000203C
:10117000480000207400002010B5044600F0B4FEC2
:1011800031480068401C304908603048006840B968
:101190002E4804600846006801280DD100F022FAAC
:1011A0000AE02B48006838B928480068C06AE16A3C
:1011B000884201D82548046026480068401C25491B
:1011C000086008460068606494F82C10012088408C
:1011D00021490968084320490860E16A01EB81015F
:1011E0001E4A02EB81014868A0608268E260211D0E
:1011F000826851608160E16A01EB8101174A02EB6C
:1012000081026261E16A01EB8101144A52F8211006
:10121000491CE26A02EB8202104B43F8221000F0F4
:10122000ADFE0B48006868B108480068C06AE16A12
:10123000884207D24FF0805009490860BFF34F8FB2
:10124000BFF36F8F10BD0000540000204400002049
:1012500060000020700000205C00002004010020DD
:1012600004ED00E010B500F03FFE10480068D0B972
:101270000F4800F003FE0F4800F000FE0C480E4936
:1012800008600C480D49086000221021052001F07B
:1012900067FB064908600846006820B108A10348BA
:1012A000006800F02BFF00F069FE10BD8C000020EC
:1012B000E8030020FC0300208400002088000020B8
:1012C000546D72510000000010B516E000F00CFEE5
:1012D0000C48C068C468201D00F090FD0A480068F2
:1012E000401E0949086009480068401E0749086017
:1012F00000F044FE204600F05FF804480068002833
:10130000E4D110BDC0030020540000205000002094
:1013100070B504460D46206C70B1216CE068014444
:10132000E160D4E90210884201D32168E1602846D7
:10133000226CE168FFF766F870BD2DE9F0410446C4
:101340000F4615464FF00008A66B206C48B9206880
:1013500000282CD1A06802F00BF880460020A06085
:1013600025E07DB93946226C6068FFF74BF8216CA7
:10137000606808446060D4E90101884217D320689E
:10138000606014E03946226CE068FFF73BF8216C9E
:10139000E068411AE1602168E068884203D2216C6C
:1013A000A068411AE160022D01D106B1761E701CC1
:1013B000A0634046BDE8F08110B50446206B00F004
:1013C0001BFE204600F018FE10BD01464A6A22B1FD
:1013D0000A6B1268C2F1200000E000207047000094
:1013E0000146084A126812680AB9012200E0002288
:1013F0000A600A6822B9034A1268D268106800E0DD
:10140000002070478400002030B54FF42053174867
:1014100000F007042CB1C01D20F00700134C041B82
:101420001B1B0246124C22600024114D6C60D01828
:10143000083820F007000F4C206000240D4D2D6867
:101440006C600C4D2D682C601146441A4C60094CA0
:1014500024680C60084D4C682C60084D4C682C606A
:101460004FF00044064D2C6030BD000010040020F9
:10147000A4000020AC000020B4000020B000002038
:10148000C000002000BFFFF71FFF064800680128CA
:10149000F9D94FF0805004490860BFF34F8FBFF374
:1014A0006F8FF0E70401002004ED00E02DE9F0412A
:1014B00006460D4617469846069C0DB9246000E086
:1014C0002760E66325640121204601F093FA84F841
:1014D00050800020A064BDE8F08100002DE9F05F9D
:1014E00082460F4690469B460A9E0C9C4FEA880116
:1014F000A522206BFEF7CBFFA8F10100216B01EBC9
:10150000800929F0070909F0070008B9012000E067
:10151000002028B94FF4587224A12EA0FEF7CCFE6B
:1015200087B1002507E0795D04F134004155785D0D
:1015300000B902E06D1C102DF5D300BF002143203F
:10154000015502E0002084F83400202E01D2012051
:1015500000E0002028B940F2973214A11DA0FEF748
:10156000ABFE202E00D31F26E662E6640020206535
:10157000201D00F090FC04F1180000F08CFC2461A8
:10158000C6F12000A06164620020606584F8580004
:1015900084F859005A465146484600F01DFC206028
:1015A0000B9808B10B980460BDE8F09F2E2E5C2EBE
:1015B0002E5C4D6964646C6577617265735C46721C
:1015C000656552544F535C7372635C7461736B73E3
:1015D0002E6300004572726F723A2025732C20250D
:1015E000640D0A0010B5002407E004EB84010F4AE3
:1015F00002EB810000F042FC641C202CF5D30C4867
:1016000000F03CFC0B4800F039FC0B4800F036FCC5
:101610000A4800F033FC0A4800F030FC044809494D
:10162000086004480849086010BD0000040100205B
:101630008403002098030020AC030020C003002096
:10164000D4030020480000204C00002010B50146C3
:10165000164800E0006803688B42FBD302464368EB
:1016600013448B4204D143684C68234443600146D1
:101670000A464B6813440468A34211D10C4C03681A
:101680002468A34208D04B680468646823444B6014
:1016900003681B680B6005E0054B1B680B6001E0ED
:1016A00003680B60884200D0016010BDA4000020D8
:1016B000AC0000202DE9F04104460D4616461F46B9
:1016C0004FF0000865602461B5420CD8F01BA16999
:1016D000884202D34FF0010811E0211D094800683B
:1016E00000F0DCFB0BE0BE4204D2BD4202D34FF05F
:1016F000010804E0211D0448006800F0CFFB4046CB
:10170000BDE8F081880000208400002070B5054607
:1017100000F0EAFBA86B08B9012400E0002400F007
:101720002DFC204670BD70B5054600F0DDFBA86BB2
:10173000E96B884201D1012400E0002400F01EFC86
:10174000204670BDF1B50098846C00262CB940F697
:10175000D43220A129A0FEF7AFFDA06BE16B884237
:1017600001D2012000E0002028B940F6D53219A1AD
:1017700022A0FEF7A1FDA06BE16B884227D294F96D
:101780004550002269462046FFF7D7FD0646681CF3
:1017900060B9606A08B9012000E00020B0B904F126
:1017A000240001F0E5FE88B101260FE07F2D01D075
:1017B000012000E0002028B940F6F53205A10FA075
:1017C000FEF77AFD681C40B284F8450000BF304641
:1017D000F8BD00002E2E5C2E2E5C4D6964646C6595
:1017E00077617265735C4672656552544F535C73E2
:1017F00072635C71756575652E6300004572726F6A
:10180000723A2025732C2025640D0A0070B5054618
:101810000E460E480068C068C468201D00F0EEFA4D
:1018200094F8280000F0040028B1324629462046EA
:1018300000F000F905E094F8280000F0FE0084F8BC
:1018400028002046216A884770BD000084000020DF
:1018500070B586B08AE0029800280CDA03AE2EB983
:1018600040F2063247A151A0FEF726FDD6E900203E
:10187000B168904700BF0298002877DB049C60693C
:1018800008B9012000E0002010B9201D00F0B6FAD0
:1018900001A800F0FBF8054602980A2864D2DFE8A8
:1018A00000F06305072E365306082F3700BF00BF30
:1018B00000BF94F8280040F0010084F82800039845
:1018C000A269811803462A462046FFF7F3FEA8B115
:1018D00094F8280000F0040038B10398A269811838
:1018E0002A46204600F0A6F805E094F8280000F00B
:1018F000FE0084F828002046216A884735E000BFB2
:1019000094F8280000F0FE0084F828002DE000BFC5
:1019100094F8280040F0010084F828000398A061A2
:10192000A06908B1012000E0002028B940F2593236
:1019300014A11EA0FEF7C0FCA06941192B462A463F
:101940002046FFF7B7FE10E094F8280000F00200F0
:1019500018B9204600F050FB05E094F8280000F08C
:10196000FE0084F8280000E000BF00BF002202A9AA
:101970001248006801F0B2F900287FF46CAF06B09D
:1019800070BD00002E2E5C2E2E5C4D6964646C656B
:1019900077617265735C4672656552544F535C7330
:1019A00072635C74696D6572732E63004572726F49
:1019B000723A2025732C2025640D0A008C0000202B
:1019C000F8B505460C4600F06FFE684600F05EF87C
:1019D0000646009820BB44B9B54206D801F070FE17
:1019E00031462846FFF712FF1CE03CB10E48006864
:1019F000006808B9012000E000200446A91B224627
:101A00000A48006800F0C2FB01F05AFE50B94FF0DE
:101A1000805007490860BFF34F8FBFF36F8F01E01D
:101A200001F04EFEF8BD0000880000208C00002070
:101A300004ED00E070B504460D46164604E0A069CA
:101A400005442046216A8847A06941192B46324641
:101A50002046FFF72FFE0028F1D170BD094800682D
:101A6000006808B9012000E0002020B14FF0FF30ED
:101A70000549086005E003480068C068006802493D
:101A800008607047480000207400002070B50446CC
:101A900001F072FB054607480068854204D200F059
:101AA0000BF80120206001E0002020600148056063
:101AB000284670BD9400002070B508E00D4800680D
:101AC000C06804684FF0FF312046FFF79FFE0948C9
:101AD0000068006808B9012000E000200028EDD06F
:101AE0000448056804480068024908600248056027
:101AF00070BD000084000020880000200B480068B2
:101B0000401C08B9012000E0002020B9CE2208A125
:101B100015A0FEF7D1FB00BF502080F31188BFF362
:101B20004F8FBFF36F8F00BF00BFFEE7980000200C
:101B30002E2E5C2E2E5C4D6964646C657761726537
:101B4000735C4672656552544F535C706F7274617A
:101B5000626C655C525644535C41524D5F434D3359
:101B60005C706F72742E63004572726F723A20253A
:101B7000732C2025640D0A0008B500BF6846FFF7E6
:101B80002FFC044620460099FFF71AFFFFF760FE7E
:101B9000F4E770B5044600F0A7F994F9455019E050
:101BA000A06C30B12046FFF7CDFD88B100F0F8FB06
:101BB0000EE0606A08B9012000E0002038B904F1A5
:101BC000240001F0D5FC18B100F0EAFB00E003E0CE
:101BD000681E45B2002DE3DC00BFFF2084F84500FD
:101BE00000F0CCF900F080F994F9445010E020693D
:101BF00008B9012000E0002048B904F1100001F00C
:101C0000B7FC08B100F0CCFB681E45B200E001E073
:101C1000002DECDC00BFFF2084F8440000F0AEF99A
:101C200070BD00002DE9F04104464FF0000800F0BF
:101C30003BFD4948006808B9FFF7E6FB47480068E4
:101C40002040002875D1002C23D004F10800A042C8
:101C50001FD9083404F0070000281BD004F0070047
:101C6000C0F108002044A04211D904F00700C0F1DF
:101C70000800044404F0070008B9012000E0002037
:101C800040B99C2236A144A0FEF716FB02E00024D6
:101C900000E00024002C4CD043480068844248D81F
:101CA000424E3046056801E02E462D686868A04225
:101CB00002D228680028F7D127480068854238D02A
:101CC000306800F10808286830606868001B102838
:101CD00013D92F1907F0070008B9012000E00020F0
:101CE00020B9CF221EA12CA0FEF7E6FA6868001BDF
:101CF00078606C603846FFF7A9FC2B496868096872
:101D0000081A294908600846006829490968884274
:101D100003D22548006826490860104968680968A8
:101D2000084368600020286022480068401C214960
:101D3000086001F0C5FC08F0070008B9012000E0C8
:101D4000002028B94FF4887205A113A0FEF7B4FA59
:101D50004046BDE8F0810000AC000020C00000203B
:101D60002E2E5C2E2E5C4D6964646C657761726505
:101D7000735C4672656552544F535C706F72746148
:101D8000626C655C4D656D4D616E675C6865617028
:101D90005F342E63000000004572726F723A202596
:101DA000732C2025640D0A00B0000020A400002040
:101DB000B4000020B80000200648006830B1054992
:101DC000096801F15000096D491C01600148006873
:101DD0007047000044000020001F4FF08073036034
:101DE000001F21F001030360001F034B0360143840
:101DF0000260203870470000FD1A000801460A6999
:101E0000D1E901309860D1E90103586050688842F7
:101E100001D188685060002008611068401E106081
:101E20001068704770B504462CB940F2E37205A102
:101E30000EA0FEF741FA00F057F8A56B00F09EF8EF
:101E4000284670BD2E2E5C2E2E5C4D6964646C6538
:101E500077617265735C4672656552544F535C736B
:101E600072635C71756575652E6300004572726FF3
:101E7000723A2025732C2025640D0A0000F1080118
:101E800041604FF0FF31816000F10801C1600161E4
:101E900000210160704700210161704710B50246C2
:101EA0000B685C1C0CB9106907E002F1080000E047
:101EB0004068446824689C42FAD944684C604C6885
:101EC000A160886041600A611468641C146010BDE0
:101ED00042684A6093688B609368596091600861BA
:101EE00003685B1C0360704710B500BF502080F38F
:101EF0001188BFF34F8FBFF36F8F00BF0B4800688F
:101F0000401C0A4908600846006801280DD10848AD
:101F10000068C0B208B9012000E0002028B940F2F2
:101F2000751204A111A0FEF7C7F910BD980000209A
:101F300004ED00E02E2E5C2E2E5C4D6964646C6511
:101F400077617265735C4672656552544F535C707D
:101F50006F727461626C655C525644535C41524DC1
:101F60005F434D335C706F72742E63004572726F05
:101F7000723A2025732C2025640D0A0010B50B48F9
:101F8000006828B94FF4BE7209A117A0FEF794F9B2
:101F900006480068401E054908600846006820B9E8
:101FA000002080F3118800BF00BF10BD9800002002
:101FB0002E2E5C2E2E5C4D6964646C6577617265B3
:101FC000735C4672656552544F535C706F727461F6
:101FD000626C655C525644535C41524D5F434D33D5
:101FE0005C706F72742E63004572726F723A2025B6
:101FF000732C2025640D0A0070B506463546002E68
:102000003AD0083D2C461D4960680968084008B16F
:10201000012000E0002028B94FF4927218A126A0F8
:10202000FEF74AF9206808B9012000E0002028B92D
:1020300040F2251212A120A0FEF73EF90F49606878
:1020400009680840C0B12068B0B90C4960680968E7
:102050008843606000F028FB1B49606809680844F9
:10206000194908602046FFF7F1FA18480068401C3B
:102070001649086001F024FB70BD0000C00000207C
:102080002E2E5C2E2E5C4D6964646C6577617265E2
:10209000735C4672656552544F535C706F72746125
:1020A000626C655C4D656D4D616E675C6865617005
:1020B0005F342E63000000004572726F723A202573
:1020C000732C2025640D0A00B0000020BC00002005
:1020D00000204FF0E0210861886107480068C008CF
:1020E0004FF47A71B0FBF1F0401E4FF0E0214861EF
:1020F0000320086170470000000000202DE9F04136
:1021000005460F4600262DB940F6C92210A11AA097
:10211000FEF7D2F8BFB1002412E01B4800EBC40068
:102120004068A84203D1184800EBC4060AE036B95B
:10213000154850F8340010B9134800EBC406641C6D
:10214000082CEAD300BF0EB137607560BDE8F0819E
:102150002E2E5C2E2E5C4D6964646C657761726511
:10216000735C4672656552544F535C7372635C7165
:10217000756575652E6300004572726F723A202591
:10218000732C2025640D0A00C40000202DE9F041C5
:1021900005460E4617462C46FFF7A6FE94F9440066
:1021A000401C10B9002084F8440094F94500401CFC
:1021B00010B9002084F84500FFF7E0FEA06B28B9B5
:1021C0003A46314604F1240000F024F92046FFF796
:1021D000E0FCBDE8F081000070B504460025ACB11C
:1021E0000F48006808B9012000E0002028B940F23B
:1021F00049520CA115A0FEF75FF800F055FA002136
:102200002046FEF753FF01F05BFA05463DB94FF05B
:10221000805012490860BFF34F8FBFF36F8F70BDBE
:10222000800000202E2E5C2E2E5C4D6964646C654F
:1022300077617265735C4672656552544F535C7387
:1022400072635C7461736B732E6300004572726F0E
:10225000723A2025732C2025640D0A0004ED00E05D
:1022600070B50546FFF740FE15B92F48006800E03D
:1022700028460446201DFFF7C1FD78B9E06A00EB4F
:1022800080002A4951F8200040B994F82C10012010
:10229000884027490968814325480160A06A18B130
:1022A00004F11800FFF7AAFD22480068401C2149EC
:1022B00008601D480068844209D1211D1E48FFF7AF
:1022C00007FE1E480068401C1C49086006E01C48C8
:1022D0000068401E1A490860FFF7C0FBFFF74EFE7A
:1022E00011480068844202D02046FFF765F815487F
:1022F0000068C0B10C480068844214D112480068DC
:1023000008B9012000E0002028B940F2DC420FA10A
:1023100018A0FDF7D1FF4FF080501A490860BFF3B5
:102320004F8FBFF36F8F70BD440000200401002069
:102330005C00002070000020C0030020500000203E
:102340005400002060000020800000202E2E5C2E13
:102350002E5C4D6964646C6577617265735C46726E
:10236000656552544F535C7372635C7461736B7335
:102370002E6300004572726F723A2025732C20255F
:10238000640D0A0004ED00E0034909680160034997
:1023900009684160704700006C0000205800002070
:1023A00001200149086070476800002070B50446AC
:1023B0000D462CB940F61C4207A111A0FDF77CFF89
:1023C0001348016818312046FFF768FD01212846AF
:1023D000FEF76CFE70BD00002E2E5C2E2E5C4D694B
:1023E00064646C6577617265735C467265655254AE
:1023F0004F535C7372635C7461736B732E63000084
:102400004572726F723A2025732C2025640D0A00E4
:102410004400002070B504460E4615462CB940F61F
:10242000524211A11AA0FDF747FF60681C490968D4
:10243000C8611B49826809680A621949096818312C
:102440008268516016490968183181601449096829
:102450008C622168491C21600DB14FF0FF3629467E
:102460003046FEF723FE70BD2E2E5C2E2E5C4D698D
:1024700064646C6577617265735C4672656552541D
:102480004F535C7372635C7461736B732E630000F3
:102490004572726F723A2025732C2025640D0A0054
:1024A000440000202DE9F04706460F4634464FF021
:1024B0000109002E70D0206D28B941F29F0237A18A
:1024C00040A0FDF7F9FEE06CB84201D23D4600E0C5
:1024D000E56CE06AA8425FD0206D01285CD13D48E0
:1024E0000068844201D0012000E0002028B941F2B8
:1024F000BA022AA133A0FDF7DFFED4F82C80E562F2
:10250000A06900F0004010B9C5F12000A06108EBFF
:102510008801314A02EB81016069884201D10120C2
:1025200000E00020C0B3201DFFF768FC40B994F81C
:102530002C100120884029490968814327480160FF
:1025400094F82C1001208840244909680843234945
:102550000860E16A01EB81011F4A02EB81014868D2
:10256000A0608268E260211D826851608160E16A3A
:1025700001EB8101184A02EB81026261E16A01EB21
:102580008101154A52F82110491CE26A02EB8202CD
:10259000114B43F8221000BFBDE8F0872E2E5C2EB1
:1025A0002E5C4D6964646C6577617265735C46721C
:1025B000656552544F535C7372635C7461736B73E3
:1025C0002E6300004572726F723A2025732C20250D
:1025D000640D0A0044000020040100205C0000207B
:1025E0001CB51B4800210B468022CDE9001019A123
:1025F0001A4800F081FD0446012C02D101F032F9A5
:102600000446012C15D100BF502080F31188BFF380
:102610004F8FBFF36F8F00BF4FF0FF30104908603E
:1026200001201049086000200F49086000F0A2F85E
:102630000BE0601C08B1012000E0002028B94FF435
:1026400004620AA113A0FDF737FE164800681CBDFE
:102650007800002049444C45000000008514000823
:102660007400002060000020580000202E2E5C2EF8
:102670002E5C4D6964646C6577617265735C46724B
:10268000656552544F535C7372635C7461736B7312
:102690002E6300004572726F723A2025732C20253C
:1026A000640D0A007C00002002480068401C0149BB
:1026B000086070478000002010B51B48006818B102
:1026C00001201A4908602DE00020184908601848C8
:1026D0000068B0FA80F0C0F11F0404EB84001549D3
:1026E00051F8200008B1012000E0002028B940F690
:1026F000024211A11AA0FDF7DFFD04EB84010D4A8F
:1027000002EB810041684968416000F108014268BC
:102710008A4202D14168496841604168C968144AE7
:10272000116000BF10BD0000800000206800002084
:102730005C000020040100202E2E5C2E2E5C4D69D2
:1027400064646C6577617265735C4672656552544A
:102750004F535C7372635C7461736B732E63000020
:102760004572726F723A2025732C2025640D0A0081
:10277000440000201CB53B4C204600780190FF200F
:10278000214608700846007800909DF8000000F08F
:10279000F0009DF80010884201D1012000E00020E7
:1027A00028B940F21F1230A13DA0FDF785FD9DF82C
:1027B000000000F050003E49087007203D490860C5
:1027C00009E03C480068401E3A4908609DF8000056
:1027D0004006000E00909DF8000000F08000802868
:1027E000EFD034480068C0F10700042801D101206F
:1027F00000E0002028B940F233121BA128A0FDF709
:102800005BFD2C480068C0F10700042801D10120BD
:1028100000E0002028B94FF49E7213A120A0FDF71C
:102820004BFD2448006800022249086008460088E1
:1028300000F4E06008600B49019808701E480068C9
:1028400040F470001C4908600846006840F0704081
:102850000860FFF73DFC002018490860FDF7D0FC38
:1028600000201CBD00E400E02E2E5C2E2E5C4D6985
:1028700064646C6577617265735C46726565525419
:102880004F535C706F727461626C655C5256445356
:102890005C41524D5F434D335C706F72742E630028
:1028A0004572726F723A2025732C2025640D0A0040
:1028B0009C000020A000002020ED00E098000020F7
:1028C00010B500BF502080F31188BFF34F8FBFF3C6
:1028D0006F8F00BF00F056FC18B14FF080500449D4
:1028E000086000BF002080F3118800BF10BD000009
:1028F00004ED00E070B505460E46002455B1AE4229
:1029000008D802220021284600F02AF8044644B1E3
:10291000A66306E02CB940F21B3203A10CA0FDF720
:10292000CBFC204670BD00002E2E5C2E2E5C4D6927
:1029300064646C6577617265735C46726565525458
:102940004F535C7372635C71756575652E6300002F
:102950004572726F723A2025732C2025640D0A008F
:102960002DE9F84305460E4617460024E5B1601EE2
:10297000B0FBF5F0B04217D305FB06F010F1550F90
:1029800012D805FB06F909F15400FFF74BF904468C
:102990008CB1A04608F154083B46424631462846D1
:1029A0000094FEF783FD06E02CB94FF4E37203A117
:1029B0000CA0FDF781FC2046BDE8F8832E2E5C2E8E
:1029C0002E5C4D6964646C6577617265735C4672F8
:1029D000656552544F535C7372635C7175657565C0
:1029E0002E6300004572726F723A2025732C2025E9
:1029F000640D0A002DE9F04105460E4601272C46DC
:102A00002CB94FF488722CA135A0FDF755FC002C91
:102A100042D0E06B00283FD04FF0FF31E06BB1FBBC
:102A2000F0F0216C884237D3FFF75EFAD4E90F1239
:102A3000206801FB0200A0600020A06320686060A5
:102A4000E06B401E226C216800FB0211E160FF2058
:102A500084F8440084F845009EB9206908B9012033
:102A600000E00020A8B904F1100000F081FD80B161
:102A70004FF080501E490860BFF34F8FBFF36F8F38
:102A800007E004F11000FFF7F9F904F12400FFF763
:102A9000F5F9FFF773FA00E000270FB1012000E01D
:102AA000002028B940F2451203A10DA0FDF704FC57
:102AB0003846BDE8F08100002E2E5C2E2E5C4D695C
:102AC00064646C6577617265735C467265655254C7
:102AD0004F535C7372635C71756575652E6300009E
:102AE0004572726F723A2025732C2025640D0A00FE
:102AF00004ED00E02DE9FF4782B0064688461D46FA
:102B00004FF0000934462CB940F22E3264A16EA079
:102B1000FDF7D2FBB8F1000F01D1206C08B90120FC
:102B200000E0002028B940F22F325DA166A0FDF739
:102B3000C3FB022D02D1E06B012801D1012000E08E
:102B4000002028B94FF44C7255A15FA0FDF7B4FBEB
:102B500000F002FB08B9049808B9012000E0002049
:102B600028B940F233324EA157A0FDF7A5FB00BFB4
:102B7000FFF7BAF9A06BE16B884201D3022D3ED179
:102B8000D4F838A02A4641462046FEF7D6FB074631
:102B9000A06C88B1022D02D1BAF1000F29D12046D4
:102BA000FEF7D0FD28B34FF080504B490860BFF3CB
:102BB0004F8FBFF36F8F1CE0606A08B9012000E0FF
:102BC000002068B904F1240000F0D2FC88B14FF075
:102BD000805041490860BFF34F8FBFF36F8F08E00B
:102BE0003FB14FF080503C490860BFF34F8FBFF3B7
:102BF0006F8FFFF7C3F9012006B0BDE8F087049896
:102C000018B9FFF7BBF90020F6E7B9F1000F04D1BE
:102C10006846FFF7B9FB4FF00109FFF7AFF9FFF77F
:102C200043FDFFF761F994F94400401C10B90020FE
:102C300084F8440094F94500401C10B9002084F841
:102C40004500FFF79BF904A9684600F0EDF9F8B9D3
:102C50002046FEF768FDA8B104F110000499FFF7C3
:102C6000A5FB2046FEF795FF00F02AFD00287FF423
:102C70007FAF4FF0805018490860BFF34F8FBFF30C
:102C80006F8F75E72046FEF784FF00F019FD6FE7B0
:102C90002046FEF77EFF00F013FD0020ACE70000A9
:102CA0002E2E5C2E2E5C4D6964646C6577617265B6
:102CB000735C4672656552544F535C7372635C710A
:102CC000756575652E6300004572726F723A202536
:102CD000732C2025640D0A0004ED00E02DE9F74176
:102CE00083B005460E464FF000082C462CB940F242
:102CF00051524CA155A0FDF7DFFA0EB9206C08B96E
:102D0000012000E0002028B940F2555245A14FA013
:102D1000FDF7D2FA00F020FA08B9059808B90120A9
:102D200000E0002028B940F25A523EA147A0FDF72A
:102D3000C3FA00BFFFF7D8F8A76BF7B131462046BA
:102D4000FEF7E6FA781EA063206908B9012000E0CA
:102D5000002060B904F1100000F00AFC38B14FF017
:102D600080503E490860BFF34F8FBFF36F8FFFF76E
:102D700005F9012006B0BDE8F081059818B9FFF704
:102D8000FDF80020F6E7B8F1000F04D101A8FFF725
:102D9000FBFA4FF00108FFF7F1F8FFF785FCFFF7AA
:102DA000A3F894F94400401C10B9002084F84400B2
:102DB00094F94500401C10B9002084F84500FFF745
:102DC000DDF805A901A800F02FF9F0B92046FEF7BB
:102DD0009DFCA0B104F124000599FFF7E7FA204615
:102DE000FEF7D7FE00F06CFC0028A3D14FF0805016
:102DF0001A490860BFF34F8FBFF36F8F9AE72046E1
:102E0000FEF7C7FE00F05CFC94E72046FEF7C1FE2B
:102E100000F056FC2046FEF779FC00288AD00020FE
:102E2000A8E700002E2E5C2E2E5C4D6964646C6554
:102E300077617265735C4672656552544F535C737B
:102E400072635C71756575652E6300004572726F03
:102E5000723A2025732C2025640D0A0004ED00E051
:102E60002DE9F34182B005464FF000082C460026BC
:102E70002CB940F2E3525DA166A0FDF71DFA206C6B
:102E800008B9012000E0002028B940F2E75257A11C
:102E900060A0FDF711FA00F05FF908B9039808B9CE
:102EA000012000E0002028B940F2EC524FA159A0C7
:102EB000FDF702FA00BFFFF717F8A76BFFB1781E06
:102EC000A063206810B9FEF777FFA060206908B9F9
:102ED000012000E0002060B904F1100000F048FB80
:102EE00038B14FF080504F490860BFF34F8FBFF3A8
:102EF0006F8FFFF743F8012004B0BDE8F08103981D
:102F000070B90EB9012000E0002028B940F2326209
:102F100036A140A0FDF7D0F9FFF730F80020EBE72D
:102F2000B8F1000F04D16846FFF72EFA4FF0010800
:102F3000FFF724F8FFF7B8FBFEF7D6FF94F944003B
:102F4000401C10B9002084F8440094F94500401C4E
:102F500010B9002084F84500FFF710F803A968466F
:102F600000F062F840BB2046FEF7D0FBF0B12068CD
:102F700038B9FEF7B9FFA06800F084FA0646FEF7FC
:102F8000FDFF04F124000399FFF710FA2046FEF735
:102F900000FE00F095FB00288DD14FF080502149B4
:102FA0000860BFF34F8FBFF36F8F84E72046FEF7B3
:102FB000F0FD00F085FB7EE72046FEF7EAFD00F01D
:102FC0007FFB2046FEF7A2FB0028EED05EB1FEF7A5
:102FD0008BFF2046FEF7F9F907463946A068FFF750
:102FE00061FAFEF7CBFF002086E700002E2E5C2E54
:102FF0002E5C4D6964646C6577617265735C4672C2
:10300000656552544F535C7372635C717565756589
:103010002E6300004572726F723A2025732C2025B2
:10302000640D0A0004ED00E070B506460C462EB9AA
:1030300040F6FD421FA129A0FDF73EF92CB940F64C
:10304000FE421CA125A0FDF737F9FEF74DFF2748EA
:1030500002687068131A2648006890F8590030B169
:1030600000202349096881F8590001251EE02068E5
:10307000401C08B9002519E01E49306809688842DB
:1030800006D07068904203D80125002020600DE032
:103090002068984207D92068C01A20603046FFF7A0
:1030A00073F9002502E0002020600125FEF766FF8D
:1030B000284670BD2E2E5C2E2E5C4D6964646C65B6
:1030C00077617265735C4672656552544F535C73E9
:1030D00072635C7461736B732E6300004572726F70
:1030E000723A2025732C2025640D0A005800002018
:1030F000440000206C0000202DE9FF4F85B0804681
:1031000089461746DDE912ABB800FEF78BFD06468F
:1031100056B15C20FEF786FD04460CB1266304E040
:103120003046FEF769FF00E000247CB10020CDE9C5
:1031300000ABCDE902403A4649464046089BFEF7BF
:10314000CDF92046FEF718F8012501E04FF0FF35D4
:10315000284609B0BDE8F08F0549096809B9012082
:1031600005E00449096809B9022000E00020704721
:1031700060000020800000200149086870470000BE
:10318000580000202DE9F0414FF000085F4800682A
:1031900000287DD15E480068451C5D480560002D13
:1031A0001DD15C480068006808B9012000E00020DB
:1031B00028B940F6C72258A161A0FDF77DF855480F
:1031C00007686348006853490860614807606148C0
:1031D0000068401C5F490860FEF740FC00BF5E4885
:1031E0000068854277D300BF4A480068006808B984
:1031F000012000E0002020B14FF0FF305649086068
:1032000068E044480068C068C4686668B54202D295
:10321000514806605EE06069D4E902128A60D4E930
:1032200002214A60211D42688A4201D1E168416061
:10323000002262610168491E0160A06A98B1A06A1B
:10324000D4E907128A60D4E907214A6004F1180121
:1032500042688A4201D1216A41600022A26201686B
:10326000491E016000BF94F82C10012088403B49A2
:103270000968084339490860E16A01EB8101384A6D
:1032800002EB81014868A0608268E260211D00E0D5
:1032900033E0826851608160E16A01EB8101304A6C
:1032A00002EB81026261E16A01EB81012C4A52F872
:1032B0002110491CE26A02EB8202294B43F82210DA
:1032C0002849E06A0968C96A88428DD34FF001082D
:1032D0008AE700E000BF23480068C06A00EB800076
:1032E0001F4951F82000012801D94FF001081E485C
:1032F000006808B14FF0010804E01C480068401C59
:103300001A4908604046BDE8F081000080000020B6
:1033100058000020480000202E2E5C2E2E5C4D69A7
:1033200064646C6577617265735C4672656552545E
:103330004F535C7372635C7461736B732E63000034
:103340004572726F723A2025732C2025640D0A0095
:103350004C0000206C000020740000205C00002065
:1033600004010020440000206800002064000020C8
:1033700070B505462C460026002D5ED0304800680A
:10338000844201D1012000E0002028B941F24F021F
:103390002CA136A0FCF790FF206D28B941F2500215
:1033A00028A132A0FCF788FF206D401E2065E16C4B
:1033B000E06A884241D0206D00283ED1201DFEF7F2
:1033C0001DFD40B994F82C10012088402B49096854
:1033D00081432A480160E06CE062E06AC0F12000AD
:1033E000A06194F82C100120884024490968084302
:1033F00022490860E16A01EB8101214A02EB810167
:103400004868A0608268E260211D82685160816026
:10341000E16A01EB81011A4A02EB81026261E16A11
:1034200001EB8101164A52F82110491CE26A02EBB5
:103430008202134B43F822100126304670BD000073
:10344000440000202E2E5C2E2E5C4D6964646C6559
:1034500077617265735C4672656552544F535C7355
:1034600072635C7461736B732E6300004572726FDC
:10347000723A2025732C2025640D0A005C00002080
:103480000401002070B505462C460026002D67D0AB
:103490003449E06A0968C96A88425AD2A06900F0D2
:1034A000004028B92F480068C06AC0F12000A06120
:1034B000E16A01EB81012C4A02EB810160698842DB
:1034C00001D1012000E00020E0B3201DFEF796FCB2
:1034D00040B994F82C1001208840244909688143A0
:1034E000224801601F480068C06AE06294F82C100E
:1034F000012088401D49096808431C490860E16AA9
:1035000001EB8101184A02EB81014868A0608268E2
:10351000E260211D826851608160E16A01EB8101F6
:10352000114A02EB81026261E16A01EB81010E4AFC
:1035300052F82110491CE26A02EB82020A4B43F85E
:10354000221004E0FFE707480068C06AE062012635
:1035500006E00449E06C0968C96A884200D2012685
:10356000304670BD44000020040100205C000020B3
:1035700070B50646F068C4682CB940F682423CA19A
:1035800045A0FCF799FEA06AD4E907128A60D4E945
:1035900007214A6004F1180142688A4201D1216A78
:1035A00041600022A2620168491E01603E48006835
:1035B00000283DD16069D4E902128A60D4E9022171
:1035C0004A60211D42688A4201D1E16841600022BF
:1035D00062610168491E016094F82C100120884046
:1035E00032490968084331490860E16A01EB810109
:1035F0002F4A02EB81014868A0608268E260211DC9
:10360000826851608160E16A01EB8101284A02EB26
:1036100081026261E16A01EB8101254A52F82110C1
:10362000491CE26A02EB8202214B43F8221010E0AF
:1036300020494868E0618268226204F118018268CA
:10364000516081601B4AA26211460968491C1160E1
:1036500000BF1949E06A0968C96A884204D901258E
:1036600001201649086000E00025284670BD0000D2
:103670002E2E5C2E2E5C4D6964646C6577617265DC
:10368000735C4672656552544F535C7372635C742D
:1036900061736B732E6300004572726F723A20255E
:1036A000732C2025640D0A00800000205C0000209F
:1036B00004010020AC03002044000020680000202A
:1036C00070B5002400265048006828B940F6B302BF
:1036D0004EA158A0FCF7F0FDFEF706FC4A48006832
:1036E000401E494908600846006800287ED15548B8
:1036F000006800287AD05BE05348C068C468A06ABC
:10370000D4E907128A60D4E907214A6004F118015C
:1037100042688A4201D1216A41600022A2620168A6
:10372000491E01606069D4E902128A60D4E902216D
:103730004A60211D42688A4201D1E168416000224D
:1037400062610168491E016094F82C1001208840D4
:103750003E49096808433D490860E16A01EB81017F
:103760003B4A02EB81014868A0608268E260211D4B
:10377000826851608160E16A01EB8101344A02EBA9
:1037800081026261E16A01EB8101314A52F8211044
:10379000491CE26A02EB82022D4B43F822102D49AC
:1037A000E06A0968C96A884202D301202A49086090
:1037B0002548006808B9012000E0002000289BD0BF
:1037C0000CB1FEF74BF92548056865B100BFFFF75E
:1037D000D9FC10B10120204908606D1E002DF6D1E2
:1037E00000201E4908601C48006800E008E038B16D
:1037F000012630071A490860BFF34F8FBFF36F8F60
:10380000FEF7BCFB304670BD800000202E2E5C2EE3
:103810002E5C4D6964646C6577617265735C467299
:10382000656552544F535C7372635C7461736B7360
:103830002E6300004572726F723A2025732C20258A
:10384000640D0A0054000020AC0300205C0000203E
:1038500004010020440000206800002064000020D3
:1038600004ED00E01CB50024FDF7FCFC0B480068EB
:1038700058B10B481F2100234FF48072CDE900108E
:1038800008A10A48FFF738FC04462CB940F2191287
:1038900007A111A0FCF710FD20461CBD8C000020E4
:1038A00090000020546D722053766300791B00084D
:1038B0002E2E5C2E2E5C4D6964646C65776172659A
:1038C000735C4672656552544F535C7372635C74EB
:1038D000696D6572732E63004572726F723A2025AE
:1038E000732C2025640D0A00083900080000002010
:1038F000C40000006C010008CC390008C40000209E
:10390000AC3100008801000800A24A040000000059
:10391000000000000102030406070809000000007F
:103920000000000000000000010203040102030483
:103930000607080902040608010000000000000054
:103940000000000000000000000000000000000077
:103950000000000000000000000000000000000067
:103960000000000000000000000000000000000057
:103970000000000000000000000000000000000047
:10398000000000001F000000000000000000000018
:103990000000000000000000000000000000000027
:1039A000AAAAAAAA0000000000000000000000006F
:1039B0000000000000000000000000000000000007
:0C39C000000000000000000000000000FB
:0400000508000131BD
:00000001FF
