:020000040800F2
:1000000088970020E1010008AD070008E30400081C
:10001000A9070008B1030008A90B000800000000B0
:10002000000000000000000000000000490100087E
:10003000B5030008000000008D010008A1090008B8
:10004000FB010008FB010008FB010008FB010008A0
:10005000FB010008FB010008FB010008FB01000890
:10006000FB010008FB010008FB010008FB01000880
:10007000FB010008FB010008FB010008FB01000870
:10008000FB010008FB010008FB010008FB01000860
:10009000FB010008FB010008FB010008FB01000850
:1000A000FB010008FB010008FB010008FB01000840
:1000B000FB010008FB010008FB010008FB01000830
:1000C000FB010008FB010008FB010008FB01000820
:1000D000FB010008FB010008FB010008FB01000810
:1000E000FB010008FB010008FB010008FB01000800
:1000F000FB010008FB010008FB010008FB010008F0
:10010000FB010008FB010008FB010008FB010008DF
:10011000FB010008FB010008FB010008FB010008CF
:10012000FB010008FB010008FB010008FB010008BF
:10013000DFF810D000F07CF800480047E10D00081F
:10014000AFF3008088970020224B19680868B0E858
:10015000F00F80F30988BFF36F8F4FF0000080F33A
:1001600011884EF00D0E7047000000000648006830
:10017000006880F3088862B661B6BFF34F8FBFF3A3
:100180006F8F00DF00BF00BF08ED00E0EFF30980D4
:10019000BFF36F8F0F4B1A6820E9F00F106008B59E
:1001A0004FF0500080F31188BFF34F8FBFF36F8F74
:1001B00001F002FC4FF0000080F31188BDE8084018
:1001C00019680868B0E8F00F80F30988BFF36F8FF3
:1001D000704700BF3C000020EFF30580704700002F
:1001E0000648804706480047FEE7FEE7FEE7FEE7D1
:1001F000FEE7FEE7FEE7FEE7FEE7FEE7B1090008DF
:100200003101000830B50B460146002020220124B0
:1002100009E021FA02F59D4205D303FA02F5491BD4
:1002200004FA02F52844151EA2F10102F1DC30BDEA
:10023000064C074D06E0E06840F0010394E8070033
:1002400098471034AC42F6D3FFF776FF68210008D8
:10025000882100081CB5012401F06CF901F002FCB2
:100260001F4908600846006810B11EA000F09EFCFF
:100270002448012100238022CDE9001022A1254835
:1002800001F08CFD0446012C02D123A000F08EFC6D
:100290002848022100238022CDE9001026A1294808
:1002A00001F07CFD0446012C02D127A000F07EFC69
:1002B0002C48032100238022CDE900102AA12D48DB
:1002C00001F06CFD0446012C02D12BA000F06EFC65
:1002D0002F48006801F04CFA01F06EF91CBD0000D7
:1002E000380000204576656E745F48616E646C6509
:1002F00020CAC2BCFEB4B4BDA8B3C9B9A6210D0AB8
:10030000000000002C0000204C4544305F54617315
:100310006B000000790600084C4544305F5461735F
:100320006BC8CECEF1B4B4BDA8B3C9B9A6210D0A2D
:1003300000000000300000204C4544315F546173E0
:100340006B000000E50600084C4544315F546173C2
:100350006BC8CECEF1B4B4BDA8B3C9B9A6210D0AFD
:1003600000000000340000204B65795F5461736B1E
:1003700000000000E10500084B65795F5461736B74
:10038000C8CECEF1B4B4BDA8B3C9B9A6210D0A0038
:100390002800002010B54FF4407000F009FA4FF427
:1003A000E13000F035FB00F09FF800F0D3F910BD0C
:1003B00000BFFEE770472DE9F04102460025002608
:1003C000002000230024002791F803C00CF00F0543
:1003D00091F803C00CF0100CBCF1000F03D091F8A1
:1003E00002C04CEA050591F800C0BCF1000F31D005
:1003F000146800202BE04FF0010C0CFA00F3B1F868
:1004000000C00CEA03069E4220D183004FF00F0C7F
:100410000CFA03F7BC4305FA03FC4CEA040491F818
:1004200003C0BCF1280F06D14FF0010C0CFA00FC00
:10043000C2F814C00AE091F803C0BCF1480F05D11E
:100440004FF0010C0CFA00FCC2F810C0401C082848
:10045000D1D31460B1F800C0BCF1FF0F34DD546893
:1004600000202EE000F1080C4FF0010808FA0CF310
:10047000B1F800C00CEA03069E4221D183004FF080
:100480000F0C0CFA03F7BC4305FA03FC4CEA040416
:1004900091F803C0BCF1280F05D100F1080C08FA4F
:1004A0000CF8C2F8148091F803C0BCF1480F07D1D2
:1004B00000F1080C4FF0010808FA0CF8C2F810809F
:1004C000401C0828CED35460BDE8F08102460020CD
:1004D00093680B400BB1012000E0002070470161E0
:1004E000704700BFFEE7000008B50121042000F0BE
:1004F00069F90121402000F065F91820ADF80000ED
:1005000048208DF8030069460648FFF754FF012094
:10051000ADF8000028208DF8030069460248FFF777
:100520004AFF08BD001801400008014010B5002432
:1005300028480078002837D001212748FFF7C6FF58
:1005400048B908212548FFF7C1FF20B110212348F1
:10055000FFF7BCFF08BB0A2000F024FC01211E4865
:10056000FFF7B4FF48B908211C48FFF7AFFF20B1DF
:1005700010211A48FFF7AAFF78B900201549087022
:1005800010211648FFF7A2FF08B901240CE008214A
:100590001248FFF79BFF08B9022405E001210E482D
:1005A000FFF794FF00B1032401210B48FFF78EFFF2
:1005B00068B908210948FFF789FF40B107480830AA
:1005C000006800F0100010B10120024908702046B8
:1005D00010BD00009C0000200008014000180140F0
:1005E00027E0FFF7A3FF012802D002281CD10DE06D
:1005F00010A000F0DBFA01211648006801F040FA73
:1006000004211448006801F03BFA0EE012A000F04B
:10061000CDFA02210F48006801F032FA08210D4896
:10062000006801F02DFA00E000BF00BF1E2001F0BD
:1006300063F8D6E74B455931B1BBB0B4CFC22CB447
:10064000A5B7A2CAC2BCFE31BACDCAC2BCFE330D28
:100650000A000000380000204B455932B1BBB0B44D
:10066000CFC2A3ACB4A5B7A2CAC2BCFE32BACDCA2F
:10067000C2BCFE340D0A000008B51BE04FF0FF308D
:1006800001231A46032100900B48006801F06EFA1E
:10069000044604F00300032809D108A000F086FAFC
:1006A0000B48006880F020000949086002E009A0BA
:1006B00000F07CFAE2E70000380000204B45593199
:1006C000D3EB4B455932B6BCB0B4CFC20D0A0000D3
:1006D0000C0C0140CAC2BCFEB4EDCEF3A3A10D0ABE
:1006E0000000000008B51DE04FF0FF30002301229C
:1006F0000C2100900C48006801F038FA044604F020
:100700000C0048B109A000F051FA0D48006880F0D3
:1007100020000B49086002E00AA000F047FA1E2002
:1007200000F0EAFFE0E70000380000204B455931B7
:10073000BBF24B455932B6BCB0B4CFC20D0A000073
:100740000C180140CAC2BCFEB4EDCEF3A3A10D0A41
:100750000000000008B50121082000F033F8012155
:10076000402000F02FF82020ADF8000010208DF878
:10077000030003208DF8020069460948FFF71BFEBD
:100780002020ADF8000069460648FFF714FE20213E
:100790000348FFF7A4FE20210248FFF7A0FE08BD92
:1007A000000C01400018014000BFFEE77047000048
:1007B00002490143024A1160704700000000FA0537
:1007C0000CED00E029B1064A92690243044B9A619C
:1007D00004E0034A92698243014B9A61704700002A
:1007E0000010024030B500210022002400232D4DCE
:1007F0006D6805F00C0121B1042905D0082923D129
:1008000005E0294D056022E0274D05601FE0254DDC
:100810006D6805F47012234D6D6805F4803402256F
:1008200005EB92421CB9214D554305600BE01D4D6F
:100830006D6805F400351DB11C4D5543056002E09F
:10084000194D5543056002E0174D056000BF00BF1C
:10085000144D6D6805F0F0010909154D6B5C0568D4
:10086000DD4045600F4D6D6805F4E061090A104DEB
:100870006B5C4568DD4085600A4D6D6805F460512C
:10088000C90A0B4D6B5C4568DD40C560054D6D6860
:1008900005F44041890B074D6B5CC568B5FBF3F56A
:1008A000056130BD0010024000127A0000093D00D1
:1008B000140000202400002010B500F001F810BD45
:1008C0000CB50020019000903348006840F480305F
:1008D0003149086000BF3048006800F400300090E3
:1008E0000198401C0190009818B90198B0F5A06FCC
:1008F000F1D12948006800F4003010B101200090C7
:1009000001E0002000900098012843D123480068AE
:1009100040F01000214908600846006820F00300FC
:1009200008600846006840F0020008601A48406805
:10093000194948600846406848600846406840F4E5
:10094000806048600846406820F47C104860084693
:10095000406840F4E81048600846006840F0807045
:10096000086000BF0C48006800F000700028F9D053
:100970000948406820F0030007494860084640687D
:1009800040F00200486000BF0348406800F00C00DF
:100990000828F9D10CBD00000010024000200240E0
:1009A00010B501F02BFA012801D001F0DDF910BDDE
:1009B00010B51348006840F001001149086008466E
:1009C0004068104908400E494860084600680E49D2
:1009D00008400B4908600846006820F48020086041
:1009E0000846406820F4FE0048604FF41F0088600D
:1009F000FFF762FF4FF000600449086010BD00007F
:100A0000001002400000FFF8FFFFF6FE08ED00E0D6
:100A100010B586B0044601210420FFF7D3FE012162
:100A20008803FFF7CFFE4FF40070ADF814001820D4
:100A30008DF8170003208DF8160005A91348FFF75D
:100A4000BAFC4FF48060ADF8140004208DF8170054
:100A500003208DF8160005A90C48FFF7ACFC0194A3
:100A60000020ADF80800ADF80A00ADF80C00ADF8B4
:100A700010000C20ADF80E0001A9054800F024F884
:100A80000121034800F006F806B010BD000801403F
:100A90000038014021B1828942F40052828104E091
:100AA00082894DF6FF731A4082817047024600200A
:100AB000B1F5007F00D100BF13880B400BB10120BE
:100AC00000E00020704700002DE9F04786B00546A1
:100AD0000E460024A24600BFA1460027B08900B1FF
:100AE00000BF2F462C8A4CF6FF700440F088044368
:100AF0002C82AC894EF6F3100440B088318908434B
:100B0000718908430443AC81AC8A4FF6FF4004402E
:100B1000B0890443AC8201A8FFF764FE1F488742F6
:100B200002D1DDF810A001E0DDF80CA0A88900F4E6
:100B3000004040B10AEBCA0000EB0A1031684900DE
:100B4000B0FBF1F807E00AEBCA0000EB0A103168CD
:100B50008900B0FBF1F86420B8FBF0F00401200933
:100B6000642101FB1089A88900F4004040B13220C3
:100B700000EBC900B0FBF1F000F00700044308E00F
:100B8000322000EB09106421B0FBF1F000F00F00FF
:100B900004432C8106B0BDE8F08700000038014016
:100BA000C1F308028280704700BFFEE70FB4054B17
:100BB00010B503A9044A029800F018F810BC5DF8BB
:100BC00014FB0000BD0D0008A000002002E008C8D2
:100BD000121F08C1002AFAD170477047002001E0B7
:100BE00001C1121F002AFBD1704700002DE9FF4F01
:100BF0008BB09A460F460546002606E025280BD006
:100C000052460D9990476D1C761C28780028F5D126
:100C10000FB03046BDE8F08F0024A04601226049A5
:100C200000E0044315F8013F203B02FA03F00842BC
:100C3000F7D128782E2817D115F8010F44F00404B5
:100C40002A280ED06FF02F022878A0F13001092950
:100C50000AD808EB880102EB410100EB01086D1C8A
:100C6000F2E757F8048B6D1C287869283ED006DC23
:100C70000028CDD063280BD0642804D136E0732837
:100C800010D075284BD052460D999047761C85E0C0
:100C900017F8040B8DF8000000208DF80100E946DC
:100CA000012003E057F8049B4FF0FF3061074FF03D
:100CB000000401D40AE0641C44450DDA8442FADBE6
:100CC00019F804100029F6D106E0641C8442FCDB0C
:100CD00019F804100029F8D1264404E019F8010B92
:100CE00052460D999047641EF8D257E001CF4FF05D
:100CF0000A0B002802DA40422D2102E0210504D52A
:100D00002B218DF82410012103E0E10705D02021DB
:100D1000F7E70DF1200908910CE00021F9E701CF78
:100D20004FF00A0BF9E75946FFF76CFA01F1300270
:100D300009F8012D0028F6D1ADEB090000F1200BD8
:100D4000600701D44FF00108D84502DDA8EB0B0085
:100D500000E000208046002406E009A85246005D1D
:100D60000D999047641C761C08988442F5DB04E0DA
:100D7000302052460D999047761CB8F10001A8F139
:100D80000108F5DC05E019F8010B52460D99904772
:100D9000761CBBF10001ABF1010BF4DC6D1C34E7F8
:100DA00009280100002100E0491C00EBC00202EB11
:100DB0000012B1EB820FF7D37047000070B5044604
:100DC0000D46E1B20548FFF7EBFE00BF8021034866
:100DD000FFF76CFE0028F9D0204670BD00380140B6
:100DE0001CB50124FFF7D6FA0BA0FFF7DFFE0F4872
:100DF000012100238022CDE900100DA1104800F050
:100E0000CDFF0446012C02D100F07AFD02E00DA0D6
:100E1000FFF7CCFE00BFFEE7D3B2BCFEB3F5CABC01
:100E2000BBAFCDEAB3C90D0A0000000028000020C6
:100E30004170705461736B437265617465000000AA
:100E400055020008C8CECEF1B4B4BDA8CAA7B0DC24
:100E50000D0A00002DE9F04105460E461C480768C2
:100E60001C480068001D00F00DFB50B919480068CF
:100E700090F82C10012088401749096881431648D2
:100E80000160681C38B936B112480168091D134861
:100E900000F044FB1AE07C190E4800684460BC4234
:100EA00007D20C480168091D0D48006800F01CFBC2
:100EB0000CE008480168091D0A48006800F014FBAE
:100EC00009480068844201D207480460BDE8F08107
:100ED000500000203C00002054000020740300203B
:100EE00044000020400000206C00002010B50446A3
:100EF00000F020FB23480068401C2249086022487B
:100F0000006840B9204804600846006801280DD1F7
:100F100000F036F90AE01D48006838B91A48006840
:100F2000C06AE16A884201D817480460184800681E
:100F3000401C1749086094F82C100120884015497E
:100F40000968084313490860E16A01EB8101124A0C
:100F500002EB8100211D00F0E1FA00F02DFB0B48AF
:100F6000006868B108480068C06AE16A884207D230
:100F70004FF0805009490860BFF34F8FBFF36F8F68
:100F800010BD00004C0000203C0000205800002054
:100F90006800002054000020A400002004ED00E0C0
:100FA00070B523E000F000FD1348006808B9012087
:100FB00000E00020054601F045F8BDB900F0BAFA9E
:100FC0000D48C068C468201D00F05CFA0B4800683A
:100FD000401E0A4908600A480068401E0849086027
:100FE00000F0EAFA204600F00DF800BF044800685F
:100FF0000028D7D170BD0000600300204C00002005
:101000004800002010B50446206B00F00BFB204682
:1010100000F008FB10BD000030B54FF41043174836
:1010200000F007042CB1C01D20F00700134C041B76
:101030001B1B0246124C22600024114D6C60D0181C
:10104000083820F007000F4C206000240D4D2D685B
:101050006C600C4D2D682C601146441A4C60094C94
:1010600024680C60084D4C682C60084D4C682C605E
:101070004FF00044064D2C6030BD00008803002076
:1010800078000020800000208800002084000020DC
:101090008C00002000BFFFF783FF0648006801288E
:1010A000F9D94FF0805004490860BFF34F8FBFF368
:1010B0006F8FF0E7A400002004ED00E02DE9FF5F52
:1010C00081460E469246DDE90E7B109CAAF1010096
:1010D000216B01EB800828F0070808F0070008B929
:1010E000012000E0002028B940F22B321AA120A0F4
:1010F000FFF75CFD002507E0715D04F13400415508
:10110000705D00B902E06D1C102DF5D300BF002109
:1011100043200155202F00D31F27E762201D00F038
:10112000E0F904F1180000F0DCF92461C7F12000B7
:10113000A06164620020606484F84800494640462B
:10114000039A00F08DF92060BBF1000F01D0CBF8BD
:101150000040BDE8FF9F00002E2E5C467265655280
:10116000544F535C7372635C7461736B732E6300D2
:101170004572726F723A25732C25640D0A000000C7
:1011800010B5002407E004EB84010F4A02EB810054
:1011900000F09AF9641C202CF5D30C4800F094F967
:1011A0000B4800F091F90B4800F08EF90A4800F066
:1011B0008BF90A4800F088F9044809490860044896
:1011C0000849086010BD0000A4000020240300208E
:1011D000380300204C03002060030020740300202B
:1011E000400000204400002010B50146164800E0F1
:1011F000006803688B42FBD30246436813448B426A
:1012000004D143684C682344436001460A464B6856
:1012100013440468A34211D10C4C03682468A34210
:1012200008D04B680468646823444B6003681B68FB
:101230000B6005E0054B1B680B6001E003680B6069
:10124000884200D0016010BD78000020800000209E
:101250000A490968096809B9012100E0002121B1A2
:101260004FF0FF31064A116006E004490968C96879
:10127000C868034A416811607047000040000020C0
:101280006C0000200B480068401C08B9012000E0F9
:10129000002020B9F42208A111A0FFF787FC00BFAD
:1012A000502080F31188BFF34F8FBFF36F8F00BFC3
:1012B00000BFFEE7900000202E2E5C46726565524E
:1012C000544F535C706F72745C525644535C41527D
:1012D0004D5F434D335C706F72742E6300000000ED
:1012E0004572726F723A25732C25640D0A00000056
:1012F00010B50346002022B903EA010434B10120ED
:1013000004E003EA01048C4200D1012010BD00007A
:101310002DE9F04104464FF0000800F045FB3E483F
:10132000006808B9FFF778FE3C48006820400028B4
:101330005FD1A4B1083404F0070080B104F00700C5
:10134000C0F10800044404F0070008B9012000E0DF
:10135000002020B9BF2232A13AA0FFF727FC002CC1
:1013600047D03C480068844243D83B4E304605682D
:1013700001E02E462D686868A04202D22868002845
:10138000F7D125480068854233D0306800F108085D
:10139000286830606868001B102813D92F1907F0DF
:1013A000070008B9012000E0002020B9EC221CA1B0
:1013B00024A0FFF7FBFB6868001B78606C60384670
:1013C000FFF712FF234968680968081A2149086075
:1013D0000846006821490968884203D21D48006810
:1013E0001E4908600D496868096808436860002064
:1013F000286000F027FE08F0070008B9012000E08F
:10140000002028B94FF4967205A10EA0FFF7CEFB7D
:101410004046BDE8F0810000800000208C000020E4
:101420002E2E5C4672656552544F535C706F727419
:101430005C4D656D4D616E675C686561705F342EF3
:10144000630000004572726F723A25732C25640D9B
:101450000A0000008400002078000020880000209E
:10146000001F4FF080730360001F21F00103036031
:10147000001F034B036014380260203870470000DF
:101480008512000801460A69D1E901309860D1E966
:10149000010358605068884201D18868506000207C
:1014A00008611068401E106010687047054909689F
:1014B000886904490968C96AC1F12001014A1268B2
:1014C000916170473C00002000F1080141604FF03D
:1014D000FF31816000F10801C160016100210160FC
:1014E000704700210161704710B502460B685C1C13
:1014F0000CB9106907E002F1080000E04068446898
:1015000024689C42FAD944684C604C68A1608860A9
:1015100041600A611468641C146010BD42684A602E
:1015200093688B60936859609160086103685B1CE5
:101530000360704710B500BF502080F31188BFF3DF
:101540004F8FBFF36F8F00BF0B480068401C0A49E4
:1015500008600846006801280DD108480068C0B23C
:1015600008B9012000E0002028B94FF4BD7204A1A1
:101570000DA0FFF71BFB10BD9000002004ED00E064
:101580002E2E5C4672656552544F535C706F7274B8
:101590005C525644535C41524D5F434D335C706F17
:1015A00072742E63000000004572726F723A2573E8
:1015B0002C25640D0A00000010B50B48006828B9FE
:1015C00040F2811209A113A0FFF7F0FA0648006863
:1015D000401E054908600846006820B9002080F3D5
:1015E000118800BF00BF10BD900000202E2E5C4669
:1015F00072656552544F535C706F72745C525644FE
:10160000535C41524D5F434D335C706F72742E6377
:10161000000000004572726F723A25732C25640D2C
:101620000A00000070B506463546002E35D0083D4C
:101630002C461A4960680968084008B1012000E09A
:10164000002028B94FF4A07215A11EA0FFF7AEFA32
:10165000206808B9012000E0002028B940F24112BA
:101660000FA118A0FFF7A2FA0C49606809680840AA
:1016700098B1206888B90949606809688843606042
:1016800000F092F91349606809680844114908603C
:101690002046FFF7A9FD00F0D5FC70BD8C000020AE
:1016A0002E2E5C4672656552544F535C706F727497
:1016B0005C4D656D4D616E675C686561705F342E71
:1016C000630000004572726F723A25732C25640D19
:1016D0000A00000084000020064800684FF47A7178
:1016E000B0FBF1F0401E4FF0E02148610720086197
:1016F000704700000000002070B504460025ACB122
:101700000F48006808B9012000E0002028B940F225
:10171000CF420CA111A0FFF749FA00F045F90021D2
:101720002046FFF797FB00F08DFC05463DB94FF0D2
:1017300080500E490860BFF34F8FBFF36F8F70BDAD
:10174000740000202E2E5C4672656552544F535C27
:101750007372635C7461736B732E63004572726F96
:10176000723A25732C25640D0A00000004ED00E098
:1017700070B50546FFF7DEFE15B92D48006800E09C
:1017800028460446201DFFF77DFE78B9E06A00EB8D
:101790008000284951F8200040B994F82C1001200D
:1017A000884025490968814323480160A06A18B12F
:1017B00004F11800FFF766FE20480068401C1F492E
:1017C00008601B480068844209D1211D1C48FFF7AE
:1017D000A5FE1C480068401C1A49086009E01A4828
:1017E0000068401E184908602046FFF70BFCFFF711
:1017F0002FFDFFF7E1FE15480068C0B10C480068F6
:10180000844214D11248006808B9012000E0002089
:1018100028B940F265420FA114A0FFF7C7F94FF0B5
:10182000805016490860BFF34F8FBFF36F8F70BDB4
:101830003C000020A400002054000020680000208C
:1018400060030020480000204C00002058000020C9
:10185000740000202E2E5C4672656552544F535C16
:101860007372635C7461736B732E63004572726F85
:10187000723A25732C25640D0A00000004ED00E087
:1018800070B504460D4616462CB940F6173210A125
:1018900015A0FFF78BF91848006808B1012000E097
:1018A000002028B940F61B3209A10FA0FFF77EF9EE
:1018B00045F00040114909688861104801681831F5
:1018C0002046FFF72BFE01213046FFF7C3FA70BD1B
:1018D0002E2E5C4672656552544F535C7372635C86
:1018E0007461736B732E63004572726F723A257365
:1018F0002C25640D0A000000740000203C0000202C
:101900001CB5184800210B468022CDE9001016A115
:10191000174800F043FA0446012C15D100BF5020AF
:1019200080F31188BFF34F8FBFF36F8F00BF4FF06D
:10193000FF301049086001200F49086000200F495E
:10194000086000F0C1F90BE0601C08B1012000E064
:10195000002028B940F2847209A10FA0FFF726F9F0
:101960001CBD00007000002049444C4500000000F0
:10197000951000086C000020580000205000002046
:101980002E2E5C4672656552544F535C7372635CD5
:101990007461736B732E63004572726F723A2573B4
:1019A0002C25640D0A00000002480068401C014913
:1019B000086070477400002010B51B48006818B11B
:1019C00001201A4908602DE00020184908601848D5
:1019D0000068B0FA80F0C0F11F0404EB84001549E0
:1019E00051F8200008B1012000E0002028B940F69D
:1019F000F62211A116A0FFF7D9F804EB84010D4AD5
:101A000002EB810041684968416000F108014268C9
:101A10008A4202D14168496841604168C968104AF8
:101A2000116000BF10BD00007400002060000020A5
:101A300054000020A40000202E2E5C4672656552E2
:101A4000544F535C7372635C7461736B732E6300E9
:101A50004572726F723A25732C25640D0A000000DE
:101A60003C00002010B51820FFF752FC044624B1BA
:101A700000202060201DFFF727FD204610BD00003C
:101A80002DE9FE4F07468846002001903C46009015
:101A90002FB940F21D2229A130A0FFF787F808F0E6
:101AA0007F4008B9012000E0002028B940F21E2242
:101AB00022A12AA0FFF77AF804F1040909F108002D
:101AC0000290FFF771FFD9F80C60206840EA080027
:101AD000206026E0D6F804B035680020009005F0BC
:101AE0007F4A25F07F450AF0806028B920682840A9
:101AF00040B10120009005E020682840A84201D1B3
:101B000001200090009858B10AF0807010B101983F
:101B100028430190206840F00071304600F030FA10
:101B20005E4602988642D5D120680199884320609C
:101B300000F088FA2068BDE8FE8F00002E2E5C467B
:101B400072656552544F535C7372635C6576656E63
:101B5000745F67726F7570732E6300004572726FE9
:101B6000723A25732C25640D0A0000002DE9FF4F01
:101B700083B081460D461746DDF840804C464FF055
:101B8000000A00200190B9F1000F05D140F24D127A
:101B900040A148A0FFF70AF805F07F4008B90120EE
:101BA00000E0002028B94FF4A7723AA141A0FEF747
:101BB000FDFF0DB1012000E0002028B940F24F12D6
:101BC00034A13CA0FEF7F2FF00F018F910B9B8F10B
:101BD000000F01D1012000E0002028B94FF4A972C4
:101BE0002CA134A0FEF7E2FFFFF7DEFE2068009094
:101BF0002946069A0098FFF77BFB0290029838B1BD
:101C0000009E4FF00008B7B12068A843206012E0A2
:101C1000B8F1000F01D1009E0DE00FB14AF0807ABB
:101C2000069808B14AF0806A45EA0A014246201D3A
:101C3000FFF726FE002600F005FA8346B8F1000FF4
:101C400023D0BBF1000F07D14FF080501D49086031
:101C5000BFF34F8FBFF36F8FFFF728FC064606F0E8
:101C6000007080B9FFF766FC266829463046069A60
:101C7000FFF73EFB18B117B12068A8432060FFF7BB
:101C80009BFC0020019026F07F46304607B0BDE85F
:101C9000F08F00002E2E5C4672656552544F535CE7
:101CA0007372635C6576656E745F67726F7570736F
:101CB0002E6300004572726F723A25732C25640DF5
:101CC0000A00000004ED00E01CB522480146097836
:101CD0000191FF21024611700146097800919DF89B
:101CE000001001F050011C4A117007211B4A1160BD
:101CF00009E01A490968491E184A11609DF8001048
:101D00004906090E00919DF8001001F0800180291C
:101D1000EFD0124909680902104A1160114609887A
:101D200001F4E06111600B4A019911700C480068E0
:101D300040F470000A4908600846006840F07040AE
:101D40000860FFF7C9FC002006490860FEF70EFA9C
:101D500000201CBD00E400E094000020980000205A
:101D600020ED00E09000002010B500BF502080F36F
:101D70001188BFF34F8FBFF36F8F00BF00F04EF895
:101D800018B14FF080500449086000BF002080F374
:101D9000118800BF10BD000004ED00E02DE9FF4FE9
:101DA00085B0804689461746DDE912ABB800FFF7DB
:101DB000AFFA064656B14C20FFF7AAFA04460CB11A
:101DC000266304E03046FFF72DFC00E000247CB1E0
:101DD0000020CDE900ABCDE902403A4649464046F5
:101DE000089BFFF76BF92046FFF780F8012501E01B
:101DF0004FF0FF35284609B0BDE8F08F0549096866
:101E000009B9012005E00449096809B9022000E088
:101E10000020704758000020740000202DE9F04198
:101E20004FF0000841480068002872D1404800681F
:101E3000451C3F480560EDB93E480068006808B998
:101E4000012000E0002028B940F6D9123AA140A0B4
:101E5000FEF7ACFE3748076841480068354908601E
:101E60003F4807603F480068401C3E490860FFF754
:101E7000EFF900BF3C48006885423CD300BF2D48C5
:101E80000068006808B9012000E0002020B14FF090
:101E9000FF30354908602DE026480068C068C468F6
:101EA0006668B54202D23048066023E0201DFFF785
:101EB000E9FAA06A18B104F11800FFF7E3FA94F800
:101EC0002C100120884029490968084327490860E7
:101ED000E16A01EB8101264A02EB8100211DFFF737
:101EE0001DFB2449E06A0968C96A8842C7D34FF0DC
:101EF0000108C4E700BF1F480068C06A00EB80000B
:101F00001B4951F82000012801D94FF0010805E0D4
:101F1000FFE719480068401C174908601748006827
:101F200008B14FF001084046BDE8F0817400002080
:101F300050000020400000202E2E5C467265655245
:101F4000544F535C7372635C7461736B732E6300E4
:101F50004572726F723A25732C25640D0A000000D9
:101F600044000020640000206C0000205400002089
:101F7000A40000203C0000205C0000206000002045
:101F80002DE9F04105460F461F48006808B10120C1
:101F900000E0002028B940F699321CA121A0FEF7EC
:101FA00005FE47F000402860EC682CB940F6A132ED
:101FB00016A11CA0FEF7FAFD2846FFF763FA201DC4
:101FC000FFF760FA94F82C1001208840194909683D
:101FD000084318490860E16A01EB8101164A02EBE7
:101FE0008100211DFFF79AFA1449E06A0968C96A5D
:101FF000884204D9012601201149086000E000262A
:102000003046BDE8F0810000740000202E2E5C46B2
:1020100072656552544F535C7372635C7461736B89
:10202000732E63004572726F723A25732C25640D0E
:102030000A00000054000020A40000203C00002002
:102040006000002070B5002400263448006828B9DC
:102050004FF4FD6232A138A0FEF7A8FDFFF76AFA3F
:102060002E480068401E2D49086008460068002878
:102070004FD13548006800284BD024E03348C06871
:10208000C46804F11800FFF7FDF9201DFFF7FAF905
:1020900094F82C10012088402D49096808432C49E8
:1020A0000860E16A01EB81012A4A02EB8100211DEF
:1020B000FFF734FA2849E06A0968C96A884202D3FE
:1020C0000120264908602148006808B9012000E085
:1020D00000200028D2D00CB1FFF7BAF820480568DC
:1020E00065B100BFFFF79AFE10B101201B490860DF
:1020F0006D1E002DF6D100201949086017480068B0
:1021000038B10126300717490860BFF34F8FBFF37E
:102110006F8FFFF751FA304670BD00007400002049
:102120002E2E5C4672656552544F535C7372635C2D
:102130007461736B732E63004572726F723A25730C
:102140002C25640D0A0000004C0000204C030020E8
:1021500054000020A40000203C000020600000206B
:102160005C00002004ED00E0882100080000002051
:10217000A4000000CC0B00082C220008A4000020C2
:10218000E4960000DC0B000800A24A0400000000F6
:102190000000000001020304060708090000000017
:1021A00001020304010203040607080902040608E9
:1021B000000000000000000000000000000000001F
:1021C000000000000000000000000000000000000F
:1021D00000000000000000000000000000000000FF
:1021E00000000000000000000000000000000000EF
:1021F00000000000000000000000000000000000DF
:1022000000000000000000000000000000000000CE
:102210000000000000000000AAAAAAAA0000000016
:0C222000000000000100000000000000B1
:0400000508000131BD
:00000001FF
