:020000040800F2
:1000000090090020750200082D070008D10600089D
:1000100029070008AD0500081109000800000000CC
:10002000000000000000000000000000DD010008EA
:10003000B105000800000000210200084D0800087A
:100040008F0200088F0200088F0200088F0200084C
:100050008F0200088F0200088F0200088F0200083C
:100060008F0200088F0200088F0200088F0200082C
:100070008F0200088F0200088F0200088F0200081C
:100080008F0200088F0200088F0200088F0200080C
:100090008F0200088F0200088F0200088F020008FC
:1000A0008F0200088F0200088F0200088F020008EC
:1000B0008F0200088F0200088F0200088F020008DC
:1000C0008F0200088F0200088F0200088F020008CC
:1000D0008F0200088F0200088F0200088F020008BC
:1000E0008F0200088F0200088F0200088F020008AC
:1000F0008F0200088F0200088F0200088F0200089C
:100100008F0200088F0200088F0200088F0200088B
:100110008F0200088F0200088F0200088F0200087B
:100120008F0200088F0200088F0200088F0200086B
:1001300000F002F800F042F80AA090E8000C8244B7
:100140008344AAF10107DA4501D100F037F8AFF294
:10015000090EBAE80F0013F0010F18BFFB1A43F0A5
:1001600001031847AC0B0000CC0B0000103A24BF71
:1001700078C878C1FAD8520724BF30C830C144BF0C
:1001800004680C607047000000230024002500264E
:10019000103A28BF78C1FBD8520728BF30C148BFEA
:1001A0000B607047642900F0F180732900F0B28180
:1001B000002070471FB51FBD10B510BD00F0C4F979
:1001C0001146FFF7F7FF00F0E5FB00F0E2F903B49A
:1001D000FFF7F2FF03BC00F09DFB0000224B196803
:1001E0000868B0E8F00F80F30988BFF36F8F4FF015
:1001F000000080F311884EF00D0E704700000000E3
:1002000006480068006880F3088862B661B6BFF3EC
:100210004F8FBFF36F8F00DF00BF00BF08ED00E01E
:10022000EFF30980BFF36F8F0F4B1A6820E9F00FCF
:10023000106008B54FF0500080F31188BFF34F8F66
:10024000BFF36F8F00F0E6FB4FF0000080F31188E2
:10025000BDE8084019680868B0E8F00F80F3098825
:10026000BFF36F8F704700BF08000020EFF30580D9
:10027000704700000948804709480047FEE7FEE74D
:10028000FEE7FEE7FEE7FEE7FEE7FEE7FEE7FEE746
:1002900004480549054A064B70470000B1080008AC
:1002A00031010008900300209009002090050020F3
:1002B00090050020704700000FB4044910B503AA50
:1002C000029800F02BF910BC5DF814FB040000202C
:1002D0002DE9F0410E460446002020622046E168E8
:1002E000884730B3252805D0D4E901219047206AFA
:1002F000401CF2E7E168204600278847050018D037
:10030000A5F14100192802D820354FF40067324684
:10031000294620462760FFF745FF40B1012804D059
:10032000F61D26F007060836D8E7361DD6E728461C
:10033000DAE7206ABDE8F08170B50C460546012A6F
:1003400005D02878800600D5EA69002302E0012361
:1003500005E05B1C934202D2E05C0028F9D1A86959
:10036000E618C01AA861286A184428622846AFF324
:10037000008004E0D5E9012114F8010B9047B44254
:10038000F8D32846AFF3008070BD00002DE9F0419E
:100390000646002410687529314616A510D0AFF323
:1003A0000080002802DA404213A507E031688A077E
:1003B00001D512A502E0490704D511A5012401E0E9
:1003C000AFF3008000210A2206F1240709E0B0FB08
:1003D000F2FCB0FBF2F302FB1C00303078541846FC
:1003E000491C0028F3D123462A463046BDE8F04197
:1003F00000F00CB8000000002D0000002B000000F1
:100400002000000070477047704770472DE9F047A3
:100410000D4699469246044600F124080168880674
:1004200004D5E06921F01001216000E00120A8421C
:1004300001DD471B00E00027A1697A1902EB0900E2
:10044000081AA0612078C00602D42046AFF30080CD
:10045000002608E0D4E901211AF806009047206A36
:10046000401C761C20624E45F4DB2078C0060AD57D
:100470002046AFF3008006E0D4E901213020904708
:10048000206A401C2062381EA7F10107F4DC07E057
:10049000D4E9012118F805009047206A401C206229
:1004A000281EA5F10105F3DC2046AFF3008020787B
:1004B000000602D50220BDE8F0870120FBE700001E
:1004C00001694A1C02610878704700B58FB0CDE918
:1004D00001310021059105497944CDE90310114608
:1004E0006846FFF7F5FE0FB000BD0000E5FFFFFF17
:1004F00010B5436913B1AFF3008001E0FFF71CFFB3
:10050000012010BD127800F124010A7000224A7007
:100510000122EDE711684FF0FF32E9E7074B70B5B4
:100520000D467B44FFF7D1FF0446284600F008F84B
:1005300010B14FF0FF3070BD204670BD5304000075
:10054000007B00F080007047754600F02BF8AE4647
:1005500005006946534620F00700854618B020B5CF
:10056000FFF796FEBDE820404FF000064FF0000771
:100570004FF000084FF0000B21F00701AC46ACE84B
:10058000C009ACE8C009ACE8C009ACE8C0098D46B8
:10059000704710B50446AFF300802046BDE8104018
:1005A000FFF715BE004870472C03002000BFFEE790
:1005B00070472DE9F0410246002500260020002367
:1005C0000024002791F803C00CF00F0591F803C038
:1005D0000CF0100CBCF1000F03D091F802C04CEAF3
:1005E000050591F800C0BCF1000F31D0146800205F
:1005F0002BE04FF0010C0CFA00F3B1F800C00CEA4C
:1006000003069E4220D183004FF00F0C0CFA03F733
:10061000BC4305FA03FC4CEA040491F803C0BCF1A6
:10062000280F06D14FF0010C0CFA00FCC2F814C0E0
:100630000AE091F803C0BCF1480F05D14FF0010C5E
:100640000CFA00FCC2F810C0401C0828D1D314607A
:10065000B1F800C0BCF1FF0F34DD546800202EE07B
:1006600000F1080C4FF0010808FA0CF3B1F800C0D3
:100670000CEA03069E4221D183004FF00F0C0CFAC6
:1006800003F7BC4305FA03FC4CEA040491F803C0E9
:10069000BCF1280F05D100F1080C08FA0CF8C2F8DB
:1006A000148091F803C0BCF1480F07D100F1080C89
:1006B0004FF0010808FA0CF8C2F81080401C082816
:1006C000CED35460BDE8F08141617047016170474D
:1006D00000BFFEE708B50121082000F033F8012132
:1006E000402000F02FF82020ADF8000010208DF8F9
:1006F000030003208DF8020069460948FFF759FFFF
:100700002020ADF8000069460648FFF752FF20217F
:100710000348FFF7DBFF20210248FFF7D7FF08BDA2
:10072000000C01400018014000BFFEE770470000C8
:1007300002490143024A1160704700000000FA05B7
:100740000CED00E029B1064A92690243044B9A611C
:1007500004E0034A92698243014B9A6170470000AA
:100760000010024010B500F001F810BD0CB50020DB
:10077000019000903348006840F4803031490860AF
:1007800000BF3048006800F4003000900198401C21
:100790000190009818B90198B0F5A06FF1D12948DF
:1007A000006800F4003010B10120009001E000204A
:1007B00000900098012843D12348006840F01000C1
:1007C000214908600846006820F0030008600846D8
:1007D000006840F0020008601A4840681949486003
:1007E0000846406848600846406840F480604860B9
:1007F0000846406820F47C1048600846406840F491
:10080000E81048600846006840F08070086000BF4B
:100810000C48006800F000700028F9D009484068D2
:1008200020F00300074948600846406840F0020095
:10083000486000BF0348406800F00C000828F9D168
:100840000CBD0000001002400020024010B500F076
:1008500059F9012801D000F03BF910BD10B5002274
:100860004FF0E0231A611A46126922F004021A615D
:10087000C31700EB5373C3F3CF030C4C2380C31790
:1008800000EB5373D9104FF47A7251434FF0E022CA
:10089000126942F002024FF0E0231A611A465161D8
:1008A000126942F001021A6110BD00000000002030
:1008B00010B51348006840F001001149086008466F
:1008C0004068104908400E494860084600680E49D3
:1008D00008400B4908600846006820F48020086042
:1008E0000846406820F4FE0048604FF41F0088600E
:1008F000FFF738FF4FF000600449086010BD0000AA
:10090000001002400000FFF8FFFFF6FE08ED00E0D7
:1009100000BFFEE700BF704730B50446002504E085
:100920004FF47A7000F004F86D1CA542F8D330BD86
:1009300070B5034600224FF0E02675690D4E3688EB
:1009400003FB06F44FF0E026B16910E04FF0E0261B
:10095000B06988420BD0884202D20E1A324402E0BB
:100960002E1A0E4432440146A24200D300E0EDE7C5
:1009700000BF70BD0000002000BF054A128802F0D1
:100980004002002AF9D0C2B2014B1B1D1A807047E9
:10099000003801404FF44070FFF7CAFE4820FFF7CF
:1009A0005DFFFFF797FE17E020210C48FFF78CFE54
:1009B00020210B48FFF788FE4FF49670FFF7ACFF3D
:1009C00020210648FFF782FE20210548FFF77EFE22
:1009D0004FF49670FFF7A0FFE6E70000000C01401F
:1009E0000018014009480068006808B9012000E0CB
:1009F000002020B14FF0FF300549086005E00348B2
:100A00000068C06800680249086070470C00002058
:100A10003800002010B51B48006818B101201A49A1
:100A200008602DE000201849086018480068B0FAF6
:100A300080F0C0F11F0404EB8400154951F8200038
:100A400008B1012000E0002028B940F6024211A1BF
:100A50001AA0FFF731FC04EB84010D4A02EB810080
:100A600041684968416000F1080142688A4202D148
:100A70004168496841604168C968144A116000BF13
:100A800010BD0000440000202C00002020000020A9
:100A9000480000202E2E5C2E2E5C4D6964646C652F
:100AA00077617265735C4672656552544F535C732F
:100AB00072635C7461736B732E6300004572726FB6
:100AC000723A2025732C2025640D0A0008000020AE
:100AD00010B500BF502080F31188BFF34F8FBFF3D4
:100AE0006F8F00BF00F01EF818B14FF0805004491E
:100AF000086000BF002080F3118800BF10BD000017
:100B000004ED00E00549096809B9012005E0044940
:100B1000096809B9022000E0002070472400002085
:100B2000440000202DE9F0414FF000085F480068C4
:100B300000287DD15E480068451C5D480560002D99
:100B40001DD15C480068006808B9012000E0002061
:100B500028B940F6C72258A161A0FFF7ADFB554860
:100B60000768634800685349086061480760614846
:100B70000068401C5F490860FFF734FF00BF5E4813
:100B80000068854277D300BF4A480068006808B90A
:100B9000012000E0002020B14FF0FF3056490860EE
:100BA00068E044480068C068C4686668B54202D21C
:100BB000514806605EE06069D4E902128A60D4E9B7
:100BC00002214A60211D42688A4201D1E1684160E8
:100BD000002262610168491E0160A06A98B1A06AA2
:100BE000D4E907128A60D4E907214A6004F11801A8
:100BF00042688A4201D1216A41600022A2620168F2
:100C0000491E016000BF94F82C10012088403B4928
:100C10000968084339490860E16A01EB8101384AF3
:100C200002EB81014868A0608268E260211D00E05B
:100C300033E0826851608160E16A01EB8101304AF2
:100C400002EB81026261E16A01EB81012C4A52F8F8
:100C50002110491CE26A02EB8202294B43F8221060
:100C60002849E06A0968C96A88428DD34FF00108B3
:100C70008AE700E000BF23480068C06A00EB8000FC
:100C80001F4951F82000012801D94FF001081E48E2
:100C9000006808B14FF0010804E01C480068401CDF
:100CA0001A4908604046BDE8F08100004400002079
:100CB0001C0000200C0000202E2E5C2E2E5C4D69A6
:100CC00064646C6577617265735C467265655254E5
:100CD0004F535C7372635C7461736B732E630000BB
:100CE0004572726F723A2025732C2025640D0A001C
:100CF00010000020300000203800002020000020DC
:100D000048000020080000202C00002028000020BF
:100D1000300D000800000020480000006C010008B1
:100D2000780D0008480000204809000088010008EC
:100D300000000000000000000000000000000000B3
:100D400000000000000000000000000000000000A3
:100D50000000000000000000000000000000000093
:100D60000000000000000000000000000000000083
:080D70001F000000000000005C
:0400000508000131BD
:00000001FF
