:020000040800F2
:1000000080970020E1010008C90600085B04000891
:10001000C506000825030008C50A00080000000006
:10002000000000000000000000000000490100087E
:1000300029030008000000008D010008BD08000829
:10004000FB010008FB010008FB010008FB010008A0
:10005000FB010008FB010008FB010008FB01000890
:10006000FB010008FB010008FB010008FB01000880
:10007000FB010008FB010008FB010008FB01000870
:10008000FB010008FB010008FB010008FB01000860
:10009000FB010008FB010008FB010008FB01000850
:1000A000FB010008FB010008FB010008FB01000840
:1000B000FB010008FB010008FB010008FB01000830
:1000C000FB010008FB010008FB010008FB01000820
:1000D000FB010008FB010008FB010008FB01000810
:1000E000FB010008FB010008FB010008FB01000800
:1000F000FB010008FB010008FB010008FB010008F0
:10010000FB010008FB010008FB010008FB010008DF
:10011000FB010008FB010008FB010008FB010008CF
:10012000FB010008FB010008FB010008FB010008BF
:10013000DFF810D000F07CF800480047FD0C000804
:10014000AFF3008080970020224B19680868B0E860
:10015000F00F80F30988BFF36F8F4FF0000080F33A
:1001600011884EF00D0E7047000000000648006830
:10017000006880F3088862B661B6BFF34F8FBFF3A3
:100180006F8F00DF00BF00BF08ED00E0EFF30980D4
:10019000BFF36F8F0F4B1A6820E9F00F106008B59E
:1001A0004FF0500080F31188BFF34F8FBFF36F8F74
:1001B00001F048FC4FF0000080F31188BDE80840D2
:1001C00019680868B0E8F00F80F30988BFF36F8FF3
:1001D000704700BF34000020EFF305807047000037
:1001E0000648804706480047FEE7FEE7FEE7FEE7D1
:1001F000FEE7FEE7FEE7FEE7FEE7FEE7CD080008C4
:100200003101000830B50B460146002020220124B0
:1002100009E021FA02F59D4205D303FA02F5491BD4
:1002200004FA02F52844151EA2F10102F1DC30BDEA
:10023000064C074D06E0E06840F0010394E8070033
:1002400098471034AC42F6D3FFF776FFCC1E000877
:10025000EC1E00081CB5012401F018F91348012117
:1002600000238022CDE9001011A1144801F0AAFC5E
:100270000446012C02D112A000F026FC16480221EF
:1002800000238022CDE9001014A1174801F09AFC48
:100290000446012C02D115A000F016FC1948006894
:1002A00001F012FA01F034F91CBD00002C0000200E
:1002B0004C45445F5461736B000000004106000828
:1002C0004C45445F5461736BC8CECEF1B4B4BDA845
:1002D000B3C9B9A6210D0A00300000204B65795F33
:1002E0005461736B00000000590500084B65795F8D
:1002F0005461736BC8CECEF1B4B4BDA8B3C9B9A66E
:10030000210D0A002800002010B54FF4407000F0C5
:10031000DDF94FF4E13000F009FB00F067F900F07F
:100320009FF810BD00BFFEE770472DE9F04102467F
:1003300000250026002000230024002791F803C098
:100340000CF00F0591F803C00CF0100CBCF1000F7D
:1003500003D091F802C04CEA050591F800C0BCF149
:10036000000F31D0146800202BE04FF0010C0CFA84
:1003700000F3B1F800C00CEA03069E4220D18300CE
:100380004FF00F0C0CFA03F7BC4305FA03FC4CEAE0
:10039000040491F803C0BCF1280F06D14FF0010C02
:1003A0000CFA00FCC2F814C00AE091F803C0BCF1DA
:1003B000480F05D14FF0010C0CFA00FCC2F810C038
:1003C000401C0828D1D31460B1F800C0BCF1FF0F65
:1003D00034DD546800202EE000F1080C4FF00108D5
:1003E00008FA0CF3B1F800C00CEA03069E4221D1D2
:1003F00083004FF00F0C0CFA03F7BC4305FA03FC23
:100400004CEA040491F803C0BCF1280F05D100F1B7
:10041000080C08FA0CF8C2F8148091F803C0BCF17B
:10042000480F07D100F1080C4FF0010808FA0CF84A
:10043000C2F81080401C0828CED35460BDE8F0817B
:100440000246002093680B400BB1012000E0002021
:100450007047416170470161704700BFFEE70000CF
:1004600008B50121042000F03BF90121402000F0F3
:1004700037F91820ADF8000048208DF803006946D0
:100480000648FFF752FF0120ADF8000028208DF844
:10049000030069460248FFF748FF08BD0018014005
:1004A0000008014010B5002428480078002837D003
:1004B00001212748FFF7C4FF48B908212548FFF765
:1004C000BFFF20B110212348FFF7BAFF08BB0A2065
:1004D00000F0F6FB01211E48FFF7B2FF48B90821E2
:1004E0001C48FFF7ADFF20B110211A48FFF7A8FF05
:1004F00078B900201549087010211648FFF7A0FFB1
:1005000008B901240CE008211248FFF799FF08B947
:10051000022405E001210E48FFF792FF00B10324F9
:1005200001210B48FFF78CFF68B908210948FFF744
:1005300087FF40B107480830006800F0100010B194
:10054000012002490870204610BD000094000020E0
:10055000000801400018014021E0FFF7A3FF012837
:1005600002D0022816D10AE00DA000F0ADFA104822
:10057000006801F0DDF90FA000F0A6FA0BE012A070
:1005800000F0A2FA0A48006801F026F912A000F073
:100590009BFA00E000BF00BF142001F059F8DCE72F
:1005A000B9D2C6F04C4544C8CECEF1A3A10D0A0085
:1005B0002C000020B9D2C6F04C4544C8CECEF1B3D1
:1005C000C9B9A6A3A10D0A00BBD6B8B44C4544C80E
:1005D000CECEF1A3A10D0A00BBD6B8B44C4544C899
:1005E000CECEF1B3C9B9A6A3A10D0A0008B5012169
:1005F000082000F075F80121402000F071F820205B
:10060000ADF8000010208DF8030003208DF80200E3
:1006100069460948FFF789FE2020ADF800006946C9
:100620000648FFF782FE20210348FFF714FF202130
:100630000248FFF710FF08BD000C01400018014000
:1006400023E020211148FFF704FF20211048FFF785
:1006500002FF4FF4FA7000F0FBFF0EA000F034FA36
:100660000FA000F031FA20210848FFF7F4FE202106
:100670000748FFF7EEFE4FF4FA7000F0E9FF0BA019
:1006800000F022FA0CA000F01FFADAE7000C01409B
:10069000001801404C454430BFAA0D0A000000007C
:1006A0004C454431B9D80D0A000000004C45443097
:1006B000B9D80D0A000000004C454431BFAA0D0A0C
:1006C0000000000000BFFEE7704700000249014340
:1006D000024A1160704700000000FA050CED00E0CE
:1006E00029B1064A92690243044B9A6104E0034A25
:1006F00092698243014B9A617047000000100240EA
:1007000030B500210022002400232D4D6D6805F036
:100710000C0121B1042905D0082923D105E0294D78
:10072000056022E0274D05601FE0254D6D6805F44A
:100730007012234D6D6805F48034022505EB92425A
:100740001CB9214D554305600BE01D4D6D6805F446
:1007500000351DB11C4D5543056002E0194D554350
:10076000056002E0174D056000BF00BF144D6D68C5
:1007700005F0F0010909154D6B5C0568DD40456029
:100780000F4D6D6805F4E061090A104D6B5C45681A
:10079000DD4085600A4D6D6805F46051C90A0B4D56
:1007A0006B5C4568DD40C560054D6D6805F44041F2
:1007B000890B074D6B5CC568B5FBF3F5056130BD72
:1007C0000010024000127A0000093D0014000020D1
:1007D0002400002010B500F001F810BD0CB5002079
:1007E000019000903348006840F48030314908603F
:1007F00000BF3048006800F4003000900198401CB1
:100800000190009818B90198B0F5A06FF1D129486E
:10081000006800F4003010B10120009001E00020D9
:1008200000900098012843D12348006840F0100050
:10083000214908600846006820F003000860084667
:10084000006840F0020008601A4840681949486092
:100850000846406848600846406840F48060486048
:100860000846406820F47C1048600846406840F420
:10087000E81048600846006840F08070086000BFDB
:100880000C48006800F000700028F9D00948406862
:1008900020F00300074948600846406840F0020025
:1008A000486000BF0348406800F00C000828F9D1F8
:1008B0000CBD0000001002400020024010B501F005
:1008C000B1F9012801D001F063F910BD10B513484A
:1008D000006840F00100114908600846406810496E
:1008E00008400E494860084600680E4908400B4918
:1008F00008600846006820F48020086008464068C8
:1009000020F4FE0048604FF41F008860FFF762FF8C
:100910004FF000600449086010BD00000010024064
:100920000000FFF8FFFFF6FE08ED00E010B586B00E
:10093000044601210420FFF7D3FE01218803FFF7BD
:10094000CFFE4FF40070ADF8140018208DF817009A
:1009500003208DF8160005A91348FFF7E6FC4FF4B5
:100960008060ADF8140004208DF8170003208DF886
:10097000160005A90C48FFF7D8FC01940020ADF83B
:100980000800ADF80A00ADF80C00ADF810000C201E
:10099000ADF80E0001A9054800F024F80121034834
:1009A00000F006F806B010BD000801400038014014
:1009B00021B1828942F40052828104E082894DF69D
:1009C000FF731A408281704702460020B1F5007F14
:1009D00000D100BF13880B400BB1012000E00020C4
:1009E000704700002DE9F04786B005460E4600240A
:1009F000A24600BFA1460027B08900B100BF2F4624
:100A00002C8A4CF6FF700440F08804432C82AC8999
:100A10004EF6F3100440B0883189084371890843C9
:100A20000443AC81AC8A4FF6FF400440B0890443D4
:100A3000AC8201A8FFF764FE1F48874202D1DDF8AF
:100A400010A001E0DDF80CA0A88900F4004040B13E
:100A50000AEBCA0000EB0A1031684900B0FBF1F85C
:100A600007E00AEBCA0000EB0A1031688900B0FB0E
:100A7000F1F86420B8FBF0F004012009642101FBC7
:100A80001089A88900F4004040B1322000EBC90071
:100A9000B0FBF1F000F00700044308E0322000EB67
:100AA00009106421B0FBF1F000F00F0004432C8129
:100AB00006B0BDE8F087000000380140C1F308022D
:100AC0008280704700BFFEE70FB4054B10B503A945
:100AD000044A029800F018F810BC5DF814FB0000FE
:100AE000D90C00089800002002E008C8121F08C1B5
:100AF000002AFAD170477047002001E001C1121F9F
:100B0000002AFBD1704700002DE9FF4F8BB09A46B9
:100B10000F460546002606E025280BD052460D99C3
:100B200090476D1C761C28780028F5D10FB0304610
:100B3000BDE8F08F0024A0460122604900E0044394
:100B400015F8013F203B02FA03F00842F7D128785C
:100B50002E2817D115F8010F44F004042A280ED0CE
:100B60006FF02F022878A0F1300109290AD808EB8C
:100B7000880102EB410100EB01086D1CF2E757F818
:100B8000048B6D1C287869283ED006DC0028CDD067
:100B900063280BD0642804D136E0732810D0752860
:100BA0004BD052460D999047761C85E017F8040B00
:100BB0008DF8000000208DF80100E946012003E0D7
:100BC00057F8049B4FF0FF3061074FF0000401D449
:100BD0000AE0641C44450DDA8442FADB19F804107B
:100BE0000029F6D106E0641C8442FCDB19F80410ED
:100BF0000029F8D1264404E019F8010B52460D995A
:100C00009047641EF8D257E001CF4FF00A0B00283E
:100C100002DA40422D2102E0210504D52B218DF876
:100C20002410012103E0E10705D02021F7E70DF1B1
:100C3000200908910CE00021F9E701CF4FF00A0BE1
:100C4000F9E75946FFF7DEFA01F1300209F8012D04
:100C50000028F6D1ADEB090000F1200B600701D4AC
:100C60004FF00108D84502DDA8EB0B0000E00020A2
:100C70008046002406E009A85246005D0D99904781
:100C8000641C761C08988442F5DB04E03020524650
:100C90000D999047761CB8F10001A8F10108F5DC28
:100CA00005E019F8010B52460D999047761CBBF1EF
:100CB0000001ABF1010BF4DC6D1C34E709280100E5
:100CC000002100E0491C00EBC00202EB0012B1EB76
:100CD000820FF7D37047000070B504460D46E1B2AD
:100CE0000548FFF7EBFE00BF80210348FFF76CFECD
:100CF0000028F9D0204670BD003801401CB5012401
:100D0000FFF702FB0BA0FFF7DFFE0F4801210023D6
:100D10008022CDE900100DA1104800F053FF0446D9
:100D2000012C02D100F0B0FD02E00DA0FFF7CCFED7
:100D300000BFFEE7D3B2BCFEB3F5CABCBBAFCDEA81
:100D4000B3C90D0A00000000280000204170705453
:100D500061736B43726561746500000055020008A1
:100D6000C8CECEF1B4B4BDA8CAA7B0DC0D0A00004D
:100D70002DE9F04105460E461C4807681C480068EE
:100D8000001D00F039FB50B91948006890F82C108C
:100D90000120884017490968814316480160681C92
:100DA00038B936B112480168091D134800F062FBDA
:100DB0001AE07C190E4800684460BC4207D20C4817
:100DC0000168091D0D48006800F03AFB0CE0084876
:100DD0000168091D0A48006800F032FB09480068F4
:100DE000844201D207480460BDE8F0814800002039
:100DF000340000204C0000206C0300203C00002048
:100E0000380000206400002010B5044600F03EFBCE
:100E100023480068401C224908602248006840B905
:100E2000204804600846006801280DD100F036F91A
:100E30000AE01D48006838B91A480068C06AE16ACB
:100E4000884201D81748046018480068401C1749B8
:100E5000086094F82C10012088401549096808435F
:100E600013490860E16A01EB8101124A02EB81003B
:100E7000211D00F0FFFA00F04BFB0B48006868B141
:100E800008480068C06AE16A884207D24FF0805083
:100E900009490860BFF34F8FBFF36F8F10BD00008B
:100EA000440000203400002050000020600000209A
:100EB0004C0000209C00002004ED00E070B523E011
:100EC00000F0B8FD1348006808B9012000E00020D8
:100ED000054600F069FFBDB900F0D8FA0D48C068BA
:100EE000C468201D00F088FA0B480068401E0A49BB
:100EF00008600A480068401E0849086000F008FBC6
:100F0000204600F00DF800BF044800680028D7D143
:100F100070BD000058030020440000204000002065
:100F200010B50446206B00F029FB204600F026FB9C
:100F300010BD000030B54FF41043174800F007040F
:100F40002CB1C01D20F00700134C041B1B1B0246D4
:100F5000124C22600024114D6C60D018083820F02B
:100F600007000F4C206000240D4D2D686C600C4D67
:100F70002D682C601146441A4C60094C24680C60A2
:100F8000084D4C682C60084D4C682C604FF00044B4
:100F9000064D2C6030BD0000800300207000002052
:100FA00078000020800000207C00002084000020C9
:100FB00000BFFFF783FF064800680128F9D94FF00A
:100FC000805004490860BFF34F8FBFF36F8FF0E785
:100FD0009C00002004ED00E02DE9FF5F81460E46F5
:100FE0009246DDE90E7B109CAAF10100216B01EB1A
:100FF000800828F0070808F0070008B9012000E081
:10100000002028B940F22B321AA120A0FFF75CFD86
:10101000002507E0715D04F134004155705D00B9B1
:1010200002E06D1C102DF5D300BF002143200155B7
:10103000202F00D31F27E762201D00F0FEF904F1E6
:10104000180000F0FAF92461C7F12000A061646281
:101050000020606484F8480049464046039A00F046
:10106000B9F92060BBF1000F01D0CBF80040BDE81A
:10107000FF9F00002E2E5C4672656552544F535CF4
:101080007372635C7461736B732E63004572726F6D
:10109000723A25732C25640D0A00000010B5002457
:1010A00007E004EB84010F4A02EB810000F0B8F97D
:1010B000641C202CF5D30C4800F0B2F90B4800F06A
:1010C000AFF90B4800F0ACF90A4800F0A9F90A485A
:1010D00000F0A6F904480949086004480849086076
:1010E00010BD00009C0000201C03002030030020E5
:1010F00044030020580300206C0300203800002027
:101100003C00002010B50146164800E00068036866
:101110008B42FBD30246436813448B4204D143689D
:101120004C682344436001460A464B6813440468F4
:10113000A34211D10C4C03682468A34208D04B6829
:101140000468646823444B6003681B680B6005E017
:10115000054B1B680B6001E003680B60884200D000
:10116000016010BD70000020780000200A49096865
:10117000096809B9012100E0002121B14FF0FF31D8
:10118000064A116006E004490968C968C868034A4C
:1011900041681160704700003800002064000020A2
:1011A0000B480068401C08B9012000E0002020B96D
:1011B000F42208A111A0FFF787FC00BF502080F3A4
:1011C0001188BFF34F8FBFF36F8F00BF00BFFEE7E3
:1011D000880000202E2E5C4672656552544F535C89
:1011E000706F72745C525644535C41524D5F434D74
:1011F000335C706F72742E63000000004572726F72
:10120000723A25732C25640D0A00000070B505465E
:1012100000262C462DB940F281620EA113A0FFF7E3
:1012200053FC16496069884201D1012000E000208A
:1012300070B11349A06A884201D1012000E000206A
:1012400030B9A06A08B9012000E0002000B10126F1
:10125000304670BD2E2E5C4672656552544F535C0D
:101260007372635C7461736B732E63004572726F8B
:10127000723A25732C25640D0A0000006C030020CF
:10128000440300202DE9F04104464FF0000800F02F
:10129000D1FB3E48006808B9FFF74CFE3C480068A7
:1012A000204000285FD1A4B1083404F0070080B1C9
:1012B00004F00700C0F10800044404F0070008B976
:1012C000012000E0002020B9BF2232A13AA0FFF7A0
:1012D000FBFB002C47D03C480068844243D83B4E7F
:1012E0003046056801E02E462D686868A04202D2AB
:1012F00028680028F7D125480068854233D0306837
:1013000000F10808286830606868001B102813D9AD
:101310002F1907F0070008B9012000E0002020B9CC
:10132000EC221CA124A0FFF7CFFB6868001B7860AB
:101330006C603846FFF7E6FE234968680968081ABA
:10134000214908600846006821490968884203D29B
:101350001D4800681E4908600D496868096808430F
:1013600068600020286000F01FFD08F0070008B941
:10137000012000E0002028B94FF4967205A10EA0CC
:10138000FFF7A2FB4046BDE8F08100007800002096
:10139000840000202E2E5C4672656552544F535CCB
:1013A000706F72745C4D656D4D616E675C686561F0
:1013B000705F342E630000004572726F723A2573BD
:1013C0002C25640D0A0000007C0000207000002025
:1013D00080000020001F4FF080730360001F21F089
:1013E00001030360001F034B0360143802602038C0
:1013F00070470000A111000801460A69D1E90130D7
:101400009860D1E9010358605068884201D188682A
:101410005060002008611068401E1060106870471E
:1014200000F1080141604FF0FF31816000F10801D7
:10143000C1600161002101607047002101617047B6
:1014400010B502460B685C1C0CB9106907E002F18C
:10145000080000E04068446824689C42FAD9446867
:101460004C604C68A160886041600A611468641C2B
:10147000146010BD42684A6093688B60936859603D
:101480009160086103685B1C0360704710B500BF82
:10149000502080F31188BFF34F8FBFF36F8F00BFD1
:1014A0000B480068401C0A4908600846006801288B
:1014B0000DD108480068C0B208B9012000E0002042
:1014C00028B94FF4BD7204A10DA0FFF7FDFA10BDBD
:1014D0008800002004ED00E02E2E5C467265655207
:1014E000544F535C706F72745C525644535C41525B
:1014F0004D5F434D335C706F72742E6300000000CB
:101500004572726F723A25732C25640D0A00000033
:1015100010B50B48006828B940F2811209A113A048
:10152000FFF7D2FA06480068401E054908600846E1
:10153000006820B9002080F3118800BF00BF10BDF3
:10154000880000202E2E5C4672656552544F535C15
:10155000706F72745C525644535C41524D5F434D00
:10156000335C706F72742E63000000004572726FFE
:10157000723A25732C25640D0A00000070B50646EA
:101580003546002E35D0083D2C461A49606809685A
:10159000084008B1012000E0002028B94FF4A072F3
:1015A00015A11EA0FFF790FA206808B9012000E0FD
:1015B000002028B940F241120FA118A0FFF784FAC9
:1015C0000C4960680968084098B1206888B90949E1
:1015D000606809688843606000F02CFA134960680D
:1015E00009680844114908602046FFF78BFD00F0A8
:1015F000DBFB70BD840000202E2E5C4672656552B8
:10160000544F535C706F72745C4D656D4D616E67C5
:101610005C686561705F342E630000004572726F14
:10162000723A25732C25640D0A0000007C0000200E
:10163000064800684FF47A71B0FBF1F0401E4FF09D
:10164000E021486107200861704700000000002089
:1016500070B504460025ACB10F48006808B90120F8
:1016600000E0002028B940F2CF420CA111A0FFF702
:101670002BFA00F0DFF900212046FFF779FB00F09C
:1016800093FB05463DB94FF080500E490860BFF30B
:101690004F8FBFF36F8F70BD6C0000202E2E5C4605
:1016A00072656552544F535C7372635C7461736B03
:1016B000732E63004572726F723A25732C25640D88
:1016C0000A00000004ED00E070B50546FFF7DEFEFD
:1016D00015B92D48006800E028460446201DFFF794
:1016E0008BFE78B9E06A00EB8000284951F82000B1
:1016F00040B994F82C10012088402549096881439D
:1017000023480160A06A18B104F11800FFF774FEC5
:1017100020480068401C1F4908601B48006884423C
:1017200009D1211D1C48FFF7A5FE1C480068401C7C
:101730001A49086009E01A480068401E1849086004
:101740002046FFF7EDFBFFF711FDFFF7E1FE15481F
:101750000068C0B10C480068844214D11248006887
:1017600008B9012000E0002028B940F265420FA12D
:1017700014A0FFF7A9F94FF0805016490860BFF395
:101780004F8FBFF36F8F70BD340000209C0000208E
:101790004C00002060000020580300204000002082
:1017A00044000020500000206C0000202E2E5C46DB
:1017B00072656552544F535C7372635C7461736BF2
:1017C000732E63004572726F723A25732C25640D77
:1017D0000A00000004ED00E070B505462C462DB966
:1017E00040F2AB621AA120A0FFF76EF974B3224851
:1017F000006884422AD0FFF749FE2046FFF706FD25
:1018000010B3201DFFF7F8FD94F82C10012088403C
:101810001A490968084319490860E16A01EB810126
:10182000174A02EB8100211DFFF724FE1249E06AEE
:101830000968C96A884207D34FF08050114908608F
:10184000BFF34F8FBFF36F8FFFF762FE70BD0000D5
:101850002E2E5C4672656552544F535C7372635C06
:101860007461736B732E63004572726F723A2573E5
:101870002C25640D0A000000340000204C000020DC
:101880009C00002004ED00E01CB5184800210B4628
:101890008022CDE9001016A1174800F093F9044604
:1018A000012C15D100BF502080F31188BFF34F8F5A
:1018B000BFF36F8F00BF4FF0FF3010490860012069
:1018C0000F49086000200F49086000F011F90BE093
:1018D000601C08B1012000E0002028B940F28472A9
:1018E00009A10FA0FFF7F0F81CBD00006800002060
:1018F00049444C4500000000B10F0008640000207E
:1019000050000020480000202E2E5C467265655273
:10191000544F535C7372635C7461736B732E63001A
:101920004572726F723A25732C25640D0A0000000F
:1019300070B50546FFF7AAFD15B92C48006800E010
:1019400028460446201DFFF757FD78B9E06A00EBF2
:101950008000274951F8200040B994F82C1001204C
:10196000884024490968814322480160A06A18B16F
:1019700004F11800FFF740FD211D1F48FFF77AFD15
:10198000FFF7C6FD1D48006828B1FFF77FFDFFF790
:10199000EDFBFFF7BDFD15480068844224D11748D0
:1019A0000068A8B11648006808B9012000E00020CE
:1019B00028B940F2576213A118A0FFF785F84FF03D
:1019C00080501A490860BFF34F8FBFF36F8F0BE051
:1019D0000948006816490968884203D10020034974
:1019E000086001E000F02EF870BD00003400002017
:1019F0009C0000204C0000206C03002050000020C0
:101A00006C0000202E2E5C4672656552544F535C6C
:101A10007372635C7461736B732E63004572726FD3
:101A2000723A25732C25640D0A00000004ED00E0D5
:101A30004400002002480068401C014908607047CB
:101A40006C00002010B51B48006818B101201A492D
:101A500008602DE000201849086018480068B0FAB6
:101A600080F0C0F11F0404EB8400154951F82000F8
:101A700008B1012000E0002028B940F6F62211A1AB
:101A800016A0FFF721F804EB84010D4A02EB810058
:101A900041684968416000F1080142688A4202D108
:101AA0004168496841604168C968104A116000BFD7
:101AB00010BD00006C000020580000204C000020E9
:101AC0009C0000202E2E5C4672656552544F535C7C
:101AD0007372635C7461736B732E63004572726F13
:101AE000723A25732C25640D0A0000003400002092
:101AF0001CB52248014609780191FF210246117068
:101B00000146097800919DF8001001F050011C4A2F
:101B1000117007211B4A116009E01A490968491E22
:101B2000184A11609DF800104906090E00919DF8B1
:101B3000001001F080018029EFD0124909680902E4
:101B4000104A11601146098801F4E06111600B4AE6
:101B5000019911700C48006840F470000A4908604F
:101B60000846006840F070400860FFF761FD002003
:101B700006490860FEF7FAFA00201CBD00E400E008
:101B80008C0000209000002020ED00E08800002064
:101B900010B500BF502080F31188BFF34F8FBFF303
:101BA0006F8F00BF00F04EF818B14FF0805004491D
:101BB000086000BF002080F3118800BF10BD000046
:101BC00004ED00E02DE9FF4F85B0804689461746B9
:101BD000DDE912ABB800FFF755FB064656B14C20C5
:101BE000FFF750FB04460CB1266304E03046FFF7D4
:101BF000C5FC00E000247CB10020CDE900ABCDE9BC
:101C000002403A4649464046089BFFF7E5F9204620
:101C1000FFF7FAF8012501E04FF0FF35284609B03B
:101C2000BDE8F08F0549096809B9012005E00449BC
:101C3000096809B9022000E0002070475000002028
:101C40006C0000202DE9F0414FF000084148006889
:101C5000002872D140480068451C3F480560EDB936
:101C60003E480068006808B9012000E0002028B95B
:101C700040F6D9123AA140A0FEF726FF3748076880
:101C800041480068354908603F4807603F480068A0
:101C9000401C3E490860FFF769FA00BF3C480068F5
:101CA00085423CD300BF2D480068006808B9012078
:101CB00000E0002020B14FF0FF30354908602DE0F2
:101CC00026480068C068C4686668B54202D23048D9
:101CD000066023E0201DFFF78FFBA06A18B104F116
:101CE0001800FFF789FB94F82C100120884029493F
:101CF0000968084327490860E16A01EB8101264A27
:101D000002EB8100211DFFF7B5FB2449E06A096859
:101D1000C96A8842C7D34FF00108C4E700BF1F4813
:101D20000068C06A00EB80001B4951F820000128C0
:101D300001D94FF0010805E0FFE719480068401C91
:101D4000174908601748006808B14FF0010840467D
:101D5000BDE8F0816C000020480000203800002021
:101D60002E2E5C4672656552544F535C7372635CF1
:101D70007461736B732E63004572726F723A2573D0
:101D80002C25640D0A0000003C0000205C000020AF
:101D9000640000204C0000209C0000203400002043
:101DA000540000205800002070B50024002634485C
:101DB000006828B94FF4FD6232A138A0FEF784FE16
:101DC000FFF764FB2E480068401E2D490860084656
:101DD000006800284FD13548006800284BD024E027
:101DE0003348C068C46804F11800FFF705FB201DE4
:101DF000FFF702FB94F82C10012088402D49096858
:101E000008432C490860E16A01EB81012A4A02EB90
:101E10008100211DFFF72EFB2849E06A0968C96A85
:101E2000884202D30120264908602148006808B989
:101E3000012000E000200028D2D00CB1FFF796F975
:101E40002048056865B100BFFFF7FCFE10B1012016
:101E50001B4908606D1E002DF6D10020194908604D
:101E60001748006838B10126300717490860BFF3EA
:101E70004F8FBFF36F8FFFF74BFB304670BD0000F5
:101E80006C0000202E2E5C4672656552544F535CE8
:101E90007372635C7461736B732E63004572726F4F
:101EA000723A25732C25640D0A00000044000020BE
:101EB000440300204C0000209C000020340000203F
:101EC000580000205400002004ED00E0EC1E000843
:101ED000000000209C000000E80A0008881F00089D
:101EE0009C000020E4960000F80A000800A24A04C2
:101EF00000000000000000000102030406070809BA
:101F0000000000000102030401020304060708099F
:101F100002040608000000000000000000000000AD
:101F200000000000000000000000000000000000B1
:101F300000000000000000000000000000000000A1
:101F40000000000000000000000000000000000091
:101F50000000000000000000000000000000000081
:101F60000000000000000000000000000000000071
:101F700000000000AAAAAAAA0000000000000000B9
:081F8000010000000000000058
:0400000508000131BD
:00000001FF
