:020000040800F2
:1000000080970020E1010008FD0500084105000877
:10001000F905000891030008850A000800000000A7
:10002000000000000000000000000000490100087E
:1000300095030008000000008D010008F10700088A
:10004000FB010008FB010008FB010008FB010008A0
:10005000FB010008FB010008FB010008FB01000890
:10006000FB010008FB010008FB010008FB01000880
:10007000FB010008FB010008FB010008FB01000870
:10008000FB010008FB010008FB010008FB01000860
:10009000FB010008FB010008FB010008FB01000850
:1000A000FB010008FB010008FB010008FB01000840
:1000B000FB010008FB010008FB010008FB01000830
:1000C000FB010008FB010008FB010008FB01000820
:1000D000FB010008FB010008FB010008FB01000810
:1000E000FB010008FB010008FB010008FB01000800
:1000F000FB010008FB010008FB010008FB010008F0
:10010000FB010008FB010008FB010008FB010008DF
:10011000FB010008FB010008FB010008FB010008CF
:10012000FB010008FB010008FB010008FB010008BF
:10013000DFF810D000F08EF800480047BD0C000832
:10014000AFF3008080970020224B19680868B0E860
:10015000F00F80F30988BFF36F8F4FF0000080F33A
:1001600011884EF00D0E7047000000000648006830
:10017000006880F3088862B661B6BFF34F8FBFF3A3
:100180006F8F00DF00BF00BF08ED00E0EFF30980D4
:10019000BFF36F8F0F4B1A6820E9F00F106008B59E
:1001A0004FF0500080F31188BFF34F8FBFF36F8F74
:1001B00001F026FC4FF0000080F31188BDE80840F4
:1001C00019680868B0E8F00F80F30988BFF36F8FF3
:1001D000704700BF38000020EFF305807047000033
:1001E0000648804706480047FEE7FEE7FEE7FEE7D1
:1001F000FEE7FEE7FEE7FEE7FEE7FEE70108000890
:100200003101000840EA01039B0703D009E008C957
:10021000121F08C0042AFAD203E011F8013B00F8CB
:10022000013B521EF9D2704730B50B460146002003
:100230002022012409E021FA02F59D4205D303FAA8
:1002400002F5491B04FA02F52844151EA2F1010229
:10025000F1DC30BD064C074D06E0E06840F00103DC
:1002600094E8070098471034AC42F6D3FFF764FFD8
:10027000D8240008F82400081CB5002401F064F913
:100280000521084601F07CFC174908600846006813
:1002900010B116A000F0F8FB1E48012100238022B7
:1002A000CDE900101CA11F4801F036FF0446012CC7
:1002B00002D11DA000F0E8FB224802210023802289
:1002C000CDE9001020A1234801F026FF0446012CAF
:1002D00002D121A000F0D8FB2648006801F052FAB4
:1002E00001F074F91CBD000034000020436F756EEE
:1002F0007453656D5F48616E646C65BCC6CAFDD0A1
:10030000C5BAC5C1BFB4B4BDA8B3C9B9A6210D0A49
:10031000000000002C00002054616B655F54617385
:100320006B00000061080008526563656976655FCF
:100330005461736BC8CECEF1B4B4BDA8B3C9B9A62D
:10034000210D0A0030000020476976655F54617313
:100350006B000000C1040008476976655F54617353
:100360006BC8CECEF1B4B4BDA8B3C9B9A6210D0AED
:10037000000000002800002010B54FF4407000F08D
:100380003FF94FF4E13000F0B1FA00F013F910BD7D
:1003900000BFFEE770472DE9F04102460025002628
:1003A000002000230024002791F803C00CF00F0563
:1003B00091F803C00CF0100CBCF1000F03D091F8C1
:1003C00002C04CEA050591F800C0BCF1000F31D025
:1003D000146800202BE04FF0010C0CFA00F3B1F888
:1003E00000C00CEA03069E4220D183004FF00F0CA0
:1003F0000CFA03F7BC4305FA03FC4CEA040491F839
:1004000003C0BCF1280F06D14FF0010C0CFA00FC20
:10041000C2F814C00AE091F803C0BCF1480F05D13E
:100420004FF0010C0CFA00FCC2F810C0401C082868
:10043000D1D31460B1F800C0BCF1FF0F34DD5468B3
:1004400000202EE000F1080C4FF0010808FA0CF330
:10045000B1F800C00CEA03069E4221D183004FF0A0
:100460000F0C0CFA03F7BC4305FA03FC4CEA040436
:1004700091F803C0BCF1280F05D100F1080C08FA6F
:100480000CF8C2F8148091F803C0BCF1480F07D1F2
:1004900000F1080C4FF0010808FA0CF8C2F81080BF
:1004A000401C0828CED35460BDE8F08102460020ED
:1004B00093680B400BB1012000E000207047000062
:1004C000012417E000F05AF8022810D100231A4640
:1004D00019460948006801F0F9FC0446012C03D1D3
:1004E00006A000F0D1FA02E00CA000F0CDFA142032
:1004F00001F00CF9E6E70000340000204B455931CB
:10050000B1BBB0B4CFC2A3ACCACDB7C531B8F6CD7C
:10051000A3B3B5CEBBA1A30D0A0000004B455931D2
:10052000B1BBB0B4CFC2A3ACB5ABD2D1CEDEB3B504
:10053000CEBBBFC9D2D4CACDB7C5A3A10D0A000096
:1005400000BFFEE710B510210B48FFF7AFFF80B9E1
:10055000032000F095FB10210748FFF7A7FF40B9E3
:1005600000BF10210448FFF7A1FF0028F9D00120A7
:1005700010BD0020FCE700000018014010B5082164
:100580000B48FFF793FF80B9032000F079FB0821A7
:100590000748FFF78BFF40B900BF08210448FFF769
:1005A00085FF0028F9D0022010BD0020FCE70000E4
:1005B0000018014008B50121042000F02BF80121AA
:1005C000402000F027F81820ADF8000048208DF8F2
:1005D000030069460648FFF7DEFE0120ADF8000083
:1005E00028208DF8030069460248FFF7D4FE08BDB5
:1005F000001801400008014000BFFEE770470000FE
:1006000002490143024A1160704700000000FA05E8
:100610000CED00E029B1064A92690243044B9A614D
:1006200004E0034A92698243014B9A6170470000DB
:100630000010024030B500210022002400232D4D7F
:100640006D6805F00C0121B1042905D0082923D1DA
:1006500005E0294D056022E0274D05601FE0254D8E
:100660006D6805F47012234D6D6805F48034022521
:1006700005EB92421CB9214D554305600BE01D4D21
:100680006D6805F400351DB11C4D5543056002E051
:10069000194D5543056002E0174D056000BF00BFCE
:1006A000144D6D6805F0F0010909154D6B5C056886
:1006B000DD4045600F4D6D6805F4E061090A104D9D
:1006C0006B5C4568DD4085600A4D6D6805F46051DE
:1006D000C90A0B4D6B5C4568DD40C560054D6D6812
:1006E00005F44041890B074D6B5CC568B5FBF3F51C
:1006F000056130BD0010024000127A0000093D0083
:10070000140000202400002010B500F001F810BDF6
:100710000CB50020019000903348006840F4803010
:100720003149086000BF3048006800F40030009094
:100730000198401C0190009818B90198B0F5A06F7D
:10074000F1D12948006800F4003010B10120009078
:1007500001E0002000900098012843D12348006860
:1007600040F01000214908600846006820F00300AE
:1007700008600846006840F0020008601A484068B7
:10078000194948600846406848600846406840F497
:10079000806048600846406820F47C104860084645
:1007A000406840F4E81048600846006840F08070F7
:1007B000086000BF0C48006800F000700028F9D005
:1007C0000948406820F0030007494860084640682F
:1007D00040F00200486000BF0348406800F00C0091
:1007E0000828F9D10CBD0000001002400020024092
:1007F00010B501F0C1FC012801D001F0A7F910BD2E
:1008000010B51348006840F001001149086008461F
:100810004068104908400E494860084600680E4983
:1008200008400B4908600846006820F480200860F2
:100830000846406820F4FE0048604FF41F008860BE
:10084000FFF762FF4FF000600449086010BD000030
:10085000001002400000FFF8FFFFF6FE08ED00E088
:10086000012417E0FFF76EFE012810D100231A467D
:1008700019460948006801F0F7F90446012C03D134
:1008800006A000F001F902E00DA000F0FDF8142030
:1008900000F03CFFE6E70000340000204B455930F3
:1008A000B1BBB0B4CFC2A3ACB3C9B9A6C9EAC7EB58
:1008B000B5BDCDA3B3B5CEBBA1A30D0A000000000A
:1008C0004B455930B1BBB0B4CFC2A3ACB2BBBAC375
:1008D000D2E2CBBCA3ACCFD6D4DACDA3B3B5B3A10F
:1008E000D2D1C2FAA3A10D0A0000000010B586B053
:1008F000044601210420FFF78DFE01218803FFF744
:1009000089FE4FF40070ADF8140018208DF8170020
:1009100003208DF8160005A91348FFF73CFD4FF49E
:100920008060ADF8140004208DF8170003208DF8C6
:10093000160005A90C48FFF72EFD01940020ADF824
:100940000800ADF80A00ADF80C00ADF810000C205E
:10095000ADF80E0001A9054800F024F80121034874
:1009600000F006F806B010BD000801400038014054
:1009700021B1828942F40052828104E082894DF6DD
:10098000FF731A408281704702460020B1F5007F54
:1009900000D100BF13880B400BB1012000E0002004
:1009A000704700002DE9F04786B005460E4600244A
:1009B000A24600BFA1460027B08900B100BF2F4664
:1009C0002C8A4CF6FF700440F08804432C82AC89DA
:1009D0004EF6F3100440B08831890843718908430A
:1009E0000443AC81AC8A4FF6FF400440B089044315
:1009F000AC8201A8FFF71EFE1F48874202D1DDF836
:100A000010A001E0DDF80CA0A88900F4004040B17E
:100A10000AEBCA0000EB0A1031684900B0FBF1F89C
:100A200007E00AEBCA0000EB0A1031688900B0FB4E
:100A3000F1F86420B8FBF0F004012009642101FB07
:100A40001089A88900F4004040B1322000EBC900B1
:100A5000B0FBF1F000F00700044308E0322000EBA7
:100A600009106421B0FBF1F000F00F0004432C8169
:100A700006B0BDE8F087000000380140C1F308026D
:100A80008280704700BFFEE70FB4054B10B503A985
:100A9000044A029800F018F810BC5DF814FB00003E
:100AA000990C00089800002002E008C8121F08C135
:100AB000002AFAD170477047002001E001C1121FDF
:100AC000002AFBD1704700002DE9FF4F8BB09A46FA
:100AD0000F460546002606E025280BD052460D9904
:100AE00090476D1C761C28780028F5D10FB0304651
:100AF000BDE8F08F0024A0460122604900E00443D5
:100B000015F8013F203B02FA03F00842F7D128789C
:100B10002E2817D115F8010F44F004042A280ED00E
:100B20006FF02F022878A0F1300109290AD808EBCC
:100B3000880102EB410100EB01086D1CF2E757F858
:100B4000048B6D1C287869283ED006DC0028CDD0A7
:100B500063280BD0642804D136E0732810D07528A0
:100B60004BD052460D999047761C85E017F8040B40
:100B70008DF8000000208DF80100E946012003E017
:100B800057F8049B4FF0FF3061074FF0000401D489
:100B90000AE0641C44450DDA8442FADB19F80410BB
:100BA0000029F6D106E0641C8442FCDB19F804102D
:100BB0000029F8D1264404E019F8010B52460D999A
:100BC0009047641EF8D257E001CF4FF00A0B00287F
:100BD00002DA40422D2102E0210504D52B218DF8B7
:100BE0002410012103E0E10705D02021F7E70DF1F2
:100BF000200908910CE00021F9E701CF4FF00A0B22
:100C0000F9E75946FFF710FB01F1300209F8012D11
:100C10000028F6D1ADEB090000F1200B600701D4EC
:100C20004FF00108D84502DDA8EB0B0000E00020E2
:100C30008046002406E009A85246005D0D999047C1
:100C4000641C761C08988442F5DB04E03020524690
:100C50000D999047761CB8F10001A8F10108F5DC68
:100C600005E019F8010B52460D999047761CBBF12F
:100C70000001ABF1010BF4DC6D1C34E70928010025
:100C8000002100E0491C00EBC00202EB0012B1EBB6
:100C9000820FF7D37047000070B504460D46E1B2ED
:100CA0000548FFF7EBFE00BF80210348FFF76CFE0D
:100CB0000028F9D0204670BD003801401CB5002442
:100CC000FFF75AFB0BA0FFF7DFFE0F4801210023BF
:100CD0008022CDE900100DA1104801F01DFA044654
:100CE000012C02D100F030FE02E00DA0FFF7CCFE97
:100CF00000BFFEE7D3B2BCFEB3F5CABCBBAFCDEAC2
:100D0000B3C90D0A00000000280000204170705493
:100D100061736B43726561746500000079020008BD
:100D2000C8CECEF1B4B4BDA8CAA7B0DC0D0A00008D
:100D30002DE9F04105460E461C4807681C4800682E
:100D4000001D00F0B7FB50B91948006890F82C104E
:100D50000120884017490968814316480160681CD2
:100D600038B936B112480168091D134800F0E0FB9C
:100D70001AE07C190E4800684460BC4207D20C4857
:100D80000168091D0D48006800F0B8FB0CE0084838
:100D90000168091D0A48006800F0B0FB09480068B6
:100DA000844201D207480460BDE8F0814C00002075
:100DB00038000020500000206C030020400000207C
:100DC0003C0000206800002010B5044600F0BCFB89
:100DD00023480068401C224908602248006840B946
:100DE000204804600846006801280DD100F094F9FD
:100DF0000AE01D48006838B91A480068C06AE16A0C
:100E0000884201D81748046018480068401C1749F8
:100E1000086094F82C10012088401549096808439F
:100E200013490860E16A01EB8101124A02EB81007B
:100E3000211D00F07DFB00F0C9FB0B48006868B184
:100E400008480068C06AE16A884207D24FF08050C3
:100E500009490860BFF34F8FBFF36F8F10BD0000CB
:100E600048000020380000205400002064000020CA
:100E7000500000209C00002004ED00E070B523E04D
:100E800000F0B6FD1348006808B9012000E000201A
:100E9000054601F08FFABDB900F056FB0D48C06859
:100EA000C468201D00F006FB0B480068401E0A497C
:100EB00008600A480068401E0849086000F086FB88
:100EC000204600F057F800BF044800680028D7D13A
:100ED00070BD00005803002048000020440000209E
:100EE00070B504460D46206C70B1216CE068084472
:100EF000E0606168E068884201D32068E0602846CD
:100F0000226CE168FFF77EF970BD2DE9F0410446DF
:100F10000F4615464FF00008A66B206C28B37DB92C
:100F20003946226CA068FFF76DF9216CA06808446F
:100F3000A060D4E90110884217D32068A06014E0B3
:100F40003946226CE068FFF75DF9216CE068401AD1
:100F5000E0602168E068884203D2216C6068401A32
:100F6000E060022D01D106B1761E701CA0634046E0
:100F7000BDE8F08110B50446206B00F05DFB204613
:100F800000F05AFB10BD000030B54FF41043174875
:100F900000F007042CB1C01D20F00700134C041B07
:100FA0001B1B0246124C22600024114D6C60D018AD
:100FB000083820F007000F4C206000240D4D2D68EC
:100FC0006C600C4D2D682C601146441A4C60094C25
:100FD00024680C60084D4C682C60084D4C682C60EF
:100FE0004FF00044064D2C6030BD0000800300200F
:100FF000740000207C00002084000020800000207D
:101000008800002000BFFFF739FF0648006801286C
:10101000F9D94FF0805004490860BFF34F8FBFF3F8
:101020006F8FF0E79C00002004ED00E02DE9F04117
:1010300006460D4617469846069C0DB9246000E00A
:101040002760E66325640121204600F0E5FEBDE847
:10105000F08100002DE9FF5F81460E469246DDE9F2
:101060000E7B109CAAF10100216B01EB800828F097
:10107000070808F0070008B9012000E0002028B99F
:1010800040F22B321AA120A0FFF7FEFC002507E05A
:10109000715D04F134004155705D00B902E06D1CD2
:1010A000102DF5D300BF002143200155202F00D380
:1010B0001F27E762201D00F01EFA04F1180000F05F
:1010C0001AFA2461C7F12000A06164620020606404
:1010D00084F8480049464046039A00F0D9F9206058
:1010E000BBF1000F01D0CBF80040BDE8FF9F00002E
:1010F0002E2E5C4672656552544F535C7372635C6E
:101100007461736B732E63004572726F723A25734C
:101110002C25640D0A00000010B5002407E004EB44
:1011200084010F4A02EB810000F0D8F9641C202CE6
:10113000F5D30C4800F0D2F90B4800F0CFF90B487A
:1011400000F0CCF90A4800F0C9F90A4800F0C6F9E5
:1011500004480949086004480849086010BD0000B7
:101160009C0000201C0300203003002044030020CA
:10117000580300206C0300203C00002040000020A9
:1011800010B50146164800E0006803688B42FBD3A7
:101190000246436813448B4204D143684C6823449D
:1011A000436001460A464B6813440468A34211D1C8
:1011B0000C4C03682468A34208D04B680468646838
:1011C00023444B6003681B680B6005E0054B1B68FC
:1011D0000B6001E003680B60884200D0016010BD25
:1011E000740000207C00002070B5054600F0ACF9CA
:1011F000A86B08B9012400E0002400F0E7F92046BC
:1012000070BD70B5054600F09FF9A86BE96B884288
:1012100001D1012400E0002400F0D8F9204670BD7F
:101220000A490968096809B9012100E0002121B1D2
:101230004FF0FF31064A116006E004490968C968A9
:10124000C868034A41681160704700003C000020F4
:10125000680000200B480068401C08B9012000E02D
:10126000002020B9F42208A111A0FFF70DFC00BF57
:10127000502080F31188BFF34F8FBFF36F8F00BFF3
:1012800000BFFEE78C0000202E2E5C467265655282
:10129000544F535C706F72745C525644535C4152AD
:1012A0004D5F434D335C706F72742E63000000001D
:1012B0004572726F723A25732C25640D0A00000086
:1012C00070B5044600F040F994F9455010E0606AAA
:1012D00008B9012000E0002038B904F1240001F031
:1012E0000DF818B100F0D6FA00E003E0681E45B230
:1012F000002DECDC00BFFF2084F8450000F066F90B
:1013000000F022F994F9445010E0206908B9012056
:1013100000E0002048B904F1100000F0EFFF08B130
:1013200000F0B8FA681E45B200E001E0002DECDCE8
:1013300000BFFF2084F8440000F048F970BD0000B1
:101340002DE9F04104464FF0000800F051FB3E4803
:10135000006808B9FFF718FE3C48006820400028E4
:101360005FD1A4B1083404F0070080B104F0070095
:10137000C0F10800044404F0070008B9012000E0AF
:10138000002020B9BF2232A13AA0FFF77DFB002C3C
:1013900047D03C480068844243D83B4E30460568FD
:1013A00001E02E462D686868A04202D22868002815
:1013B000F7D125480068854233D0306800F108082D
:1013C000286830606868001B102813D92F1907F0AF
:1013D000070008B9012000E0002020B9EC221CA180
:1013E00024A0FFF751FB6868001B78606C603846EA
:1013F000FFF7C6FE234968680968081A2149086092
:101400000846006821490968884203D21D480068DF
:101410001E4908600D496868096808436860002033
:10142000286000F0C7FF08F0070008B9012000E0BD
:10143000002028B94FF4967205A10EA0FFF724FBF7
:101440004046BDE8F08100007C00002088000020BC
:101450002E2E5C4672656552544F535C706F7274E9
:101460005C4D656D4D616E675C686561705F342EC3
:10147000630000004572726F723A25732C25640D6B
:101480000A0000008000002074000020840000207A
:10149000001F4FF080730360001F21F00103036001
:1014A000001F034B036014380260203870470000AF
:1014B0005512000801460A69D1E901309860D1E966
:1014C000010358605068884201D18868506000204C
:1014D00008611068401E10601068704700F1080134
:1014E00041604FF0FF31816000F10801C16001618E
:1014F00000210160704700210161704710B502466C
:101500000B685C1C0CB9106907E002F1080000E0F0
:101510004068446824689C42FAD944684C604C682E
:10152000A160886041600A611468641C146010BD89
:1015300042684A6093688B60936859609160086163
:1015400003685B1C0360704710B500BF502080F338
:101550001188BFF34F8FBFF36F8F00BF0B48006838
:10156000401C0A4908600846006801280DD1084857
:101570000068C0B208B9012000E0002028B94FF48B
:10158000BD7204A10DA0FFF77FFA10BD8C000020F2
:1015900004ED00E02E2E5C4672656552544F535C9C
:1015A000706F72745C525644535C41524D5F434DB0
:1015B000335C706F72742E63000000004572726FAE
:1015C000723A25732C25640D0A00000010B50B48F3
:1015D000006828B940F2811209A113A0FFF754FA5C
:1015E00006480068401E054908600846006820B9A2
:1015F000002080F3118800BF00BF10BD8C000020C8
:101600002E2E5C4672656552544F535C706F727437
:101610005C525644535C41524D5F434D335C706F96
:1016200072742E63000000004572726F723A257367
:101630002C25640D0A00000070B506463546002EC4
:1016400035D0083D2C461A4960680968084008B141
:10165000012000E0002028B94FF4A07215A11EA0BF
:10166000FFF712FA206808B9012000E0002028B92D
:1016700040F241120FA118A0FFF706FA0C4960686A
:101680000968084098B1206888B909496068096804
:101690008843606000F0ACF9134960680968084449
:1016A000114908602046FFF76BFD00F083FE70BD16
:1016B000880000202E2E5C4672656552544F535CA4
:1016C000706F72745C4D656D4D616E675C686561CD
:1016D000705F342E630000004572726F723A25739A
:1016E0002C25640D0A0000008000002006480068D8
:1016F0004FF47A71B0FBF1F0401E4FF0E0214861E9
:1017000007200861704700000000002070B5044603
:101710000025ACB10F48006808B9012000E00020A6
:1017200028B940F2CF420CA111A0FFF7ADF900F0AB
:101730005FF900212046FFF7FBFA00F03BFE05466B
:101740003DB94FF080500E490860BFF34F8FBFF393
:101750006F8F70BD700000202E2E5C467265655242
:10176000544F535C7372635C7461736B732E6300CC
:101770004572726F723A25732C25640D0A000000C1
:1017800004ED00E070B50546FFF7DEFE15B92D4803
:10179000006800E028460446201DFFF78BFE78B95C
:1017A000E06A00EB8000284951F8200040B994F825
:1017B0002C10012088402549096881432348016095
:1017C000A06A18B104F11800FFF774FE2048006801
:1017D000401C1F4908601B480068844209D1211D34
:1017E0001C48FFF7A5FE1C480068401C1A49086009
:1017F00009E01A480068401E184908602046FFF7B3
:10180000B9FBFFF70DFDFFF7E1FE15480068C0B119
:101810000C480068844214D11248006808B90120BD
:1018200000E0002028B940F265420FA114A0FFF7A4
:101830002BF94FF0805016490860BFF34F8FBFF36C
:101840006F8F70BD380000209C00002050000020E9
:1018500064000020580300204400002048000020BD
:1018600054000020700000202E2E5C4672656552E8
:10187000544F535C7372635C7461736B732E6300BB
:101880004572726F723A25732C25640D0A000000B0
:1018900004ED00E001200149086070475C00002071
:1018A00070B504460D462CB940F6063207A10DA0CE
:1018B000FFF7EAF80F48016818312046FFF71EFECF
:1018C00001212846FFF734FA70BD00002E2E5C4639
:1018D00072656552544F535C7372635C7461736BD1
:1018E000732E63004572726F723A25732C25640D56
:1018F0000A0000003800002010B504462CB940F65C
:10190000C13205A10AA0FFF7BFF80D4800682060AA
:101910000C480068606010BD2E2E5C4672656552F2
:10192000544F535C7372635C7461736B732E63000A
:101930004572726F723A25732C25640D0A000000FF
:10194000600000204C0000201CB5184800210B4608
:101950008022CDE9001016A1174800F0DDFB0446F7
:10196000012C15D100BF502080F31188BFF34F8F99
:10197000BFF36F8F00BF4FF0FF30104908600120A8
:101980000F49086000200F49086000F08FF80BE055
:10199000601C08B1012000E0002028B940F28472E8
:1019A00009A10FA0FFF770F81CBD00006C0000201B
:1019B00049444C4500000000051000086800002064
:1019C000540000204C0000202E2E5C4672656552AB
:1019D000544F535C7372635C7461736B732E63005A
:1019E0004572726F723A25732C25640D0A0000004F
:1019F00002480068401C01490860704770000020E0
:101A000010B51B48006818B101201A4908602DE084
:101A100000201849086018480068B0FA80F0C0F14A
:101A20001F0404EB8400154951F8200008B101207F
:101A300000E0002028B940F6F62211A116A0FFF719
:101A400023F804EB84010D4A02EB810041684968E8
:101A5000416000F1080142688A4202D14168496848
:101A600041604168C968104A116000BF10BD0000A4
:101A7000700000205C000020500000209C0000202E
:101A80002E2E5C4672656552544F535C7372635CD4
:101A90007461736B732E63004572726F723A2573B3
:101AA0002C25640D0A000000380000201CB52248D7
:101AB000014609780191FF2102461170014609781B
:101AC00000919DF8001001F050011C4A117007218F
:101AD0001B4A116009E01A490968491E184A116039
:101AE0009DF800104906090E00919DF8001001F0C4
:101AF00080018029EFD0124909680902104A11605B
:101B00001146098801F4E06111600B4A01991170D6
:101B10000C48006840F470000A49086008460068F4
:101B200040F070400860FFF7E1FD002006490860C2
:101B3000FEF71CFB00201CBD00E400E0900000202C
:101B40009400002020ED00E08C00002010B500BFC4
:101B5000502080F31188BFF34F8FBFF36F8F00BF0A
:101B600000F01AFB18B14FF080500449086000BF24
:101B7000002080F3118800BF10BD000004ED00E0DC
:101B800070B505460E460DB1012000E0002028B9D1
:101B900040F2BD220CA112A0FEF776FFAE4201D8A2
:101BA000012000E0002028B940F2BE2206A10CA0CE
:101BB000FEF76AFF02220021284600F019F80446C9
:101BC00004B1A663204670BD2E2E5C467265655238
:101BD000544F535C7372635C71756575652E630059
:101BE0004572726F723A25732C25640D0A0000004D
:101BF0002DE9F84305460E4690460DB1012000E060
:101C0000002028B94FF4C4720DA113A0FEF73CFFC9
:101C10000EB9002701E005FB06F707F14800FFF7C2
:101C20008FFB044644B104F1480943464A46314615
:101C300028460094FFF7FAF92046BDE8F883000033
:101C40002E2E5C4672656552544F535C7372635C12
:101C500071756575652E63004572726F723A2573F2
:101C60002C25640D0A0000002DE9FF4782B00546CF
:101C70000E461F464FF0000A2C462CB940F2DC42BB
:101C80005AA160A0FEF700FF0EB9206C08B9012030
:101C900000E0002028B940F2DD4254A159A0FEF72F
:101CA000F3FE00F069FA08B9049808B9012000E0D1
:101CB000002028B94FF49C624CA152A0FEF7E4FE2C
:101CC00000BFFFF741FCD4F83890B9F1000F38D0CD
:101CD000D4F80C8031462046FFF702F9B7B9A9F1D4
:101CE0000100A063206908B9012000E0002010BBBA
:101CF00004F1100000F002FBE8B14FF080504549BC
:101D00000860BFF34F8FBFF36F8F14E0C4F80C80EF
:101D1000606A08B9012000E0002060B904F12400E5
:101D200000F0ECFA38B14FF080503A490860BFF348
:101D30004F8FBFF36F8FFFF749FC012006B0BDE85E
:101D4000F087049818B9FFF741FC0020F6E7BAF1D4
:101D5000000F04D16846FFF7CFFD4FF0010AFFF7EF
:101D600035FCFFF745FEFFF7EFFB94F94400401CFC
:101D700010B9002084F8440094F94500401C10B9C3
:101D8000002084F84500FFF721FC04A9684600F014
:101D900071F9F0B92046FFF727FAA0B104F1240049
:101DA0000499FFF77DFD2046FFF78AFA00F002FB59
:101DB000002886D14FF0805016490860BFF34F8F3E
:101DC000BFF36F8F7DE72046FFF77AFA00F0F2FA53
:101DD00077E72046FFF774FA00F0ECFA2046FFF7A9
:101DE00003FA0028EED00020A8E700002E2E5C4663
:101DF00072656552544F535C7372635C717565759F
:101E0000652E63004572726F723A25732C25640D3E
:101E10000A00000004ED00E070B505460E462C46B1
:101E20002CB940F21B121EA123A0FEF72DFEFFF7D6
:101E30008BFBD4E90F12206801FB020060600020D8
:101E4000A0632068A060E06B401E226C216800FB4C
:101E50000210E060FF2084F8440084F845009EB939
:101E6000206908B9012000E00020A8B904F11000A1
:101E700000F044FA80B14FF0805013490860BFF37E
:101E80004F8FBFF36F8F07E004F11000FFF726FBC1
:101E900004F12400FFF722FBFFF798FB012070BD3F
:101EA0002E2E5C4672656552544F535C7372635CB0
:101EB00071756575652E63004572726F723A257390
:101EC0002C25640D0A00000004ED00E02DE9FF431D
:101ED00083B0064688461D464FF0000934462CB9AB
:101EE00040F2D92258A15EA0FEF7CEFDB8F1000F56
:101EF00001D1206C08B9012000E0002028B940F28F
:101F0000DA2251A156A0FEF7BFFD022D02D1E06BEF
:101F1000012801D1012000E0002028B940F2DB2295
:101F200049A14FA0FEF7B0FD00F026F908B90598C9
:101F300008B9012000E0002028B940F2DE2242A1C9
:101F400047A0FEF7A1FD00BFFFF7FEFAA06BE16B13
:101F5000884201D3022D28D12A4641462046FEF769
:101F6000D4FF0746606A08B9012000E0002068B984
:101F700004F1240000F0C2F988B14FF080503C49D0
:101F80000860BFF34F8FBFF36F8F08E03FB14FF092
:101F9000805037490860BFF34F8FBFF36F8FFFF753
:101FA00015FB012007B0BDE8F083059818B9FFF7CD
:101FB0000DFB0020F6E7B9F1000F04D101A8FFF7EF
:101FC0009BFC4FF00109FFF701FBFFF711FDFFF745
:101FD000BBFA94F94400401C10B9002084F8440076
:101FE00094F94500401C10B9002084F84500FFF723
:101FF000EDFA05A901A800F03DF8F0B92046FFF779
:1020000000F9A0B104F110000599FFF749FC204642
:10201000FFF756F900F0CEF9002895D14FF0805027
:1020200013490860BFF34F8FBFF36F8F8CE72046D3
:10203000FFF746F900F0BEF986E72046FFF740F9C2
:1020400000F0B8F90020ADE72E2E5C4672656552AF
:10205000544F535C7372635C71756575652E6300D4
:102060004572726F723A25732C25640D0A000000C8
:1020700004ED00E02DE9F04104460D462CB940F690
:10208000CB3219A11EA0FEF7FFFC2DB940F6CC32D1
:1020900015A11BA0FEF7F8FCFFF756FA1C480768CD
:1020A0002868401C08B9002619E01A492068096808
:1020B000884204D06068B84201D801260FE0606809
:1020C000381A2968884209D228686168791A401A42
:1020D00028602046FFF710FC002600E00126FFF7ED
:1020E00075FA3046BDE8F0812E2E5C467265655269
:1020F000544F535C7372635C7461736B732E630033
:102100004572726F723A25732C25640D0A00000027
:102110004C000020600000202DE9FF4F85B0804674
:1021200089461746DDE912ABB800FFF709F9064604
:1021300056B14C20FFF704F904460CB1266304E0C5
:102140003046FFF779FA00E000247CB10020CDE9A9
:1021500000ABCDE902403A4649464046089BFEF7AF
:1021600079FF2046FEF730FE012501E04FF0FF35F4
:10217000284609B0BDE8F08F0549096809B9012072
:1021800005E00449096809B9022000E00020704711
:1021900054000020700000202DE9F0414FF00008AD
:1021A00041480068002872D140480068451C3F48FB
:1021B0000560EDB93E480068006808B9012000E0FC
:1021C000002028B940F6D9123AA140A0FEF75CFCE5
:1021D0003748076841480068354908603F4807604C
:1021E0003F480068401C3E490860FFF719F800BFEF
:1021F0003C48006885423CD300BF2D480068006819
:1022000008B9012000E0002020B14FF0FF3035492F
:1022100008602DE026480068C068C4686668B5425A
:1022200002D23048066023E0201DFFF743F9A06A80
:1022300018B104F11800FFF73DF994F82C100120B3
:10224000884029490968084327490860E16A01EB89
:102250008101264A02EB8100211DFFF769F924491B
:10226000E06A0968C96A8842C7D34FF00108C4E729
:1022700000BF1F480068C06A00EB80001B4951F88E
:102280002000012801D94FF0010805E0FFE71948B7
:102290000068401C174908601748006808B14FF0F3
:1022A00001084046BDE8F081700000204C0000208D
:1022B0003C0000202E2E5C4672656552544F535CE4
:1022C0007372635C7461736B732E63004572726F1B
:1022D000723A25732C25640D0A000000400000208E
:1022E0006000002068000020500000209C000020BA
:1022F00038000020580000205C00002070B5064621
:10230000F068C4682CB940F661321AA11FA0FEF72C
:10231000BBFB04F11800FFF7CDF820480068A8B90E
:10232000201DFFF7C7F894F82C10012088401C49A5
:10233000096808431A490860E16A01EB8101194AFA
:1023400002EB8100211DFFF7F3F804E004F118010E
:102350001548FFF7EDF81549E06A0968C96A88422F
:1023600004D9012501201249086000E00025284613
:1023700070BD00002E2E5C4672656552544F535C52
:102380007372635C7461736B732E63004572726F5A
:10239000723A25732C25640D0A000000700000209D
:1023A000500000209C000020440300203800002042
:1023B0005C00002070B5002400263448006828B96D
:1023C0004FF4FD6232A138A0FEF75EFBFFF7BCF8C8
:1023D0002E480068401E2D49086008460068002805
:1023E0004FD13548006800284BD024E03348C068FE
:1023F000C46804F11800FFF75DF8201DFFF75AF8D4
:1024000094F82C10012088402D49096808432C4974
:102410000860E16A01EB81012A4A02EB8100211D7B
:10242000FFF786F82849E06A0968C96A884202D33A
:102430000120264908602148006808B9012000E011
:1024400000200028D2D00CB1FEF7EAFE2048056833
:1024500065B100BFFFF7A0FE10B101201B49086065
:102460006D1E002DF6D1002019490860174800683C
:1024700038B10126300717490860BFF34F8FBFF30B
:102480006F8FFFF7A3F8304670BD0000700000208A
:102490002E2E5C4672656552544F535C7372635CBA
:1024A0007461736B732E63004572726F723A257399
:1024B0002C25640D0A000000480000204403002081
:1024C000500000209C000020380000205C0000200C
:1024D0005800002004ED00E0F8240008000000206F
:1024E0009C000000A80A0008942500089C00002019
:1024F000E4960000B80A000800A24A0400000000A8
:1025000000000000010203040607080900000000A3
:102510000102030401020304060708090204060875
:1025200000000000000000000000000000000000AB
:10253000000000000000000000000000000000009B
:10254000000000000000000000000000000000008B
:10255000000000000000000000000000000000007B
:10256000000000000000000000000000000000006B
:10257000000000000000000000000000000000005B
:1025800000000000AAAAAAAA0000000000000000A3
:042590000000000047
:0400000508000131BD
:00000001FF
