:020000040800F2
:1000000088970020E10100083D0700083505000839
:100010000907000819040008390B00080000000057
:10002000000000000000000000000000490100087E
:100030001D040008000000008D01000831090008BF
:10004000FB010008FB010008FB010008FB010008A0
:10005000FB010008FB010008FB010008FB01000890
:10006000FB010008FB010008FB010008FB01000880
:10007000FB010008FB010008FB010008FB01000870
:10008000FB010008FB010008FB010008FB01000860
:10009000FB010008FB010008FB010008FB01000850
:1000A000FB010008FB010008FB010008FB01000840
:1000B000FB010008FB010008FB010008FB01000830
:1000C000FB010008FB010008FB010008FB01000820
:1000D000FB010008FB010008FB010008FB01000810
:1000E000FB010008FB010008FB010008FB01000800
:1000F000FB010008FB010008FB010008FB010008F0
:10010000FB010008FB010008FB010008FB010008DF
:10011000FB010008FB010008FB010008FB010008CF
:10012000FB010008FB010008FB010008FB010008BF
:10013000DFF810D000F08EF800480047590D000895
:10014000AFF3008088970020224B19680868B0E858
:10015000F00F80F30988BFF36F8F4FF0000080F33A
:1001600011884EF00D0E7047000000000648006830
:10017000006880F3088862B661B6BFF34F8FBFF3A3
:100180006F8F00DF00BF00BF08ED00E0EFF30980D4
:10019000BFF36F8F0F4B1A6820E9F00F106008B59E
:1001A0004FF0500080F31188BFF34F8FBFF36F8F74
:1001B00001F074FC4FF0000080F31188BDE80840A6
:1001C00019680868B0E8F00F80F30988BFF36F8FF3
:1001D000704700BF40000020EFF30580704700002B
:1001E0000648804706480047FEE7FEE7FEE7FEE7D1
:1001F000FEE7FEE7FEE7FEE7FEE7FEE7410900084F
:100200003101000840EA01039B0703D009E008C957
:10021000121F08C0042AFAD203E011F8013B00F8CB
:10022000013B521EF9D2704730B50B460146002003
:100230002022012409E021FA02F59D4205D303FAA8
:1002400002F5491B04FA02F52844151EA2F1010229
:10025000F1DC30BD064C074D06E0E06840F00103DC
:1002600094E8070098471034AC42F6D3FFF764FFD8
:1002700004250008242500081CB5012401F0B2F96A
:1002800003220021012001F0C9FC2349086008462F
:10029000006810B121A000F051FC00231A46194655
:1002A0001D48006801F028FE264801210023802215
:1002B000CDE9001024A1294801F044FF0446012C97
:1002C00002D127A000F03AFC2D4802210023802211
:1002D000CDE900102BA1304801F034FF0446012C79
:1002E00002D12EA000F02AFC3448032100238022F2
:1002F000CDE9001032A1374801F024FF0446012C5B
:1003000002D135A000F01AFC3C48006801F088FAE0
:1003100001F0AAF91CBD000038000020B4B4BDA84B
:1003200042696E61727953656D5F48616E646C6598
:10033000B6FED6B5D0C5BAC5C1BFB3C9B9A6210DE1
:100340000A0000002C0000204C6F775072696F7219
:100350006974795F5461736B000000002D0600081A
:100360004C6F775072696F726974795F5461736B07
:10037000C8CECEF1B4B4BDA8B3C9B9A6210D0A0048
:10038000300000204D69645072696F726974795F42
:100390005461736B000000000D0700084D69645044
:1003A00072696F726974795F5461736BC8CECEF1F4
:1003B000B4B4BDA8B3C9B9A6210D0A003400002009
:1003C000486967685072696F726974795F546173C4
:1003D0006B00000039050008486967685072696F52
:1003E000726974795F5461736BC8CECEF1B4B4BDD9
:1003F000A8B3C9B9A6210D0A0000000028000020FA
:1004000010B54FF4407000F09BF94FF4E13000F06C
:10041000C7FA00F0E9F810BD00BFFEE770472DE90C
:10042000F04102460025002600200023002400277A
:1004300091F803C00CF00F0591F803C00CF0100CFC
:10044000BCF1000F03D091F802C04CEA050591F809
:1004500000C0BCF1000F31D0146800202BE04FF039
:10046000010C0CFA00F3B1F800C00CEA03069E423E
:1004700020D183004FF00F0C0CFA03F7BC4305FAB0
:1004800003FC4CEA040491F803C0BCF1280F06D128
:100490004FF0010C0CFA00FCC2F814C00AE091F80D
:1004A00003C0BCF1480F05D14FF0010C0CFA00FC61
:1004B000C2F810C0401C0828D1D31460B1F800C0A5
:1004C000BCF1FF0F34DD546800202EE000F1080C71
:1004D0004FF0010808FA0CF3B1F800C00CEA03066B
:1004E0009E4221D183004FF00F0C0CFA03F7BC435E
:1004F00005FA03FC4CEA040491F803C0BCF1280F90
:1005000005D100F1080C08FA0CF8C2F8148091F833
:1005100003C0BCF1480F07D100F1080C4FF00108EF
:1005200008FA0CF8C2F81080401C0828CED354609A
:10053000BDE8F08100BFFEE7012423E012A000F037
:10054000FDFA00235A1E19461748006801F0A2FB65
:100550000446012C02D115A000F0F0FA1AA000F018
:10056000EDFA00231A4619460F48006801F0C4FC52
:100570000446012C02D10DA000F0E0FA4FF4FA700D
:1005800001F012F9DAE70000486967685072696F94
:10059000726974795F5461736B20BBF1C8A1D0C5D7
:1005A000BAC5C1BF0D0A000038000020486967685D
:1005B0005072696F726974795F5461736B20527500
:1005C0006E6E696E670D0A00486967685072696FE0
:1005D000726974795F5461736B20CACDB7C5D0C599
:1005E000BAC5C1BF0D0A000008B50121042000F002
:1005F000B1F80121402000F0ADF81820ADF800005E
:1006000048208DF8030069460648FFF708FF0120DF
:10061000ADF8000028208DF8030069460248FFF776
:10062000FEFE08BD0018014000080140012434E02E
:100630001AA000F083FA00235A1E19461F480068CA
:1006400001F028FB0446012C02D11DA000F076FA2F
:100650000020224908600CE04FF0805020490860DB
:10066000BFF34F8FBFF36F8F1C480068401C1B49BE
:1006700008601A4800681B498842EDD31AA000F0B0
:100680005DFA00231A4619460C48006801F034FC54
:1006900004464FF4FA7001F087F8C9E74C6F7750C1
:1006A00072696F726974795F5461736B20BBF1C8B2
:1006B000A1D0C5BAC5C1BF0D0A0000003800002096
:1006C0004C6F775072696F726974795F5461736BA4
:1006D0002052756E6E696E670D0A00003C000020A6
:1006E00004ED00E080841E004C6F775072696F72D9
:1006F0006974795F5461736B20CACDB7C5D0C5BA30
:10070000C5C1BF210D0A000000BFFEE706E004A03E
:1007100000F014FA4FF4FA7001F046F8F7E7000021
:100720004D69645072696F726974795F5461736B5B
:100730002052756E6E696E670D0A000070470000EA
:1007400002490143024A1160704700000000FA05A7
:100750000CED00E029B1064A92690243044B9A610C
:1007600004E0034A92698243014B9A61704700009A
:100770000010024030B500210022002400232D4D3E
:100780006D6805F00C0121B1042905D0082923D199
:1007900005E0294D056022E0274D05601FE0254D4D
:1007A0006D6805F47012234D6D6805F480340225E0
:1007B00005EB92421CB9214D554305600BE01D4DE0
:1007C0006D6805F400351DB11C4D5543056002E010
:1007D000194D5543056002E0174D056000BF00BF8D
:1007E000144D6D6805F0F0010909154D6B5C056845
:1007F000DD4045600F4D6D6805F4E061090A104D5C
:100800006B5C4568DD4085600A4D6D6805F460519C
:10081000C90A0B4D6B5C4568DD40C560054D6D68D0
:1008200005F44041890B074D6B5CC568B5FBF3F5DA
:10083000056130BD0010024000127A0000093D0041
:10084000140000202400002010B500F001F810BDB5
:100850000CB50020019000903348006840F48030CF
:100860003149086000BF3048006800F40030009053
:100870000198401C0190009818B90198B0F5A06F3C
:10088000F1D12948006800F4003010B10120009037
:1008900001E0002000900098012843D1234800681F
:1008A00040F01000214908600846006820F003006D
:1008B00008600846006840F0020008601A48406876
:1008C000194948600846406848600846406840F456
:1008D000806048600846406820F47C104860084604
:1008E000406840F4E81048600846006840F08070B6
:1008F000086000BF0C48006800F000700028F9D0C4
:100900000948406820F003000749486008464068ED
:1009100040F00200486000BF0348406800F00C004F
:100920000828F9D10CBD0000001002400020024050
:1009300010B501F037FC012801D001F055F910BDC8
:1009400010B51348006840F00100114908600846DE
:100950004068104908400E494860084600680E4942
:1009600008400B4908600846006820F480200860B1
:100970000846406820F4FE0048604FF41F0088607D
:10098000FFF762FF4FF000600449086010BD0000EF
:10099000001002400000FFF8FFFFF6FE08ED00E047
:1009A00010B586B0044601210420FFF7D3FE0121D3
:1009B0008803FFF7CFFE4FF40070ADF81400182045
:1009C0008DF8170003208DF8160005A91348FFF7CE
:1009D00026FD4FF48060ADF8140004208DF8170058
:1009E00003208DF8160005A90C48FFF718FD0194A7
:1009F0000020ADF80800ADF80A00ADF80C00ADF825
:100A000010000C20ADF80E0001A9054800F024F8F4
:100A10000121034800F006F806B010BD00080140AF
:100A20000038014021B1828942F40052828104E001
:100A300082894DF6FF731A4082817047024600207A
:100A4000B1F5007F00D100BF13880B400BB101202E
:100A500000E00020704700002DE9F04786B0054611
:100A60000E460024A24600BFA1460027B08900B16F
:100A700000BF2F462C8A4CF6FF700440F0880443D8
:100A80002C82AC894EF6F3100440B08831890843BB
:100A9000718908430443AC81AC8A4FF6FF4004409F
:100AA000B0890443AC8201A8FFF764FE1F48874267
:100AB00002D1DDF810A001E0DDF80CA0A88900F457
:100AC000004040B10AEBCA0000EB0A10316849004F
:100AD000B0FBF1F807E00AEBCA0000EB0A1031683E
:100AE0008900B0FBF1F86420B8FBF0F004012009A4
:100AF000642101FB1089A88900F4004040B1322034
:100B000000EBC900B0FBF1F000F00700044308E07F
:100B1000322000EB09106421B0FBF1F000F00F006F
:100B200004432C8106B0BDE8F08700000038014086
:100B3000C1F308028280704700BFFEE70FB4054B87
:100B400010B503A9044A029800F018F810BC5DF82B
:100B500014FB0000350D0008A000002002E008C8CA
:100B6000121F08C1002AFAD170477047002001E027
:100B700001C1121F002AFBD1704700002DE9FF4F71
:100B80008BB09A460F460546002606E025280BD076
:100B900052460D9990476D1C761C28780028F5D197
:100BA0000FB03046BDE8F08F0024A0460122604916
:100BB00000E0044315F8013F203B02FA03F008422D
:100BC000F7D128782E2817D115F8010F44F0040426
:100BD0002A280ED06FF02F022878A0F130010929C1
:100BE0000AD808EB880102EB410100EB01086D1CFB
:100BF000F2E757F8048B6D1C287869283ED006DC94
:100C00000028CDD063280BD0642804D136E07328A7
:100C100010D075284BD052460D999047761C85E030
:100C200017F8040B8DF8000000208DF80100E9464C
:100C3000012003E057F8049B4FF0FF3061074FF0AD
:100C4000000401D40AE0641C44450DDA8442FADB56
:100C500019F804100029F6D106E0641C8442FCDB7C
:100C600019F804100029F8D1264404E019F8010B02
:100C700052460D999047641EF8D257E001CF4FF0CD
:100C80000A0B002802DA40422D2102E0210504D59A
:100C90002B218DF82410012103E0E10705D020214C
:100CA000F7E70DF1200908910CE00021F9E701CFE9
:100CB0004FF00A0BF9E75946FFF7B6FA01F1300297
:100CC00009F8012D0028F6D1ADEB090000F1200B49
:100CD000600701D44FF00108D84502DDA8EB0B00F6
:100CE00000E000208046002406E009A85246005D8E
:100CF0000D999047641C761C08988442F5DB04E04B
:100D0000302052460D999047761CB8F10001A8F1A9
:100D10000108F5DC05E019F8010B52460D999047E2
:100D2000761CBBF10001ABF1010BF4DC6D1C34E768
:100D30000928010070B504460D46E1B20548FFF7E9
:100D4000F7FE00BF80210348FFF778FE0028F9D0A6
:100D5000204670BD003801401CB50024FFF750FB51
:100D60000BA0FFF7EBFE0F48012100238022CDE905
:100D700000100DA1104801F0E5F90446012C02D144
:100D800000F030FE02E00DA0FFF7D8FE00BFFEE746
:100D9000D3B2BCFEB3F5CABCBBAFCDEAB3C90D0A32
:100DA00000000000280000204170705461736B4304
:100DB000726561746500000079020008C8CECEF14A
:100DC000B4B4BDA8CAA7B0DC0D0A00002DE9F041FB
:100DD00005460E461C4807681C480068001D00F0C8
:100DE000B7FB50B91948006890F82C1001208840D2
:100DF00017490968814316480160681C38B936B143
:100E000012480168091D134800F0E0FB1AE07C1944
:100E10000E4800684460BC4207D20C480168091DB6
:100E20000D48006800F0B8FB0CE008480168091D97
:100E30000A48006800F0B0FB09480068844201D20B
:100E400007480460BDE8F081540000204000002005
:100E500058000020740300204800002044000020B7
:100E60007000002010B5044600F0BCFB2348006869
:100E7000401C224908602248006840B920480460AC
:100E80000846006801280DD100F094F90AE01D48D9
:100E9000006838B91A480068C06AE16A884201D817
:100EA0001748046018480068401C1749086094F807
:100EB0002C1001208840154909680843134908602F
:100EC000E16A01EB8101124A02EB8100211D00F071
:100ED0007DFB00F0C9FB0B48006868B1084800685A
:100EE000C06AE16A884207D24FF080500949086021
:100EF000BFF34F8FBFF36F8F10BD00005000002075
:100F0000400000205C0000206C0000205800002001
:100F1000A400002004ED00E070B523E000F0B6FD71
:100F20001348006808B9012000E00020054601F0E0
:100F300057FABDB900F056FB0D48C068C468201DC3
:100F400000F006FB0B480068401E0A4908600A488A
:100F50000068401E0849086000F086FB204600F04B
:100F600057F800BF044800680028D7D170BD0000C2
:100F700060030020500000204C00002070B50446A3
:100F80000D46206C70B1216CE0680844E060616837
:100F9000E068884201D32068E0602846226CE1685E
:100FA000FFF730F970BD2DE9F04104460F461546B4
:100FB0004FF00008A66B206C28B37DB93946226C2F
:100FC000A068FFF71FF9216CA0680844A060D4E96D
:100FD0000110884217D32068A06014E03946226CC3
:100FE000E068FFF70FF9216CE068401AE0602168C3
:100FF000E068884203D2216C6068401AE060022DEC
:1010000001D106B1761E701CA0634046BDE8F08198
:1010100010B50446206B00F05DFB204600F05AFB43
:1010200010BD000030B54FF41043174800F007041E
:101030002CB1C01D20F00700134C041B1B1B0246E3
:10104000124C22600024114D6C60D018083820F03A
:1010500007000F4C206000240D4D2D686C600C4D76
:101060002D682C601146441A4C60094C24680C60B1
:10107000084D4C682C60084D4C682C604FF00044C3
:10108000064D2C6030BD0000880300207C0000204D
:10109000840000208C0000208800002090000020A8
:1010A00000BFFFF739FF064800680128F9D94FF063
:1010B000805004490860BFF34F8FBFF36F8FF0E794
:1010C000A400002004ED00E02DE9F04106460D46A5
:1010D00017469846069C0DB9246000E02760E66339
:1010E00025640121204600F0ADFEBDE8F08100003E
:1010F0002DE9FF5F81460E469246DDE90E7B109C8E
:10110000AAF10100216B01EB800828F0070808F024
:10111000070008B9012000E0002028B940F22B3276
:101120001AA120A0FFF70AFD002507E0715D04F178
:1011300034004155705D00B902E06D1C102DF5D3EF
:1011400000BF002143200155202F00D31F27E76255
:10115000201D00F01EFA04F1180000F01AFA2461B4
:10116000C7F12000A06164620020606484F8480038
:1011700049464046039A00F0D9F92060BBF1000FC0
:1011800001D0CBF80040BDE8FF9F00002E2E5C464A
:1011900072656552544F535C7372635C7461736B18
:1011A000732E63004572726F723A25732C25640D9D
:1011B0000A00000010B5002407E004EB84010F4A88
:1011C00002EB810000F0D8F9641C202CF5D30C4808
:1011D00000F0D2F90B4800F0CFF90B4800F0CCF941
:1011E0000A4800F0C9F90A4800F0C6F9044809495C
:1011F000086004480849086010BD0000A4000020F1
:1012000024030020380300204C030020600300204A
:1012100074030020440000204800002010B501465F
:10122000164800E0006803688B42FBD3024643681F
:1012300013448B4204D143684C6823444360014605
:101240000A464B6813440468A34211D10C4C03684E
:101250002468A34208D04B680468646823444B6048
:1012600003681B680B6005E0054B1B680B6001E021
:1012700003680B60884200D0016010BD7C00002034
:101280008400002070B5054600F0ACF9A86B08B9E1
:10129000012400E0002400F0E7F9204670BD70B59D
:1012A000054600F09FF9A86BE96B884201D1012443
:1012B00000E0002400F0D8F9204670BD0A49096812
:1012C000096809B9012100E0002121B14FF0FF3187
:1012D000064A116006E004490968C968C868034AFB
:1012E0004168116070470000440000207000002039
:1012F0000B480068401C08B9012000E0002020B91C
:10130000F42208A111A0FFF719FC00BF502080F3C0
:101310001188BFF34F8FBFF36F8F00BF00BFFEE791
:10132000940000202E2E5C4672656552544F535C2B
:10133000706F72745C525644535C41524D5F434D22
:10134000335C706F72742E63000000004572726F20
:10135000723A25732C25640D0A00000070B504460E
:1013600000F040F994F9455010E0606A08B9012096
:1013700000E0002038B904F1240000F0D5FF18B1D6
:1013800000F0D6FA00E003E0681E45B2002DECDC68
:1013900000BFFF2084F8450000F066F900F022F954
:1013A00094F9445010E0206908B9012000E00020C1
:1013B00048B904F1100000F0B7FF08B100F0B8FA26
:1013C000681E45B200E001E0002DECDC00BFFF200C
:1013D00084F8440000F048F970BD00002DE9F041A8
:1013E00004464FF0000800F051FB3E48006808B981
:1013F000FFF718FE3C480068204000285FD1A4B1E8
:10140000083404F0070080B104F00700C0F10800C0
:10141000044404F0070008B9012000E0002020B9CE
:10142000BF2232A13AA0FFF789FB002C47D03C48ED
:101430000068844243D83B4E3046056801E02E46A2
:101440002D686868A04202D228680028F7D1254894
:101450000068854233D0306800F1080828683060A1
:101460006868001B102813D92F1907F0070008B966
:10147000012000E0002020B9EC221CA124A0FFF7ED
:101480005DFB6868001B78606C603846FFF7C6FE3D
:10149000234968680968081A2149086008460068F5
:1014A00021490968884203D21D4800681E49086026
:1014B0000D4968680968084368600020286000F0EA
:1014C0008FFF08F0070008B9012000E0002028B9CC
:1014D0004FF4967205A10EA0FFF730FB4046BDE821
:1014E000F081000084000020900000202E2E5C4639
:1014F00072656552544F535C706F72745C4D656DCC
:101500004D616E675C686561705F342E630000003A
:101510004572726F723A25732C25640D0A00000023
:10152000880000207C0000208C000020001F4FF06D
:1015300080730360001F21F001030360001F034B51
:10154000036014380260203870470000F112000870
:1015500001460A69D1E901309860D1E90103586078
:101560005068884201D18868506000200861106886
:10157000401E10601068704700F1080141604FF094
:10158000FF31816000F10801C1600161002101604B
:10159000704700210161704710B502460B685C1C62
:1015A0000CB9106907E002F1080000E040684468E7
:1015B00024689C42FAD944684C604C68A1608860F9
:1015C00041600A611468641C146010BD42684A607E
:1015D00093688B60936859609160086103685B1C35
:1015E0000360704710B500BF502080F31188BFF32F
:1015F0004F8FBFF36F8F00BF0B480068401C0A4934
:1016000008600846006801280DD108480068C0B28B
:1016100008B9012000E0002028B94FF4BD7204A1F0
:101620000DA0FFF78BFA10BD9400002004ED00E040
:101630002E2E5C4672656552544F535C706F727407
:101640005C525644535C41524D5F434D335C706F66
:1016500072742E63000000004572726F723A257337
:101660002C25640D0A00000010B50B48006828B94D
:1016700040F2811209A113A0FFF760FA0648006842
:10168000401E054908600846006820B9002080F324
:10169000118800BF00BF10BD940000202E2E5C46B4
:1016A00072656552544F535C706F72745C5256444D
:1016B000535C41524D5F434D335C706F72742E63C7
:1016C000000000004572726F723A25732C25640D7C
:1016D0000A00000070B506463546002E35D0083D9C
:1016E0002C461A4960680968084008B1012000E0EA
:1016F000002028B94FF4A07215A11EA0FFF71EFA12
:10170000206808B9012000E0002028B940F2411209
:101710000FA118A0FFF712FA0C4960680968084089
:1017200098B1206888B90949606809688843606091
:1017300000F0ACF913496068096808441149086071
:101740002046FFF76BFD00F04BFE70BD90000020BF
:101750002E2E5C4672656552544F535C706F7274E6
:101760005C4D656D4D616E675C686561705F342EC0
:10177000630000004572726F723A25732C25640D68
:101780000A00000088000020064800684FF47A71C3
:10179000B0FBF1F0401E4FF0E021486107200861E6
:1017A000704700000000002070B504460025ACB171
:1017B0000F48006808B9012000E0002028B940F275
:1017C000CF420CA111A0FFF7B9F900F05FF9002199
:1017D0002046FFF7FBFA00F003FE05463DB94FF047
:1017E00080500E490860BFF34F8FBFF36F8F70BDFD
:1017F000780000202E2E5C4672656552544F535C73
:101800007372635C7461736B732E63004572726FE5
:10181000723A25732C25640D0A00000004ED00E0E7
:1018200070B50546FFF7DEFE15B92D48006800E0EB
:1018300028460446201DFFF78BFE78B9E06A00EBCE
:101840008000284951F8200040B994F82C1001205C
:10185000884025490968814323480160A06A18B17E
:1018600004F11800FFF774FE20480068401C1F496F
:1018700008601B480068844209D1211D1C48FFF7FD
:10188000A5FE1C480068401C1A49086009E01A4877
:101890000068401E184908602046FFF7B9FBFFF7B3
:1018A0000DFDFFF7E1FE15480068C0B10C48006867
:1018B000844214D11248006808B9012000E00020D9
:1018C00028B940F265420FA114A0FFF737F94FF095
:1018D000805016490860BFF34F8FBFF36F8F70BD04
:1018E00040000020A4000020580000206C000020D0
:1018F000600300204C000020500000205C0000200D
:10190000780000202E2E5C4672656552544F535C61
:101910007372635C7461736B732E63004572726FD4
:10192000723A25732C25640D0A00000004ED00E0D6
:1019300001200149086070476400002070B504462A
:101940000D462CB940F6063207A10DA0FFF7F6F8B8
:101950000F48016818312046FFF71EFE0121284676
:10196000FFF734FA70BD00002E2E5C46726565529A
:10197000544F535C7372635C7461736B732E6300BA
:101980004572726F723A25732C25640D0A000000AF
:101990004000002010B504462CB940F6C13205A124
:1019A0000AA0FFF7CBF80D48006820600C480068DB
:1019B000606010BD2E2E5C4672656552544F535CBC
:1019C0007372635C7461736B732E63004572726F24
:1019D000723A25732C25640D0A000000680000206F
:1019E000540000201CB5184800210B468022CDE988
:1019F000001016A1174800F0A5FB0446012C15D1D4
:101A000000BF502080F31188BFF34F8FBFF36F8F5B
:101A100000BF4FF0FF301049086001200F490860F7
:101A200000200F49086000F08FF80BE0601C08B13F
:101A3000012000E0002028B940F2847209A10FA023
:101A4000FFF77CF81CBD00007400002049444C45A1
:101A500000000000A1100008700000205C000020C1
:101A6000540000202E2E5C4672656552544F535C24
:101A70007372635C7461736B732E63004572726F73
:101A8000723A25732C25640D0A0000000248006894
:101A9000401C0149086070477800002010B51B48C1
:101AA000006818B101201A4908602DE0002018498B
:101AB000086018480068B0FA80F0C0F11F0404EB19
:101AC0008400154951F8200008B1012000E00020F1
:101AD00028B940F6F62211A116A0FFF72FF804EB63
:101AE00084010D4A02EB810041684968416000F1C0
:101AF000080142688A4202D14168496841604168F0
:101B0000C968104A116000BF10BD000078000020B5
:101B10006400002058000020A40000202E2E5C4607
:101B200072656552544F535C7372635C7461736B7E
:101B3000732E63004572726F723A25732C25640D03
:101B40000A000000400000201CB522480146097828
:101B50000191FF21024611700146097800919DF81C
:101B6000001001F050011C4A117007211B4A11603E
:101B700009E01A490968491E184A11609DF80010C9
:101B80004906090E00919DF8001001F0800180299E
:101B9000EFD0124909680902104A116011460988FC
:101BA00001F4E06111600B4A019911700C48006862
:101BB00040F470000A4908600846006840F0704030
:101BC0000860FFF7E1FD002006490860FEF7CEFA45
:101BD00000201CBD00E400E0980000209C000020D4
:101BE00020ED00E09400002010B500BF502080F3ED
:101BF0001188BFF34F8FBFF36F8F00BF00F0E2FA81
:101C000018B14FF080500449086000BF002080F3F5
:101C1000118800BF10BD000004ED00E02DE9F8437D
:101C200005460E4690460DB1012000E0002028B97F
:101C30004FF4C4720DA113A0FEF780FF0EB9002768
:101C400001E005FB06F707F14800FFF7C7FB044674
:101C500044B104F1480943464A46314628460094B7
:101C6000FFF732FA2046BDE8F88300002E2E5C46CE
:101C700072656552544F535C7372635C7175657520
:101C8000652E63004572726F723A25732C25640DC0
:101C90000A0000002DE9FF4782B005460E461F46A8
:101CA0004FF0000A2C462CB940F2DC425AA160A049
:101CB000FEF744FF0EB9206C08B9012000E00020B7
:101CC00028B940F2DD4254A159A0FEF737FF00F0D9
:101CD00069FA08B9049808B9012000E0002028B981
:101CE0004FF49C624CA152A0FEF728FF00BFFFF703
:101CF00079FCD4F83890B9F1000F38D0D4F80C80C2
:101D000031462046FFF73AF9B7B9A9F10100A063BF
:101D1000206908B9012000E0002010BB04F1100088
:101D200000F002FBE8B14FF0805045490860BFF376
:101D30004F8FBFF36F8F14E0C4F80C80606A08B94E
:101D4000012000E0002060B904F1240000F0ECFA6A
:101D500038B14FF080503A490860BFF34F8FBFF35E
:101D60006F8FFFF781FC012006B0BDE8F087049873
:101D700018B9FFF779FC0020F6E7BAF1000F04D19B
:101D80006846FFF707FE4FF0010AFFF76DFCFFF70B
:101D90007DFEFFF727FC94F94400401C10B9002099
:101DA00084F8440094F94500401C10B9002084F8E0
:101DB0004500FFF759FC04A9684600F071F9F0B935
:101DC0002046FFF75FFAA0B104F124000499FFF761
:101DD000B5FD2046FFF7C2FA00F002FB002886D1CD
:101DE0004FF0805016490860BFF34F8FBFF36F8FDD
:101DF0007DE72046FFF7B2FA00F0F2FA77E72046D7
:101E0000FFF7ACFA00F0ECFA2046FFF73BFA0028A7
:101E1000EED00020A8E700002E2E5C4672656552C9
:101E2000544F535C7372635C71756575652E630006
:101E30004572726F723A25732C25640D0A000000FA
:101E400004ED00E070B505460E462C462CB940F274
:101E50001B121EA123A0FEF771FEFFF7C3FBD4E9FE
:101E60000F12206801FB020060600020A063206860
:101E7000A060E06B401E226C216800FB0210E06055
:101E8000FF2084F8440084F845009EB9206908B911
:101E9000012000E00020A8B904F1100000F044FA8D
:101EA00080B14FF0805013490860BFF34F8FBFF3EC
:101EB0006F8F07E004F11000FFF75EFB04F12400D0
:101EC000FFF75AFBFFF7D0FB012070BD2E2E5C46BA
:101ED00072656552544F535C7372635C71756575BE
:101EE000652E63004572726F723A25732C25640D5E
:101EF0000A00000004ED00E02DE9FF4383B0064630
:101F000088461D464FF0000934462CB940F2D922CC
:101F100058A15EA0FEF712FEB8F1000F01D1206CAF
:101F200008B9012000E0002028B940F2DA2251A1CE
:101F300056A0FEF703FE022D02D1E06B012801D16D
:101F4000012000E0002028B940F2DB2249A14FA087
:101F5000FEF7F4FD00F026F908B9059808B901204C
:101F600000E0002028B940F2DE2242A147A0FEF79F
:101F7000E5FD00BFFFF736FBA06BE16B884201D3A4
:101F8000022D28D12A4641462046FFF70CF8074685
:101F9000606A08B9012000E0002068B904F124005B
:101FA00000F0C2F988B14FF080503C490860BFF39F
:101FB0004F8FBFF36F8F08E03FB14FF0805037492C
:101FC0000860BFF34F8FBFF36F8FFFF74DFB01200A
:101FD00007B0BDE8F083059818B9FFF745FB00206E
:101FE000F6E7B9F1000F04D101A8FFF7D3FC4FF0D9
:101FF0000109FFF739FBFFF749FDFFF7F3FA94F901
:102000004400401C10B9002084F8440094F94500B5
:10201000401C10B9002084F84500FFF725FB05A9F6
:1020200001A800F03DF8F0B92046FFF738F9A0B15B
:1020300004F110000599FFF781FC2046FFF78EF9A7
:1020400000F0CEF9002895D14FF080501349086078
:10205000BFF34F8FBFF36F8F8CE72046FFF77EF9FA
:1020600000F0BEF986E72046FFF778F900F0B8F9EE
:102070000020ADE72E2E5C4672656552544F535CCE
:102080007372635C71756575652E63004572726F5E
:10209000723A25732C25640D0A00000004ED00E05F
:1020A0002DE9F04104460D462CB940F6CB3219A17A
:1020B0001EA0FEF743FD2DB940F6CC3215A11BA0A2
:1020C000FEF73CFDFFF78EFA1C4807682868401CA5
:1020D00008B9002619E01A4920680968884204D026
:1020E0006068B84201D801260FE06068381A296894
:1020F000884209D228686168791A401A2860204607
:10210000FFF748FC002600E00126FFF7ADFA304655
:10211000BDE8F0812E2E5C4672656552544F535CCB
:102120007372635C7461736B732E63004572726FBC
:10213000723A25732C25640D0A000000540000201B
:10214000680000202DE9FF4F85B08046894617467C
:10215000DDE912ABB800FFF741F9064656B14C2055
:10216000FFF73CF904460CB1266304E03046FFF764
:10217000B1FA00E000247CB10020CDE900ABCDE94C
:1021800002403A4649464046089BFEF7B1FF2046CA
:10219000FEF768FE012501E04FF0FF35284609B043
:1021A000BDE8F08F0549096809B9012005E0044937
:1021B000096809B9022000E0002070475C00002097
:1021C000780000202DE9F0414FF0000841480068F8
:1021D000002872D140480068451C3F480560EDB9B1
:1021E0003E480068006808B9012000E0002028B9D6
:1021F00040F6D9123AA140A0FEF7A0FC3748076884
:1022000041480068354908603F4807603F4800681A
:10221000401C3E490860FFF751F800BF3C48006889
:1022200085423CD300BF2D480068006808B90120F2
:1022300000E0002020B14FF0FF30354908602DE06C
:1022400026480068C068C4686668B54202D2304853
:10225000066023E0201DFFF77BF9A06A18B104F1A6
:102260001800FFF775F994F82C10012088402949CF
:102270000968084327490860E16A01EB8101264AA1
:1022800002EB8100211DFFF7A1F92449E06A0968EA
:10229000C96A8842C7D34FF00108C4E700BF1F488E
:1022A0000068C06A00EB80001B4951F8200001283B
:1022B00001D94FF0010805E0FFE719480068401C0C
:1022C000174908601748006808B14FF001084046F8
:1022D000BDE8F08178000020540000204400002078
:1022E0002E2E5C4672656552544F535C7372635C6C
:1022F0007461736B732E63004572726F723A25734B
:102300002C25640D0A000000480000206800002011
:102310007000002058000020A40000204000002091
:10232000600000206400002070B50646F068C468B4
:102330002CB940F661321AA11FA0FEF7FFFB04F191
:102340001800FFF705F920480068A8B9201DFFF71D
:10235000FFF894F82C10012088401C4909680843B4
:102360001A490860E16A01EB8101194A02EB810018
:10237000211DFFF72BF904E004F118011548FFF7C0
:1023800025F91549E06A0968C96A884204D9012516
:1023900001201249086000E00025284670BD0000B9
:1023A0002E2E5C4672656552544F535C7372635CAB
:1023B0007461736B732E63004572726F723A25738A
:1023C0002C25640D0A000000780000205800002031
:1023D000A40000204C0300204000002064000020E6
:1023E00070B5002400263448006828B94FF4FD6217
:1023F00032A138A0FEF7A2FBFFF7F4F82E480068E0
:10240000401E2D4908600846006800284FD1354815
:10241000006800284BD024E03348C068C46804F149
:102420001800FFF795F8201DFFF792F894F82C108C
:10243000012088402D49096808432C490860E16A59
:1024400001EB81012A4A02EB8100211DFFF7BEF852
:102450002849E06A0968C96A884202D301202649EE
:1024600008602148006808B9012000E00020002829
:10247000D2D00CB1FEF722FF2048056865B100BF3D
:10248000FFF7A0FE10B101201B4908606D1E002D52
:10249000F6D10020194908601748006838B10126B4
:1024A000300717490860BFF34F8FBFF36F8FFFF7F7
:1024B000DBF8304670BD0000780000202E2E5C4610
:1024C00072656552544F535C7372635C7461736BD5
:1024D000732E63004572726F723A25732C25640D5A
:1024E0000A000000500000204C030020580000208B
:1024F000A4000020400000206400002060000020B4
:1025000004ED00E02425000800000020A4000000E5
:102510005C0B0008C8250008A4000020E496000019
:102520006C0B000800A24A0400000000000000003C
:102530000102030406070809000000000102030469
:10254000010203040607080902040608000000004F
:10255000000000000000000000000000000000007B
:10256000000000000000000000000000000000006B
:10257000000000000000000000000000000000005B
:10258000000000000000000000000000000000004B
:10259000000000000000000000000000000000003B
:1025A000000000000000000000000000000000002B
:1025B0000000000000000000AAAAAAAA0000000073
:0825C000000000000000000013
:0400000508000131BD
:00000001FF
