:020000040800F2
:1000000010980020E1010008390500089904000853
:100010003505000879030008150A000800000000F3
:10002000000000000000000000000000490100087E
:100030007D030008000000008D0100080D08000885
:10004000FB010008FB010008FB010008FB010008A0
:10005000FB010008FB010008FB010008FB01000890
:10006000FB010008FB010008FB010008FB01000880
:10007000FB010008FB010008FB010008FB01000870
:10008000FB010008FB010008FB010008FB01000860
:10009000FB010008FB010008FB010008FB01000850
:1000A000FB010008FB010008FB010008FB01000840
:1000B000FB010008FB010008FB010008FB01000830
:1000C000FB010008FB010008FB010008FB01000820
:1000D000FB010008FB010008FB010008FB01000810
:1000E000FB010008FB010008FB010008FB01000800
:1000F000FB010008FB010008FB010008FB010008F0
:10010000FB010008FB010008FB010008FB010008DF
:10011000FB010008FB010008FB010008FB010008CF
:10012000FB010008FB010008FB010008FB010008BF
:10013000DFF810D000F08EF800480047350C0008BA
:10014000AFF3008010980020224B19680868B0E8CF
:10015000F00F80F30988BFF36F8F4FF0000080F33A
:1001600011884EF00D0E7047000000000648006830
:10017000006880F3088862B661B6BFF34F8FBFF3A3
:100180006F8F00DF00BF00BF08ED00E0EFF30980D4
:10019000BFF36F8F0F4B1A6820E9F00F106008B59E
:1001A0004FF0500080F31188BFF34F8FBFF36F8F74
:1001B00001F094FE4FF0000080F31188BDE8084084
:1001C00019680868B0E8F00F80F30988BFF36F8FF3
:1001D000704700BF3C000020EFF30580704700002F
:1001E0000648804706480047FEE7FEE7FEE7FEE7D1
:1001F000FEE7FEE7FEE7FEE7FEE7FEE71D08000874
:100200003101000840EA01039B0703D009E008C957
:10021000121F08C0042AFAD203E011F8013B00F8CB
:10022000013B521EF9D2704730B50B460146002003
:100230002022012409E021FA02F59D4205D303FAA8
:1002400002F5491B04FA02F52844151EA2F1010229
:10025000F1DC30BD064C074D06E0E06840F00103DC
:1002600094E8070098471034AC42F6D3FFF764FFD8
:10027000A02B0008C02B000838B501F051FB204826
:1002800001231A464FF47A7100901EA002F0E2FB9F
:10029000204908600846006870B102F035FA04464B
:1002A000002003462246012100901A48006802F00F
:1002B00025FC19A000F0B0FB1C480223002241F2EB
:1002C000883100901AA002F0C5FB1D49086008465D
:1002D000006870B102F018FA044600200346224676
:1002E000012100901648006802F008FC15A000F0FB
:1002F00093FB1948006801F07FFC01F053FB38BD07
:100300002D0700084175746F52656C6F6164546904
:100310006D6572002C000020BFAAC6F4C8EDBCFEBB
:10032000B6A8CAB1C6F7310D0A0000009D07000843
:100330004F6E6553686F7454696D657200000000FC
:1003400030000020BFAAC6F4C8EDBCFEB6A8CAB1F2
:10035000C6F7320D0A0000002800002010B54FF447
:10036000407000F0EBF84FF4E13000F087FA00F055
:1003700095F800F0B5F810BD00BFFEE770472DE915
:10038000F04102460025002600200023002400271B
:1003900091F803C00CF00F0591F803C00CF0100C9D
:1003A000BCF1000F03D091F802C04CEA050591F8AA
:1003B00000C0BCF1000F31D0146800202BE04FF0DA
:1003C000010C0CFA00F3B1F800C00CEA03069E42DF
:1003D00020D183004FF00F0C0CFA03F7BC4305FA51
:1003E00003FC4CEA040491F803C0BCF1280F06D1C9
:1003F0004FF0010C0CFA00FCC2F814C00AE091F8AE
:1004000003C0BCF1480F05D14FF0010C0CFA00FC01
:10041000C2F810C0401C0828D1D31460B1F800C045
:10042000BCF1FF0F34DD546800202EE000F1080C11
:100430004FF0010808FA0CF3B1F800C00CEA03060B
:100440009E4221D183004FF00F0C0CFA03F7BC43FE
:1004500005FA03FC4CEA040491F803C0BCF1280F30
:1004600005D100F1080C08FA0CF8C2F8148091F8D4
:1004700003C0BCF1480F07D100F1080C4FF0010890
:1004800008FA0CF8C2F81080401C0828CED354603B
:10049000BDE8F0810161704700BFFEE708B50121AA
:1004A000042000F055F80121402000F051F81820F8
:1004B000ADF8000048208DF8030069460648FFF7B4
:1004C0005EFF0120ADF8000028208DF8030069468A
:1004D0000248FFF754FF08BD001801400008014022
:1004E00008B50121082000F033F80121402000F078
:1004F0002FF82020ADF8000010208DF80300032015
:100500008DF8020069460948FFF739FF2020ADF851
:10051000000069460648FFF732FF20210348FFF735
:10052000B9FF20210248FFF7B5FF08BD000C0140CC
:100530000018014000BFFEE7704700000249014378
:10054000024A1160704700000000FA050CED00E05F
:1005500029B1064A92690243044B9A6104E0034AB6
:1005600092698243014B9A6170470000001002407B
:1005700030B500210022002400232D4D6D6805F0C8
:100580000C0121B1042905D0082923D105E0294D0A
:10059000056022E0274D05601FE0254D6D6805F4DC
:1005A0007012234D6D6805F48034022505EB9242EC
:1005B0001CB9214D554305600BE01D4D6D6805F4D8
:1005C00000351DB11C4D5543056002E0194D5543E2
:1005D000056002E0174D056000BF00BF144D6D6857
:1005E00005F0F0010909154D6B5C0568DD404560BB
:1005F0000F4D6D6805F4E061090A104D6B5C4568AC
:10060000DD4085600A4D6D6805F46051C90A0B4DE7
:100610006B5C4568DD40C560054D6D6805F4404183
:10062000890B074D6B5CC568B5FBF3F5056130BD03
:100630000010024000127A0000093D001400002062
:100640002400002010B500F001F810BD0CB500200A
:10065000019000903348006840F4803031490860D0
:1006600000BF3048006800F4003000900198401C42
:100670000190009818B90198B0F5A06FF1D1294800
:10068000006800F4003010B10120009001E000206B
:1006900000900098012843D12348006840F01000E2
:1006A000214908600846006820F0030008600846F9
:1006B000006840F0020008601A4840681949486024
:1006C0000846406848600846406840F480604860DA
:1006D0000846406820F47C1048600846406840F4B2
:1006E000E81048600846006840F08070086000BF6D
:1006F0000C48006800F000700028F9D009484068F4
:1007000020F00300074948600846406840F00200B6
:10071000486000BF0348406800F00C000828F9D189
:100720000CBD0000001002400020024070B50546DC
:100730000B480068401C0A49086001F0E5FF0446C8
:100740000848006880F020000649086004480168F5
:1007500005A000F061F921460BA000F05DF970BD25
:10076000340000200C1801405377746D72315F43E0
:10077000616C6C6261636BBAAFCAFDD6B4D0D02035
:10078000256420B4CE0D0A00B5CEB4F0B6A8CAB127
:10079000C6F7CAFDD6B53D25640D0A0070B50546FD
:1007A0000B480068401C0A49086001F0ADFF044690
:1007B0000848006880F02000064908600448016885
:1007C00005A000F029F921460BA000F025F970BD25
:1007D000380000200C0C01405377746D72325F4377
:1007E000616C6C6261636BBAAFCAFDD6B4D0D020C5
:1007F000256420B4CE0D0A00B5CEB4F0B6A8CAB1B7
:10080000C6F7CAFDD6B53D25640D0A0010B501F046
:100810006BFF012801D001F007FC10BD10B5134893
:10082000006840F00100114908600846406810491E
:1008300008400E494860084600680E4908400B49C8
:1008400008600846006820F4802008600846406878
:1008500020F4FE0048604FF41F008860FFF7F2FEAE
:100860004FF000600449086010BD00000010024015
:100870000000FFF8FFFFF6FE08ED00E010B586B0BF
:10088000044601210420FFF763FE01218803FFF7DE
:100890005FFE4FF40070ADF8140018208DF81700BB
:1008A00003208DF8160005A91348FFF768FD4FF4E3
:1008B0008060ADF8140004208DF8170003208DF837
:1008C000160005A90C48FFF75AFD01940020ADF869
:1008D0000800ADF80A00ADF80C00ADF810000C20CF
:1008E000ADF80E0001A9054800F024F801210348E5
:1008F00000F006F806B010BD0008014000380140C5
:1009000021B1828942F40052828104E082894DF64D
:10091000FF731A408281704702460020B1F5007FC4
:1009200000D100BF13880B400BB1012000E0002074
:10093000704700002DE9F04786B005460E460024BA
:10094000A24600BFA1460027B08900B100BF2F46D4
:100950002C8A4CF6FF700440F08804432C82AC894A
:100960004EF6F3100440B08831890843718908437A
:100970000443AC81AC8A4FF6FF400440B089044385
:10098000AC8201A8FFF7F4FD1F48874202D1DDF8D1
:1009900010A001E0DDF80CA0A88900F4004040B1EF
:1009A0000AEBCA0000EB0A1031684900B0FBF1F80D
:1009B00007E00AEBCA0000EB0A1031688900B0FBBF
:1009C000F1F86420B8FBF0F004012009642101FB78
:1009D0001089A88900F4004040B1322000EBC90022
:1009E000B0FBF1F000F00700044308E0322000EB18
:1009F00009106421B0FBF1F000F00F0004432C81DA
:100A000006B0BDE8F087000000380140C1F30802DD
:100A10008280704700BFFEE70FB4054B10B503A9F5
:100A2000044A029800F018F810BC5DF814FB0000AE
:100A3000110C0008B000002002E008C8121F08C115
:100A4000002AFAD170477047002001E001C1121F4F
:100A5000002AFBD1704700002DE9FF4F8BB09A466A
:100A60000F460546002606E025280BD052460D9974
:100A700090476D1C761C28780028F5D10FB03046C1
:100A8000BDE8F08F0024A0460122604900E0044345
:100A900015F8013F203B02FA03F00842F7D128780D
:100AA0002E2817D115F8010F44F004042A280ED07F
:100AB0006FF02F022878A0F1300109290AD808EB3D
:100AC000880102EB410100EB01086D1CF2E757F8C9
:100AD000048B6D1C287869283ED006DC0028CDD018
:100AE00063280BD0642804D136E0732810D0752811
:100AF0004BD052460D999047761C85E017F8040BB1
:100B00008DF8000000208DF80100E946012003E087
:100B100057F8049B4FF0FF3061074FF0000401D4F9
:100B20000AE0641C44450DDA8442FADB19F804102B
:100B30000029F6D106E0641C8442FCDB19F804109D
:100B40000029F8D1264404E019F8010B52460D990A
:100B50009047641EF8D257E001CF4FF00A0B0028EF
:100B600002DA40422D2102E0210504D52B218DF827
:100B70002410012103E0E10705D02021F7E70DF162
:100B8000200908910CE00021F9E701CF4FF00A0B92
:100B9000F9E75946FFF748FB01F1300209F8012D4A
:100BA0000028F6D1ADEB090000F1200B600701D45D
:100BB0004FF00108D84502DDA8EB0B0000E0002053
:100BC0008046002406E009A85246005D0D99904732
:100BD000641C761C08988442F5DB04E03020524601
:100BE0000D999047761CB8F10001A8F10108F5DCD9
:100BF00005E019F8010B52460D999047761CBBF1A0
:100C00000001ABF1010BF4DC6D1C34E70928010095
:100C100070B504460D46E1B20548FFF7F7FE00BF88
:100C200080210348FFF778FE0028F9D0204670BDE8
:100C3000003801401CB50124FFF790FB0BA0FFF723
:100C4000EBFE0F48012100238022CDE900100DA109
:100C5000104801F019FD0446012C02D101F0DEF824
:100C600002E00DA0FFF7D8FE00BFFEE7D3B2BCFE46
:100C7000B3F5CABCBBAFCDEAB3C90D0A0000000092
:100C8000280000204170705461736B437265617479
:100C90006500000079020008C8CECEF1B4B4BDA84A
:100CA000CAA7B0DC0D0A00002DE9F04105460E464A
:100CB0001C4807681C480068001D00F0E7FD50B99B
:100CC0001948006890F82C100120884017490968DD
:100CD000814316480160681C38B936B11248016872
:100CE000091D134800F010FE1AE07C190E48006838
:100CF0004460BC4207D20C480168091D0D480068D9
:100D000000F0E8FD0CE008480168091D0A48006889
:100D100000F0E0FD09480068844201D20748046001
:100D2000BDE8F081500000203C000020540000206D
:100D3000D403002044000020400000206C0000206C
:100D400010B5044600F0ECFD23480068401C224921
:100D500008602248006840B92048046008460068DE
:100D600001280DD100F012FA0AE01D48006838B9D8
:100D70001A480068C06AE16A884201D817480460CE
:100D800018480068401C1749086094F82C1001208E
:100D9000884015490968084313490860E16A01EB76
:100DA0008101124A02EB8100211D00F0ADFD00F02F
:100DB000F9FD0B48006868B108480068C06AE16A3C
:100DC000884207D24FF0805009490860BFF34F8F27
:100DD000BFF36F8F10BD00004C0000203C000020CE
:100DE000580000206800002054000020040100206A
:100DF00004ED00E010B500F093FD10480068D0B994
:100E00000F4800F057FD0F4800F054FD0C480E4904
:100E100008600C480D49086000220C210A2001F0EE
:100E20001DF9064908600846006820B108A103487A
:100E3000006800F0A5FE00F0B5FD10BD80000020A8
:100E4000E8030020FC030020780000207C00002044
:100E5000546D72510000000070B523E001F036F8C7
:100E60001348006808B9012000E00020054601F0A1
:100E70005FFDBDB900F054FD0D48C068C468201D79
:100E800000F004FD0B480068401E0A4908600A484B
:100E90000068401E0849086000F084FD204600F00C
:100EA00057F800BF044800680028D7D170BD000083
:100EB000C00300204C0000204800002070B504460C
:100EC0000D46206C70B1216CE0680844E0606168F8
:100ED000E068884201D32068E0602846226CE1681F
:100EE000FFF790F970BD2DE9F04104460F46154615
:100EF0004FF00008A66B206C28B37DB93946226CF0
:100F0000A068FFF77FF9216CA0680844A060D4E9CD
:100F10000110884217D32068A06014E03946226C83
:100F2000E068FFF76FF9216CE068401AE060216823
:100F3000E068884203D2216C6068401AE060022DAC
:100F400001D106B1761E701CA0634046BDE8F08159
:100F500010B50446206B00F05BFD204600F058FD04
:100F600010BD00000146084A126812680AB9012241
:100F700000E000220A600A6822B9034A1268D268B7
:100F8000106800E0002070477800002030B54FF472
:100F90001043174800F007042CB1C01D20F00700D3
:100FA000134C041B1B1B0246124C22600024114DE3
:100FB0006C60D018083820F007000F4C2060002427
:100FC0000D4D2D686C600C4D2D682C601146441A37
:100FD0004C60094C24680C60084D4C682C60084D2E
:100FE0004C682C604FF00044064D2C6030BD000072
:100FF000100400208C000020940000209C000020A1
:1010000098000020A000002000BFFFF725FF064841
:1010100000680128F9D94FF0805004490860BFF3F7
:101020004F8FBFF36F8FF0E70401002004ED00E065
:101030002DE9F04106460D4617469846069C0DB927
:10104000246000E02760E66325640121204601F06A
:1010500019F9BDE8F08100002DE9FF5F81460E46D9
:101060009246DDE90E7B109CAAF10100216B01EB99
:10107000800828F0070808F0070008B9012000E000
:10108000002028B940F22B321AA120A0FFF7C4FC9F
:10109000002507E0715D04F134004155705D00B931
:1010A00002E06D1C102DF5D300BF00214320015537
:1010B000202F00D31F27E762201D00F008FC04F159
:1010C000180000F004FC2461C7F12000A0616462F4
:1010D0000020606484F8480049464046039A00F0C6
:1010E000C3FB2060BBF1000F01D0CBF80040BDE88E
:1010F000FF9F00002E2E5C4672656552544F535C74
:101100007372635C7461736B732E63004572726FEC
:10111000723A25732C25640D0A0000002DE9F04772
:1011200006460D4617469846DDE908940DB10120A4
:1011300000E0002028B94FF4C67209A10FA0FFF704
:101140006BFC5CB1FFF756FE2660A561E761C4F851
:101150002080C4F82490201D00F0B9FBBDE8F08782
:101160002E2E5C4672656552544F535C7372635CFD
:1011700074696D6572732E63000000004572726FB2
:10118000723A25732C25640D0A00000010B5002466
:1011900007E004EB84010F4A02EB810000F08AFBB8
:1011A000641C202CF5D30C4800F084FB0B4800F0A5
:1011B00081FB0B4800F07EFB0A4800F07BFB0A48ED
:1011C00000F078FB044809490860044808490860B1
:1011D00010BD0000040100208403002098030020BB
:1011E000AC030020C0030020D403002040000020F6
:1011F0004400002010B50146164800E0006803686E
:101200008B42FBD30246436813448B4204D14368AC
:101210004C682344436001460A464B681344046803
:10122000A34211D10C4C03682468A34208D04B6838
:101230000468646823444B6003681B680B6005E026
:10124000054B1B680B6001E003680B60884200D00F
:10125000016010BD8C000020940000202DE9F041B9
:1012600004460D4616461F464FF00008656024618F
:10127000B5420CD8F01BA169884202D34FF0010897
:1012800011E0211D0948006800F024FB0BE0BE427C
:1012900004D2BD4202D34FF0010804E0211D0448EE
:1012A000006800F017FB4046BDE8F0817C0000209C
:1012B0007800002070B5054600F032FBA86B08B935
:1012C000012400E0002400F06DFB204670BD70B5E5
:1012D000054600F025FBA86BE96B884201D101248B
:1012E00000E0002400F05EFB204670BDF8B5054626
:1012F0000F4613480068C068C468201D00F0C6FA95
:10130000E069012818D1A06941192B463A462046C8
:10131000FFF7A4FF80B1002003462A460146009053
:10132000204601F0EBFB06462EB94FF4027205A1F0
:101330000BA0FFF771FB00BF2046616A8847F8BD2C
:10134000780000202E2E5C4672656552544F535C27
:101350007372635C74696D6572732E6300000000C4
:101360004572726F723A25732C25640D0A000000D5
:1013700070B586B060E0039800285DDB059C60696D
:1013800008B9012000E0002010B9201D00F07EFA0D
:1013900002A800F0C9F8054603980A284AD2DFE8F7
:1013A00000F00905072C2E4506082D2F00BF00BFB1
:1013B00000BF00BF0498A269811803462A46204650
:1013C000FFF74CFFC0B12046616A8847E0690128F9
:1013D00012D1002000900498A169421800231946F8
:1013E000204601F08BFB06462EB940F2213218A1AF
:1013F0001EA0FFF711FB00BF1DE000BF1BE000BFF8
:101400000498A061A06908B1012000E0002028B97B
:101410004FF44E720EA115A0FFF7FEFAA069411914
:101420002B462A462046FFF719FF04E0204600F02D
:10143000EFFA00E000BF00BF00231A4603A90F48DF
:10144000006800F047FE002895D106B070BD00008E
:101450002E2E5C4672656552544F535C7372635C0A
:1014600074696D6572732E63000000004572726FBF
:10147000723A25732C25640D0A00000080000020BC
:10148000F8B505460C4600F021FD684600F04CF822
:101490000646009820BB44B9B54206D801F048FA88
:1014A00031462846FFF722FF1CE03CB10E48006899
:1014B000006808B9012000E000200446A91B22466C
:1014C0000A48006800F072FB01F032FA50B94FF0A0
:1014D000805007490860BFF34F8FBFF36F8F01E063
:1014E00001F026FAF8BD00007C00002080000020FA
:1014F00004ED00E00A490968096809B9012100E022
:10150000002121B14FF0FF31064A116006E0044985
:101510000968C968C868034A4168116070470000DB
:10152000400000206C00002070B5044601F0ECF88B
:10153000054607480068854204D200F00BF80120F8
:10154000206001E00020206001480560284670BD51
:10155000880000202DE9F8432DE021480068C0688C
:1015600005681F480068C068C468201D00F08EF937
:101570002046616A8847E06901281CD1A0694619A4
:10158000AE4207D966602461211D1548006800F04D
:10159000A1F910E0002003462A46014600902046AB
:1015A00001F0ACFA07462FB940F292320DA114A017
:1015B000FFF732FA00BF0A480068006808B9012046
:1015C00000E000200028C8D00548D0F8008010486E
:1015D0000068034908600E48C0F80080BDE8F88341
:1015E000780000202E2E5C4672656552544F535C85
:1015F0007372635C74696D6572732E630000000022
:101600004572726F723A25732C25640D0A00000032
:101610007C0000200B480068401C08B9012000E055
:10162000002020B9F42208A111A0FFF7F5F900BFAE
:10163000502080F31188BFF34F8FBFF36F8F00BF2F
:1016400000BFFEE7A40000202E2E5C4672656552A6
:10165000544F535C706F72745C525644535C4152E9
:101660004D5F434D335C706F72742E630000000059
:101670004572726F723A25732C25640D0A000000C2
:1016800008B500BF6846FFF76DFC04462046009988
:10169000FFF7F6FEFFF76CFEF4E770B5044600F0C6
:1016A0003FF994F9455010E0606A08B9012000E064
:1016B000002038B904F1240001F0DEF818B100F080
:1016C00023FB00E003E0681E45B2002DECDC00BF08
:1016D000FF2084F8450000F065F900F021F994F945
:1016E000445010E0206908B9012000E0002048B90A
:1016F00004F1100001F0C0F808B100F005FB681E0D
:1017000045B200E001E0002DECDC00BFFF2084F8D2
:10171000440000F047F970BD2DE9F04104464FF058
:10172000000800F0D3FB3E48006808B9FFF72EFC24
:101730003C480068204000285FD1A4B1083404F080
:10174000070080B104F00700C0F10800044404F071
:10175000070008B9012000E0002020B9BF2232A113
:101760003AA0FFF759F9002C47D03C480068844262
:1017700043D83B4E3046056801E02E462D68686828
:10178000A04202D228680028F7D125480068854287
:1017900033D0306800F10808286830606868001BA2
:1017A000102813D92F1907F0070008B9012000E00D
:1017B000002020B9EC221CA124A0FFF72DF96868B5
:1017C000001B78606C603846FFF714FD2349686899
:1017D0000968081A21490860084600682149096813
:1017E000884203D21D4800681E4908600D49686898
:1017F0000968084368600020286001F099F808F043
:10180000070008B9012000E0002028B94FF49672C3
:1018100005A10EA0FFF700F94046BDE8F0810000E9
:1018200094000020A00000202E2E5C4672656552B8
:10183000544F535C706F72745C4D656D4D616E6793
:101840005C686561705F342E630000004572726FE2
:10185000723A25732C25640D0A00000098000020C0
:101860008C0000209C000020001F4FF0807303605C
:10187000001F21F001030360001F034B03601438B5
:1018800002602038704700001516000801460A69FA
:10189000D1E901309860D1E901035860506888426D
:1018A00001D188685060002008611068401E1060F7
:1018B0001068704700F1080141604FF0FF3181600E
:1018C00000F10801C1600161002101607047002141
:1018D0000161704710B502460B685C1C0CB91069B9
:1018E00007E002F1080000E04068446824689C4278
:1018F000FAD944684C604C68A160886041600A6114
:101900001468641C146010BD42684A6093688B6060
:10191000936859609160086103685B1C03607047BD
:1019200010B500BF502080F31188BFF34F8FBFF375
:101930006F8F00BF0B480068401C0A4908600846CA
:10194000006801280DD108480068C0B208B901201C
:1019500000E0002028B94FF4BD7204A10DA0FFF7EC
:101960005BF810BDA400002004ED00E02E2E5C46C4
:1019700072656552544F535C706F72745C5256447A
:10198000535C41524D5F434D335C706F72742E63F4
:10199000000000004572726F723A25732C25640DA9
:1019A0000A00000010B50B48006828B940F2811207
:1019B00009A113A0FFF730F806480068401E05494A
:1019C00008600846006820B9002080F3118800BF35
:1019D00000BF10BDA40000202E2E5C46726565522B
:1019E000544F535C706F72745C525644535C415256
:1019F0004D5F434D335C706F72742E6300000000C6
:101A00004572726F723A25732C25640D0A0000002E
:101A100070B506463546002E35D0083D2C461A498D
:101A200060680968084008B1012000E0002028B97A
:101A30004FF4A07215A11EA0FEF7EEFF206808B9B2
:101A4000012000E0002028B940F241120FA118A0A7
:101A5000FEF7E2FF0C4960680968084098B1206809
:101A600088B90949606809688843606000F02EFA07
:101A70001349606809680844114908602046FFF767
:101A8000B9FB00F055FF70BDA00000202E2E5C4673
:101A900072656552544F535C706F72745C4D656D26
:101AA0004D616E675C686561705F342E6300000095
:101AB0004572726F723A25732C25640D0A0000007E
:101AC00098000020064800684FF47A71B0FBF1F0EE
:101AD000401E4FF0E0214861072008617047000078
:101AE0000000002070B5FEF777FB0546102D11D3DE
:101AF00005F1E02090F8F04310480078844201DBC3
:101B0000012000E0002028B94FF42A720CA116A091
:101B1000FEF782FF1848006800F4E0601749096882
:101B2000884201D8012000E0002028B94FF42E722D
:101B300003A10DA0FEF770FF70BD0000A8000020FB
:101B40002E2E5C4672656552544F535C706F7274F2
:101B50005C525644535C41524D5F434D335C706F51
:101B600072742E63000000004572726F723A257322
:101B70002C25640D0A0000000CED00E0AC000020F4
:101B8000024600200BE0084B53F8303033B9064BC7
:101B900043F8301003EBC0035A6002E0401C0A28EF
:101BA000F1D300BF70470000B40000202DE9F041E0
:101BB00005460E4617462C46FFF7B2FE94F9440040
:101BC000401C10B9002084F8440094F94500401CE2
:101BD00010B9002084F84500FFF7E4FEA06B28B997
:101BE0003A46314604F1240000F0C0F82046FFF7E1
:101BF00054FDBDE8F081000070B50546FFF790FE8A
:101C000015B92D48006800E028460446201DFFF75E
:101C10003DFE78B9E06A00EB8000284951F82000C9
:101C200040B994F82C100120884025490968814367
:101C300023480160A06A18B104F11800FFF726FEDE
:101C400020480068401C1F4908601B480068844207
:101C500009D1211D1C48FFF757FE1C480068401C95
:101C60001A49086009E01A480068401E18490860CF
:101C70002046FFF76DF9FFF73DFCFFF793FE15488F
:101C80000068C0B10C480068844214D11248006852
:101C900008B9012000E0002028B940F265420FA1F8
:101CA00014A0FEF7B9FE4FF0805016490860BFF34C
:101CB0004F8FBFF36F8F70BD3C00002004010020E8
:101CC0005400002068000020C003002048000020CD
:101CD0004C00002058000020740000202E2E5C468E
:101CE00072656552544F535C7372635C7461736BBD
:101CF000732E63004572726F723A25732C25640D42
:101D00000A00000004ED00E001200149086070476E
:101D10006000002070B504460D462CB940F606322E
:101D200007A10DA0FEF778FE0F4801681831204684
:101D3000FFF7D0FD01212846FEF7B6FF70BD000079
:101D40002E2E5C4672656552544F535C7372635C11
:101D50007461736B732E63004572726F723A2573F0
:101D60002C25640D0A0000003C00002070B50546DB
:101D70000E4614462DB940F6313209A10EA0FEF7E9
:101D80004BFE1148016818312846FFF7BDFD0CB124
:101D90004FF0FF3621463046FEF786FF70BD00004B
:101DA0002E2E5C4672656552544F535C7372635CB1
:101DB0007461736B732E63004572726F723A257390
:101DC0002C25640D0A0000003C00002010B50446DC
:101DD0002CB940F6C13205A10AA0FEF71DFE0D4840
:101DE000006820600C480068606010BD2E2E5C46C4
:101DF00072656552544F535C7372635C7461736BAC
:101E0000732E63004572726F723A25732C25640D30
:101E10000A00000064000020500000201CB51A4891
:101E200000210B468022CDE9001018A1194800F0CE
:101E30002BFC0446012C02D100F024FE0446012CA8
:101E400015D100BF502080F31188BFF34F8FBFF32F
:101E50006F8F00BF4FF0FF300F49086001200F491E
:101E6000086000200E49086000F08EF80BE0601C4E
:101E700008B1012000E0002028B940F2847209A1D5
:101E80000EA0FEF7C9FD1CBD7000002049444C4562
:101E900000000000091000086C000020580000201D
:101EA000500000202E2E5C4672656552544F535CE4
:101EB0007372635C7461736B732E63004572726F2F
:101EC000723A25732C25640D0A0000000248006850
:101ED000401C0149086070477400002010B51B4881
:101EE000006818B101201A4908602DE00020184947
:101EF000086018480068B0FA80F0C0F11F0404EBD5
:101F00008400154951F8200008B1012000E00020AC
:101F100028B940F6F62211A116A0FEF77DFD04EBCC
:101F200084010D4A02EB810041684968416000F17B
:101F3000080142688A4202D14168496841604168AB
:101F4000C968104A116000BF10BD00007400002075
:101F50006000002054000020040100202E2E5C466A
:101F600072656552544F535C7372635C7461736B3A
:101F7000732E63004572726F723A25732C25640DBF
:101F80000A0000003C0000201CB5224801460978E8
:101F90000191FF21024611700146097800919DF8D8
:101FA000001001F050011C4A117007211B4A1160FA
:101FB00009E01A490968491E184A11609DF8001085
:101FC0004906090E00919DF8001001F0800180295A
:101FD000EFD0124909680902104A116011460988B8
:101FE00001F4E06111600B4A019911700C4800681E
:101FF00040F470000A4908600846006840F07040EC
:102000000860FFF75FFD002006490860FEF7AEF8A4
:1020100000201CBD00E400E0A8000020AC0000206F
:1020200020ED00E0A400002010B500BF502080F398
:102030001188BFF34F8FBFF36F8F00BF00F06AFBB3
:1020400018B14FF080500449086000BF002080F3B1
:10205000118800BF10BD000004ED00E02DE9F84339
:1020600005460E4690460DB1012000E0002028B93B
:102070004FF4C4720DA113A0FEF7CEFC0EB90027D9
:1020800001E005FB06F707F14800FFF745FB0446B2
:1020900044B104F1480943464A4631462846009473
:1020A000FEF7C6FF2046BDE8F88300002E2E5C46F2
:1020B00072656552544F535C7372635C71756575DC
:1020C000652E63004572726F723A25732C25640D7C
:1020D0000A0000002DE9FF4782B005460E461F4664
:1020E0004FF0000A2C462CB940F2DC425AA160A005
:1020F000FEF792FC0EB9206C08B9012000E0002028
:1021000028B940F2DD4254A159A0FEF785FC00F049
:10211000EBFA08B9049808B9012000E0002028B9BA
:102120004FF49C624CA152A0FEF776FC00BFFFF773
:10213000F7FBD4F83890B9F1000F38D0D4F80C8000
:1021400031462046FEF7BAFEB7B9A9F10100A063F7
:10215000206908B9012000E0002010BB04F1100044
:1021600000F08AFBE8B14FF0805045490860BFF3AA
:102170004F8FBFF36F8F14E0C4F80C80606A08B90A
:10218000012000E0002060B904F1240000F074FB9D
:1021900038B14FF080503A490860BFF34F8FBFF31A
:1021A0006F8FFFF7FFFB012006B0BDE8F0870498B2
:1021B00018B9FFF7F7FB0020F6E7BAF1000F04D1DA
:1021C0006846FFF703FE4FF0010AFFF7EBFBFFF74E
:1021D0007DFEFFF7A5FB94F94400401C10B90020D8
:1021E00084F8440094F94500401C10B9002084F89C
:1021F0004500FFF7D7FB04A9684600F0F3F9F0B9F2
:102200002046FFF757F8A0B104F124000499FFF726
:1022100081FD2046FFF741FA00F08AFB002886D1B5
:102220004FF0805016490860BFF34F8FBFF36F8F98
:102230007DE72046FFF731FA00F07AFB77E720468A
:10224000FFF72BFA00F074FB2046FFF733F8002865
:10225000EED00020A8E700002E2E5C467265655285
:10226000544F535C7372635C71756575652E6300C2
:102270004572726F723A25732C25640D0A000000B6
:1022800004ED00E070B505460E462C462CB940F230
:102290001B121EA123A0FEF7BFFBFFF741FBD4E9F1
:1022A0000F12206801FB020060600020A06320681C
:1022B000A060E06B401E226C216800FB0210E06011
:1022C000FF2084F8440084F845009EB9206908B9CD
:1022D000012000E00020A8B904F1100000F0CCFAC1
:1022E00080B14FF0805013490860BFF34F8FBFF3A8
:1022F0006F8F07E004F11000FFF7DCFA04F124000F
:10230000FFF7D8FAFFF74EFB012070BD2E2E5C467A
:1023100072656552544F535C7372635C7175657579
:10232000652E63004572726F723A25732C25640D19
:102330000A00000004ED00E02DE9FF4383B00646EB
:1023400088461D464FF0000934462CB940F2D92288
:1023500058A15EA0FEF760FBB8F1000F01D1206C20
:1023600008B9012000E0002028B940F2DA2251A18A
:1023700056A0FEF751FB022D02D1E06B012801D1DE
:10238000012000E0002028B940F2DB2249A14FA043
:10239000FEF742FB00F0A8F908B9059808B901203A
:1023A00000E0002028B940F2DE2242A147A0FEF75B
:1023B00033FB00BFFFF7B4FAA06BE16B884201D397
:1023C000022D28D12A4641462046FEF78CFD0746BD
:1023D000606A08B9012000E0002068B904F1240017
:1023E00000F04AFA88B14FF080503C490860BFF3D2
:1023F0004F8FBFF36F8F08E03FB14FF080503749E8
:102400000860BFF34F8FBFF36F8FFFF7CBFA012048
:1024100007B0BDE8F083059818B9FFF7C3FA0020AC
:10242000F6E7B9F1000F04D101A8FFF7CFFC4FF098
:102430000109FFF7B7FAFFF749FDFFF771FA94F9C1
:102440004400401C10B9002084F8440094F9450071
:10245000401C10B9002084F84500FFF7A3FA05A935
:1024600001A800F0BFF8F0B92046FEF730FFA0B198
:1024700004F110000599FFF74DFC2046FFF70DF918
:1024800000F056FA002895D14FF0805013490860AB
:10249000BFF34F8FBFF36F8F8CE72046FFF7FDF838
:1024A00000F046FA86E72046FFF7F7F800F040FA1A
:1024B0000020ADE72E2E5C4672656552544F535C8A
:1024C0007372635C71756575652E63004572726F1A
:1024D000723A25732C25640D0A00000004ED00E01B
:1024E0002DE9F05F07468A4690461E463C462CB9C9
:1024F00040F29F3231A137A0FEF78EFABAF1000FF9
:1025000001D1206C08B9012000E0002028B94FF467
:1025100068722AA12FA0FEF77FFA022E02D1E06B8B
:10252000012801D1012000E0002028B940F2A132A9
:1025300022A128A0FEF770FAFFF7D4FA00BF5021BD
:10254000EFF3118081F31188BFF34F8FBFF36F8FCB
:1025500000BF0546A06BE16B884201D3022E23D158
:1025600094F945B0324651462046FEF7BCFC0BF1CB
:10257000010088B9606A08B9012000E0002080B934
:1025800004F1240000F078F958B1B8F1000F08D038
:102590000120C8F8000004E00BF1010040B284F80B
:1025A00045004FF0010901E04FF0000900BF85F33D
:1025B000118800BF4846BDE8F09F00002E2E5C4603
:1025C00072656552544F535C7372635C71756575C7
:1025D000652E63004572726F723A25732C25640D67
:1025E0000A0000002DE9F04104460D462CB940F6E2
:1025F000CB3219A11EA0FEF70FFA2DB940F6CC324E
:1026000015A11BA0FEF708FAFFF78AF91C48076816
:102610002868401C08B9002619E01A492068096892
:10262000884204D06068B84201D801260FE0606893
:10263000381A2968884209D228686168791A401ACC
:1026400028602046FFF7C2FB002600E00126FFF7C6
:10265000A9F93046BDE8F0812E2E5C4672656552C0
:10266000544F535C7372635C7461736B732E6300BD
:102670004572726F723A25732C25640D0A000000B2
:1026800050000020640000202DE9FF4F85B08046F7
:1026900089461746DDE912ABB800FFF73DF806465C
:1026A00056B14C20FFF738F804460CB1266304E01D
:1026B0003046FFF7ADF900E000247CB10020CDE901
:1026C00000ABCDE902403A4649464046089BFEF73A
:1026D000C3FC2046FEF734FB012501E04FF0FF3537
:1026E000284609B0BDE8F08F0549096809B90120FD
:1026F00005E00449096809B9022000E0002070479C
:10270000580000207400002001490868704700004C
:10271000500000202DE9F0414FF0000841480068CA
:10272000002872D140480068451C3F480560EDB95B
:102730003E480068006808B9012000E0002028B980
:1027400040F6D9123AA140A0FEF766F9374807686B
:1027500041480068354908603F4807603F480068C5
:10276000401C3E490860FEF7C5FE00BF3C480068BB
:1027700085423CD300BF2D480068006808B901209D
:1027800000E0002020B14FF0FF30354908602DE017
:1027900026480068C068C4686668B54202D23048FE
:1027A000066023E0201DFFF771F8A06A18B104F15C
:1027B0001800FFF76BF894F82C1001208840294985
:1027C0000968084327490860E16A01EB8101264A4C
:1027D00002EB8100211DFFF797F82449E06A0968A0
:1027E000C96A8842C7D34FF00108C4E700BF1F4839
:1027F0000068C06A00EB80001B4951F820000128E6
:1028000001D94FF0010805E0FFE719480068401CB6
:10281000174908601748006808B14FF001084046A2
:10282000BDE8F0817400002050000020400000202E
:102830002E2E5C4672656552544F535C7372635C16
:102840007461736B732E63004572726F723A2573F5
:102850002C25640D0A0000004400002064000020C4
:102860006C00002054000020040100203C000020E7
:102870005C0000206000002070B50646F068C46867
:102880002CB940F661321AA11FA0FEF7C5F804F179
:102890001800FEF7FBFF20480068A8B9201DFEF7CE
:1028A000F5FF94F82C10012088401C490968084362
:1028B0001A490860E16A01EB8101194A02EB8100C3
:1028C000211DFFF721F804E004F118011548FFF776
:1028D0001BF81549E06A0968C96A884204D90125CC
:1028E00001201249086000E00025284670BD000064
:1028F0002E2E5C4672656552544F535C7372635C56
:102900007461736B732E63004572726F723A257334
:102910002C25640D0A0000007400002054000020E3
:1029200004010020AC0300203C00002060000020D7
:1029300070B5002400263448006828B94FF4FD62C1
:1029400032A138A0FEF768F8FEF7EAFF2E480068CB
:10295000401E2D4908600846006800284FD13548C0
:10296000006800284BD024E03348C068C46804F1F4
:102970001800FEF78BFF201DFEF788FF94F82C103F
:10298000012088402D49096808432C490860E16A04
:1029900001EB81012A4A02EB8100211DFEF7B4FF01
:1029A0002849E06A0968C96A884202D30120264999
:1029B00008602148006808B9012000E000200028D4
:1029C000D2D00CB1FEF796FD2048056865B100BF76
:1029D000FFF7A0FE10B101201B4908606D1E002DFD
:1029E000F6D10020194908601748006838B101265F
:1029F000300717490860BFF34F8FBFF36F8FFEF7A3
:102A0000D1FF304670BD0000740000202E2E5C46C1
:102A100072656552544F535C7372635C7461736B7F
:102A2000732E63004572726F723A25732C25640D04
:102A30000A0000004C000020AC03002054000020DD
:102A4000040100203C000020600000205C00002009
:102A500004ED00E02DE9FC4705460E461746984672
:102A6000DDF828902820FEF757FE04463CB1434687
:102A70003A4631462846CDE90094FEF74FFB204602
:102A8000BDE8FC871CB50024FEF7B4F90B480068CC
:102A900058B10B481F2100234FF48072CDE900107C
:102AA00008A10A48FFF7F0FD04462CB940F23312A2
:102AB00007A10EA0FDF7B0FF20461CBD800000203E
:102AC00084000020546D7220537663008116000844
:102AD0002E2E5C4672656552544F535C7372635C74
:102AE00074696D6572732E63000000004572726F29
:102AF000723A25732C25640D0A0000002DE9FE436F
:102B000004460D4616461F46DDF828804FF00009A2
:102B10002CB94FF4D37216A11CA0FDF77DFF1F48FE
:102B2000006810B3009501960294062D15DAFFF7A0
:102B3000DBFD022808D10023424669461748006899
:102B4000FFF7FAFB814610E000231A466946134856
:102B50000068FFF7F1FB814607E000233A4669462B
:102B60000E480068FFF7BCFC81464846BDE8FE837E
:102B70002E2E5C4672656552544F535C7372635CD3
:102B800074696D6572732E63000000004572726F88
:102B9000723A25732C25640D0A0000008000002085
:102BA000C02B000800000020B4000000380A000814
:102BB000742C0008B40000205C970000480A00084C
:102BC00000A24A040000000000000000010203040B
:102BD00006070809000000000102030401020304C3
:102BE00006070809020406080000000000000000B3
:102BF00000000000000000000000000000000000D5
:102C000000000000000000000000000000000000C4
:102C100000000000000000000000000000000000B4
:102C200000000000000000000000000000000000A4
:102C30000000000000000000000000000000000094
:102C40000000000000000000000000000000000084
:102C50000000000000000000000000000000000074
:102C600000000000AAAAAAAA0000000000000000BC
:042C70000000000060
:0400000508000131BD
:00000001FF
