:020000040800F2
:10000000A0DE0020850200085D0A0008010A000841
:10001000590A0008E1080008D51100080000000096
:10002000000000000000000000000000ED010008DA
:10003000E508000800000000310200083D0D00083E
:100040009F0200089F0200089F0200089F0200080C
:100050009F0200089F0200089F0200089F020008FC
:100060009F0200089F0200089F0200089F020008EC
:100070009F0200089F0200089F0200089F020008DC
:100080009F0200089F0200089F0200089F020008CC
:100090009F0200089F0200089F0200089F020008BC
:1000A0009F0200089F0200089F0200089F020008AC
:1000B0009F0200089F0200089F0200089F0200089C
:1000C0009F0200089F0200089F0200089F0200088C
:1000D0009F0200089F0200089F0200089F0200087C
:1000E0009F0200089F0200089F0200089F0200086C
:1000F0009F0200089F0200089F0200089F0200085C
:100100009F0200089F0200089F0200089F0200084B
:100110009F0200089F0200089F0200089F0200083B
:100120009F0200089F0200089F0200089F0200082B
:1001300000F002F800F04BF80AA090E8000C8244AE
:100140008344AAF10107DA4501D100F040F8AFF28B
:10015000090EBAE80F0013F0010F18BFFB1A43F0A5
:10016000010318471C3B00003C3B0000103A24BF31
:1001700078C878C1FAD8520724BF30C830C144BF0C
:1001800004680C607047000000230024002500264E
:10019000103A28BF78C1FBD8520728BF30C148BFEA
:1001A0000B607047642900F0D980752900F0D68073
:1001B000782900F00F81632900F0E982732900F0AB
:1001C000EE82002070471FB51FBD10B510BD00F0B6
:1001D00055FB1146FFF7F7FF01F0BCF800F073FB89
:1001E00003B4FFF7F2FF03BC00F0F6FF224B1968DF
:1001F0000868B0E8F00F80F30988BFF36F8F4FF005
:10020000000080F311884EF00D0E704700000000D2
:1002100006480068006880F3088862B661B6BFF3DC
:100220004F8FBFF36F8F00DF00BF00BF08ED00E00E
:10023000EFF30980BFF36F8F0F4B1A6820E9F00FBF
:10024000106008B54FF0500080F31188BFF34F8F56
:10025000BFF36F8F02F0EEFD4FF0000080F31188C6
:10026000BDE8084019680868B0E8F00F80F3098815
:10027000BFF36F8F704700BF58000020EFF3058079
:10028000704700000948804709480047FEE7FEE73D
:10029000FEE7FEE7FEE7FEE7FEE7FEE7FEE7FEE736
:1002A00004480549054A064B70470000A10D0008A7
:1002B00031010008A0D80020A0DE0020A0DA002034
:1002C000A0DA0020704700000FB4044910B503AA5B
:1002D000029800F069FA10BC5DF814FB18000020C9
:1002E0000FB41CB5074B06AA7B44694600900598DD
:1002F00000F02BFA0020694600F03AFA1CBC5DF8C9
:1003000014FB00008504000070B50C460546012A68
:1003100005D02878800600D5EA69002302E0012391
:1003200005E05B1C934202D2E05C0028F9D1A86989
:10033000E618C01AA861286A184428622846AFF354
:10034000008004E0D5E9012114F8010B9047B44284
:10035000F8D32846AFF3008070BD00002DE9F041CE
:100360000646002410687529314616A510D0AFF353
:100370000080002802DA404213A507E031688A07AE
:1003800001D512A502E0490704D511A5012401E019
:10039000AFF3008000210A2206F1240709E0B0FB38
:1003A000F2FCB0FBF2F302FB1C003030785418462C
:1003B000491C0028F3D123462A463046BDE8F041C7
:1003C00000F065B9000000002D0000002B000000C7
:1003D0002000000070B504460D4621461068AFF3BA
:1003E00000802188090502D50F4A7A4402E00E4AAE
:1003F0007A440E32002104F1240305E000F00F06D8
:100400000009965D5E54491C0028F7D1207800232E
:10041000000704D5702D02D009B102231132204605
:10042000BDE8704000F033B9563800002DE9F047C0
:10043000884606460020DFF8DC90F94430623046FA
:10044000F1688847002862D0252806D0D6E9012126
:100450009047306A401C3062F1E700254F46304635
:10046000F16888472028044607DB312C05D238196B
:1004700010F8200C08B10543F1E7A80701D525F0D5
:1004800004056C2C0AD0682C08D04C2C38D06A2C6F
:1004900034D0742C34D07A2C32D015E0F168274651
:1004A00030468847B842044609D16C2F26D04FF415
:1004B0008060F168054330468847044604E06C2FAD
:1004C0001AD04FF4807005430CB3A4F141001928F1
:1004D00002D8203445F40065424621463046356056
:1004E0004546FFF75FFE80B101280BD0ED1D25F0DA
:1004F000070000F10808A2E74020E4E78020D8E7E1
:100500000020D6E705F1040899E720469EE7306A07
:10051000BDE8F0872E38000040EA0103024630B5FE
:100520009B0710D14FF0013400E008C208C91D1B21
:100530009D4315EAC41FF8D013F0FF0102F8011B18
:100540000DD01B0AF8E711F8013B002B02F8013B24
:1005500005D011F8013B002B02F8013BF3D130BD6F
:1005600010B5431C02E010F8011B71B18107FAD1EC
:100570004FF0013202C88C1A8C4314EAC211F9D030
:10058000C01A0A0603D0C01E10BDC01A10BD0A044E
:1005900001D0801E10BD0902FCD0401E10BD032AF0
:1005A00040F2308010F0030C00F0158011F8013B90
:1005B000BCF1020F624498BF11F801CB00F8013B77
:1005C00038BF11F8013BA2F1040298BF00F801CB3B
:1005D00038BF00F8013B11F0030300F0F780083A40
:1005E000C0F0088051F8043B083A51F804CBA0E869
:1005F0000810F5E7121D5CBF51F8043B40F8043BBE
:10060000AFF30080D20724BF11F8013B11F801CBF2
:1006100048BF11F8012B24BF00F8013B00F801CBC3
:1006200048BF00F8012B704702F0FF0343EA0322A2
:1006300042EA024200F0FEB84FF0000200B5134655
:1006400094469646203922BFA0E80C50A0E80C50F2
:10065000B1F12001BFF4F7AF090728BFA0E80C50A3
:1006600048BF0CC05DF804EB890028BF40F8042B9C
:1006700008BF704748BF20F8022B11F0804F18BF09
:1006800000F8012B704770477047704770472DE99D
:10069000F0470D4699469246044600F12408016849
:1006A000880604D5E06921F01001216000E00120F6
:1006B000A84201DD471B00E00027A1697A1902EB7F
:1006C0000900081AA0612078C00602D42046AFF3C2
:1006D0000080002608E0D4E901211AF806009047BE
:1006E000206A401C761C20624E45F4DB2078C00650
:1006F0000AD52046AFF3008006E0D4E9012130207E
:100700009047206A401C2062381EA7F10107F4DCE4
:1007100007E0D4E9012118F805009047206A401C41
:100720002062281EA5F10105F3DC2046AFF300800E
:100730002078000602D50220BDE8F0870120FBE703
:1007400001694A1C02610878704700B58FB0CDE995
:1007500001310021059105497944CDE90310114685
:100760006846FFF763FE0FB000BD0000E5FFFFFF26
:100770000A6802F8010B0A60704710B5436913B1AB
:10078000AFF3008001E0FFF7BFFD012010BD12783C
:1007900000F124010A7000224A700122EDE711687D
:1007A0004FF0FF32E9E70000074B70B50D467B4480
:1007B000FFF7CBFF0446284600F05CF810B14FF07D
:1007C000FF3070BD204670BDFB0A000010B5203A16
:1007D000C0F00B80B1E81850203AA0E81850B1E8FA
:1007E0001850A0E81850BFF4F5AF5FEA027C24BFB0
:1007F000B1E81850A0E8185044BF18C918C0BDE8A7
:1008000010405FEA827C24BF51F8043B40F8043B6F
:1008100008BF7047D20728BF31F8023B48BF11F824
:10082000012B28BF20F8023B48BF00F8012B70477E
:100830004FF000020429C0F0128010F0030C3FF4C6
:10084000FDAECCF1040CBCF1020F18BF00F8012B77
:10085000A8BF20F8022BA1EB0C01FFF7EFBE5FEA67
:10086000C17C24BF00F8012B00F8012B48BF00F821
:10087000012B7047007B00F080007047754600F048
:100880002BF8AE4605006946534620F00700854622
:1008900018B020B5FFF704FDBDE820404FF000067A
:1008A0004FF000074FF000084FF0000B21F0070158
:1008B000AC46ACE8C009ACE8C009ACE8C009ACE89B
:1008C000C0098D46704710B50446AFF3008020463E
:1008D000BDE81040FFF784BC0048704740D80020B6
:1008E00000BFFEE770472DE9F041024600250026D3
:1008F000002000230024002791F803C00CF00F050E
:1009000091F803C00CF0100CBCF1000F03D091F86B
:1009100002C04CEA050591F800C0BCF1000F31D0CF
:10092000146800202BE04FF0010C0CFA00F3B1F832
:1009300000C00CEA03069E4220D183004FF00F0C4A
:100940000CFA03F7BC4305FA03FC4CEA040491F8E3
:1009500003C0BCF1280F06D14FF0010C0CFA00FCCB
:10096000C2F814C00AE091F803C0BCF1480F05D1E9
:100970004FF0010C0CFA00FCC2F810C0401C082813
:10098000D1D31460B1F800C0BCF1FF0F34DD54685E
:1009900000202EE000F1080C4FF0010808FA0CF3DB
:1009A000B1F800C00CEA03069E4221D183004FF04B
:1009B0000F0C0CFA03F7BC4305FA03FC4CEA0404E1
:1009C00091F803C0BCF1280F05D100F1080C08FA1A
:1009D0000CF8C2F8148091F803C0BCF1480F07D19D
:1009E00000F1080C4FF0010808FA0CF8C2F810806A
:1009F000401C0828CED35460BDE8F08101617047E7
:100A000000BFFEE708B50121082000F033F80121FE
:100A1000402000F02FF82020ADF8000010208DF8C5
:100A2000030003208DF8020069460948FFF75BFFC9
:100A30002020ADF8000069460648FFF754FF20214A
:100A40000348FFF7DBFF20210248FFF7D7FF08BD6F
:100A5000000C01400018014000BFFEE77047000095
:100A600002490143024A1160704700000000FA0584
:100A70000CED00E029B1064A92690243044B9A61E9
:100A800004E0034A92698243014B9A617047000077
:100A90000010024030B500210022002400232D4D1B
:100AA0006D6805F00C0121B1042905D0082923D176
:100AB00005E0294D056022E0274D05601FE0254D2A
:100AC0006D6805F47012234D6D6805F480340225BD
:100AD00005EB92421CB9214D554305600BE01D4DBD
:100AE0006D6805F400351DB11C4D5543056002E0ED
:100AF000194D5543056002E0174D056000BF00BF6A
:100B0000144D6D6805F0F0010909154D6B5C056821
:100B1000DD4045600F4D6D6805F4E061090A104D38
:100B20006B5C4568DD4085600A4D6D6805F4605179
:100B3000C90A0B4D6B5C4568DD40C560054D6D68AD
:100B400005F44041890B074D6B5CC568B5FBF3F5B7
:100B5000056130BD0010024000127A0000093D001E
:100B60001C0000202C00002010B500F001F810BD82
:100B70000CB50020019000903348006840F48030AC
:100B80003149086000BF3048006800F40030009030
:100B90000198401C0190009818B90198B0F5A06F19
:100BA000F1D12948006800F4003010B10120009014
:100BB00001E0002000900098012843D123480068FC
:100BC00040F01000214908600846006820F003004A
:100BD00008600846006840F0020008601A48406853
:100BE000194948600846406848600846406840F433
:100BF000806048600846406820F47C1048600846E1
:100C0000406840F4E81048600846006840F0807092
:100C1000086000BF0C48006800F000700028F9D0A0
:100C20000948406820F003000749486008464068CA
:100C300040F00200486000BF0348406800F00C002C
:100C40000828F9D10CBD000000100240002002402D
:100C50007CB50546012401F037FC1748012100232B
:100C60004022CDE9001015A1164802F0F5FB04461C
:100C7000012C03D114A0FFF727FB02E018A0FFF717
:100C800023FB1D48022100234022CDE900101BA1B7
:100C90001C4802F0E1FB0446012C03D11AA0FFF727
:100CA00013FB02E01EA0FFF70FFB2348006801F0D2
:100CB000C7FD01F053FC7CBD500000205461736BF4
:100CC00031000000010E00085461736B31C8CECEB4
:100CD000F1B4B4BDA8B3C9B9A6210D0A0000000043
:100CE0005461736B31C8CECEF1B4B4BDA8CAA7B0FD
:100CF000DC210D0A00000000540000205461736BD9
:100D000032000000391000085461736B32C8CECE37
:100D1000F1B4B4BDA8B3C9B9A6210D0A0000000002
:100D20005461736B32C8CECEF1B4B4BDA8CAA7B0BB
:100D3000DC210D0A000000004C00002010B502F07C
:100D400023FC012801D002F079F910BD10B5002272
:100D50004FF0E0231A611A46126922F004021A6168
:100D6000C31700EB5373C3F3CF030C4C2380C3179B
:100D700000EB5373D9104FF47A7251434FF0E022D5
:100D8000126942F002024FF0E0231A611A465161E3
:100D9000126942F001021A6110BD00001400002027
:100DA00010B51348006840F001001149086008467A
:100DB0004068104908400E494860084600680E49DE
:100DC00008400B4908600846006820F4802008604D
:100DD0000846406820F4FE0048604FF41F00886019
:100DE000FFF7C2FE4FF000600449086010BD00002C
:100DF000001002400000FFF8FFFFF6FE08ED00E0E3
:100E000008B500BF00BF00BF00BF0024A146A24636
:100E1000A34600BF04214348006801F0E3FE002020
:100E200001F00AFB009040A00099FFF74DFA01F095
:100E300091FA0746394642A0FFF746FA07EBC7008A
:100E40008100002000F032FB064600223946304681
:100E500001F09AFA80463EA0FFF736FA002513E02B
:100E600005EBC50006EB8000836805EBC50006EBCB
:100E70008000026905EBC50006EB800041683CA0DC
:100E8000FFF722FA681CC5B24545E9D324210020AA
:100E900000F00CFB0446052301222146214800688E
:100EA00001F062FD36A06168FFF70EFA38A02169F3
:100EB000FFF70AFA3BA0A168FFF706FA217B3DA0E5
:100EC000FFF702FA3FA002F0F7FA814649463FA039
:100ED000FFF7FAF94148016841A0FFF7F5F9114819
:100EE000006800F07BF90F48006800F077F983464E
:100EF000594641A0FFF7E8F9464801F083FD45490E
:100F000021A0FFF7E1F90CE00648006801F028FA9B
:100F10008246514640A0FFF7D7F94FF4487001F0E0
:100F20004BFCF1E7540000207461736B31C8CECEE6
:100F3000F1D3C5CFC8BCB6CEAA256C640D0A00009B
:100F4000C8CECEF1CAFDC1BFA3BA256C640D0A009C
:100F5000C8CECEF1C3FB0909C8CECEF1D3C5CFC8E8
:100F6000BCB609C8CECEF1B1E0BAC50D0A0000008A
:100F700025730909256C6409256C640D0A000000BD
:100F8000C8CECEF1C3FBA3BA25730D0A0000000042
:100F9000C8CECEF1D3C5CFC8BCB6A3BA256C640DFC
:100FA0000A000000C8CECEF1B1E0BAC5A3BA256CE4
:100FB000640D0A00C8CECEF1D7B4CCACA3BA256478
:100FC0000D0A00005461736B31000000C8CECEF1F1
:100FD000BEE4B1FAA3BA2523780D0A005000002020
:100FE0007461736B31B5C4C8CECEF1BEE4B1FAA35F
:100FF000BA2523780D0A0000B5B1C7B07461736BD0
:1010000032B5C4C8CECEF1D7B4CCACCEAAA3BA25E3
:10101000640D0A0000AB00207461736B32C0FACA21
:10102000B7CAA3D3E0D7EED0A1B6D1D5BBCEAA25FF
:101030006C640D0A000000000FE00848006880F0B2
:101040002000064908600648006880F02000044936
:1010500008604FF4487001F0AFFBEEE70C0C014064
:101060000C18014010B586B00446012144F204007A
:10107000FFF700FD4FF40070ADF8140018208DF854
:10108000170003208DF8160005A91448FFF72BFC64
:101090004FF48060ADF8140004208DF81700032091
:1010A0008DF8160005A90D48FFF71DFC01940020DE
:1010B000ADF80800ADF80A00ADF80C00ADF810006E
:1010C0000C20ADF80E0001A9054800F017F8012129
:1010D000034800F007F806B010BD0000000801400A
:1010E0000038014021B1828942F40052828104E03B
:1010F00082894DF6FF731A40828170472DE9F047CF
:1011000086B005460E460024A24600BFA146002731
:10111000B08900B100BF2F462C8A4CF6FF70044006
:10112000F08804432C82AC894EF6F3100440B0885A
:1011300031890843718908430443AC81AC8A4FF676
:10114000FF400440B0890443AC8201A8FFF7A2FC31
:101150001F48874202D1DDF810A001E0DDF80CA0A5
:10116000A88900F4004040B10AEBCA0000EB0A1065
:1011700031684900B0FBF1F807E00AEBCA0000EB68
:101180000A1031688900B0FBF1F86420B8FBF0F078
:1011900004012009642101FB1089A88900F40040A2
:1011A00040B1322000EBC900B0FBF1F000F00700C5
:1011B000044308E0322000EB09106421B0FBF1F099
:1011C00000F00F0004432C8106B0BDE8F08700005A
:1011D0000038014000BFFEE700BF70472DE9F0472F
:1011E00007463E462EB940F275521DA126A0FFF7D4
:1011F0006BF829480068864201D100242DE001F0F7
:1012000063F975692548D0F800802548D0F800902A
:1012100001F0A4F9454501D04D4501D102241CE05F
:101220002048854212D1B06A70B90324002007E03B
:1012300006F15801095C012901D1022402E0401C99
:101240000128F5DB00BF08E0022406E016488542CD
:1012500000D00DB9042400E001242046BDE8F08749
:101260002E2E5C2E2E5C4D6964646C657761726510
:10127000735C4672656552544F535C7372635C7461
:1012800061736B732E6300004572726F723A202592
:10129000732C2025640D0A00580000205C000020FB
:1012A0006000002004B00020F0AF002000BF054A1D
:1012B000128802F04002002AF9D0C2B2014B1B1D75
:1012C0001A807047003801401CB501240B480121E9
:1012D00000234022CDE9001009A10D4802F0BCF81E
:1012E0000446012C03D10BA0FEF7EEFF02E011A093
:1012F000FEF7EAFF01F032FD1CBD00004C000020AB
:1013000053746172745461736B43726561746500E8
:10131000510C000853746172745461736B437265AD
:10132000617465C8CECEF1B4B4BDA8B3C9B9A62165
:101330000D0A000053746172745461736B437265DB
:10134000617465C8CECEF1B4B4BDA8CAA7B0DC2123
:101350000D0A000010B54FF44070FFF781FB4820E4
:10136000FFF7F4FC4FF4E130FFF77CFEFFF74AFB98
:10137000002000F005F8FFF7A7FF002010BD0000D7
:1013800030B504460225084951F8241001FB05F246
:10139000064951F82400002100F07EF8012103489D
:1013A0000830015530BD00002C3C000840000020F2
:1013B0002DE9F04704460F460025A9462348005D65
:1013C00020B9224818380168204688471FB94FF0D5
:1013D000FF30BDE8F0871E4850F82400B7FBF0F658
:1013E0001B4850F82400B7FBF0F100FB117000B16E
:1013F000761C184850F82400451E22E0134808388F
:1014000050F8240030F8150010B909F1010901E085
:101410004FF00009B14513D14FF0000809E00B4827
:10142000083850F8240005EB080220F8126008F193
:101430000108B045F3D3064850F824006843C8E7D4
:101440006D1E002DDADA4FF0FF30C2E748000020B1
:10145000343C00082C3C000810B501460023002253
:1014600007E00B4850F8210030F8120000B15B1C77
:10147000521C084850F821009042F2D8642058438A
:10148000044C54F82140B0FBF4F080B210BD0000D1
:10149000400000202C3C000830B5034601E003F872
:1014A000011B141EA2F10102F9D130BD70B5044632
:1014B0000E4631462046FFF77BFF0546681C08B9FB
:1014C000002070BD024850F824002844F9E70000CD
:1014D000380000202DE9F04105460E4629480768EE
:1014E00000202949096881F8590027480068001D33
:1014F00000F01CFF50B92448006890F82C1001201F
:10150000884022490968814320480160681CD8B995
:10151000D6B11F4948681C49096888601A49826821
:101520000968CA6018490968091D8268516016492E
:101530000968091D8160164A134909684A61114604
:101540000968491C11601AE07C190F480068446062
:10155000BC4207D20C480168091D0E48006800F023
:101560008DFF0CE008480168091D0B48006800F079
:1015700085FF0A480068844201D208480460BDE83B
:10158000F08100006C000020580000207000002056
:1015900004B00020600000205C00002088000020D3
:1015A00010B5044600F090FF31480068401C3049F7
:1015B00008603048006840B92E480460084600685A
:1015C00001280DD100F018FA0AE02B48006838B95C
:1015D00028480068C06AE16A884201D8254804604A
:1015E00026480068401C2549086008460068606479
:1015F00094F82C10012088402149096808432049AB
:101600000860E16A01EB81011E4A02EB8101486832
:10161000A0608268E260211D826851608160E16A99
:1016200001EB8101174A02EB81026261E16A01EB81
:101630008101144A52F82110491CE26A02EB82022D
:10164000104B43F8221000F089FF0B48006868B186
:1016500008480068C06AE16A884207D24FF08050AB
:1016600009490860BFF34F8FBFF36F8F10BD0000B3
:101670006800002058000020740000208400002032
:101680007000002034AD002004ED00E010B500F043
:101690001BFF10480068D0B90F4800F0DFFE0F486C
:1016A00000F0DCFE0C480E4908600C480D4908604B
:1016B00000221021052001F0DBFC064908600846E5
:1016C000006820B108A10348006801F007F800F0A5
:1016D00045FF10BDA000002018B000202CB0002055
:1016E000980000209C000020546D72510000000002
:1016F00010B516E000F0E8FE0C48C068C468201D74
:1017000000F014FE0A480068401E094908600948B4
:101710000068401E0749086000F020FF204600F0E6
:101720005FF8044800680028E4D110BDF0AF002045
:10173000680000206400002070B504460D46206C4F
:1017400070B1216CE0680144E160D4E90210884284
:1017500001D32168E1602846226CE168FEF71FFF93
:1017600070BD2DE9F04104460F4615464FF00008C4
:10177000A66B206C48B9206800282CD1A06802F024
:101780000FF880460020A06025E07DB93946226C24
:101790006068FEF704FF216C606808446060D4E96B
:1017A0000101884217D32068606014E03946226C3A
:1017B000E068FEF7F4FE216CE068411AE160216800
:1017C000E068884203D2216CA068411AE160022DD2
:1017D00001D106B1761E701CA0634046BDE8F081C1
:1017E00010B50446206B00F0F7FE204600F0F4FE32
:1017F00010BD00000146084A126812680AB90122A9
:1018000000E000220A600A6822B9034A1268D2681E
:10181000106800E0002070479800002030B54FF4B9
:101820002053174800F007042CB1C01D20F007001A
:10183000134C041B1B1B0246124C22600024114D4A
:101840006C60D018083820F007000F4C206000248E
:101850000D4D2D686C600C4D2D682C601146441A9E
:101860004C60094C24680C60084D4C682C60084D95
:101870004C682C604FF00044064D2C6030BD0000D9
:1018800040B00020B8000020C0000020C8000020A8
:10189000C4000020D400002000BFFFF729FF064845
:1018A00000680128F9D94FF0805004490860BFF35F
:1018B0004F8FBFF36F8FF0E734AD002004ED00E0F1
:1018C0002DE9F04106460D4617469846069C0DB98F
:1018D000246000E02760E66325640121204601F0D2
:1018E00011FC84F850800020A064BDE8F081000065
:1018F0002DE9F05F82460F4690469B460A9E0C9C5F
:101900004FEA8801A522206BFEF78EFEA8F10100A8
:10191000216B01EB800929F0070909F0070008B9DC
:10192000012000E0002028B94FF4587224A12EA015
:10193000FEF7CAFC87B1002507E0795D04F13400A9
:101940004155785D00B902E06D1C102DF5D300BF44
:1019500000214320015502E0002084F83400202EAD
:1019600001D2012000E0002028B940F2973214A1F2
:101970001DA0FEF7A9FC202E00D31F26E662E66418
:1019800000202065201D00F076FD04F1180000F015
:1019900072FD2461C6F12000A061646200206065D0
:1019A00084F8580084F859005A465146484600F0D9
:1019B000ABFC20600B9808B10B980460BDE8F09F69
:1019C0002E2E5C2E2E5C4D6964646C6577617265A9
:1019D000735C4672656552544F535C7372635C74FA
:1019E00061736B732E6300004572726F723A20252B
:1019F000732C2025640D0A0010B5002407E004EBC9
:101A000084010F4A02EB810000F028FD641C202CA9
:101A1000F5D30C4800F022FD0B4800F01FFD0B48E9
:101A200000F01CFD0A4800F019FD0A4800F016FD00
:101A300004480949086004480849086010BD0000CE
:101A400034AD0020B4AF0020C8AF0020DCAF0020D0
:101A5000F0AF002004B000205C00002060000020F7
:101A600010B50146164800E0006803688B42FBD3BE
:101A70000246436813448B4204D143684C682344B4
:101A8000436001460A464B6813440468A34211D1DF
:101A90000C4C03682468A34208D04B68046864684F
:101AA00023444B6003681B680B6005E0054B1B6813
:101AB0000B6001E003680B60884200D0016010BD3C
:101AC000B8000020C00000202DE9F04104460D467A
:101AD00016461F464FF0000865602461B5420CD8D9
:101AE000F01BA169884202D34FF0010811E0211DCB
:101AF0000948006800F0C2FC0BE0BE4204D2BD42BF
:101B000002D34FF0010804E0211D0448006800F0F2
:101B1000B5FC4046BDE8F0819C0000209800002004
:101B200070B5054600F0D0FCA86B08B9012400E0B0
:101B3000002400F013FD204670BD2DE9F047074654
:101B40000C4690460026206848B320464168496804
:101B5000416000F1080142688A4202D14168496847
:101B600041604168D1F80C9000BF20464168496847
:101B7000416000F1080142688A4202D14168496827
:101B800041604168CD6806EBC60007EB8001434623
:101B90000122284600F0E8FE761C4D45E5D130468E
:101BA000BDE8F087F1B50098846C00262CB940F6AA
:101BB000D43220A129A0FEF787FBA06BE16B8842FD
:101BC00001D2012000E0002028B940F6D53219A149
:101BD00022A0FEF779FBA06BE16B884227D294F933
:101BE0004550002269462046FFF7BBFD0646681CAB
:101BF00060B9606A08B9012000E00020B0B904F1C2
:101C0000240001F057FE88B101260FE07F2D01D09E
:101C1000012000E0002028B940F6F53205A10FA010
:101C2000FEF752FB681C40B284F8450000BF304606
:101C3000F8BD00002E2E5C2E2E5C4D6964646C6530
:101C400077617265735C4672656552544F535C737D
:101C500072635C71756575652E6300004572726F05
:101C6000723A2025732C2025640D0A0070B50546B4
:101C70000E460E480068C068C468201D00F056FB80
:101C800094F8280000F0040028B132462946204686
:101C900000F000F905E094F8280000F0FE0084F858
:101CA00028002046216A884770BD00009800002067
:101CB00070B586B08AE0029800280CDA03AE2EB91F
:101CC00040F2063247A151A0FEF7FEFAD6E9002005
:101CD000B168904700BF0298002877DB049C6069D8
:101CE00008B9012000E0002010B9201D00F01EFB03
:101CF00001A800F0FBF8054602980A2864D2DFE844
:101D000000F06305072E365306082F3700BF00BFCB
:101D100000BF94F8280040F0010084F828000398E0
:101D2000A269811803462A462046FFF7CDFEA8B1D6
:101D300094F8280000F0040038B10398A2698118D3
:101D40002A46204600F0A6F805E094F8280000F0A6
:101D5000FE0084F828002046216A884735E000BF4D
:101D600094F8280000F0FE0084F828002DE000BF61
:101D700094F8280040F0010084F828000398A0613E
:101D8000A06908B1012000E0002028B940F25932D2
:101D900014A11EA0FEF798FAA06941192B462A4605
:101DA0002046FFF791FE10E094F8280000F00200B2
:101DB00018B9204600F010FC05E094F8280000F067
:101DC000FE0084F8280000E000BF00BF002202A946
:101DD0001248006801F016FA00287FF46CAF06B0D4
:101DE00070BD00002E2E5C2E2E5C4D6964646C6507
:101DF00077617265735C4672656552544F535C73CC
:101E000072635C74696D6572732E63004572726FE4
:101E1000723A2025732C2025640D0A00A0000020B2
:101E2000F8B505460C4600F0FDFF684600F05EF888
:101E30000646009820BB44B9B54206D801F0E2FD41
:101E400031462846FFF712FF1CE03CB10E480068FF
:101E5000006808B9012000E000200446A91B2246C2
:101E60000A48006800F082FC01F0CCFD50B94FF048
:101E7000805007490860BFF34F8FBFF36F8F01E0B9
:101E800001F0C0FDF8BD00009C000020A000002073
:101E900004ED00E070B504460D46164604E0A06966
:101EA00005442046216A8847A06941192B463246DD
:101EB0002046FFF709FE0028F1D170BD09480068EF
:101EC000006808B9012000E0002020B14FF0FF3089
:101ED0000549086005E003480068C06800680249D9
:101EE000086070475C0000208800002070B5044640
:101EF00001F05AFB054607480068854204D200F00D
:101F000063F80120206001E00020206001480560A6
:101F1000284670BDA80000202DE9F04302460D467A
:101F20000027106800284CD01046D0F80480D8F85C
:101F30000480C0F8048000F10808D0F80490C1457E
:101F400005D1D0F80480D8F80480C0F80480D0F817
:101F50000480D8F80C6000BF1046D0F80480D8F890
:101F60000480C0F8048000F10808D0F80490C1454E
:101F700005D1D0F80480D8F80480C0F80480D0F8E7
:101F80000480D8F80C104FF0000C002311E001F190
:101F90003400C45CE85CA04202D04FF0010C03E0C6
:101FA00014B90F464FF0010CBCF1000F00D002E055
:101FB0005B1C102BEBD300BF07B101E0B142CBD1CA
:101FC00000BF3846BDE8F08370B508E00D480068F2
:101FD000C06804684FF0FF312046FFF747FE09480C
:101FE0000068006808B9012000E000200028EDD05A
:101FF0000448056804480068024908600248056012
:1020000070BD0000980000209C00002002460021C6
:1020100001E0521C491C1078A528FAD0890888B222
:10202000704700000B480068401C08B9012000E020
:10203000002020B9CE2208A115A0FEF745F900BF67
:10204000502080F31188BFF34F8FBFF36F8F00BF15
:1020500000BFFEE7AC0000202E2E5C2E2E5C4D69EA
:1020600064646C6577617265735C46726565525431
:102070004F535C706F727461626C655C525644536E
:102080005C41524D5F434D335C706F72742E630040
:102090004572726F723A2025732C2025640D0A0058
:1020A00008B500BF6846FFF7A5FB04462046009927
:1020B000FFF7B6FEFFF7FCFDF4E770B5044600F04D
:1020C00003FA94F9455019E0A06C30B12046FFF7AF
:1020D00069FD88B100F004FD0EE0606A08B90120D6
:1020E00000E0002038B904F1240001F0E3FB18B14E
:1020F00000F0F6FC00E003E0681E45B2002DE3DCD2
:1021000000BFFF2084F8450000F028FA00F0DCF959
:1021100094F9445010E0206908B9012000E0002043
:1021200048B904F1100001F0C5FB08B100F0D8FC7B
:10213000681E45B200E001E0002DECDC00BFFF208E
:1021400084F8440000F00AFA70BD70B505460E46EA
:1021500031462846FEF7E0F92846FEF701FA044624
:1021600002E020202855641C0F2CFAD300202855AB
:10217000281970BD2DE9F04104464FF0000800F029
:1021800051FE4948006808B9FFF748FB4748006816
:102190002040002875D1002C23D004F10800A04273
:1021A0001FD9083404F0070000281BD004F00700F2
:1021B000C0F108002044A04211D904F00700C0F18A
:1021C0000800044404F0070008B9012000E00020E2
:1021D00040B99C2236A144A0FEF776F802E0002424
:1021E00000E00024002C4CD043480068844248D8CA
:1021F000424E3046056801E02E462D686868A042D0
:1022000002D228680028F7D127480068854238D0D4
:10221000306800F10808286830606868001B1028E2
:1022200013D92F1907F0070008B9012000E000209A
:1022300020B9CF221EA12CA0FEF746F86868001B2B
:1022400078606C603846FFF70BFC2B4968680968BA
:10225000081A29490860084600682949096888421F
:1022600003D2254800682649086010496868096853
:10227000084368600020286022480068401C21490B
:10228000086001F0BFFB08F0070008B9012000E07A
:10229000002028B94FF4887205A113A0FEF714F8A6
:1022A0004046BDE8F0810000C0000020D4000020BE
:1022B0002E2E5C2E2E5C4D6964646C6577617265B0
:1022C000735C4672656552544F535C706F727461F3
:1022D000626C655C4D656D4D616E675C68656170D3
:1022E0005F342E63000000004572726F723A202541
:1022F000732C2025640D0A00C4000020B8000020C3
:10230000C8000020CC000020001F4FF08073036045
:10231000001F21F001030360001F034B036014380A
:1023200002602038704700002520000801460A6935
:10233000D1E901309860D1E90103586050688842C2
:1023400001D188685060002008611068401E10604C
:10235000106870470148006870470000680000205E
:102360002DE9F041044614B90648006800E0204613
:1023700007463D6B2846FFF749FE06463046BDE856
:10238000F0810000580000202DE9F0410546884604
:1023900016460024202700F045FD214800688045AE
:1023A00039D300BF7F1E07EB87021E4B03EB820170
:1023B00004EBC40205EB82000122FFF7BEFB0444DC
:1023C000002FEFD104EBC40105EB81000222164976
:1023D0000968FFF7B2FB044404EBC40105EB81007C
:1023E000022212490968FFF7A8FB044404EBC40168
:1023F00005EB810004220E49FFF79FFB044404EB28
:10240000C40105EB810003220A49FFF796FB04444F
:102410000EB10020306001F0F5FA2046BDE8F081F1
:102420006800002034AD00205C0000206000002027
:10243000F0AF002004B0002070B5044600F044F86E
:1024400014B90548006800E020460646F56A00F029
:1024500085F8284670BD00005800002000F10801F2
:1024600041604FF0FF31816000F10801C1600161FE
:1024700000210160704700210161704710B50246DC
:102480000B685C1C0CB9106907E002F1080000E061
:102490004068446824689C42FAD944684C604C689F
:1024A000A160886041600A611468641C146010BDFA
:1024B00042684A6093688B609368596091600861D4
:1024C00003685B1C0360704710B500BF502080F3A9
:1024D0001188BFF34F8FBFF36F8F00BF0B480068A9
:1024E000401C0A4908600846006801280DD10848C8
:1024F0000068C0B208B9012000E0002028B940F20D
:10250000751204A111A0FDF7DFFE10BDAC00002084
:1025100004ED00E02E2E5C2E2E5C4D6964646C652B
:1025200077617265735C4672656552544F535C7097
:102530006F727461626C655C525644535C41524DDB
:102540005F434D335C706F72742E63004572726F1F
:10255000723A2025732C2025640D0A0010B50B4813
:10256000006828B94FF4BE7209A117A0FDF7ACFEB0
:1025700006480068401E054908600846006820B902
:10258000002080F3118800BF00BF10BDAC00002008
:102590002E2E5C2E2E5C4D6964646C6577617265CD
:1025A000735C4672656552544F535C706F72746110
:1025B000626C655C525644535C41524D5F434D33EF
:1025C0005C706F72742E63004572726F723A2025D0
:1025D000732C2025640D0A0070B506463546002E82
:1025E0003AD0083D2C461D4960680968084008B18A
:1025F000012000E0002028B94FF4927218A126A013
:10260000FDF762FE206808B9012000E0002028B92B
:1026100040F2251212A120A0FDF756FE0F49606876
:1026200009680840C0B12068B0B90C496068096801
:102630008843606000F0F6FB1B4960680968084445
:10264000194908602046FFF70BFA18480068401C3B
:102650001649086001F0D6F970BD0000D4000020D2
:102660002E2E5C2E2E5C4D6964646C6577617265FC
:10267000735C4672656552544F535C706F7274613F
:10268000626C655C4D656D4D616E675C686561701F
:102690005F342E63000000004572726F723A20258D
:1026A000732C2025640D0A00C4000020D0000020F7
:1026B00000204FF0E0210861886107480068C008E9
:1026C0004FF47A71B0FBF1F0401E4FF0E021486109
:1026D0000320086170470000000000202DE9F04150
:1026E00005460F4600262DB940F6C92210A11AA0B2
:1026F000FDF7EAFDBFB1002412E01B4800EBC40067
:102700004068A84203D1184800EBC4060AE036B975
:10271000154850F8340010B9134800EBC406641C87
:10272000082CEAD300BF0EB137607560BDE8F081B8
:102730002E2E5C2E2E5C4D6964646C65776172652B
:10274000735C4672656552544F535C7372635C717F
:10275000756575652E6300004572726F723A2025AB
:10276000732C2025640D0A00F4AC00202DE9F04103
:1027700005460E4617462C46FFF7A6FE94F9440080
:10278000401C10B9002084F8440094F94500401C16
:1027900010B9002084F84500FFF7E0FEA06B28B9CF
:1027A0003A46314604F1240000F0D4F92046FFF700
:1027B00084FCBDE8F081000070B504460025ACB192
:1027C0000F48006808B9012000E0002028B940F255
:1027D00049520CA115A0FDF777FD00F023FB002165
:1027E0002046FEF777FE01F00DF905463DB94FF0A2
:1027F000805012490860BFF34F8FBFF36F8F70BDD9
:10280000940000202E2E5C2E2E5C4D6964646C6555
:1028100077617265735C4672656552544F535C73A1
:1028200072635C7461736B732E6300004572726F28
:10283000723A2025732C2025640D0A0004ED00E077
:1028400070B50546FFF740FE15B92F48006800E057
:1028500028460446201DFFF769FD78B9E06A00EBC1
:1028600080002A4951F8200040B994F82C1001202A
:10287000884027490968814325480160A06A18B14A
:1028800004F11800FFF752FD22480068401C21495E
:1028900008601D480068844209D1211D1E48FFF7C9
:1028A00007FE1E480068401C1C49086006E01C48E2
:1028B0000068401E1A490860FFF700FBFFF74EFE54
:1028C00011480068844202D02046FEF789FF15486F
:1028D0000068C0B10C480068844214D112480068F6
:1028E00008B9012000E0002028B940F2DC420FA125
:1028F00018A0FDF7E9FC4FF080501A490860BFF3BB
:102900004F8FBFF36F8F70BD5800002034AD002093
:102910007000002084000020F0AF00206400002040
:102920006800002074000020940000202E2E5C2EF1
:102930002E5C4D6964646C6577617265735C467288
:10294000656552544F535C7372635C7461736B734F
:102950002E6300004572726F723A2025732C202579
:10296000640D0A0004ED00E02DE9F04107460C4635
:1029700090461E4617B91C48006800E038460546D8
:10298000256005F134006060E86A2061286BE06131
:10299000686CA060E86C60610020A061052E12D018
:1029A00011480068854202D1002020730FE0267391
:1029B000032E0CD100F036FAA86A08B10220207369
:1029C00001F020F803E02846FEF708FC2073B8F178
:1029D000000F04D0286BFFF719FB208401E00020D2
:1029E0002084BDE8F08100005800002003490968F8
:1029F00001600349096841607047000080000020C1
:102A00006C0000202DE9FC410646002030702F4864
:102A100007680146096801EBC1018800FFF7AAFBBE
:102A20000546002D50D0002239462846FFF7ACFC61
:102A30000746002443E004EBC40005EB8000007B64
:102A4000062813D2DFE800F00306090C0F134FF03D
:102A500058080FE04FF052080CE04FF0420809E030
:102A60004FF0530806E04FF0440803E000BF4FF07A
:102A7000000800BF00BF04EBC40005EB8000416804
:102A80003046FFF762FB064604EBC40005EB80000E
:102A9000806804EBC40105EB8101098CCDE90010CD
:102AA00004EBC40005EB8000424609A103693046EF
:102AB000FDF716FC3046FDF753FD0644641CBC428E
:102AC000B9D32846FFF788FDBDE8FC8168000020E7
:102AD0000925630925750925750925750D0A000065
:102AE00001200149086070477C00002070B5044651
:102AF0000D462CB940F61C4207A111A0FDF7E4FBDE
:102B00001348016818312046FFF7B8FC0121284618
:102B1000FEF7E0FC70BD00002E2E5C2E2E5C4D6991
:102B200064646C6577617265735C46726565525466
:102B30004F535C7372635C7461736B732E6300003C
:102B40004572726F723A2025732C2025640D0A009D
:102B50005800002070B504460E4615462CB940F6C4
:102B6000524211A11AA0FDF7AFFB60681C49096829
:102B7000C8611B49826809680A62194909681831E5
:102B800082685160164909681831816014490968E2
:102B90008C622168491C21600DB14FF0FF36294637
:102BA0003046FEF797FC70BD2E2E5C2E2E5C4D69D4
:102BB00064646C6577617265735C467265655254D6
:102BC0004F535C7372635C7461736B732E630000AC
:102BD0004572726F723A2025732C2025640D0A000D
:102BE000580000202DE9F04780460D464FF00009BF
:102BF000202D01D2012000E0002028B940F215620A
:102C000044A14EA0FDF760FB202D00D31F25FFF748
:102C10005BFCB8F1000F02D14C48006800E0404670
:102C20000446E66CAE4270D0B5420BD94748006806
:102C300084420DD045480068C06AA84208D84FF0C9
:102C4000010905E041480068844201D14FF00109C3
:102C5000E76AE16AE06C884200D1E562E564A06958
:102C600000F0004010B9C5F12000A06107EB87011A
:102C7000374A02EB81016069884201D1012000E0FE
:102C80000020B0B3201DFFF751FB30B90120B84040
:102C90003049096881432F48016094F82C100120C5
:102CA00088402C49096808432A490860E16A01EB19
:102CB0008101274A02EB81014868A0608268E260D6
:102CC000211D826851608160E16A01EB8101204A27
:102CD00002EB81026261E16A01EB81011C4A52F858
:102CE0002110491CE26A02EB8202194B43F82210C0
:102CF00000BFB9F1000F07D04FF0805016490860AF
:102D0000BFF34F8FBFF36F8F00BFFFF727FCBDE806
:102D1000F08700002E2E5C2E2E5C4D6964646C657D
:102D200077617265735C4672656552544F535C738C
:102D300072635C7461736B732E6300004572726F13
:102D4000723A2025732C2025640D0A0058000020BB
:102D500034AD00207000002004ED00E01CB51B48DD
:102D600000210B468022CDE9001019A11A4800F07D
:102D700073FB0446012C02D100F016FF0446012C1F
:102D800015D100BF502080F31188BFF34F8FBFF3E0
:102D90006F8F00BF4FF0FF301049086001201049CD
:102DA000086000200F49086000F0A2F80BE0601CEA
:102DB00008B1012000E0002028B94FF404620AA104
:102DC00013A0FDF781FA164800681CBD8C00002096
:102DD00049444C4500000000991800088800002074
:102DE000740000206C0000202E2E5C2E2E5C4D699D
:102DF00064646C6577617265735C46726565525494
:102E00004F535C7372635C7461736B732E63000069
:102E10004572726F723A2025732C2025640D0A00CA
:102E20009000002002480068401C0149086070477B
:102E30009400002010B51B48006818B101201A4901
:102E400008602DE000201849086018480068B0FAB2
:102E500080F0C0F11F0404EB8400154951F82000F4
:102E600008B1012000E0002028B940F6024211A17B
:102E70001AA0FDF729FA04EB84010D4A02EB810048
:102E800041684968416000F1080142688A4202D104
:102E90004168496841604168C968144A116000BFCF
:102EA00010BD0000940000207C0000207000002075
:102EB00034AD00202E2E5C2E2E5C4D6964646C6552
:102EC00077617265735C4672656552544F535C73EB
:102ED00072635C7461736B732E6300004572726F72
:102EE000723A2025732C2025640D0A00580000201A
:102EF0001CB53B4C204600780190FF20214608700D
:102F00000846007800909DF8000000F0F0009DF861
:102F10000010884201D1012000E0002028B940F2D1
:102F20001F1230A13DA0FDF7CFF99DF8000000F081
:102F300050003E49087007203D49086009E03C48C0
:102F40000068401E3A4908609DF800004006000EE7
:102F500000909DF8000000F080008028EFD03448F9
:102F60000068C0F10700042801D1012000E0002022
:102F700028B940F233121BA128A0FDF7A5F92C486F
:102F80000068C0F10700042801D1012000E0002002
:102F900028B94FF49E7213A120A0FDF795F924489B
:102FA00000680002224908600846008800F4E060DA
:102FB00008600B49019808701E48006840F47000D2
:102FC0001C4908600846006840F070400860FFF740
:102FD0006FFB002018490860FDF71AF900201CBD9E
:102FE00000E400E02E2E5C2E2E5C4D6964646C655E
:102FF00077617265735C4672656552544F535C70BD
:103000006F727461626C655C525644535C41524D00
:103010005F434D335C706F72742E63004572726F44
:10302000723A2025732C2025640D0A00B000002080
:10303000B400002020ED00E0AC00002010B500BF7F
:10304000502080F31188BFF34F8FBFF36F8F00BF05
:1030500000F0B0FA18B14FF080500449086000BF8A
:10306000002080F3118800BF10BD000004ED00E0D7
:103070002DE9F84305460E4617460024E5B1601ECB
:10308000B0FBF5F0B04217D305FB06F010F1550F79
:1030900012D805FB06F909F15400FFF76BF8044656
:1030A0008CB1A04608F154083B46424631462846BA
:1030B0000094FEF705FC06E02CB94FF4E37203A17F
:1030C0000CA0FDF701F92046BDE8F8832E2E5C2EFA
:1030D0002E5C4D6964646C6577617265735C4672E1
:1030E000656552544F535C7372635C7175657565A9
:1030F0002E6300004572726F723A2025732C2025D2
:10310000640D0A002DE9F04105460E4601272C46C4
:103110002CB94FF488722CA135A0FDF7D5F8002CFE
:1031200042D0E06B00283FD04FF0FF31E06BB1FBA5
:10313000F0F0216C884237D3FFF7C6F9D4E90F12BB
:10314000206801FB0200A0600020A063206860608E
:10315000E06B401E226C216800FB0211E160FF2041
:1031600084F8440084F845009EB9206908B901201C
:1031700000E00020A8B904F1100000F09BFB80B132
:103180004FF080501E490860BFF34F8FBFF36F8F21
:1031900007E004F11000FFF761F904F12400FFF7E4
:1031A0005DF9FFF7DBF900E000270FB1012000E037
:1031B000002028B940F2451203A10DA0FDF784F8C4
:1031C0003846BDE8F08100002E2E5C2E2E5C4D6945
:1031D00064646C6577617265735C467265655254B0
:1031E0004F535C7372635C71756575652E63000087
:1031F0004572726F723A2025732C2025640D0A00E7
:1032000004ED00E02DE9F74183B005460E464FF08E
:1032100000082C462CB940F251524CA155A0FDF7A4
:1032200053F80EB9206C08B9012000E0002028B93D
:1032300040F2555245A14FA0FDF746F800F0A4F921
:1032400008B9059808B9012000E0002028B940F22B
:103250005A523EA147A0FDF737F800BFFFF734F9F7
:10326000A76BF7B131462046FEF766FA781EA063D9
:10327000206908B9012000E0002060B904F11000C5
:1032800000F018FB38B14FF080503E490860BFF3A2
:103290004F8FBFF36F8FFFF761F9012006B0BDE8D4
:1032A000F081059818B9FFF759F90020F6E7B8F151
:1032B000000F04D101A8FFF799FB4FF00108FFF7B9
:1032C0004DF9FFF7AFFDFFF7FFF894F94400401CFC
:1032D00010B9002084F8440094F94500401C10B94E
:1032E000002084F84500FFF739F905A901A800F08E
:1032F0004BF8F0B92046FEF713FCA0B104F124000E
:103300000599FFF7F3FB2046FEF7D7FE00F07AFBA6
:103310000028A3D14FF080501A490860BFF34F8FA7
:10332000BFF36F8F9AE72046FEF7C7FE00F06AFBF7
:1033300094E72046FEF7C1FE00F064FB2046FEF74E
:10334000EFFB00288AD00020A8E700002E2E5C2E7C
:103350002E5C4D6964646C6577617265735C46725E
:10336000656552544F535C7372635C717565756526
:103370002E6300004572726F723A2025732C20254F
:10338000640D0A0004ED00E070B506460C462EB947
:1033900040F6FD421FA129A0FCF796FF2CB940F68C
:1033A000FE421CA125A0FCF78FFFFFF78DF82748F0
:1033B00002687068131A2648006890F8590030B106
:1033C00000202349096881F8590001251EE0206882
:1033D000401C08B9002519E01E4930680968884278
:1033E00006D07068904203D80125002020600DE0CF
:1033F0002068984207D92068C01A20603046FFF73D
:10340000F5FA002502E0002020600125FFF7A6F86C
:10341000284670BD2E2E5C2E2E5C4D6964646C6552
:1034200077617265735C4672656552544F535C7385
:1034300072635C7461736B732E6300004572726F0C
:10344000723A2025732C2025640D0A006C000020A0
:1034500058000020800000202DE9FF4F85B08046F5
:1034600089461746DDE912ABB800FEF783FE064633
:1034700056B15C20FEF77EFE04460CB1266304E0E4
:103480003046FFF7A9F800E000247CB10020CDE928
:1034900000ABCDE902403A4649464046089BFEF75C
:1034A00027FA2046FEF77CF8012501E04FF0FF35B2
:1034B000284609B0BDE8F08F70B506462025304695
:1034C000FDF74EF8102801D2012000E0002028B9B5
:1034D00040F6AB1219A123A0FCF7F6FEFFF7A2FC01
:1034E00000BF6D1E05EB8501224A02EB81003146CB
:1034F000FEF712FD044604B101E0002DF1D100BF3A
:103500002CB931461C480068FEF706FD04462CB96C
:1035100031461A480068FEF7FFFC044624B93146DC
:103520001748FEF7F9FC044624B931461548FEF762
:10353000F3FC044600F066FA204670BD2E2E5C2E89
:103540002E5C4D6964646C6577617265735C46726C
:10355000656552544F535C7372635C7461736B7333
:103560002E6300004572726F723A2025732C20255D
:10357000640D0A0034AD00205C00002060000020D3
:1035800004B00020F0AF00200549096809B9012006
:1035900005E00449096809B9022000E000207047ED
:1035A0007400002094000020014908687047000062
:1035B0006C0000202DE9F0414FF000085F480068E2
:1035C00000287DD15E480068451C5D480560002DDF
:1035D0001DD15C480068006808B9012000E00020A7
:1035E00028B940F6C72258A161A0FCF76DFE5548E6
:1035F000076863480068534908606148076061488C
:103600000068401C5F490860FEF758FC00BF5E4838
:103610000068854277D300BF4A480068006808B94F
:10362000012000E0002020B14FF0FF305649086033
:1036300068E044480068C068C4686668B54202D261
:10364000514806605EE06069D4E902128A60D4E9FC
:1036500002214A60211D42688A4201D1E16841602D
:10366000002262610168491E0160A06A98B1A06AE7
:10367000D4E907128A60D4E907214A6004F11801ED
:1036800042688A4201D1216A41600022A262016837
:10369000491E016000BF94F82C10012088403B496E
:1036A0000968084339490860E16A01EB8101384A39
:1036B00002EB81014868A0608268E260211D00E0A1
:1036C00033E0826851608160E16A01EB8101304A38
:1036D00002EB81026261E16A01EB81012C4A52F83E
:1036E0002110491CE26A02EB8202294B43F82210A6
:1036F0002849E06A0968C96A88428DD34FF00108F9
:103700008AE700E000BF23480068C06A00EB800041
:103710001F4951F82000012801D94FF001081E4827
:10372000006808B14FF0010804E01C480068401C24
:103730001A4908604046BDE8F0810000940000206E
:103740006C0000205C0000202E2E5C2E2E5C4D694B
:1037500064646C6577617265735C4672656552542A
:103760004F535C7372635C7461736B732E63000000
:103770004572726F723A2025732C2025640D0A0061
:1037800060000020800000208800002070000020E1
:1037900034AD0020580000207C000020780000207C
:1037A00070B505462C460026002D5ED030480068D6
:1037B000844201D1012000E0002028B941F24F02EB
:1037C0002CA136A0FCF780FD206D28B941F25002F3
:1037D00028A132A0FCF778FD206D401E2065E16C29
:1037E000E06A884241D0206D00283ED1201DFEF7BE
:1037F0009DFD40B994F82C10012088402B490968A0
:1038000081432A480160E06CE062E06AC0F1200078
:10381000A06194F82C1001208840244909680843CD
:1038200022490860E16A01EB8101214A02EB810132
:103830004868A0608268E260211D826851608160F2
:10384000E16A01EB81011A4A02EB81026261E16ADD
:1038500001EB8101164A52F82110491CE26A02EB81
:103860008202134B43F822100126304670BD00003F
:10387000580000202E2E5C2E2E5C4D6964646C6511
:1038800077617265735C4672656552544F535C7321
:1038900072635C7461736B732E6300004572726FA8
:1038A000723A2025732C2025640D0A007000002038
:1038B00034AD002070B50646F068C4682CB940F6F7
:1038C00082423CA145A0FCF7FFFCA06AD4E90712A4
:1038D0008A60D4E907214A6004F1180142688A42EB
:1038E00001D1216A41600022A2620168491E016083
:1038F0003E48006800283DD16069D4E902128A6020
:10390000D4E902214A60211D42688A4201D1E1685E
:103910004160002262610168491E016094F82C1028
:103920000120884032490968084331490860E16A4A
:1039300001EB81012F4A02EB81014868A060826897
:10394000E260211D826851608160E16A01EB8101C2
:10395000284A02EB81026261E16A01EB8101254A9A
:1039600052F82110491CE26A02EB8202214B43F813
:10397000221010E020494868E0618268226204F168
:1039800018018268516081601B4AA2621146096871
:10399000491C116000BF1949E06A0968C96A884278
:1039A00004D9012501201649086000E000252846B9
:1039B00070BD00002E2E5C2E2E5C4D6964646C651B
:1039C00077617265735C4672656552544F535C73E0
:1039D00072635C7461736B732E6300004572726F67
:1039E000723A2025732C2025640D0A0094000020D3
:1039F0007000002034AD0020DCAF00205800002013
:103A00007C00002070B5002400265048006828B9CA
:103A100040F6B3024EA158A0FCF756FCFEF754FD49
:103A20004A480068401E4949086008460068002866
:103A30007ED15548006800287AD05BE05348C068C2
:103A4000C468A06AD4E907128A60D4E907214A60F1
:103A500004F1180142688A4201D1216A41600022C2
:103A6000A2620168491E01606069D4E902128A609D
:103A7000D4E902214A60211D42688A4201D1E168ED
:103A80004160002262610168491E016094F82C10B7
:103A9000012088403E49096808433D490860E16AC1
:103AA00001EB81013B4A02EB81014868A06082681A
:103AB000E260211D826851608160E16A01EB810151
:103AC000344A02EB81026261E16A01EB8101314A11
:103AD00052F82110491CE26A02EB82022D4B43F896
:103AE00022102D49E06A0968C96A884202D3012080
:103AF0002A4908602548006808B9012000E0002034
:103B000000289BD00CB1FEF7D9F92548056865B1AE
:103B100000BFFFF74FFD10B10120204908606D1E66
:103B2000002DF6D100201E4908601C48006800E006
:103B300008E038B1012630071A490860BFF34F8FFB
:103B4000BFF36F8FFEF70AFD304670BD9400002072
:103B50002E2E5C2E2E5C4D6964646C6577617265F7
:103B6000735C4672656552544F535C7372635C7448
:103B700061736B732E6300004572726F723A202579
:103B8000732C2025640D0A0068000020DCAF0020A3
:103B90007000002034AD0020580000207C00002080
:103BA0007800002004ED00E01CB50024FDF76EFD58
:103BB0000B48006858B10B481F2100234FF4807256
:103BC000CDE9001008A10A48FFF746FC04462CB9CD
:103BD00040F2191207A111A0FCF776FB20461CBD8C
:103BE000A0000020A4000020546D722053766300D2
:103BF000A12000082E2E5C2E2E5C4D6964646C653D
:103C000077617265735C4672656552544F535C739D
:103C100072635C74696D6572732E63004572726FB6
:103C2000723A2025732C2025640D0A00000500003F
:103C300001000000200000002000000000A00000A3
:103C400020000000303132333435363738394142C4
:103C500043444546403058003031323334353637EE
:103C6000383961626364656640307800040000089A
:103C70000000000000000002000100001000000031
:103C8000A03C000800000020D80000006C010008E3
:103C9000783D0008D8000020C8DD00008801000839
:103CA00000A24A040000000000000000010203041A
:103CB00006070809000000000000000000000000E6
:103CC00001020304010203040607080902040608AE
:103CD000811300085914000800010020000000684A
:103CE00000A100202000006800000000000000008B
:103CF00000000000000000000000000000000000C4
:103D000000000000000000000000000000000000B3
:103D100000000000000000000000000000000000A3
:103D20000000000000000000000000000000000093
:103D30001F00000000000000000000000000000064
:103D4000000000000000000000000000AAAAAAAACB
:103D50000000000000000000000000000000000063
:103D60000000000000000000000000000000000053
:083D700000000000000000004B
:0400000508000131BD
:00000001FF
