Component: ARM Compiler 5.06 update 7 (build 960) Tool: armlink [4d3601]

==============================================================================

Section Cross References

    startup_stm32f10x_hd.o(STACK) refers (Special) to heapauxi.o(.text) for __use_two_region_memory
    startup_stm32f10x_hd.o(HEAP) refers (Special) to heapauxi.o(.text) for __use_two_region_memory
    startup_stm32f10x_hd.o(RESET) refers (Special) to heapauxi.o(.text) for __use_two_region_memory
    startup_stm32f10x_hd.o(RESET) refers to startup_stm32f10x_hd.o(STACK) for __initial_sp
    startup_stm32f10x_hd.o(RESET) refers to startup_stm32f10x_hd.o(.text) for Reset_Handler
    startup_stm32f10x_hd.o(RESET) refers to stm32f10x_it.o(i.NMI_Handler) for NMI_Handler
    startup_stm32f10x_hd.o(RESET) refers to stm32f10x_it.o(i.HardFault_Handler) for HardFault_Handler
    startup_stm32f10x_hd.o(RESET) refers to stm32f10x_it.o(i.MemManage_Handler) for MemManage_Handler
    startup_stm32f10x_hd.o(RESET) refers to stm32f10x_it.o(i.BusFault_Handler) for BusFault_Handler
    startup_stm32f10x_hd.o(RESET) refers to stm32f10x_it.o(i.UsageFault_Handler) for UsageFault_Handler
    startup_stm32f10x_hd.o(RESET) refers to port.o(.emb_text) for SVC_Handler
    startup_stm32f10x_hd.o(RESET) refers to stm32f10x_it.o(i.DebugMon_Handler) for DebugMon_Handler
    startup_stm32f10x_hd.o(RESET) refers to delay.o(i.SysTick_Handler) for SysTick_Handler
    startup_stm32f10x_hd.o(RESET) refers to timer.o(i.TIM6_IRQHandler) for TIM6_IRQHandler
    startup_stm32f10x_hd.o(.text) refers (Special) to heapauxi.o(.text) for __use_two_region_memory
    startup_stm32f10x_hd.o(.text) refers to system_stm32f10x.o(i.SystemInit) for SystemInit
    startup_stm32f10x_hd.o(.text) refers to __main.o(!!!main) for __main
    startup_stm32f10x_hd.o(.text) refers to startup_stm32f10x_hd.o(HEAP) for Heap_Mem
==============================================================================

Removing Unused input sections from the image.

    Removing core_cm3.o(.emb_text), (32 bytes).
    Removing system_stm32f10x.o(i.SystemCoreClockUpdate), (164 bytes).
    Removing sys.o(.emb_text), (6 bytes).
    Removing sys.o(i.INTX_DISABLE), (4 bytes).
    Removing sys.o(i.INTX_ENABLE), (4 bytes).
    Removing sys.o(i.WFI_SET), (4 bytes).
    Removing misc.o(i.NVIC_SetVectorTable), (20 bytes).
    Removing misc.o(i.NVIC_SystemLPConfig), (32 bytes).
    Removing misc.o(i.SysTick_CLKSourceConfig), (40 bytes).
    Removing stm32f10x_rcc.o(i.RCC_ADCCLKConfig), (24 bytes).
    Removing stm32f10x_rcc.o(i.RCC_AHBPeriphClockCmd), (32 bytes).
    Removing stm32f10x_rcc.o(i.RCC_APB1PeriphResetCmd), (32 bytes).
    Removing stm32f10x_rcc.o(i.RCC_APB2PeriphResetCmd), (32 bytes).
    Removing stm32f10x_rcc.o(i.RCC_AdjustHSICalibrationValue), (24 bytes).
    Removing stm32f10x_rcc.o(i.RCC_BackupResetCmd), (12 bytes).
    Removing stm32f10x_rcc.o(i.RCC_ClearFlag), (20 bytes).
    Removing stm32f10x_rcc.o(i.RCC_ClearITPendingBit), (12 bytes).
    Removing stm32f10x_rcc.o(i.RCC_ClockSecuritySystemCmd), (12 bytes).
==============================================================================

Image Symbol Table

    Local Symbols

    Symbol Name                              Value     Ov Type        Size  Object(Section)

    ../clib/angel/boardlib.s                 0x00000000   Number         0  boardinit1.o ABSOLUTE
    ../clib/angel/boardlib.s                 0x00000000   Number         0  boardinit3.o ABSOLUTE
    ../clib/angel/boardlib.s                 0x00000000   Number         0  boardshut.o ABSOLUTE
    ../clib/angel/boardlib.s                 0x00000000   Number         0  boardinit2.o ABSOLUTE
    ../clib/angel/handlers.s                 0x00000000   Number         0  __scatter_zi.o ABSOLUTE
    ../clib/angel/handlers.s                 0x00000000   Number         0  __scatter_copy.o ABSOLUTE
    ../clib/angel/kernel.s                   0x00000000   Number         0  __rtentry4.o ABSOLUTE
    ../clib/angel/kernel.s                   0x00000000   Number         0  __rtentry.o ABSOLUTE
    ../clib/angel/kernel.s                   0x00000000   Number         0  rtexit2.o ABSOLUTE
    ../clib/angel/kernel.s                   0x00000000   Number         0  __rtentry2.o ABSOLUTE
    ../clib/angel/kernel.s                   0x00000000   Number         0  rtexit.o ABSOLUTE
    ../clib/angel/rt.s                       0x00000000   Number         0  rt_raise.o ABSOLUTE
    ../clib/angel/scatter.s                  0x00000000   Number         0  __scatter.o ABSOLUTE
    ../clib/angel/startup.s                  0x00000000   Number         0  __main.o ABSOLUTE
    ../clib/angel/sys.s                      0x00000000   Number         0  use_no_semi_2.o ABSOLUTE
    ../clib/angel/sys.s                      0x00000000   Number         0  libspace.o ABSOLUTE
    ../clib/angel/sys.s                      0x00000000   Number         0  sys_stackheap_outer.o ABSOLUTE
    ../clib/angel/sys.s                      0x00000000   Number         0  use_no_semi.o ABSOLUTE
    ../clib/angel/sys.s                      0x00000000   Number         0  indicate_semi.o ABSOLUTE
    ../clib/angel/sysapp.c                   0x00000000   Number         0  sys_command.o ABSOLUTE
    ../clib/angel/sysapp.c                   0x00000000   Number         0  sys_wrch.o ABSOLUTE
    ../clib/armsys.c                         0x00000000   Number         0  no_argv.o ABSOLUTE
    ../clib/armsys.c                         0x00000000   Number         0  argv_veneer.o ABSOLUTE
    ../clib/armsys.c                         0x00000000   Number         0  argv_veneer.o ABSOLUTE
    ../clib/armsys.c                         0x00000000   Number         0  _get_argv_nomalloc.o ABSOLUTE
    ../clib/heapalloc.c                      0x00000000   Number         0  hrguard.o ABSOLUTE
    ../clib/heapaux.c                        0x00000000   Number         0  heapauxi.o ABSOLUTE
    ../clib/libinit.s                        0x00000000   Number         0  libinit2.o ABSOLUTE
    ../clib/libinit.s                        0x00000000   Number         0  libinit.o ABSOLUTE
    ../clib/libinit.s                        0x00000000   Number         0  libshutdown.o ABSOLUTE
    ../clib/libinit.s                        0x00000000   Number         0  libshutdown2.o ABSOLUTE
    ../clib/memcpset.s                       0x00000000   Number         0  aeabi_memset.o ABSOLUTE
    ../clib/memcpset.s                       0x00000000   Number         0  rt_memcpy_v6.o ABSOLUTE
    ../clib/memcpset.s                       0x00000000   Number         0  memset.o ABSOLUTE
    ../clib/memcpset.s                       0x00000000   Number         0  rt_memclr_w.o ABSOLUTE
    ../clib/memcpset.s                       0x00000000   Number         0  rt_memcpy_w.o ABSOLUTE
    ../clib/memcpset.s                       0x00000000   Number         0  rt_memclr.o ABSOLUTE
    ../clib/printf.c                         0x00000000   Number         0  __printf_nopercent.o ABSOLUTE
    ../clib/printf.c                         0x00000000   Number         0  _sputc.o ABSOLUTE
    ../clib/printf.c                         0x00000000   Number         0  _printf_char.o ABSOLUTE
    ../clib/printf.c                         0x00000000   Number         0  __2printf.o ABSOLUTE
    ../clib/printf.c                         0x00000000   Number         0  _printf_char_common.o ABSOLUTE
    ../clib/printf.c                         0x00000000   Number         0  noretval__2printf.o ABSOLUTE
    ../clib/printf.c                         0x00000000   Number         0  _printf_char_file.o ABSOLUTE
    ../clib/printf.c                         0x00000000   Number         0  _printf_intcommon.o ABSOLUTE
    ../clib/printf.c                         0x00000000   Number         0  __2sprintf.o ABSOLUTE
    ../clib/printf.c                         0x00000000   Number         0  __printf_flags_ss_wp.o ABSOLUTE
    ../clib/printf.c                         0x00000000   Number         0  __printf_ss_wp.o ABSOLUTE
    ../clib/printf.c                         0x00000000   Number         0  __printf_flags_wp.o ABSOLUTE
    ../clib/printf.c                         0x00000000   Number         0  __printf_wp.o ABSOLUTE
    ../clib/printf.c                         0x00000000   Number         0  __printf_flags_ss.o ABSOLUTE
    ../clib/printf.c                         0x00000000   Number         0  __printf_ss.o ABSOLUTE
    ../clib/printf.c                         0x00000000   Number         0  __printf_flags.o ABSOLUTE
    ../clib/printf.c                         0x00000000   Number         0  _printf_dec.o ABSOLUTE
    ../clib/printf.c                         0x00000000   Number         0  _printf_str.o ABSOLUTE
    ../clib/printf.c                         0x00000000   Number         0  __printf.o ABSOLUTE
    ../clib/printf.c                         0x00000000   Number         0  noretval__2sprintf.o ABSOLUTE
    ../clib/printf_percent.s                 0x00000000   Number         0  _printf_c.o ABSOLUTE
    ../clib/printf_percent.s                 0x00000000   Number         0  _printf_d.o ABSOLUTE
    ../clib/printf_percent.s                 0x00000000   Number         0  _printf_percent.o ABSOLUTE
    ../clib/printf_percent.s                 0x00000000   Number         0  _printf_percent_end.o ABSOLUTE
    ../clib/printf_percent.s                 0x00000000   Number         0  _printf_u.o ABSOLUTE
    ../clib/printf_percent.s                 0x00000000   Number         0  _printf_s.o ABSOLUTE
    ../clib/signal.c                         0x00000000   Number         0  defsig_rtmem_outer.o ABSOLUTE
    ../clib/signal.c                         0x00000000   Number         0  defsig_segv_inner.o ABSOLUTE
    ../clib/signal.c                         0x00000000   Number         0  defsig_cppl_inner.o ABSOLUTE
    ../clib/signal.c                         0x00000000   Number         0  defsig_stak_inner.o ABSOLUTE
    ../clib/signal.c                         0x00000000   Number         0  defsig_rtred_inner.o ABSOLUTE
    ../clib/signal.c                         0x00000000   Number         0  defsig_fpe_inner.o ABSOLUTE
    ../clib/signal.c                         0x00000000   Number         0  defsig_abrt_inner.o ABSOLUTE
    ../clib/signal.c                         0x00000000   Number         0  defsig_general.o ABSOLUTE
    ../clib/signal.c                         0x00000000   Number         0  __raise.o ABSOLUTE
    ../clib/signal.c                         0x00000000   Number         0  defsig_rtmem_inner.o ABSOLUTE
    ../clib/signal.c                         0x00000000   Number         0  defsig_exit.o ABSOLUTE
    ../clib/signal.c                         0x00000000   Number         0  defsig_rtmem_formal.o ABSOLUTE
    ../clib/signal.c                         0x00000000   Number         0  defsig_pvfn_inner.o ABSOLUTE
    ../clib/signal.c                         0x00000000   Number         0  defsig_other.o ABSOLUTE
    ../clib/signal.s                         0x00000000   Number         0  defsig.o ABSOLUTE
    ../clib/stdio.c                          0x00000000   Number         0  ferror_locked.o ABSOLUTE
    ../clib/stdio.c                          0x00000000   Number         0  ferror.o ABSOLUTE
    ../clib/stdlib.c                         0x00000000   Number         0  exit.o ABSOLUTE
    ../clib/string.c                         0x00000000   Number         0  strcpy.o ABSOLUTE
    ../clib/string.c                         0x00000000   Number         0  strlen.o ABSOLUTE
    ../fplib/fpinit.s                        0x00000000   Number         0  fpinit.o ABSOLUTE
    ..\..\Drivers\BSP\src\key.c              0x00000000   Number         0  key.o ABSOLUTE
    ..\..\Drivers\BSP\src\led.c              0x00000000   Number         0  led.o ABSOLUTE
    ..\..\Drivers\BSP\src\timer.c            0x00000000   Number         0  timer.o ABSOLUTE
    ..\..\Drivers\Libraries\CMSIS\core_cm3.c 0x00000000   Number         0  core_cm3.o ABSOLUTE
    ..\..\Drivers\Libraries\CMSIS\startup\startup_stm32f10x_hd.s 0x00000000   Number         0  startup_stm32f10x_hd.o ABSOLUTE
    ..\..\Drivers\Libraries\CMSIS\system_stm32f10x.c 0x00000000   Number         0  system_stm32f10x.o ABSOLUTE
    ..\..\Drivers\Libraries\FWlib\src\misc.c 0x00000000   Number         0  misc.o ABSOLUTE
    ..\..\Drivers\Libraries\FWlib\src\stm32f10x_dbgmcu.c 0x00000000   Number         0  stm32f10x_dbgmcu.o ABSOLUTE
    ..\..\Drivers\Libraries\FWlib\src\stm32f10x_gpio.c 0x00000000   Number         0  stm32f10x_gpio.o ABSOLUTE
    ..\..\Drivers\Libraries\FWlib\src\stm32f10x_rcc.c 0x00000000   Number         0  stm32f10x_rcc.o ABSOLUTE
    ..\..\Drivers\Libraries\FWlib\src\stm32f10x_tim.c 0x00000000   Number         0  stm32f10x_tim.o ABSOLUTE
    ..\..\Drivers\Libraries\FWlib\src\stm32f10x_usart.c 0x00000000   Number         0  stm32f10x_usart.o ABSOLUTE
    ..\..\Drivers\SYSTEM\src\delay.c         0x00000000   Number         0  delay.o ABSOLUTE
    ..\..\Drivers\SYSTEM\src\sys.c           0x00000000   Number         0  sys.o ABSOLUTE
    ..\..\Drivers\SYSTEM\src\usart.c         0x00000000   Number         0  usart.o ABSOLUTE
    ..\..\Middlewares\FreeRTOS\portable\MemMang\heap_4.c 0x00000000   Number         0  heap_4.o ABSOLUTE
    ..\..\Middlewares\FreeRTOS\portable\RVDS\ARM_CM3\port.c 0x00000000   Number         0  port.o ABSOLUTE
    ..\..\Middlewares\FreeRTOS\src\croutine.c 0x00000000   Number         0  croutine.o ABSOLUTE
    ..\..\Middlewares\FreeRTOS\src\event_groups.c 0x00000000   Number         0  event_groups.o ABSOLUTE
    ..\..\Middlewares\FreeRTOS\src\list.c    0x00000000   Number         0  list.o ABSOLUTE
    ..\..\Middlewares\FreeRTOS\src\queue.c   0x00000000   Number         0  queue.o ABSOLUTE
    ..\..\Middlewares\FreeRTOS\src\stream_buffer.c 0x00000000   Number         0  stream_buffer.o ABSOLUTE
    ..\..\Middlewares\FreeRTOS\src\tasks.c   0x00000000   Number         0  tasks.o ABSOLUTE
    ..\..\Middlewares\FreeRTOS\src\timers.c  0x00000000   Number         0  timers.o ABSOLUTE
    ..\..\User\main.c                        0x00000000   Number         0  main.o ABSOLUTE
    ..\..\User\src\freeRTOS_demo.c           0x00000000   Number         0  freertos_demo.o ABSOLUTE
    ..\..\User\stm32f10x_it.c                0x00000000   Number         0  stm32f10x_it.o ABSOLUTE
    ..\\..\\Drivers\\Libraries\\CMSIS\\core_cm3.c 0x00000000   Number         0  core_cm3.o ABSOLUTE
    ..\\..\\Drivers\\SYSTEM\\src\\sys.c      0x00000000   Number         0  sys.o ABSOLUTE
    ..\\..\\Middlewares\\FreeRTOS\\portable\\RVDS\\ARM_CM3\\port.c 0x00000000   Number         0  port.o ABSOLUTE
    dc.s                                     0x00000000   Number         0  dc.o ABSOLUTE
    RESET                                    0x08000000   Section      304  startup_stm32f10x_hd.o(RESET)
    !!!main                                  0x08000130   Section        8  __main.o(!!!main)
    !!!scatter                               0x08000138   Section       52  __scatter.o(!!!scatter)
    !!handler_copy                           0x0800016c   Section       26  __scatter_copy.o(!!handler_copy)
    !!handler_zi                             0x08000188   Section       28  __scatter_zi.o(!!handler_zi)
    .ARM.Collect$$_printf_percent$$00000000  0x080001a4   Section        0  _printf_percent.o(.ARM.Collect$$_printf_percent$$00000000)
    .ARM.Collect$$_printf_percent$$00000009  0x080001a4   Section        6  _printf_d.o(.ARM.Collect$$_printf_percent$$00000009)
    .ARM.Collect$$_printf_percent$$0000000A  0x080001aa   Section        6  _printf_u.o(.ARM.Collect$$_printf_percent$$0000000A)
    .ARM.Collect$$_printf_percent$$00000014  0x080001b0   Section        6  _printf_s.o(.ARM.Collect$$_printf_percent$$00000014)
    .ARM.Collect$$_printf_percent$$00000017  0x080001b6   Section        4  _printf_percent_end.o(.ARM.Collect$$_printf_percent$$00000017)
    .ARM.Collect$$libinit$$00000000          0x080001ba   Section        2  libinit.o(.ARM.Collect$$libinit$$00000000)
    .ARM.Collect$$libinit$$00000002          0x080001bc   Section        0  libinit2.o(.ARM.Collect$$libinit$$00000002)
    .ARM.Collect$$libinit$$00000004          0x080001bc   Section        0  libinit2.o(.ARM.Collect$$libinit$$00000004)
    .ARM.Collect$$libinit$$0000000A          0x080001bc   Section        0  libinit2.o(.ARM.Collect$$libinit$$0000000A)
    .ARM.Collect$$libinit$$0000000C          0x080001bc   Section        0  libinit2.o(.ARM.Collect$$libinit$$0000000C)
    .ARM.Collect$$libinit$$0000000E          0x080001bc   Section        0  libinit2.o(.ARM.Collect$$libinit$$0000000E)
    .ARM.Collect$$libinit$$00000011          0x080001bc   Section        0  libinit2.o(.ARM.Collect$$libinit$$00000011)
    .ARM.Collect$$libinit$$00000013          0x080001bc   Section        0  libinit2.o(.ARM.Collect$$libinit$$00000013)
    .ARM.Collect$$libinit$$00000015          0x080001bc   Section        0  libinit2.o(.ARM.Collect$$libinit$$00000015)
    .ARM.Collect$$libinit$$00000017          0x080001bc   Section        0  libinit2.o(.ARM.Collect$$libinit$$00000017)
    .ARM.Collect$$libinit$$00000019          0x080001bc   Section        0  libinit2.o(.ARM.Collect$$libinit$$00000019)
    .ARM.Collect$$libinit$$0000001B          0x080001bc   Section        0  libinit2.o(.ARM.Collect$$libinit$$0000001B)
    .ARM.Collect$$libinit$$0000001D          0x080001bc   Section        0  libinit2.o(.ARM.Collect$$libinit$$0000001D)
    .ARM.Collect$$libinit$$0000001F          0x080001bc   Section        0  libinit2.o(.ARM.Collect$$libinit$$0000001F)
    .ARM.Collect$$libinit$$00000021          0x080001bc   Section        0  libinit2.o(.ARM.Collect$$libinit$$00000021)
    .ARM.Collect$$libinit$$00000023          0x080001bc   Section        0  libinit2.o(.ARM.Collect$$libinit$$00000023)
    .ARM.Collect$$libinit$$00000025          0x080001bc   Section        0  libinit2.o(.ARM.Collect$$libinit$$00000025)
    .ARM.Collect$$libinit$$0000002C          0x080001bc   Section        0  libinit2.o(.ARM.Collect$$libinit$$0000002C)
    .ARM.Collect$$libinit$$0000002E          0x080001bc   Section        0  libinit2.o(.ARM.Collect$$libinit$$0000002E)
    .ARM.Collect$$libinit$$00000030          0x080001bc   Section        0  libinit2.o(.ARM.Collect$$libinit$$00000030)
    .ARM.Collect$$libinit$$00000032          0x080001bc   Section        0  libinit2.o(.ARM.Collect$$libinit$$00000032)
    .ARM.Collect$$libinit$$00000033          0x080001bc   Section        2  libinit2.o(.ARM.Collect$$libinit$$00000033)
    .ARM.Collect$$libshutdown$$00000000      0x080001be   Section        2  libshutdown.o(.ARM.Collect$$libshutdown$$00000000)
    .ARM.Collect$$libshutdown$$00000002      0x080001c0   Section        0  libshutdown2.o(.ARM.Collect$$libshutdown$$00000002)
    .ARM.Collect$$libshutdown$$00000004      0x080001c0   Section        0  libshutdown2.o(.ARM.Collect$$libshutdown$$00000004)
    .ARM.Collect$$libshutdown$$00000006      0x080001c0   Section        0  libshutdown2.o(.ARM.Collect$$libshutdown$$00000006)
    .ARM.Collect$$libshutdown$$00000009      0x080001c0   Section        0  libshutdown2.o(.ARM.Collect$$libshutdown$$00000009)
    .ARM.Collect$$libshutdown$$0000000C      0x080001c0   Section        0  libshutdown2.o(.ARM.Collect$$libshutdown$$0000000C)
    .ARM.Collect$$libshutdown$$0000000E      0x080001c0   Section        0  libshutdown2.o(.ARM.Collect$$libshutdown$$0000000E)
    .ARM.Collect$$libshutdown$$00000011      0x080001c0   Section        0  libshutdown2.o(.ARM.Collect$$libshutdown$$00000011)
    .ARM.Collect$$libshutdown$$00000012      0x080001c0   Section        2  libshutdown2.o(.ARM.Collect$$libshutdown$$00000012)
    .ARM.Collect$$rtentry$$00000000          0x080001c2   Section        0  __rtentry.o(.ARM.Collect$$rtentry$$00000000)
    .ARM.Collect$$rtentry$$00000002          0x080001c2   Section        0  __rtentry2.o(.ARM.Collect$$rtentry$$00000002)
    .ARM.Collect$$rtentry$$00000004          0x080001c2   Section        6  __rtentry4.o(.ARM.Collect$$rtentry$$00000004)
    .ARM.Collect$$rtentry$$00000009          0x080001c8   Section        0  __rtentry2.o(.ARM.Collect$$rtentry$$00000009)
    .ARM.Collect$$rtentry$$0000000A          0x080001c8   Section        4  __rtentry2.o(.ARM.Collect$$rtentry$$0000000A)
    .ARM.Collect$$rtentry$$0000000C          0x080001cc   Section        0  __rtentry2.o(.ARM.Collect$$rtentry$$0000000C)
    .ARM.Collect$$rtentry$$0000000D          0x080001cc   Section        8  __rtentry2.o(.ARM.Collect$$rtentry$$0000000D)
    .ARM.Collect$$rtexit$$00000000           0x080001d4   Section        2  rtexit.o(.ARM.Collect$$rtexit$$00000000)
    .ARM.Collect$$rtexit$$00000002           0x080001d6   Section        0  rtexit2.o(.ARM.Collect$$rtexit$$00000002)
    .ARM.Collect$$rtexit$$00000003           0x080001d6   Section        4  rtexit2.o(.ARM.Collect$$rtexit$$00000003)
    .ARM.Collect$$rtexit$$00000004           0x080001da   Section        6  rtexit2.o(.ARM.Collect$$rtexit$$00000004)
    .emb_text                                0x080001e0   Section      150  port.o(.emb_text)
    .text                                    0x08000278   Section       64  startup_stm32f10x_hd.o(.text)
    .text                                    0x080002b8   Section        2  use_no_semi_2.o(.text)
    .text                                    0x080002bc   Section        0  noretval__2printf.o(.text)
    .text                                    0x080002d4   Section        0  noretval__2sprintf.o(.text)
    .text                                    0x080002fc   Section        0  __printf.o(.text)
    .text                                    0x08000364   Section        0  _printf_str.o(.text)
    .text                                    0x080003b8   Section        0  _printf_dec.o(.text)
    .text                                    0x08000430   Section        0  strcpy.o(.text)
    .text                                    0x08000478   Section        0  strlen.o(.text)
    .text                                    0x080004b6   Section      138  rt_memcpy_v6.o(.text)
    .text                                    0x08000540   Section       16  aeabi_memset.o(.text)
    .text                                    0x08000550   Section       78  rt_memclr_w.o(.text)
    .text                                    0x0800059e   Section        0  heapauxi.o(.text)
    .text                                    0x080005a4   Section        2  use_no_semi.o(.text)
    .text                                    0x080005a6   Section        0  _printf_intcommon.o(.text)
    .text                                    0x08000658   Section        0  _printf_char_common.o(.text)
    _printf_input_char                       0x08000659   Thumb Code    10  _printf_char_common.o(.text)
    .text                                    0x08000688   Section        0  _sputc.o(.text)
    .text                                    0x08000692   Section        0  _printf_char.o(.text)
    .text                                    0x080006c0   Section        0  _printf_char_file.o(.text)
    .text                                    0x080006e4   Section      100  rt_memcpy_w.o(.text)
    .text                                    0x08000748   Section       68  rt_memclr.o(.text)
    .text                                    0x0800078c   Section        0  ferror.o(.text)
    .text                                    0x08000794   Section       74  sys_stackheap_outer.o(.text)
    .text                                    0x080007de   Section        0  exit.o(.text)
    .text                                    0x080007f0   Section        8  libspace.o(.text)
    i.BusFault_Handler                       0x080007f8   Section        0  stm32f10x_it.o(i.BusFault_Handler)
    i.ConfigureTimeForRunTimeStats           0x080007fc   Section        0  timer.o(i.ConfigureTimeForRunTimeStats)
    i.DebugMon_Handler                       0x08000814   Section        0  stm32f10x_it.o(i.DebugMon_Handler)
    i.GPIO_Init                              0x08000816   Section        0  stm32f10x_gpio.o(i.GPIO_Init)
    i.GPIO_ReadInputDataBit                  0x0800092c   Section        0  stm32f10x_gpio.o(i.GPIO_ReadInputDataBit)
    i.GPIO_SetBits                           0x0800093e   Section        0  stm32f10x_gpio.o(i.GPIO_SetBits)
    i.HardFault_Handler                      0x08000942   Section        0  stm32f10x_it.o(i.HardFault_Handler)
    i.KEY_Init                               0x08000948   Section        0  key.o(i.KEY_Init)
    i.KEY_Scan                               0x0800098c   Section        0  key.o(i.KEY_Scan)
    i.LED_Init                               0x08000a44   Section        0  led.o(i.LED_Init)
    i.MemManage_Handler                      0x08000a98   Section        0  stm32f10x_it.o(i.MemManage_Handler)
    i.NMI_Handler                            0x08000a9c   Section        0  stm32f10x_it.o(i.NMI_Handler)
    i.NVIC_Init                              0x08000aa0   Section        0  misc.o(i.NVIC_Init)
    i.NVIC_PriorityGroupConfig               0x08000b10   Section        0  misc.o(i.NVIC_PriorityGroupConfig)
    i.RCC_APB1PeriphClockCmd                 0x08000b24   Section        0  stm32f10x_rcc.o(i.RCC_APB1PeriphClockCmd)
    i.RCC_APB2PeriphClockCmd                 0x08000b44   Section        0  stm32f10x_rcc.o(i.RCC_APB2PeriphClockCmd)
    i.RCC_GetClocksFreq                      0x08000b64   Section        0  stm32f10x_rcc.o(i.RCC_GetClocksFreq)
    i.SetSysClock                            0x08000c38   Section        0  system_stm32f10x.o(i.SetSysClock)
    SetSysClock                              0x08000c39   Thumb Code     8  system_stm32f10x.o(i.SetSysClock)
    i.SetSysClockTo72                        0x08000c40   Section        0  system_stm32f10x.o(i.SetSysClockTo72)
    SetSysClockTo72                          0x08000c41   Thumb Code   214  system_stm32f10x.o(i.SetSysClockTo72)
    i.StartTaskCreate                        0x08000d20   Section        0  freertos_demo.o(i.StartTaskCreate)
    StartTaskCreate                          0x08000d21   Thumb Code   104  freertos_demo.o(i.StartTaskCreate)
    i.SysTick_Handler                        0x08000e0c   Section        0  delay.o(i.SysTick_Handler)
    i.SysTick_Init                           0x08000e1c   Section        0  delay.o(i.SysTick_Init)
    i.SystemInit                             0x08000e70   Section        0  system_stm32f10x.o(i.SystemInit)
    i.TIM6_IRQHandler                        0x08000ed0   Section        0  timer.o(i.TIM6_IRQHandler)
    i.TIM6_Init                              0x08000ef8   Section        0  timer.o(i.TIM6_Init)
    i.TIM_ClearITPendingBit                  0x08000f4c   Section        0  stm32f10x_tim.o(i.TIM_ClearITPendingBit)
    i.TIM_Cmd                                0x08000f52   Section        0  stm32f10x_tim.o(i.TIM_Cmd)
    i.TIM_GetITStatus                        0x08000f6a   Section        0  stm32f10x_tim.o(i.TIM_GetITStatus)
    i.TIM_ITConfig                           0x08000f8c   Section        0  stm32f10x_tim.o(i.TIM_ITConfig)
    i.TIM_TimeBaseInit                       0x08000fa0   Section        0  stm32f10x_tim.o(i.TIM_TimeBaseInit)
    i.Task1                                  0x08001044   Section        0  freertos_demo.o(i.Task1)
    Task1                                    0x08001045   Thumb Code    34  freertos_demo.o(i.Task1)
    i.Task2                                  0x08001074   Section        0  freertos_demo.o(i.Task2)
    Task2                                    0x08001075   Thumb Code    36  freertos_demo.o(i.Task2)
    i.USART1_Init                            0x080010a0   Section        0  usart.o(i.USART1_Init)
    i.USART_Cmd                              0x08001120   Section        0  stm32f10x_usart.o(i.USART_Cmd)
    i.USART_Init                             0x08001138   Section        0  stm32f10x_usart.o(i.USART_Init)
    i.UsageFault_Handler                     0x08001210   Section        0  stm32f10x_it.o(i.UsageFault_Handler)
    i._sys_exit                              0x08001214   Section        0  usart.o(i._sys_exit)
    i.delay_ms                               0x08001218   Section        0  delay.o(i.delay_ms)
    i.delay_us                               0x08001230   Section        0  delay.o(i.delay_us)
    i.eTaskGetState                          0x08001278   Section        0  tasks.o(i.eTaskGetState)
    i.fputc                                  0x08001348   Section        0  usart.o(i.fputc)
    i.freeRTOS_demo                          0x08001364   Section        0  freertos_demo.o(i.freeRTOS_demo)
    i.main                                   0x080013f0   Section        0  main.o(i.main)
    i.prvAddCurrentTaskToDelayedList         0x08001418   Section        0  tasks.o(i.prvAddCurrentTaskToDelayedList)
    prvAddCurrentTaskToDelayedList           0x08001419   Thumb Code   174  tasks.o(i.prvAddCurrentTaskToDelayedList)
    i.prvAddNewTaskToReadyList               0x080014e4   Section        0  tasks.o(i.prvAddNewTaskToReadyList)
    prvAddNewTaskToReadyList                 0x080014e5   Thumb Code   206  tasks.o(i.prvAddNewTaskToReadyList)
    i.prvCheckForValidListAndQueue           0x080015d0   Section        0  timers.o(i.prvCheckForValidListAndQueue)
    prvCheckForValidListAndQueue             0x080015d1   Thumb Code    72  timers.o(i.prvCheckForValidListAndQueue)
    i.prvCheckTasksWaitingTermination        0x08001634   Section        0  tasks.o(i.prvCheckTasksWaitingTermination)
    prvCheckTasksWaitingTermination          0x08001635   Thumb Code    60  tasks.o(i.prvCheckTasksWaitingTermination)
    i.prvCopyDataFromQueue                   0x0800167c   Section        0  queue.o(i.prvCopyDataFromQueue)
    prvCopyDataFromQueue                     0x0800167d   Thumb Code    42  queue.o(i.prvCopyDataFromQueue)
    i.prvCopyDataToQueue                     0x080016a6   Section        0  queue.o(i.prvCopyDataToQueue)
    prvCopyDataToQueue                       0x080016a7   Thumb Code   126  queue.o(i.prvCopyDataToQueue)
    i.prvDeleteTCB                           0x08001724   Section        0  tasks.o(i.prvDeleteTCB)
    prvDeleteTCB                             0x08001725   Thumb Code    18  tasks.o(i.prvDeleteTCB)
    i.prvGetNextExpireTime                   0x08001738   Section        0  timers.o(i.prvGetNextExpireTime)
    prvGetNextExpireTime                     0x08001739   Thumb Code    36  timers.o(i.prvGetNextExpireTime)
    i.prvHeapInit                            0x08001760   Section        0  heap_4.o(i.prvHeapInit)
    prvHeapInit                              0x08001761   Thumb Code    98  heap_4.o(i.prvHeapInit)
    i.prvIdleTask                            0x080017dc   Section        0  tasks.o(i.prvIdleTask)
    prvIdleTask                              0x080017dd   Thumb Code    32  tasks.o(i.prvIdleTask)
    i.prvInitialiseNewQueue                  0x08001804   Section        0  queue.o(i.prvInitialiseNewQueue)
    prvInitialiseNewQueue                    0x08001805   Thumb Code    46  queue.o(i.prvInitialiseNewQueue)
    i.prvInitialiseNewTask                   0x08001834   Section        0  tasks.o(i.prvInitialiseNewTask)
    prvInitialiseNewTask                     0x08001835   Thumb Code   210  tasks.o(i.prvInitialiseNewTask)
    i.prvInitialiseTaskLists                 0x08001940   Section        0  tasks.o(i.prvInitialiseTaskLists)
    prvInitialiseTaskLists                   0x08001941   Thumb Code    70  tasks.o(i.prvInitialiseTaskLists)
    i.prvInsertBlockIntoFreeList             0x080019a8   Section        0  heap_4.o(i.prvInsertBlockIntoFreeList)
    prvInsertBlockIntoFreeList               0x080019a9   Thumb Code    96  heap_4.o(i.prvInsertBlockIntoFreeList)
    i.prvInsertTimerInActiveList             0x08001a10   Section        0  timers.o(i.prvInsertTimerInActiveList)
    prvInsertTimerInActiveList               0x08001a11   Thumb Code    80  timers.o(i.prvInsertTimerInActiveList)
    i.prvIsQueueEmpty                        0x08001a68   Section        0  queue.o(i.prvIsQueueEmpty)
    prvIsQueueEmpty                          0x08001a69   Thumb Code    26  queue.o(i.prvIsQueueEmpty)
    i.prvListTasksWithinSingleList           0x08001a82   Section        0  tasks.o(i.prvListTasksWithinSingleList)
    prvListTasksWithinSingleList             0x08001a83   Thumb Code   106  tasks.o(i.prvListTasksWithinSingleList)
    i.prvNotifyQueueSetContainer             0x08001aec   Section        0  queue.o(i.prvNotifyQueueSetContainer)
    prvNotifyQueueSetContainer               0x08001aed   Thumb Code   142  queue.o(i.prvNotifyQueueSetContainer)
    i.prvProcessExpiredTimer                 0x08001bb4   Section        0  timers.o(i.prvProcessExpiredTimer)
    prvProcessExpiredTimer                   0x08001bb5   Thumb Code    62  timers.o(i.prvProcessExpiredTimer)
    i.prvProcessReceivedCommands             0x08001bf8   Section        0  timers.o(i.prvProcessReceivedCommands)
    prvProcessReceivedCommands               0x08001bf9   Thumb Code   306  timers.o(i.prvProcessReceivedCommands)
    i.prvProcessTimerOrBlockTask             0x08001d68   Section        0  timers.o(i.prvProcessTimerOrBlockTask)
    prvProcessTimerOrBlockTask               0x08001d69   Thumb Code   102  timers.o(i.prvProcessTimerOrBlockTask)
    i.prvReloadTimer                         0x08001ddc   Section        0  timers.o(i.prvReloadTimer)
    prvReloadTimer                           0x08001ddd   Thumb Code    40  timers.o(i.prvReloadTimer)
    i.prvResetNextTaskUnblockTime            0x08001e04   Section        0  tasks.o(i.prvResetNextTaskUnblockTime)
    prvResetNextTaskUnblockTime              0x08001e05   Thumb Code    40  tasks.o(i.prvResetNextTaskUnblockTime)
    i.prvSampleTimeNow                       0x08001e34   Section        0  timers.o(i.prvSampleTimeNow)
    prvSampleTimeNow                         0x08001e35   Thumb Code    40  timers.o(i.prvSampleTimeNow)
    i.prvSwitchTimerLists                    0x08001e60   Section        0  timers.o(i.prvSwitchTimerLists)
    prvSwitchTimerLists                      0x08001e61   Thumb Code    58  timers.o(i.prvSwitchTimerLists)
    i.prvTaskCheckFreeStackSpace             0x08001ea4   Section        0  tasks.o(i.prvTaskCheckFreeStackSpace)
    prvTaskCheckFreeStackSpace               0x08001ea5   Thumb Code    22  tasks.o(i.prvTaskCheckFreeStackSpace)
    i.prvTaskExitError                       0x08001ebc   Section        0  port.o(i.prvTaskExitError)
    prvTaskExitError                         0x08001ebd   Thumb Code    48  port.o(i.prvTaskExitError)
    i.prvTimerTask                           0x08001f38   Section        0  timers.o(i.prvTimerTask)
    prvTimerTask                             0x08001f39   Thumb Code    26  timers.o(i.prvTimerTask)
    i.prvUnlockQueue                         0x08001f52   Section        0  queue.o(i.prvUnlockQueue)
    prvUnlockQueue                           0x08001f53   Thumb Code   144  queue.o(i.prvUnlockQueue)
    i.prvWriteNameToBuffer                   0x08001fe2   Section        0  tasks.o(i.prvWriteNameToBuffer)
    prvWriteNameToBuffer                     0x08001fe3   Thumb Code    42  tasks.o(i.prvWriteNameToBuffer)
    i.pvPortMalloc                           0x0800200c   Section        0  heap_4.o(i.pvPortMalloc)
    i.pxPortInitialiseStack                  0x080021a0   Section        0  port.o(i.pxPortInitialiseStack)
    i.uxListRemove                           0x080021c4   Section        0  list.o(i.uxListRemove)
    i.uxTaskGetSystemState                   0x080021ec   Section        0  tasks.o(i.uxTaskGetSystemState)
    i.vListInitialise                        0x080022a4   Section        0  list.o(i.vListInitialise)
    i.vListInitialiseItem                    0x080022be   Section        0  list.o(i.vListInitialiseItem)
    i.vListInsert                            0x080022c4   Section        0  list.o(i.vListInsert)
    i.vListInsertEnd                         0x080022f8   Section        0  list.o(i.vListInsertEnd)
    i.vPortEnterCritical                     0x08002310   Section        0  port.o(i.vPortEnterCritical)
    i.vPortExitCritical                      0x080023a4   Section        0  port.o(i.vPortExitCritical)
    i.vPortFree                              0x08002420   Section        0  heap_4.o(i.vPortFree)
    i.vPortSetupTimerInterrupt               0x080024f8   Section        0  port.o(i.vPortSetupTimerInterrupt)
    i.vQueueAddToRegistry                    0x08002524   Section        0  queue.o(i.vQueueAddToRegistry)
    i.vQueueWaitForMessageRestricted         0x080025b4   Section        0  queue.o(i.vQueueWaitForMessageRestricted)
    i.vTaskDelay                             0x08002600   Section        0  tasks.o(i.vTaskDelay)
    i.vTaskDelete                            0x08002688   Section        0  tasks.o(i.vTaskDelete)
    i.vTaskGetInfo                           0x080027b0   Section        0  tasks.o(i.vTaskGetInfo)
    i.vTaskGetRunTimeStats                   0x08002834   Section        0  tasks.o(i.vTaskGetRunTimeStats)
    i.vTaskInternalSetTimeOutState           0x080028f8   Section        0  tasks.o(i.vTaskInternalSetTimeOutState)
    i.vTaskMissedYield                       0x08002910   Section        0  tasks.o(i.vTaskMissedYield)
    i.vTaskPlaceOnEventList                  0x0800291c   Section        0  tasks.o(i.vTaskPlaceOnEventList)
    i.vTaskPlaceOnEventListRestricted        0x08002984   Section        0  tasks.o(i.vTaskPlaceOnEventListRestricted)
    i.vTaskStartScheduler                    0x08002a14   Section        0  tasks.o(i.vTaskStartScheduler)
    i.vTaskSuspendAll                        0x08002ae0   Section        0  tasks.o(i.vTaskSuspendAll)
    i.vTaskSwitchContext                     0x08002af0   Section        0  tasks.o(i.vTaskSwitchContext)
    i.xPortStartScheduler                    0x08002bec   Section        0  port.o(i.xPortStartScheduler)
    i.xPortSysTickHandler                    0x08002d38   Section        0  port.o(i.xPortSysTickHandler)
    i.xQueueGenericCreate                    0x08002d6c   Section        0  queue.o(i.xQueueGenericCreate)
    i.xQueueGenericReset                     0x08002e00   Section        0  queue.o(i.xQueueGenericReset)
    i.xQueueReceive                          0x08002f00   Section        0  queue.o(i.xQueueReceive)
    i.xTaskCheckForTimeOut                   0x08003084   Section        0  tasks.o(i.xTaskCheckForTimeOut)
    i.xTaskCreate                            0x08003154   Section        0  tasks.o(i.xTaskCreate)
    i.xTaskGetSchedulerState                 0x080031b4   Section        0  tasks.o(i.xTaskGetSchedulerState)
    i.xTaskGetTickCount                      0x080031d4   Section        0  tasks.o(i.xTaskGetTickCount)
    i.xTaskIncrementTick                     0x080031e0   Section        0  tasks.o(i.xTaskIncrementTick)
    i.xTaskPriorityDisinherit                0x080033cc   Section        0  tasks.o(i.xTaskPriorityDisinherit)
    i.xTaskRemoveFromEventList               0x080034e0   Section        0  tasks.o(i.xTaskRemoveFromEventList)
    i.xTaskResumeAll                         0x08003630   Section        0  tasks.o(i.xTaskResumeAll)
    i.xTimerCreateTimerTask                  0x080037d4   Section        0  timers.o(i.xTimerCreateTimerTask)
    .data                                    0x20000000   Section       20  system_stm32f10x.o(.data)
    .data                                    0x20000014   Section        2  delay.o(.data)
    g_fac_us                                 0x20000014   Data           2  delay.o(.data)
    .data                                    0x20000018   Section        4  usart.o(.data)
    .data                                    0x2000001c   Section       20  stm32f10x_rcc.o(.data)
    APBAHBPrescTable                         0x2000001c   Data          16  stm32f10x_rcc.o(.data)
    ADCPrescTable                            0x2000002c   Data           4  stm32f10x_rcc.o(.data)
    .data                                    0x20000030   Section        1  key.o(.data)
    key_flay                                 0x20000030   Data           1  key.o(.data)
    .data                                    0x20000034   Section        4  timer.o(.data)
    .data                                    0x20000038   Section       12  freertos_demo.o(.data)
    StartTask_Handler                        0x20000038   Data           4  freertos_demo.o(.data)
    Task1_Handle                             0x2000003c   Data           4  freertos_demo.o(.data)
    Task2_Handle                             0x20000040   Data           4  freertos_demo.o(.data)
    .data                                    0x20000044   Section       72  tasks.o(.data)
    pxDelayedTaskList                        0x20000048   Data           4  tasks.o(.data)
    pxOverflowDelayedTaskList                0x2000004c   Data           4  tasks.o(.data)
    uxDeletedTasksWaitingCleanUp             0x20000050   Data           4  tasks.o(.data)
    uxCurrentNumberOfTasks                   0x20000054   Data           4  tasks.o(.data)
    xTickCount                               0x20000058   Data           4  tasks.o(.data)
    uxTopReadyPriority                       0x2000005c   Data           4  tasks.o(.data)
    xSchedulerRunning                        0x20000060   Data           4  tasks.o(.data)
    xPendedTicks                             0x20000064   Data           4  tasks.o(.data)
    xYieldPending                            0x20000068   Data           4  tasks.o(.data)
    xNumOfOverflows                          0x2000006c   Data           4  tasks.o(.data)
    uxTaskNumber                             0x20000070   Data           4  tasks.o(.data)
    xNextTaskUnblockTime                     0x20000074   Data           4  tasks.o(.data)
    xIdleTaskHandle                          0x20000078   Data           4  tasks.o(.data)
    uxSchedulerSuspended                     0x20000080   Data           4  tasks.o(.data)
    ulTaskSwitchedInTime                     0x20000084   Data           4  tasks.o(.data)
    ulTotalRunTime                           0x20000088   Data           4  tasks.o(.data)
    .data                                    0x2000008c   Section       20  timers.o(.data)
    pxCurrentTimerList                       0x2000008c   Data           4  timers.o(.data)
    pxOverflowTimerList                      0x20000090   Data           4  timers.o(.data)
    xTimerQueue                              0x20000094   Data           4  timers.o(.data)
    xTimerTaskHandle                         0x20000098   Data           4  timers.o(.data)
    xLastTime                                0x2000009c   Data           4  timers.o(.data)
    .data                                    0x200000a0   Section       12  port.o(.data)
    uxCriticalNesting                        0x200000a0   Data           4  port.o(.data)
    ucMaxSysCallPriority                     0x200000a4   Data           1  port.o(.data)
    ulMaxPRIGROUPValue                       0x200000a8   Data           4  port.o(.data)
    .data                                    0x200000ac   Section       32  heap_4.o(.data)
    xStart                                   0x200000ac   Data           8  heap_4.o(.data)
    pxEnd                                    0x200000b4   Data           4  heap_4.o(.data)
    xFreeBytesRemaining                      0x200000b8   Data           4  heap_4.o(.data)
    xMinimumEverFreeBytesRemaining           0x200000bc   Data           4  heap_4.o(.data)
    xNumberOfSuccessfulAllocations           0x200000c0   Data           4  heap_4.o(.data)
    xNumberOfSuccessfulFrees                 0x200000c4   Data           4  heap_4.o(.data)
    xBlockAllocatedBit                       0x200000c8   Data           4  heap_4.o(.data)
    .bss                                     0x200000cc   Section      500  freertos_demo.o(.bss)
    .bss                                     0x200002c0   Section       64  queue.o(.bss)
    .bss                                     0x20000300   Section      740  tasks.o(.bss)
    pxReadyTasksLists                        0x20000300   Data         640  tasks.o(.bss)
    xDelayedTaskList1                        0x20000580   Data          20  tasks.o(.bss)
    xDelayedTaskList2                        0x20000594   Data          20  tasks.o(.bss)
    xPendingReadyList                        0x200005a8   Data          20  tasks.o(.bss)
    xTasksWaitingTermination                 0x200005bc   Data          20  tasks.o(.bss)
    xSuspendedTaskList                       0x200005d0   Data          20  tasks.o(.bss)
    .bss                                     0x200005e4   Section       40  timers.o(.bss)
    xActiveTimerList1                        0x200005e4   Data          20  timers.o(.bss)
    xActiveTimerList2                        0x200005f8   Data          20  timers.o(.bss)
    .bss                                     0x2000060c   Section    10240  heap_4.o(.bss)
    ucHeap                                   0x2000060c   Data       10240  heap_4.o(.bss)
    .bss                                     0x20002e0c   Section       96  libspace.o(.bss)
    HEAP                                     0x20002e70   Section      512  startup_stm32f10x_hd.o(HEAP)
    Heap_Mem                                 0x20002e70   Data         512  startup_stm32f10x_hd.o(HEAP)
    STACK                                    0x20003070   Section     1024  startup_stm32f10x_hd.o(STACK)
    Stack_Mem                                0x20003070   Data        1024  startup_stm32f10x_hd.o(STACK)
    __initial_sp                             0x20003470   Data           0  startup_stm32f10x_hd.o(STACK)

    Global Symbols

    Symbol Name                              Value     Ov Type        Size  Object(Section)

    BuildAttributes$$THM_ISAv4$P$D$K$B$S$PE$A:L22UL41UL21$X:L11$S22US41US21$IEEE1$IW$USESV6$~STKCKD$USESV7$~SHL$OSPACE$ROPI$EBA8$UX$STANDARDLIB$REQ8$PRES8$EABIv2 0x00000000   Number         0  anon$$obj.o ABSOLUTE
    __ARM_use_no_argv                        0x00000000   Number         0  main.o ABSOLUTE
    __ARM_exceptions_init                     - Undefined Weak Reference
    __alloca_initialize                       - Undefined Weak Reference
    __arm_fini_                               - Undefined Weak Reference
    __arm_preinit_                            - Undefined Weak Reference
    __cpp_initialize__aeabi_                  - Undefined Weak Reference
    __cxa_finalize                            - Undefined Weak Reference
    __rt_locale                               - Undefined Weak Reference
    __sigvec_lookup                           - Undefined Weak Reference
    _atexit_init                              - Undefined Weak Reference
    _call_atexit_fns                          - Undefined Weak Reference
    _clock_init                               - Undefined Weak Reference
    _fp_trap_init                             - Undefined Weak Reference
    _fp_trap_shutdown                         - Undefined Weak Reference
    _get_lc_collate                           - Undefined Weak Reference
    _get_lc_ctype                             - Undefined Weak Reference
    _get_lc_monetary                          - Undefined Weak Reference
    _get_lc_numeric                           - Undefined Weak Reference
    _get_lc_time                              - Undefined Weak Reference
    _getenv_init                              - Undefined Weak Reference
    _handle_redirection                       - Undefined Weak Reference
    _init_alloc                               - Undefined Weak Reference
    _init_user_alloc                          - Undefined Weak Reference
    _initio                                   - Undefined Weak Reference
    _mutex_acquire                            - Undefined Weak Reference
    _mutex_release                            - Undefined Weak Reference
    _printf_mbtowc                            - Undefined Weak Reference
    _printf_post_padding                      - Undefined Weak Reference
    _printf_pre_padding                       - Undefined Weak Reference
    _printf_truncate_signed                   - Undefined Weak Reference
    _printf_truncate_unsigned                 - Undefined Weak Reference
    _rand_init                                - Undefined Weak Reference
    _signal_finish                            - Undefined Weak Reference
    _signal_init                              - Undefined Weak Reference
    _terminate_alloc                          - Undefined Weak Reference
    _terminate_user_alloc                     - Undefined Weak Reference
    _terminateio                              - Undefined Weak Reference
    __Vectors_Size                           0x00000130   Number         0  startup_stm32f10x_hd.o ABSOLUTE
    __Vectors                                0x08000000   Data           4  startup_stm32f10x_hd.o(RESET)
    __Vectors_End                            0x08000130   Data           0  startup_stm32f10x_hd.o(RESET)
    __main                                   0x08000131   Thumb Code     8  __main.o(!!!main)
    __scatterload                            0x08000139   Thumb Code     0  __scatter.o(!!!scatter)
    __scatterload_rt2                        0x08000139   Thumb Code    44  __scatter.o(!!!scatter)
    __scatterload_rt2_thumb_only             0x08000139   Thumb Code     0  __scatter.o(!!!scatter)
    __scatterload_null                       0x08000147   Thumb Code     0  __scatter.o(!!!scatter)
    __scatterload_copy                       0x0800016d   Thumb Code    26  __scatter_copy.o(!!handler_copy)
    __scatterload_zeroinit                   0x08000189   Thumb Code    28  __scatter_zi.o(!!handler_zi)
    _printf_d                                0x080001a5   Thumb Code     0  _printf_d.o(.ARM.Collect$$_printf_percent$$00000009)
    _printf_percent                          0x080001a5   Thumb Code     0  _printf_percent.o(.ARM.Collect$$_printf_percent$$00000000)
    _printf_u                                0x080001ab   Thumb Code     0  _printf_u.o(.ARM.Collect$$_printf_percent$$0000000A)
    _printf_s                                0x080001b1   Thumb Code     0  _printf_s.o(.ARM.Collect$$_printf_percent$$00000014)
    _printf_percent_end                      0x080001b7   Thumb Code     0  _printf_percent_end.o(.ARM.Collect$$_printf_percent$$00000017)
    __rt_lib_init                            0x080001bb   Thumb Code     0  libinit.o(.ARM.Collect$$libinit$$00000000)
    __rt_lib_init_alloca_1                   0x080001bd   Thumb Code     0  libinit2.o(.ARM.Collect$$libinit$$0000002E)
    __rt_lib_init_argv_1                     0x080001bd   Thumb Code     0  libinit2.o(.ARM.Collect$$libinit$$0000002C)
    __rt_lib_init_atexit_1                   0x080001bd   Thumb Code     0  libinit2.o(.ARM.Collect$$libinit$$0000001B)
    __rt_lib_init_clock_1                    0x080001bd   Thumb Code     0  libinit2.o(.ARM.Collect$$libinit$$00000021)
    __rt_lib_init_cpp_1                      0x080001bd   Thumb Code     0  libinit2.o(.ARM.Collect$$libinit$$00000032)
    __rt_lib_init_exceptions_1               0x080001bd   Thumb Code     0  libinit2.o(.ARM.Collect$$libinit$$00000030)
    __rt_lib_init_fp_1                       0x080001bd   Thumb Code     0  libinit2.o(.ARM.Collect$$libinit$$00000002)
    __rt_lib_init_fp_trap_1                  0x080001bd   Thumb Code     0  libinit2.o(.ARM.Collect$$libinit$$0000001F)
    __rt_lib_init_getenv_1                   0x080001bd   Thumb Code     0  libinit2.o(.ARM.Collect$$libinit$$00000023)
    __rt_lib_init_heap_1                     0x080001bd   Thumb Code     0  libinit2.o(.ARM.Collect$$libinit$$0000000A)
    __rt_lib_init_lc_collate_1               0x080001bd   Thumb Code     0  libinit2.o(.ARM.Collect$$libinit$$00000011)
    __rt_lib_init_lc_ctype_1                 0x080001bd   Thumb Code     0  libinit2.o(.ARM.Collect$$libinit$$00000013)
    __rt_lib_init_lc_monetary_1              0x080001bd   Thumb Code     0  libinit2.o(.ARM.Collect$$libinit$$00000015)
    __rt_lib_init_lc_numeric_1               0x080001bd   Thumb Code     0  libinit2.o(.ARM.Collect$$libinit$$00000017)
    __rt_lib_init_lc_time_1                  0x080001bd   Thumb Code     0  libinit2.o(.ARM.Collect$$libinit$$00000019)
    __rt_lib_init_preinit_1                  0x080001bd   Thumb Code     0  libinit2.o(.ARM.Collect$$libinit$$00000004)
    __rt_lib_init_rand_1                     0x080001bd   Thumb Code     0  libinit2.o(.ARM.Collect$$libinit$$0000000E)
    __rt_lib_init_return                     0x080001bd   Thumb Code     0  libinit2.o(.ARM.Collect$$libinit$$00000033)
    __rt_lib_init_signal_1                   0x080001bd   Thumb Code     0  libinit2.o(.ARM.Collect$$libinit$$0000001D)
    __rt_lib_init_stdio_1                    0x080001bd   Thumb Code     0  libinit2.o(.ARM.Collect$$libinit$$00000025)
    __rt_lib_init_user_alloc_1               0x080001bd   Thumb Code     0  libinit2.o(.ARM.Collect$$libinit$$0000000C)
    __rt_lib_shutdown                        0x080001bf   Thumb Code     0  libshutdown.o(.ARM.Collect$$libshutdown$$00000000)
    __rt_lib_shutdown_cpp_1                  0x080001c1   Thumb Code     0  libshutdown2.o(.ARM.Collect$$libshutdown$$00000004)
    __rt_lib_shutdown_fini_1                 0x080001c1   Thumb Code     0  libshutdown2.o(.ARM.Collect$$libshutdown$$00000002)
    __rt_lib_shutdown_fp_trap_1              0x080001c1   Thumb Code     0  libshutdown2.o(.ARM.Collect$$libshutdown$$00000009)
    __rt_lib_shutdown_heap_1                 0x080001c1   Thumb Code     0  libshutdown2.o(.ARM.Collect$$libshutdown$$00000011)
    __rt_lib_shutdown_return                 0x080001c1   Thumb Code     0  libshutdown2.o(.ARM.Collect$$libshutdown$$00000012)
    __rt_lib_shutdown_signal_1               0x080001c1   Thumb Code     0  libshutdown2.o(.ARM.Collect$$libshutdown$$0000000C)
    __rt_lib_shutdown_stdio_1                0x080001c1   Thumb Code     0  libshutdown2.o(.ARM.Collect$$libshutdown$$00000006)
    __rt_lib_shutdown_user_alloc_1           0x080001c1   Thumb Code     0  libshutdown2.o(.ARM.Collect$$libshutdown$$0000000E)
    __rt_entry                               0x080001c3   Thumb Code     0  __rtentry.o(.ARM.Collect$$rtentry$$00000000)
    __rt_entry_presh_1                       0x080001c3   Thumb Code     0  __rtentry2.o(.ARM.Collect$$rtentry$$00000002)
    __rt_entry_sh                            0x080001c3   Thumb Code     0  __rtentry4.o(.ARM.Collect$$rtentry$$00000004)
    __rt_entry_li                            0x080001c9   Thumb Code     0  __rtentry2.o(.ARM.Collect$$rtentry$$0000000A)
    __rt_entry_postsh_1                      0x080001c9   Thumb Code     0  __rtentry2.o(.ARM.Collect$$rtentry$$00000009)
    __rt_entry_main                          0x080001cd   Thumb Code     0  __rtentry2.o(.ARM.Collect$$rtentry$$0000000D)
    __rt_entry_postli_1                      0x080001cd   Thumb Code     0  __rtentry2.o(.ARM.Collect$$rtentry$$0000000C)
    __rt_exit                                0x080001d5   Thumb Code     0  rtexit.o(.ARM.Collect$$rtexit$$00000000)
    __rt_exit_ls                             0x080001d7   Thumb Code     0  rtexit2.o(.ARM.Collect$$rtexit$$00000003)
    __rt_exit_prels_1                        0x080001d7   Thumb Code     0  rtexit2.o(.ARM.Collect$$rtexit$$00000002)
    __rt_exit_exit                           0x080001db   Thumb Code     0  rtexit2.o(.ARM.Collect$$rtexit$$00000004)
    SVC_Handler                              0x080001e1   Thumb Code    32  port.o(.emb_text)
    __asm___6_port_c_39a90d8d__prvStartFirstTask 0x08000205   Thumb Code    28  port.o(.emb_text)
    PendSV_Handler                           0x08000225   Thumb Code    72  port.o(.emb_text)
    vPortGetIPSR                             0x08000271   Thumb Code     6  port.o(.emb_text)
    Reset_Handler                            0x08000279   Thumb Code     8  startup_stm32f10x_hd.o(.text)
    ADC1_2_IRQHandler                        0x08000293   Thumb Code     0  startup_stm32f10x_hd.o(.text)
    ADC3_IRQHandler                          0x08000293   Thumb Code     0  startup_stm32f10x_hd.o(.text)
    CAN1_RX1_IRQHandler                      0x08000293   Thumb Code     0  startup_stm32f10x_hd.o(.text)
    CAN1_SCE_IRQHandler                      0x08000293   Thumb Code     0  startup_stm32f10x_hd.o(.text)
    DMA1_Channel1_IRQHandler                 0x08000293   Thumb Code     0  startup_stm32f10x_hd.o(.text)
    DMA1_Channel2_IRQHandler                 0x08000293   Thumb Code     0  startup_stm32f10x_hd.o(.text)
    DMA1_Channel3_IRQHandler                 0x08000293   Thumb Code     0  startup_stm32f10x_hd.o(.text)
    DMA1_Channel4_IRQHandler                 0x08000293   Thumb Code     0  startup_stm32f10x_hd.o(.text)
    DMA1_Channel5_IRQHandler                 0x08000293   Thumb Code     0  startup_stm32f10x_hd.o(.text)
    DMA1_Channel6_IRQHandler                 0x08000293   Thumb Code     0  startup_stm32f10x_hd.o(.text)
    DMA1_Channel7_IRQHandler                 0x08000293   Thumb Code     0  startup_stm32f10x_hd.o(.text)
    DMA2_Channel1_IRQHandler                 0x08000293   Thumb Code     0  startup_stm32f10x_hd.o(.text)
    DMA2_Channel2_IRQHandler                 0x08000293   Thumb Code     0  startup_stm32f10x_hd.o(.text)
    DMA2_Channel3_IRQHandler                 0x08000293   Thumb Code     0  startup_stm32f10x_hd.o(.text)
    DMA2_Channel4_5_IRQHandler               0x08000293   Thumb Code     0  startup_stm32f10x_hd.o(.text)
    EXTI0_IRQHandler                         0x08000293   Thumb Code     0  startup_stm32f10x_hd.o(.text)
    EXTI15_10_IRQHandler                     0x08000293   Thumb Code     0  startup_stm32f10x_hd.o(.text)
    EXTI1_IRQHandler                         0x08000293   Thumb Code     0  startup_stm32f10x_hd.o(.text)
    EXTI2_IRQHandler                         0x08000293   Thumb Code     0  startup_stm32f10x_hd.o(.text)
    EXTI3_IRQHandler                         0x08000293   Thumb Code     0  startup_stm32f10x_hd.o(.text)
    EXTI4_IRQHandler                         0x08000293   Thumb Code     0  startup_stm32f10x_hd.o(.text)
    EXTI9_5_IRQHandler                       0x08000293   Thumb Code     0  startup_stm32f10x_hd.o(.text)
    FLASH_IRQHandler                         0x08000293   Thumb Code     0  startup_stm32f10x_hd.o(.text)
    FSMC_IRQHandler                          0x08000293   Thumb Code     0  startup_stm32f10x_hd.o(.text)
    I2C1_ER_IRQHandler                       0x08000293   Thumb Code     0  startup_stm32f10x_hd.o(.text)
    I2C1_EV_IRQHandler                       0x08000293   Thumb Code     0  startup_stm32f10x_hd.o(.text)
    I2C2_ER_IRQHandler                       0x08000293   Thumb Code     0  startup_stm32f10x_hd.o(.text)
    I2C2_EV_IRQHandler                       0x08000293   Thumb Code     0  startup_stm32f10x_hd.o(.text)
    PVD_IRQHandler                           0x08000293   Thumb Code     0  startup_stm32f10x_hd.o(.text)
    RCC_IRQHandler                           0x08000293   Thumb Code     0  startup_stm32f10x_hd.o(.text)
    RTCAlarm_IRQHandler                      0x08000293   Thumb Code     0  startup_stm32f10x_hd.o(.text)
    RTC_IRQHandler                           0x08000293   Thumb Code     0  startup_stm32f10x_hd.o(.text)
    SDIO_IRQHandler                          0x08000293   Thumb Code     0  startup_stm32f10x_hd.o(.text)
    SPI1_IRQHandler                          0x08000293   Thumb Code     0  startup_stm32f10x_hd.o(.text)
    SPI2_IRQHandler                          0x08000293   Thumb Code     0  startup_stm32f10x_hd.o(.text)
    SPI3_IRQHandler                          0x08000293   Thumb Code     0  startup_stm32f10x_hd.o(.text)
    TAMPER_IRQHandler                        0x08000293   Thumb Code     0  startup_stm32f10x_hd.o(.text)
    TIM1_BRK_IRQHandler                      0x08000293   Thumb Code     0  startup_stm32f10x_hd.o(.text)
    TIM1_CC_IRQHandler                       0x08000293   Thumb Code     0  startup_stm32f10x_hd.o(.text)
    TIM1_TRG_COM_IRQHandler                  0x08000293   Thumb Code     0  startup_stm32f10x_hd.o(.text)
    TIM1_UP_IRQHandler                       0x08000293   Thumb Code     0  startup_stm32f10x_hd.o(.text)
    TIM2_IRQHandler                          0x08000293   Thumb Code     0  startup_stm32f10x_hd.o(.text)
    TIM3_IRQHandler                          0x08000293   Thumb Code     0  startup_stm32f10x_hd.o(.text)
    TIM4_IRQHandler                          0x08000293   Thumb Code     0  startup_stm32f10x_hd.o(.text)
    TIM5_IRQHandler                          0x08000293   Thumb Code     0  startup_stm32f10x_hd.o(.text)
    TIM7_IRQHandler                          0x08000293   Thumb Code     0  startup_stm32f10x_hd.o(.text)
    TIM8_BRK_IRQHandler                      0x08000293   Thumb Code     0  startup_stm32f10x_hd.o(.text)
    TIM8_CC_IRQHandler                       0x08000293   Thumb Code     0  startup_stm32f10x_hd.o(.text)
    TIM8_TRG_COM_IRQHandler                  0x08000293   Thumb Code     0  startup_stm32f10x_hd.o(.text)
    TIM8_UP_IRQHandler                       0x08000293   Thumb Code     0  startup_stm32f10x_hd.o(.text)
    UART4_IRQHandler                         0x08000293   Thumb Code     0  startup_stm32f10x_hd.o(.text)
    UART5_IRQHandler                         0x08000293   Thumb Code     0  startup_stm32f10x_hd.o(.text)
    USART1_IRQHandler                        0x08000293   Thumb Code     0  startup_stm32f10x_hd.o(.text)
    USART2_IRQHandler                        0x08000293   Thumb Code     0  startup_stm32f10x_hd.o(.text)
    USART3_IRQHandler                        0x08000293   Thumb Code     0  startup_stm32f10x_hd.o(.text)
    USBWakeUp_IRQHandler                     0x08000293   Thumb Code     0  startup_stm32f10x_hd.o(.text)
    USB_HP_CAN1_TX_IRQHandler                0x08000293   Thumb Code     0  startup_stm32f10x_hd.o(.text)
    USB_LP_CAN1_RX0_IRQHandler               0x08000293   Thumb Code     0  startup_stm32f10x_hd.o(.text)
    WWDG_IRQHandler                          0x08000293   Thumb Code     0  startup_stm32f10x_hd.o(.text)
    __user_initial_stackheap                 0x08000295   Thumb Code     0  startup_stm32f10x_hd.o(.text)
    __use_no_semihosting                     0x080002b9   Thumb Code     2  use_no_semi_2.o(.text)
    __2printf                                0x080002bd   Thumb Code    20  noretval__2printf.o(.text)
    __2sprintf                               0x080002d5   Thumb Code    34  noretval__2sprintf.o(.text)
    __printf                                 0x080002fd   Thumb Code   104  __printf.o(.text)
    _printf_str                              0x08000365   Thumb Code    82  _printf_str.o(.text)
    _printf_int_dec                          0x080003b9   Thumb Code   104  _printf_dec.o(.text)
    strcpy                                   0x08000431   Thumb Code    72  strcpy.o(.text)
    strlen                                   0x08000479   Thumb Code    62  strlen.o(.text)
    __aeabi_memcpy                           0x080004b7   Thumb Code     0  rt_memcpy_v6.o(.text)
    __rt_memcpy                              0x080004b7   Thumb Code   138  rt_memcpy_v6.o(.text)
    _memcpy_lastbytes                        0x0800051d   Thumb Code     0  rt_memcpy_v6.o(.text)
    __aeabi_memset                           0x08000541   Thumb Code    16  aeabi_memset.o(.text)
    __aeabi_memclr4                          0x08000551   Thumb Code     0  rt_memclr_w.o(.text)
    __aeabi_memclr8                          0x08000551   Thumb Code     0  rt_memclr_w.o(.text)
    __rt_memclr_w                            0x08000551   Thumb Code    78  rt_memclr_w.o(.text)
    _memset_w                                0x08000555   Thumb Code     0  rt_memclr_w.o(.text)
    __use_two_region_memory                  0x0800059f   Thumb Code     2  heapauxi.o(.text)
    __rt_heap_escrow$2region                 0x080005a1   Thumb Code     2  heapauxi.o(.text)
    __rt_heap_expand$2region                 0x080005a3   Thumb Code     2  heapauxi.o(.text)
    __I$use$semihosting                      0x080005a5   Thumb Code     0  use_no_semi.o(.text)
    __use_no_semihosting_swi                 0x080005a5   Thumb Code     2  use_no_semi.o(.text)
    _printf_int_common                       0x080005a7   Thumb Code   178  _printf_intcommon.o(.text)
    _printf_char_common                      0x08000663   Thumb Code    32  _printf_char_common.o(.text)
    _sputc                                   0x08000689   Thumb Code    10  _sputc.o(.text)
    _printf_cs_common                        0x08000693   Thumb Code    20  _printf_char.o(.text)
    _printf_char                             0x080006a7   Thumb Code    16  _printf_char.o(.text)
    _printf_string                           0x080006b7   Thumb Code     8  _printf_char.o(.text)
    _printf_char_file                        0x080006c1   Thumb Code    32  _printf_char_file.o(.text)
    __aeabi_memcpy4                          0x080006e5   Thumb Code     0  rt_memcpy_w.o(.text)
    __aeabi_memcpy8                          0x080006e5   Thumb Code     0  rt_memcpy_w.o(.text)
    __rt_memcpy_w                            0x080006e5   Thumb Code   100  rt_memcpy_w.o(.text)
    _memcpy_lastbytes_aligned                0x0800072d   Thumb Code     0  rt_memcpy_w.o(.text)
    __aeabi_memclr                           0x08000749   Thumb Code     0  rt_memclr.o(.text)
    __rt_memclr                              0x08000749   Thumb Code    68  rt_memclr.o(.text)
    _memset                                  0x0800074d   Thumb Code     0  rt_memclr.o(.text)
    ferror                                   0x0800078d   Thumb Code     8  ferror.o(.text)
    __user_setup_stackheap                   0x08000795   Thumb Code    74  sys_stackheap_outer.o(.text)
    exit                                     0x080007df   Thumb Code    18  exit.o(.text)
    __user_libspace                          0x080007f1   Thumb Code     8  libspace.o(.text)
    __user_perproc_libspace                  0x080007f1   Thumb Code     0  libspace.o(.text)
    __user_perthread_libspace                0x080007f1   Thumb Code     0  libspace.o(.text)
    BusFault_Handler                         0x080007f9   Thumb Code     4  stm32f10x_it.o(i.BusFault_Handler)
    ConfigureTimeForRunTimeStats             0x080007fd   Thumb Code    18  timer.o(i.ConfigureTimeForRunTimeStats)
    DebugMon_Handler                         0x08000815   Thumb Code     2  stm32f10x_it.o(i.DebugMon_Handler)
    GPIO_Init                                0x08000817   Thumb Code   278  stm32f10x_gpio.o(i.GPIO_Init)
    GPIO_ReadInputDataBit                    0x0800092d   Thumb Code    18  stm32f10x_gpio.o(i.GPIO_ReadInputDataBit)
    GPIO_SetBits                             0x0800093f   Thumb Code     4  stm32f10x_gpio.o(i.GPIO_SetBits)
    HardFault_Handler                        0x08000943   Thumb Code     4  stm32f10x_it.o(i.HardFault_Handler)
    KEY_Init                                 0x08000949   Thumb Code    60  key.o(i.KEY_Init)
    KEY_Scan                                 0x0800098d   Thumb Code   172  key.o(i.KEY_Scan)
    LED_Init                                 0x08000a45   Thumb Code    76  led.o(i.LED_Init)
    MemManage_Handler                        0x08000a99   Thumb Code     4  stm32f10x_it.o(i.MemManage_Handler)
    NMI_Handler                              0x08000a9d   Thumb Code     2  stm32f10x_it.o(i.NMI_Handler)
    NVIC_Init                                0x08000aa1   Thumb Code   100  misc.o(i.NVIC_Init)
    NVIC_PriorityGroupConfig                 0x08000b11   Thumb Code    10  misc.o(i.NVIC_PriorityGroupConfig)
    RCC_APB1PeriphClockCmd                   0x08000b25   Thumb Code    26  stm32f10x_rcc.o(i.RCC_APB1PeriphClockCmd)
    RCC_APB2PeriphClockCmd                   0x08000b45   Thumb Code    26  stm32f10x_rcc.o(i.RCC_APB2PeriphClockCmd)
    RCC_GetClocksFreq                        0x08000b65   Thumb Code   192  stm32f10x_rcc.o(i.RCC_GetClocksFreq)
    SysTick_Handler                          0x08000e0d   Thumb Code    16  delay.o(i.SysTick_Handler)
    SysTick_Init                             0x08000e1d   Thumb Code    78  delay.o(i.SysTick_Init)
    SystemInit                               0x08000e71   Thumb Code    78  system_stm32f10x.o(i.SystemInit)
    TIM6_IRQHandler                          0x08000ed1   Thumb Code    32  timer.o(i.TIM6_IRQHandler)
    TIM6_Init                                0x08000ef9   Thumb Code    80  timer.o(i.TIM6_Init)
    TIM_ClearITPendingBit                    0x08000f4d   Thumb Code     6  stm32f10x_tim.o(i.TIM_ClearITPendingBit)
    TIM_Cmd                                  0x08000f53   Thumb Code    24  stm32f10x_tim.o(i.TIM_Cmd)
    TIM_GetITStatus                          0x08000f6b   Thumb Code    34  stm32f10x_tim.o(i.TIM_GetITStatus)
    TIM_ITConfig                             0x08000f8d   Thumb Code    18  stm32f10x_tim.o(i.TIM_ITConfig)
    TIM_TimeBaseInit                         0x08000fa1   Thumb Code   122  stm32f10x_tim.o(i.TIM_TimeBaseInit)
    USART1_Init                              0x080010a1   Thumb Code   118  usart.o(i.USART1_Init)
    USART_Cmd                                0x08001121   Thumb Code    24  stm32f10x_usart.o(i.USART_Cmd)
    USART_Init                               0x08001139   Thumb Code   210  stm32f10x_usart.o(i.USART_Init)
    UsageFault_Handler                       0x08001211   Thumb Code     4  stm32f10x_it.o(i.UsageFault_Handler)
    _sys_exit                                0x08001215   Thumb Code     4  usart.o(i._sys_exit)
    delay_ms                                 0x08001219   Thumb Code    24  delay.o(i.delay_ms)
    delay_us                                 0x08001231   Thumb Code    68  delay.o(i.delay_us)
    eTaskGetState                            0x08001279   Thumb Code   132  tasks.o(i.eTaskGetState)
    fputc                                    0x08001349   Thumb Code    24  usart.o(i.fputc)
    freeRTOS_demo                            0x08001365   Thumb Code    50  freertos_demo.o(i.freeRTOS_demo)
    main                                     0x080013f1   Thumb Code    40  main.o(i.main)
    pvPortMalloc                             0x0800200d   Thumb Code   306  heap_4.o(i.pvPortMalloc)
    pxPortInitialiseStack                    0x080021a1   Thumb Code    30  port.o(i.pxPortInitialiseStack)
    uxListRemove                             0x080021c5   Thumb Code    40  list.o(i.uxListRemove)
    uxTaskGetSystemState                     0x080021ed   Thumb Code   154  tasks.o(i.uxTaskGetSystemState)
    vListInitialise                          0x080022a5   Thumb Code    26  list.o(i.vListInitialise)
    vListInitialiseItem                      0x080022bf   Thumb Code     6  list.o(i.vListInitialiseItem)
    vListInsert                              0x080022c5   Thumb Code    52  list.o(i.vListInsert)
    vListInsertEnd                           0x080022f9   Thumb Code    24  list.o(i.vListInsertEnd)
    vPortEnterCritical                       0x08002311   Thumb Code    68  port.o(i.vPortEnterCritical)
    vPortExitCritical                        0x080023a5   Thumb Code    48  port.o(i.vPortExitCritical)
    vPortFree                                0x08002421   Thumb Code   130  heap_4.o(i.vPortFree)
    vPortSetupTimerInterrupt                 0x080024f9   Thumb Code    38  port.o(i.vPortSetupTimerInterrupt)
    vQueueAddToRegistry                      0x08002525   Thumb Code    84  queue.o(i.vQueueAddToRegistry)
    vQueueWaitForMessageRestricted           0x080025b5   Thumb Code    74  queue.o(i.vQueueWaitForMessageRestricted)
    vTaskDelay                               0x08002601   Thumb Code    72  tasks.o(i.vTaskDelay)
    vTaskDelete                              0x08002689   Thumb Code   200  tasks.o(i.vTaskDelete)
    vTaskGetInfo                             0x080027b1   Thumb Code   126  tasks.o(i.vTaskGetInfo)
    vTaskGetRunTimeStats                     0x08002835   Thumb Code   168  tasks.o(i.vTaskGetRunTimeStats)
    vTaskInternalSetTimeOutState             0x080028f9   Thumb Code    14  tasks.o(i.vTaskInternalSetTimeOutState)
    vTaskMissedYield                         0x08002911   Thumb Code     8  tasks.o(i.vTaskMissedYield)
    vTaskPlaceOnEventList                    0x0800291d   Thumb Code    42  tasks.o(i.vTaskPlaceOnEventList)
    vTaskPlaceOnEventListRestricted          0x08002985   Thumb Code    84  tasks.o(i.vTaskPlaceOnEventListRestricted)
    vTaskStartScheduler                      0x08002a15   Thumb Code   116  tasks.o(i.vTaskStartScheduler)
    vTaskSuspendAll                          0x08002ae1   Thumb Code    12  tasks.o(i.vTaskSuspendAll)
    vTaskSwitchContext                       0x08002af1   Thumb Code   162  tasks.o(i.vTaskSwitchContext)
    xPortStartScheduler                      0x08002bed   Thumb Code   240  port.o(i.xPortStartScheduler)
    xPortSysTickHandler                      0x08002d39   Thumb Code    46  port.o(i.xPortSysTickHandler)
    xQueueGenericCreate                      0x08002d6d   Thumb Code    92  queue.o(i.xQueueGenericCreate)
    xQueueGenericReset                       0x08002e01   Thumb Code   194  queue.o(i.xQueueGenericReset)
    xQueueReceive                            0x08002f01   Thumb Code   326  queue.o(i.xQueueReceive)
    xTaskCheckForTimeOut                     0x08003085   Thumb Code   140  tasks.o(i.xTaskCheckForTimeOut)
    xTaskCreate                              0x08003155   Thumb Code    96  tasks.o(i.xTaskCreate)
    xTaskGetSchedulerState                   0x080031b5   Thumb Code    24  tasks.o(i.xTaskGetSchedulerState)
    xTaskGetTickCount                        0x080031d5   Thumb Code     6  tasks.o(i.xTaskGetTickCount)
    xTaskIncrementTick                       0x080031e1   Thumb Code   390  tasks.o(i.xTaskIncrementTick)
    xTaskPriorityDisinherit                  0x080033cd   Thumb Code   206  tasks.o(i.xTaskPriorityDisinherit)
    xTaskRemoveFromEventList                 0x080034e1   Thumb Code   254  tasks.o(i.xTaskRemoveFromEventList)
    xTaskResumeAll                           0x08003631   Thumb Code   328  tasks.o(i.xTaskResumeAll)
    xTimerCreateTimerTask                    0x080037d5   Thumb Code    56  timers.o(i.xTimerCreateTimerTask)
    Region$$Table$$Base                      0x08003858   Number         0  anon$$obj.o(Region$$Table)
    Region$$Table$$Limit                     0x08003878   Number         0  anon$$obj.o(Region$$Table)
    SystemCoreClock                          0x20000000   Data           4  system_stm32f10x.o(.data)
    AHBPrescTable                            0x20000004   Data          16  system_stm32f10x.o(.data)
    __stdout                                 0x20000018   Data           4  usart.o(.data)
    FreeRTOSRunTimeTicks                     0x20000034   Data           4  timer.o(.data)
    pxCurrentTCB                             0x20000044   Data           4  tasks.o(.data)
    uxTopUsedPriority                        0x2000007c   Data           4  tasks.o(.data)
    task_buff                                0x200000cc   Data         500  freertos_demo.o(.bss)
    xQueueRegistry                           0x200002c0   Data          64  queue.o(.bss)
    __libspace_start                         0x20002e0c   Data          96  libspace.o(.bss)
    __temporary_stack_top$libspace           0x20002e6c   Data           0  libspace.o(.bss)



==============================================================================

Memory Map of the image

  Image Entry point : 0x08000131

  Load Region LR_IROM1 (Base: 0x08000000, Size: 0x00003944, Max: 0x00080000, ABSOLUTE)

    Execution Region ER_IROM1 (Exec base: 0x08000000, Load base: 0x08000000, Size: 0x00003878, Max: 0x00080000, ABSOLUTE)

    Exec Addr    Load Addr    Size         Type   Attr      Idx    E Section Name        Object

    0x08000000   0x08000000   0x00000130   Data   RO            3    RESET               startup_stm32f10x_hd.o
    0x08000130   0x08000130   0x00000008   Code   RO         2922  * !!!main             c_w.l(__main.o)
    0x08000138   0x08000138   0x00000034   Code   RO         3100    !!!scatter          c_w.l(__scatter.o)
    0x0800016c   0x0800016c   0x0000001a   Code   RO         3102    !!handler_copy      c_w.l(__scatter_copy.o)
    0x08000186   0x08000186   0x00000002   PAD
    0x08000188   0x08000188   0x0000001c   Code   RO         3104    !!handler_zi        c_w.l(__scatter_zi.o)
    0x080001a4   0x080001a4   0x00000000   Code   RO         2907    .ARM.Collect$$_printf_percent$$00000000  c_w.l(_printf_percent.o)
    0x080001a4   0x080001a4   0x00000006   Code   RO         2905    .ARM.Collect$$_printf_percent$$00000009  c_w.l(_printf_d.o)
    0x080001aa   0x080001aa   0x00000006   Code   RO         2906    .ARM.Collect$$_printf_percent$$0000000A  c_w.l(_printf_u.o)
    0x080001b0   0x080001b0   0x00000006   Code   RO         2904    .ARM.Collect$$_printf_percent$$00000014  c_w.l(_printf_s.o)
    0x080001b6   0x080001b6   0x00000004   Code   RO         2937    .ARM.Collect$$_printf_percent$$00000017  c_w.l(_printf_percent_end.o)
    0x080001ba   0x080001ba   0x00000002   Code   RO         2972    .ARM.Collect$$libinit$$00000000  c_w.l(libinit.o)
    0x080001bc   0x080001bc   0x00000000   Code   RO         2979    .ARM.Collect$$libinit$$00000002  c_w.l(libinit2.o)
    0x080001bc   0x080001bc   0x00000000   Code   RO         2981    .ARM.Collect$$libinit$$00000004  c_w.l(libinit2.o)
    0x080001bc   0x080001bc   0x00000000   Code   RO         2984    .ARM.Collect$$libinit$$0000000A  c_w.l(libinit2.o)
    0x080001bc   0x080001bc   0x00000000   Code   RO         2986    .ARM.Collect$$libinit$$0000000C  c_w.l(libinit2.o)
    0x080001bc   0x080001bc   0x00000000   Code   RO         2988    .ARM.Collect$$libinit$$0000000E  c_w.l(libinit2.o)
    0x080001bc   0x080001bc   0x00000000   Code   RO         2991    .ARM.Collect$$libinit$$00000011  c_w.l(libinit2.o)
    0x080001bc   0x080001bc   0x00000000   Code   RO         2993    .ARM.Collect$$libinit$$00000013  c_w.l(libinit2.o)
    0x080001bc   0x080001bc   0x00000000   Code   RO         2995    .ARM.Collect$$libinit$$00000015  c_w.l(libinit2.o)
    0x080001bc   0x080001bc   0x00000000   Code   RO         2997    .ARM.Collect$$libinit$$00000017  c_w.l(libinit2.o)
    0x080001bc   0x080001bc   0x00000000   Code   RO         2999    .ARM.Collect$$libinit$$00000019  c_w.l(libinit2.o)
    0x080001bc   0x080001bc   0x00000000   Code   RO         3001    .ARM.Collect$$libinit$$0000001B  c_w.l(libinit2.o)
    0x080001bc   0x080001bc   0x00000000   Code   RO         3003    .ARM.Collect$$libinit$$0000001D  c_w.l(libinit2.o)
    0x080001bc   0x080001bc   0x00000000   Code   RO         3005    .ARM.Collect$$libinit$$0000001F  c_w.l(libinit2.o)
    0x080001bc   0x080001bc   0x00000000   Code   RO         3007    .ARM.Collect$$libinit$$00000021  c_w.l(libinit2.o)
    0x080001bc   0x080001bc   0x00000000   Code   RO         3009    .ARM.Collect$$libinit$$00000023  c_w.l(libinit2.o)
    0x080001bc   0x080001bc   0x00000000   Code   RO         3011    .ARM.Collect$$libinit$$00000025  c_w.l(libinit2.o)
    0x080001bc   0x080001bc   0x00000000   Code   RO         3015    .ARM.Collect$$libinit$$0000002C  c_w.l(libinit2.o)
    0x080001bc   0x080001bc   0x00000000   Code   RO         3017    .ARM.Collect$$libinit$$0000002E  c_w.l(libinit2.o)
    0x080001bc   0x080001bc   0x00000000   Code   RO         3019    .ARM.Collect$$libinit$$00000030  c_w.l(libinit2.o)
    0x080001bc   0x080001bc   0x00000000   Code   RO         3021    .ARM.Collect$$libinit$$00000032  c_w.l(libinit2.o)
    0x080001bc   0x080001bc   0x00000002   Code   RO         3022    .ARM.Collect$$libinit$$00000033  c_w.l(libinit2.o)
    0x080001be   0x080001be   0x00000002   Code   RO         3040    .ARM.Collect$$libshutdown$$00000000  c_w.l(libshutdown.o)
    0x080001c0   0x080001c0   0x00000000   Code   RO         3050    .ARM.Collect$$libshutdown$$00000002  c_w.l(libshutdown2.o)
    0x080001c0   0x080001c0   0x00000000   Code   RO         3052    .ARM.Collect$$libshutdown$$00000004  c_w.l(libshutdown2.o)
    0x080001c0   0x080001c0   0x00000000   Code   RO         3054    .ARM.Collect$$libshutdown$$00000006  c_w.l(libshutdown2.o)
    0x080001c0   0x080001c0   0x00000000   Code   RO         3057    .ARM.Collect$$libshutdown$$00000009  c_w.l(libshutdown2.o)
    0x080001c0   0x080001c0   0x00000000   Code   RO         3060    .ARM.Collect$$libshutdown$$0000000C  c_w.l(libshutdown2.o)
    0x080001c0   0x080001c0   0x00000000   Code   RO         3062    .ARM.Collect$$libshutdown$$0000000E  c_w.l(libshutdown2.o)
    0x080001c0   0x080001c0   0x00000000   Code   RO         3065    .ARM.Collect$$libshutdown$$00000011  c_w.l(libshutdown2.o)
    0x080001c0   0x080001c0   0x00000002   Code   RO         3066    .ARM.Collect$$libshutdown$$00000012  c_w.l(libshutdown2.o)
    0x080001c2   0x080001c2   0x00000000   Code   RO         2926    .ARM.Collect$$rtentry$$00000000  c_w.l(__rtentry.o)
    0x080001c2   0x080001c2   0x00000000   Code   RO         2943    .ARM.Collect$$rtentry$$00000002  c_w.l(__rtentry2.o)
    0x080001c2   0x080001c2   0x00000006   Code   RO         2955    .ARM.Collect$$rtentry$$00000004  c_w.l(__rtentry4.o)
    0x080001c8   0x080001c8   0x00000000   Code   RO         2945    .ARM.Collect$$rtentry$$00000009  c_w.l(__rtentry2.o)
    0x080001c8   0x080001c8   0x00000004   Code   RO         2946    .ARM.Collect$$rtentry$$0000000A  c_w.l(__rtentry2.o)
    0x080001cc   0x080001cc   0x00000000   Code   RO         2948    .ARM.Collect$$rtentry$$0000000C  c_w.l(__rtentry2.o)
    0x080001cc   0x080001cc   0x00000008   Code   RO         2949    .ARM.Collect$$rtentry$$0000000D  c_w.l(__rtentry2.o)
    0x080001d4   0x080001d4   0x00000002   Code   RO         2976    .ARM.Collect$$rtexit$$00000000  c_w.l(rtexit.o)
    0x080001d6   0x080001d6   0x00000000   Code   RO         3024    .ARM.Collect$$rtexit$$00000002  c_w.l(rtexit2.o)
    0x080001d6   0x080001d6   0x00000004   Code   RO         3025    .ARM.Collect$$rtexit$$00000003  c_w.l(rtexit2.o)
    0x080001da   0x080001da   0x00000006   Code   RO         3026    .ARM.Collect$$rtexit$$00000004  c_w.l(rtexit2.o)
    0x080001e0   0x080001e0   0x00000096   Code   RO         2733    .emb_text           port.o
    0x08000276   0x08000276   0x00000002   PAD
    0x08000278   0x08000278   0x00000040   Code   RO            4    .text               startup_stm32f10x_hd.o
    0x080002b8   0x080002b8   0x00000002   Code   RO         2867    .text               c_w.l(use_no_semi_2.o)
    0x080002ba   0x080002ba   0x00000002   PAD
    0x080002bc   0x080002bc   0x00000018   Code   RO         2873    .text               c_w.l(noretval__2printf.o)
    0x080002d4   0x080002d4   0x00000028   Code   RO         2875    .text               c_w.l(noretval__2sprintf.o)
    0x080002fc   0x080002fc   0x00000068   Code   RO         2877    .text               c_w.l(__printf.o)
    0x08000364   0x08000364   0x00000052   Code   RO         2879    .text               c_w.l(_printf_str.o)
    0x080003b6   0x080003b6   0x00000002   PAD
    0x080003b8   0x080003b8   0x00000078   Code   RO         2881    .text               c_w.l(_printf_dec.o)
    0x08000430   0x08000430   0x00000048   Code   RO         2908    .text               c_w.l(strcpy.o)
    0x08000478   0x08000478   0x0000003e   Code   RO         2910    .text               c_w.l(strlen.o)
    0x080004b6   0x080004b6   0x0000008a   Code   RO         2912    .text               c_w.l(rt_memcpy_v6.o)
    0x08000540   0x08000540   0x00000010   Code   RO         2916    .text               c_w.l(aeabi_memset.o)
    0x08000550   0x08000550   0x0000004e   Code   RO         2918    .text               c_w.l(rt_memclr_w.o)
    0x0800059e   0x0800059e   0x00000006   Code   RO         2920    .text               c_w.l(heapauxi.o)
    0x080005a4   0x080005a4   0x00000002   Code   RO         2924    .text               c_w.l(use_no_semi.o)
    0x080005a6   0x080005a6   0x000000b2   Code   RO         2927    .text               c_w.l(_printf_intcommon.o)
    0x08000658   0x08000658   0x00000030   Code   RO         2929    .text               c_w.l(_printf_char_common.o)
    0x08000688   0x08000688   0x0000000a   Code   RO         2931    .text               c_w.l(_sputc.o)
    0x08000692   0x08000692   0x0000002c   Code   RO         2933    .text               c_w.l(_printf_char.o)
    0x080006be   0x080006be   0x00000002   PAD
    0x080006c0   0x080006c0   0x00000024   Code   RO         2935    .text               c_w.l(_printf_char_file.o)
    0x080006e4   0x080006e4   0x00000064   Code   RO         2938    .text               c_w.l(rt_memcpy_w.o)
    0x08000748   0x08000748   0x00000044   Code   RO         2940    .text               c_w.l(rt_memclr.o)
    0x0800078c   0x0800078c   0x00000008   Code   RO         2959    .text               c_w.l(ferror.o)
    0x08000794   0x08000794   0x0000004a   Code   RO         2963    .text               c_w.l(sys_stackheap_outer.o)
    0x080007de   0x080007de   0x00000012   Code   RO         2965    .text               c_w.l(exit.o)
    0x080007f0   0x080007f0   0x00000008   Code   RO         2973    .text               c_w.l(libspace.o)
    0x080007f8   0x080007f8   0x00000004   Code   RO          175    i.BusFault_Handler  stm32f10x_it.o
    0x080007fc   0x080007fc   0x00000018   Code   RO         1478    i.ConfigureTimeForRunTimeStats  timer.o
    0x08000814   0x08000814   0x00000002   Code   RO          176    i.DebugMon_Handler  stm32f10x_it.o
    0x08000816   0x08000816   0x00000116   Code   RO          587    i.GPIO_Init         stm32f10x_gpio.o
    0x0800092c   0x0800092c   0x00000012   Code   RO          591    i.GPIO_ReadInputDataBit  stm32f10x_gpio.o
    0x0800093e   0x0800093e   0x00000004   Code   RO          595    i.GPIO_SetBits      stm32f10x_gpio.o
    0x08000942   0x08000942   0x00000004   Code   RO          177    i.HardFault_Handler  stm32f10x_it.o
    0x08000946   0x08000946   0x00000002   PAD
    0x08000948   0x08000948   0x00000044   Code   RO         1459    i.KEY_Init          key.o
    0x0800098c   0x0800098c   0x000000b8   Code   RO         1460    i.KEY_Scan          key.o
    0x08000a44   0x08000a44   0x00000054   Code   RO         1447    i.LED_Init          led.o
    0x08000a98   0x08000a98   0x00000004   Code   RO          178    i.MemManage_Handler  stm32f10x_it.o
    0x08000a9c   0x08000a9c   0x00000002   Code   RO          179    i.NMI_Handler       stm32f10x_it.o
    0x08000a9e   0x08000a9e   0x00000002   PAD
    0x08000aa0   0x08000aa0   0x00000070   Code   RO          345    i.NVIC_Init         misc.o
    0x08000b10   0x08000b10   0x00000014   Code   RO          346    i.NVIC_PriorityGroupConfig  misc.o
    0x08000b24   0x08000b24   0x00000020   Code   RO          383    i.RCC_APB1PeriphClockCmd  stm32f10x_rcc.o
    0x08000b44   0x08000b44   0x00000020   Code   RO          385    i.RCC_APB2PeriphClockCmd  stm32f10x_rcc.o
    0x08000b64   0x08000b64   0x000000d4   Code   RO          393    i.RCC_GetClocksFreq  stm32f10x_rcc.o
    0x08000c38   0x08000c38   0x00000008   Code   RO          220    i.SetSysClock       system_stm32f10x.o
    0x08000c40   0x08000c40   0x000000e0   Code   RO          221    i.SetSysClockTo72   system_stm32f10x.o
    0x08000d20   0x08000d20   0x000000ec   Code   RO         1508    i.StartTaskCreate   freertos_demo.o
    0x08000e0c   0x08000e0c   0x00000010   Code   RO          282    i.SysTick_Handler   delay.o
    0x08000e1c   0x08000e1c   0x00000054   Code   RO          283    i.SysTick_Init      delay.o
    0x08000e70   0x08000e70   0x00000060   Code   RO          223    i.SystemInit        system_stm32f10x.o
    0x08000ed0   0x08000ed0   0x00000028   Code   RO         1479    i.TIM6_IRQHandler   timer.o
    0x08000ef8   0x08000ef8   0x00000054   Code   RO         1480    i.TIM6_Init         timer.o
    0x08000f4c   0x08000f4c   0x00000006   Code   RO          910    i.TIM_ClearITPendingBit  stm32f10x_tim.o
    0x08000f52   0x08000f52   0x00000018   Code   RO          915    i.TIM_Cmd           stm32f10x_tim.o
    0x08000f6a   0x08000f6a   0x00000022   Code   RO          936    i.TIM_GetITStatus   stm32f10x_tim.o
    0x08000f8c   0x08000f8c   0x00000012   Code   RO          940    i.TIM_ITConfig      stm32f10x_tim.o
    0x08000f9e   0x08000f9e   0x00000002   PAD
    0x08000fa0   0x08000fa0   0x000000a4   Code   RO          986    i.TIM_TimeBaseInit  stm32f10x_tim.o
    0x08001044   0x08001044   0x00000030   Code   RO         1509    i.Task1             freertos_demo.o
    0x08001074   0x08001074   0x0000002c   Code   RO         1510    i.Task2             freertos_demo.o
    0x080010a0   0x080010a0   0x00000080   Code   RO          314    i.USART1_Init       usart.o
    0x08001120   0x08001120   0x00000018   Code   RO          723    i.USART_Cmd         stm32f10x_usart.o
    0x08001138   0x08001138   0x000000d8   Code   RO          730    i.USART_Init        stm32f10x_usart.o
    0x08001210   0x08001210   0x00000004   Code   RO          180    i.UsageFault_Handler  stm32f10x_it.o
    0x08001214   0x08001214   0x00000004   Code   RO          315    i._sys_exit         usart.o
    0x08001218   0x08001218   0x00000018   Code   RO          284    i.delay_ms          delay.o
    0x08001230   0x08001230   0x00000048   Code   RO          285    i.delay_us          delay.o
    0x08001278   0x08001278   0x000000d0   Code   RO         2135    i.eTaskGetState     tasks.o
    0x08001348   0x08001348   0x0000001c   Code   RO          316    i.fputc             usart.o
    0x08001364   0x08001364   0x0000008c   Code   RO         1511    i.freeRTOS_demo     freertos_demo.o
    0x080013f0   0x080013f0   0x00000028   Code   RO           24    i.main              main.o
    0x08001418   0x08001418   0x000000cc   Code   RO         2137    i.prvAddCurrentTaskToDelayedList  tasks.o
    0x080014e4   0x080014e4   0x000000ec   Code   RO         2138    i.prvAddNewTaskToReadyList  tasks.o
    0x080015d0   0x080015d0   0x00000064   Code   RO         2568    i.prvCheckForValidListAndQueue  timers.o
    0x08001634   0x08001634   0x00000048   Code   RO         2139    i.prvCheckTasksWaitingTermination  tasks.o
    0x0800167c   0x0800167c   0x0000002a   Code   RO         1721    i.prvCopyDataFromQueue  queue.o
    0x080016a6   0x080016a6   0x0000007e   Code   RO         1722    i.prvCopyDataToQueue  queue.o
    0x08001724   0x08001724   0x00000012   Code   RO         2140    i.prvDeleteTCB      tasks.o
    0x08001736   0x08001736   0x00000002   PAD
    0x08001738   0x08001738   0x00000028   Code   RO         2569    i.prvGetNextExpireTime  timers.o
    0x08001760   0x08001760   0x0000007c   Code   RO         2810    i.prvHeapInit       heap_4.o
    0x080017dc   0x080017dc   0x00000028   Code   RO         2141    i.prvIdleTask       tasks.o
    0x08001804   0x08001804   0x0000002e   Code   RO         1725    i.prvInitialiseNewQueue  queue.o
    0x08001832   0x08001832   0x00000002   PAD
    0x08001834   0x08001834   0x0000010c   Code   RO         2142    i.prvInitialiseNewTask  tasks.o
    0x08001940   0x08001940   0x00000068   Code   RO         2143    i.prvInitialiseTaskLists  tasks.o
    0x080019a8   0x080019a8   0x00000068   Code   RO         2811    i.prvInsertBlockIntoFreeList  heap_4.o
    0x08001a10   0x08001a10   0x00000058   Code   RO         2571    i.prvInsertTimerInActiveList  timers.o
    0x08001a68   0x08001a68   0x0000001a   Code   RO         1726    i.prvIsQueueEmpty   queue.o
    0x08001a82   0x08001a82   0x0000006a   Code   RO         2144    i.prvListTasksWithinSingleList  tasks.o
    0x08001aec   0x08001aec   0x000000c8   Code   RO         1728    i.prvNotifyQueueSetContainer  queue.o
    0x08001bb4   0x08001bb4   0x00000044   Code   RO         2572    i.prvProcessExpiredTimer  timers.o
    0x08001bf8   0x08001bf8   0x00000170   Code   RO         2573    i.prvProcessReceivedCommands  timers.o
    0x08001d68   0x08001d68   0x00000074   Code   RO         2574    i.prvProcessTimerOrBlockTask  timers.o
    0x08001ddc   0x08001ddc   0x00000028   Code   RO         2575    i.prvReloadTimer    timers.o
    0x08001e04   0x08001e04   0x00000030   Code   RO         2145    i.prvResetNextTaskUnblockTime  tasks.o
    0x08001e34   0x08001e34   0x0000002c   Code   RO         2576    i.prvSampleTimeNow  timers.o
    0x08001e60   0x08001e60   0x00000044   Code   RO         2577    i.prvSwitchTimerLists  timers.o
    0x08001ea4   0x08001ea4   0x00000016   Code   RO         2147    i.prvTaskCheckFreeStackSpace  tasks.o
    0x08001eba   0x08001eba   0x00000002   PAD
    0x08001ebc   0x08001ebc   0x0000007c   Code   RO         2734    i.prvTaskExitError  port.o
    0x08001f38   0x08001f38   0x0000001a   Code   RO         2578    i.prvTimerTask      timers.o
    0x08001f52   0x08001f52   0x00000090   Code   RO         1729    i.prvUnlockQueue    queue.o
    0x08001fe2   0x08001fe2   0x0000002a   Code   RO         2149    i.prvWriteNameToBuffer  tasks.o
    0x0800200c   0x0800200c   0x00000194   Code   RO         2812    i.pvPortMalloc      heap_4.o
    0x080021a0   0x080021a0   0x00000024   Code   RO         2735    i.pxPortInitialiseStack  port.o
    0x080021c4   0x080021c4   0x00000028   Code   RO         1681    i.uxListRemove      list.o
    0x080021ec   0x080021ec   0x000000b8   Code   RO         2157    i.uxTaskGetSystemState  tasks.o
    0x080022a4   0x080022a4   0x0000001a   Code   RO         1682    i.vListInitialise   list.o
    0x080022be   0x080022be   0x00000006   Code   RO         1683    i.vListInitialiseItem  list.o
    0x080022c4   0x080022c4   0x00000034   Code   RO         1684    i.vListInsert       list.o
    0x080022f8   0x080022f8   0x00000018   Code   RO         1685    i.vListInsertEnd    list.o
    0x08002310   0x08002310   0x00000094   Code   RO         2737    i.vPortEnterCritical  port.o
    0x080023a4   0x080023a4   0x0000007c   Code   RO         2738    i.vPortExitCritical  port.o
    0x08002420   0x08002420   0x000000d8   Code   RO         2813    i.vPortFree         heap_4.o
    0x080024f8   0x080024f8   0x0000002c   Code   RO         2739    i.vPortSetupTimerInterrupt  port.o
    0x08002524   0x08002524   0x00000090   Code   RO         1735    i.vQueueAddToRegistry  queue.o
    0x080025b4   0x080025b4   0x0000004a   Code   RO         1739    i.vQueueWaitForMessageRestricted  queue.o
    0x080025fe   0x080025fe   0x00000002   PAD
    0x08002600   0x08002600   0x00000088   Code   RO         2162    i.vTaskDelay        tasks.o
    0x08002688   0x08002688   0x00000128   Code   RO         2163    i.vTaskDelete       tasks.o
    0x080027b0   0x080027b0   0x00000084   Code   RO         2166    i.vTaskGetInfo      tasks.o
    0x08002834   0x08002834   0x000000c4   Code   RO         2167    i.vTaskGetRunTimeStats  tasks.o
    0x080028f8   0x080028f8   0x00000018   Code   RO         2168    i.vTaskInternalSetTimeOutState  tasks.o
    0x08002910   0x08002910   0x0000000c   Code   RO         2170    i.vTaskMissedYield  tasks.o
    0x0800291c   0x0800291c   0x00000068   Code   RO         2171    i.vTaskPlaceOnEventList  tasks.o
    0x08002984   0x08002984   0x00000090   Code   RO         2172    i.vTaskPlaceOnEventListRestricted  tasks.o
    0x08002a14   0x08002a14   0x000000cc   Code   RO         2180    i.vTaskStartScheduler  tasks.o
    0x08002ae0   0x08002ae0   0x00000010   Code   RO         2182    i.vTaskSuspendAll   tasks.o
    0x08002af0   0x08002af0   0x000000fc   Code   RO         2183    i.vTaskSwitchContext  tasks.o
    0x08002bec   0x08002bec   0x0000014c   Code   RO         2741    i.xPortStartScheduler  port.o
    0x08002d38   0x08002d38   0x00000034   Code   RO         2742    i.xPortSysTickHandler  port.o
    0x08002d6c   0x08002d6c   0x00000094   Code   RO         1744    i.xQueueGenericCreate  queue.o
    0x08002e00   0x08002e00   0x00000100   Code   RO         1745    i.xQueueGenericReset  queue.o
    0x08002f00   0x08002f00   0x00000184   Code   RO         1754    i.xQueueReceive     queue.o
    0x08003084   0x08003084   0x000000d0   Code   RO         2186    i.xTaskCheckForTimeOut  tasks.o
    0x08003154   0x08003154   0x00000060   Code   RO         2187    i.xTaskCreate       tasks.o
    0x080031b4   0x080031b4   0x00000020   Code   RO         2196    i.xTaskGetSchedulerState  tasks.o
    0x080031d4   0x080031d4   0x0000000c   Code   RO         2197    i.xTaskGetTickCount  tasks.o
    0x080031e0   0x080031e0   0x000001ec   Code   RO         2199    i.xTaskIncrementTick  tasks.o
    0x080033cc   0x080033cc   0x00000114   Code   RO         2200    i.xTaskPriorityDisinherit  tasks.o
    0x080034e0   0x080034e0   0x00000150   Code   RO         2202    i.xTaskRemoveFromEventList  tasks.o
    0x08003630   0x08003630   0x000001a4   Code   RO         2203    i.xTaskResumeAll    tasks.o
    0x080037d4   0x080037d4   0x00000084   Code   RO         2586    i.xTimerCreateTimerTask  timers.o
    0x08003858   0x08003858   0x00000020   Data   RO         3098    Region$$Table       anon$$obj.o


    Execution Region RW_IRAM1 (Exec base: 0x20000000, Load base: 0x08003878, Size: 0x00003470, Max: 0x00010000, ABSOLUTE)

    Exec Addr    Load Addr    Size         Type   Attr      Idx    E Section Name        Object

    0x20000000   0x08003878   0x00000014   Data   RW          224    .data               system_stm32f10x.o
    0x20000014   0x0800388c   0x00000002   Data   RW          286    .data               delay.o
    0x20000016   0x0800388e   0x00000002   PAD
    0x20000018   0x08003890   0x00000004   Data   RW          317    .data               usart.o
    0x2000001c   0x08003894   0x00000014   Data   RW          413    .data               stm32f10x_rcc.o
    0x20000030   0x080038a8   0x00000001   Data   RW         1461    .data               key.o
    0x20000031   0x080038a9   0x00000003   PAD
    0x20000034   0x080038ac   0x00000004   Data   RW         1481    .data               timer.o
    0x20000038   0x080038b0   0x0000000c   Data   RW         1513    .data               freertos_demo.o
    0x20000044   0x080038bc   0x00000048   Data   RW         2206    .data               tasks.o
    0x2000008c   0x08003904   0x00000014   Data   RW         2595    .data               timers.o
    0x200000a0   0x08003918   0x0000000c   Data   RW         2743    .data               port.o
    0x200000ac   0x08003924   0x00000020   Data   RW         2819    .data               heap_4.o
    0x200000cc        -       0x000001f4   Zero   RW         1512    .bss                freertos_demo.o
    0x200002c0        -       0x00000040   Zero   RW         1761    .bss                queue.o
    0x20000300        -       0x000002e4   Zero   RW         2205    .bss                tasks.o
    0x200005e4        -       0x00000028   Zero   RW         2594    .bss                timers.o
    0x2000060c        -       0x00002800   Zero   RW         2818    .bss                heap_4.o
    0x20002e0c        -       0x00000060   Zero   RW         2974    .bss                c_w.l(libspace.o)
    0x20002e6c   0x08003944   0x00000004   PAD
    0x20002e70        -       0x00000200   Zero   RW            2    HEAP                startup_stm32f10x_hd.o
    0x20003070        -       0x00000400   Zero   RW            1    STACK               startup_stm32f10x_hd.o


==============================================================================

Image component sizes


      Code (inc. data)   RO Data    RW Data    ZI Data      Debug   Object Name

         0          0          0          0          0       4516   core_cm3.o
       196         10          0          2          0       2639   delay.o
         0          0          0          0          0      14880   event_groups.o
       468        244          0         12        500       3184   freertos_demo.o
       848        218          0         32      10240       4403   heap_4.o
       252         20          0          1          0       1206   key.o
        84          8          0          0          0        555   led.o
       148          0          0          0          0       3622   list.o
        40          0          0          0          0     263911   main.o
       132         22          0          0          0       1739   misc.o
      1010        354          0         12          0      10248   port.o
      1594        298          0          0         64      13387   queue.o
        64         26        304          0       1536        924   startup_stm32f10x_hd.o
       300          0          0          0          0       3383   stm32f10x_gpio.o
        20          0          0          0          0       2869   stm32f10x_it.o
       276         32          0         20          0       4762   stm32f10x_rcc.o
       246         42          0          0          0       3950   stm32f10x_tim.o
       240          6          0          0          0       3049   stm32f10x_usart.o
       328         28          0         20          0       2593   system_stm32f10x.o
      4940       1226          0         72        740      40867   tasks.o
       148         18          0          4          0       2056   timer.o
      1090        222          0         20         40      14164   timers.o
       160         14          0          4          0       3676   usart.o

    ----------------------------------------------------------------------
     12600       2788        336        204      13120     406583   Object Totals
         0          0         32          0          0          0   (incl. Generated)
        16          0          0          5          0          0   (incl. Padding)

    ----------------------------------------------------------------------

      Code (inc. data)   RO Data    RW Data    ZI Data      Debug   Library Member Name

         8          0          0          0          0         68   __main.o
       104          0          0          0          0         84   __printf.o
         0          0          0          0          0          0   __rtentry.o
        12          0          0          0          0          0   __rtentry2.o
         6          0          0          0          0          0   __rtentry4.o
        52          8          0          0          0          0   __scatter.o
        26          0          0          0          0          0   __scatter_copy.o
        28          0          0          0          0          0   __scatter_zi.o
        44          0          0          0          0        108   _printf_char.o
        48          6          0          0          0         96   _printf_char_common.o
        36          4          0          0          0         80   _printf_char_file.o
         6          0          0          0          0          0   _printf_d.o
       120         16          0          0          0         92   _printf_dec.o
       178          0          0          0          0         88   _printf_intcommon.o
         0          0          0          0          0          0   _printf_percent.o
         4          0          0          0          0          0   _printf_percent_end.o
         6          0          0          0          0          0   _printf_s.o
        82          0          0          0          0         80   _printf_str.o
         6          0          0          0          0          0   _printf_u.o
        10          0          0          0          0         68   _sputc.o
        16          0          0          0          0         68   aeabi_memset.o
        18          0          0          0          0         80   exit.o
         8          0          0          0          0         68   ferror.o
         6          0          0          0          0        152   heapauxi.o
         2          0          0          0          0          0   libinit.o
         2          0          0          0          0          0   libinit2.o
         2          0          0          0          0          0   libshutdown.o
         2          0          0          0          0          0   libshutdown2.o
         8          4          0          0         96         68   libspace.o
        24          4          0          0          0         84   noretval__2printf.o
        40          6          0          0          0         84   noretval__2sprintf.o
        68          0          0          0          0         68   rt_memclr.o
        78          0          0          0          0         80   rt_memclr_w.o
       138          0          0          0          0         68   rt_memcpy_v6.o
       100          0          0          0          0         80   rt_memcpy_w.o
         2          0          0          0          0          0   rtexit.o
        10          0          0          0          0          0   rtexit2.o
        72          0          0          0          0         80   strcpy.o
        62          0          0          0          0         76   strlen.o
        74          0          0          0          0         80   sys_stackheap_outer.o
         2          0          0          0          0         68   use_no_semi.o
         2          0          0          0          0         68   use_no_semi_2.o

    ----------------------------------------------------------------------
      1520         48          0          0        100       2036   Library Totals
         8          0          0          0          4          0   (incl. Padding)

    ----------------------------------------------------------------------

      Code (inc. data)   RO Data    RW Data    ZI Data      Debug   Library Name

      1512         48          0          0         96       2036   c_w.l

    ----------------------------------------------------------------------
      1520         48          0          0        100       2036   Library Totals

    ----------------------------------------------------------------------

==============================================================================


      Code (inc. data)   RO Data    RW Data    ZI Data      Debug   

     14120       2836        336        204      13220     401907   Grand Totals
     14120       2836        336        204      13220     401907   ELF Image Totals
     14120       2836        336        204          0          0   ROM Totals

==============================================================================

    Total RO  Size (Code + RO Data)                14456 (  14.12kB)
    Total RW  Size (RW Data + ZI Data)             13424 (  13.11kB)
    Total ROM Size (Code + RO Data + RW Data)      14660 (  14.32kB)

==============================================================================

