:020000040800F2
:1000000068320020750200086108000859080008DD
:100010005D0800083D070008DD0D00080000000035
:10002000000000000000000000000000DD010008EA
:10003000410700080000000021020008410B0008F1
:100040008F0200088F0200088F0200088F0200084C
:100050008F0200088F0200088F0200088F0200083C
:100060008F0200088F0200088F0200088F0200082C
:100070008F0200088F0200088F0200088F0200081C
:100080008F0200088F0200088F0200088F0200080C
:100090008F0200088F0200088F0200088F020008FC
:1000A0008F0200088F0200088F0200088F020008EC
:1000B0008F0200088F0200088F0200088F020008DC
:1000C0008F0200088F0200088F0200088F020008CC
:1000D0008F0200088F0200088F0200088F020008BC
:1000E0008F0200088F0200088F0200088F020008AC
:1000F0008F0200088F0200088F0200088F0200089C
:100100008F0200088F0200088F0200088F0200088B
:100110008F0200088F0200088F0200088F0200087B
:100120008F0200088F0200088F0200088F0200086B
:1001300000F002F800F042F80AA090E8000C8244B7
:100140008344AAF10107DA4501D100F037F8AFF294
:10015000090EBAE80F0013F0010F18BFFB1A43F0A5
:1001600001031847982E0000B82E0000103A24BF53
:1001700078C878C1FAD8520724BF30C830C144BF0C
:1001800004680C607047000000230024002500264E
:10019000103A28BF78C1FBD8520728BF30C148BFEA
:1001A0000B607047642900F0F180732900F026820B
:1001B000002070471FB51FBD10B510BD00F08CFAB0
:1001C0001146FFF7F7FF00F061FE00F0AAFA03B452
:1001D000FFF7F2FF03BC00F003FE0000224B19689A
:1001E0000868B0E8F00F80F30988BFF36F8F4FF015
:1001F000000080F311884EF00D0E704700000000E3
:1002000006480068006880F3088862B661B6BFF3EC
:100210004F8FBFF36F8F00DF00BF00BF08ED00E01E
:10022000EFF30980BFF36F8F0F4B1A6820E9F00FCF
:10023000106008B54FF0500080F31188BFF34F8F66
:10024000BFF36F8F02F046F84FF0000080F3118883
:10025000BDE8084019680868B0E8F00F80F3098825
:10026000BFF36F8F704700BF3C000020EFF30580A5
:10027000704700000948804709480047FEE7FEE74D
:10028000FEE7FEE7FEE7FEE7FEE7FEE7FEE7FEE746
:1002900004480549054A064B70470000A50B0008B5
:1002A00031010008682C002068320020682E0020F0
:1002B000682E0020704700000FB4044910B503AA4F
:1002C000029800F09FF910BC5DF814FB18000020A4
:1002D0002DE9F0410E460446002020622046E168E8
:1002E000884730B3252805D0D4E901219047206AFA
:1002F000401CF2E7E168204600278847050018D037
:10030000A5F14100192802D820354FF40067324684
:10031000294620462760FFF745FF40B1012804D059
:10032000F61D26F007060836D8E7361DD6E728461C
:10033000DAE7206ABDE8F08170B50C460546012A6F
:1003400005D02878800600D5EA69002302E0012361
:1003500005E05B1C934202D2E05C0028F9D1A86959
:10036000E618C01AA861286A184428622846AFF324
:10037000008004E0D5E9012114F8010B9047B44254
:10038000F8D32846AFF3008070BD00002DE9F0419E
:100390000646002410687529314616A510D0AFF323
:1003A0000080002802DA404213A507E031688A077E
:1003B00001D512A502E0490704D511A5012401E0E9
:1003C000AFF3008000210A2206F1240709E0B0FB08
:1003D000F2FCB0FBF2F302FB1C00303078541846FC
:1003E000491C0028F3D123462A463046BDE8F04197
:1003F00000F080B8000000002D0000002B0000007D
:1004000020000000032A40F2308010F0030C00F0BE
:10041000158011F8013BBCF1020F624498BF11F83E
:1004200001CB00F8013B38BF11F8013BA2F10402F7
:1004300098BF00F801CB38BF00F8013B11F003036F
:1004400000F0F280083AC0F0088051F8043B083A06
:1004500051F804CBA0E80810F5E7121D5CBF51F875
:10046000043B40F8043BAFF30080D20724BF11F8EF
:10047000013B11F801CB48BF11F8012B24BF00F854
:10048000013B00F801CB48BF00F8012B704702F098
:10049000FF0343EA032242EA024200F0F9B84FF0B8
:1004A000000200B5134694469646203922BFA0E8C4
:1004B0000C50A0E80C50B1F12001BFF4F7AF0907D0
:1004C00028BFA0E80C5048BF0CC05DF804EB8900C1
:1004D00028BF40F8042B08BF704748BF20F8022B04
:1004E00011F0804F18BF00F8012B7047704770471C
:1004F000704770472DE9F0470D46994692460446ED
:1005000000F124080168880604D5E06921F0100193
:10051000216000E00120A84201DD471B00E0002728
:10052000A1697A1902EB0900081AA0612078C006B7
:1005300002D42046AFF30080002608E0D4E9012170
:100540001AF806009047206A401C761C20624E452F
:10055000F4DB2078C0060AD52046AFF3008006E021
:10056000D4E9012130209047206A401C2062381EC7
:10057000A7F10107F4DC07E0D4E9012118F8050030
:100580009047206A401C2062281EA5F10105F3DC7B
:100590002046AFF300802078000602D50220BDE897
:1005A000F0870120FBE7000001694A1C026108781E
:1005B000704700B58FB0CDE90131002105910549A3
:1005C0007944CDE9031011466846FFF781FE0FB06C
:1005D00000BD0000E5FFFFFF10B5436913B1AFF3A5
:1005E000008001E0FFF7A8FE012010BD127800F1A5
:1005F00024010A7000224A700122EDE711684FF0D1
:10060000FF32E9E7074B70B50D467B44FFF7D1FF9A
:100610000446284600F05CF810B14FF0FF3070BD82
:10062000204670BDD707000010B5203AC0F00B80FF
:10063000B1E81850203AA0E81850B1E81850A0E8E6
:100640001850BFF4F5AF5FEA027C24BFB1E8185040
:10065000A0E8185044BF18C918C0BDE810405FEAB0
:10066000827C24BF51F8043B40F8043B08BF70472C
:10067000D20728BF31F8023B48BF11F8012B28BF31
:1006800020F8023B48BF00F8012B70474FF00002F2
:100690000429C0F0128010F0030C3FF402AFCCF13B
:1006A000040CBCF1020F18BF00F8012BA8BF20F802
:1006B000022BA1EB0C01FFF7F4BE5FEAC17C24BF63
:1006C00000F8012B00F8012B48BF00F8012B704700
:1006D000007B00F080007047754600F02BF8AE46B6
:1006E00005006946534620F00700854618B020B53E
:1006F000FFF7CEFDBDE820404FF000064FF00007A9
:100700004FF000084FF0000B21F00701AC46ACE8B9
:10071000C009ACE8C009ACE8C009ACE8C0098D4626
:10072000704710B50446AFF300802046BDE8104086
:10073000FFF74DBD00487047082C002000BFFEE7C2
:1007400070472DE9F04102460025002600200023D5
:100750000024002791F803C00CF00F0591F803C0A6
:100760000CF0100CBCF1000F03D091F802C04CEA61
:10077000050591F800C0BCF1000F31D014680020CD
:100780002BE04FF0010C0CFA00F3B1F800C00CEABA
:1007900003069E4220D183004FF00F0C0CFA03F7A2
:1007A000BC4305FA03FC4CEA040491F803C0BCF115
:1007B000280F06D14FF0010C0CFA00FCC2F814C04F
:1007C0000AE091F803C0BCF1480F05D14FF0010CCD
:1007D0000CFA00FCC2F810C0401C0828D1D31460E9
:1007E000B1F800C0BCF1FF0F34DD546800202EE0EA
:1007F00000F1080C4FF0010808FA0CF3B1F800C042
:100800000CEA03069E4221D183004FF00F0C0CFA34
:1008100003F7BC4305FA03FC4CEA040491F803C057
:10082000BCF1280F05D100F1080C08FA0CF8C2F849
:10083000148091F803C0BCF1480F07D100F1080CF7
:100840004FF0010808FA0CF8C2F81080401C082884
:10085000CED35460BDE8F08100BFFEE700BFFEE7E5
:100860007047000002490143024A116070470000CE
:100870000000FA050CED00E029B1064A9269024336
:10088000044B9A6104E0034A92698243014B9A61E6
:10089000704700000010024030B500210022002403
:1008A00000232D4D6D6805F00C0121B1042905D000
:1008B000082923D105E0294D056022E0274D056078
:1008C0001FE0254D6D6805F47012234D6D6805F429
:1008D0008034022505EB92421CB9214D5543056039
:1008E0000BE01D4D6D6805F400351DB11C4D5543E1
:1008F000056002E0194D5543056002E0174D0560A3
:1009000000BF00BF144D6D6805F0F0010909154DD9
:100910006B5C0568DD4045600F4D6D6805F4E06176
:10092000090A104D6B5C4568DD4085600A4D6D68B5
:1009300005F46051C90A0B4D6B5C4568DD40C5602C
:10094000054D6D6805F44041890B074D6B5CC5682A
:10095000B5FBF3F5056130BD0010024000127A00CE
:1009600000093D001C0000202C00002010B500F004
:1009700001F810BD0CB500200190009033480068CC
:1009800040F480303149086000BF3048006800F40E
:10099000003000900198401C0190009818B901980F
:1009A000B0F5A06FF1D12948006800F4003010B113
:1009B0000120009001E0002000900098012843D120
:1009C0002348006840F0100021490860084600688C
:1009D00020F0030008600846006840F0020008604C
:1009E0001A48406819494860084640684860084607
:1009F000406840F4806048600846406820F47C10FD
:100A000048600846406840F4E810486008460068BE
:100A100040F08070086000BF0C48006800F0007073
:100A20000028F9D00948406820F0030007494860D1
:100A30000846406840F00200486000BF0348406834
:100A400000F00C000828F9D10CBD00000010024095
:100A5000002002407CB50546012401F0F1F817485A
:100A6000022100234022CDE9001015A1164801F013
:100A700043FF0446012C03D114A0FFF71DFC02E044
:100A800018A0FFF719FC1D48022100234022CDE9E0
:100A900000101BA11C4801F02FFF0446012C03D1BC
:100AA0001AA0FFF709FC02E01EA0FFF705FC23488F
:100AB000006801F081FA01F00DF97CBD34000020DE
:100AC0005461736B31000000050C00085461736BB6
:100AD00031C8CECEF1B4B4BDA8B3C9B9A6210D0AB0
:100AE000000000005461736B31C8CECEF1B4B4BDC8
:100AF000A8CAA7B0DC210D0A0000000038000020C1
:100B00005461736B32000000390C00085461736B40
:100B100032C8CECEF1B4B4BDA8B3C9B9A6210D0A6E
:100B2000000000005461736B32C8CECEF1B4B4BD86
:100B3000A8CAA7B0DC210D0A000000003000002088
:100B400010B501F009FF012801D001F0C7FC10BD6C
:100B500010B500224FF0E0231A611A46126922F004
:100B600004021A61C31700EB5373C3F3CF030C4C99
:100B70002380C31700EB5373D9104FF47A7251439B
:100B80004FF0E022126942F002024FF0E0231A61B6
:100B90001A465161126942F001021A6110BD00004B
:100BA0001400002010B51348006840F001001149FE
:100BB000086008464068104908400E4948600846E9
:100BC00000680E4908400B4908600846006820F498
:100BD000802008600846406820F4FE0048604FF41A
:100BE0001F008860FFF7C2FE4FF0006004490860F4
:100BF00010BD0000001002400000FFF8FFFFF6FEED
:100C000008ED00E000240CE001F01AF8601C044636
:100C1000014604A0FFF750FB01F05CF8642001F0EE
:100C200087F9F1E77461736B31D4CBD0D0B4CECAFD
:100C3000FDA3BA25640D0A0000240CE001F000F8C1
:100C4000601C0446014604A0FFF736FB01F042F8A1
:100C5000642001F06DF9F1E77461736B32D4CBD08D
:100C6000D0B4CECAFDA3BA25640D0A0010B586B073
:100C70000446012144F20400FFF7FEFD4FF400702A
:100C8000ADF8140018208DF8170003208DF8160019
:100C900005A91448FFF755FD4FF48060ADF8140026
:100CA00004208DF8170003208DF8160005A90D48C3
:100CB000FFF747FD01940020ADF80800ADF80A00E9
:100CC000ADF80C00ADF810000C20ADF80E0001A935
:100CD000054800F017F80121034800F007F806B0B6
:100CE00010BD0000000801400038014021B1828998
:100CF00042F40052828104E082894DF6FF731A406B
:100D0000828170472DE9F04786B005460E460024E3
:100D1000A24600BFA1460027B08900B100BF2F4600
:100D20002C8A4CF6FF700440F08804432C82AC8976
:100D30004EF6F3100440B0883189084371890843A6
:100D40000443AC81AC8A4FF6FF400440B0890443B1
:100D5000AC8201A8FFF7A0FD1F48874202D1DDF851
:100D600010A001E0DDF80CA0A88900F4004040B11B
:100D70000AEBCA0000EB0A1031684900B0FBF1F839
:100D800007E00AEBCA0000EB0A1031688900B0FBEB
:100D9000F1F86420B8FBF0F004012009642101FBA4
:100DA0001089A88900F4004040B1322000EBC9004E
:100DB000B0FBF1F000F00700044308E0322000EB44
:100DC00009106421B0FBF1F000F00F0004432C8106
:100DD00006B0BDE8F08700000038014000BFFEE724
:100DE00000BF704700BF054A128802F04002002A87
:100DF000F9D0C2B2014B1B1D1A8070470038014068
:100E00001CB501240B48012100234022CDE900102C
:100E100009A10D4801F070FD0446012C03D10BA07F
:100E2000FFF74AFA02E011A0FFF746FA01F0E6F9EF
:100E30001CBD000030000020537461727454617353
:100E40006B43726561746500550A000853746172E2
:100E5000745461736B437265617465C8CECEF1B42E
:100E6000B4BDA8B3C9B9A6210D0A000053746172BC
:100E7000745461736B437265617465C8CECEF1B40E
:100E8000B4BDA8CAA7B0DC210D0A000010B54FF40C
:100E90004070FFF7E7FC4820FFF75AFE4FF4E130BF
:100EA000FFF7E4FEFFF7ACFF002010BD2DE9F04195
:100EB00005460E462948076800202949096881F837
:100EC000590027480068001D00F070FE50B9244802
:100ED000006890F82C10012088402249096881435D
:100EE00020480160681CD8B9D6B11F4948681C4920
:100EF000096888601A4982680968CA6018490968DF
:100F0000091D8268516016490968091D8160164AE9
:100F1000134909684A6111460968491C11601AE0C1
:100F20007C190F4800684460BC4207D20C48016835
:100F3000091D0E48006800F05DFE0CE008480168DD
:100F4000091D0B48006800F055FE0A4800688442FD
:100F500001D208480460BDE8F08100005000002084
:100F60003C00002054000020CC030020440000205E
:100F7000400000206C00002010B5044600F060FE28
:100F800031480068401C304908603048006840B96A
:100F90002E4804600846006801280DD100F018FAB8
:100FA0000AE02B48006838B928480068C06AE16A3E
:100FB000884201D82548046026480068401C25491D
:100FC000086008460068606494F82C10012088408E
:100FD00021490968084320490860E16A01EB810161
:100FE0001E4A02EB81014868A0608268E260211D10
:100FF000826851608160E16A01EB8101174A02EB6E
:1010000081026261E16A01EB8101144A52F8211008
:10101000491CE26A02EB8202104B43F8221000F0F6
:1010200059FE0B48006868B108480068C06AE16A68
:10103000884207D24FF0805009490860BFF34F8FB4
:10104000BFF36F8F10BD00004C0000203C0000205B
:10105000580000206800002054000020FC00002000
:1010600004ED00E010B500F0EBFD10480068D0B9C9
:101070000F4800F0AFFD0F4800F0ACFD0C480E49E2
:1010800008600C480D49086000221021052001F07D
:101090003FFA064908600846006820B108A10348E5
:1010A000006800F0D7FE00F015FE10BD840000209F
:1010B000E0030020F40300207C00002080000020DA
:1010C000546D72510000000010B516E000F0B8FD3C
:1010D0000C48C068C468201D00F068FD0A4800681C
:1010E000401E0949086009480068401E0749086019
:1010F00000F0F0FD204600F05FF80448006800288A
:10110000E4D110BDB80300204C00002048000020AE
:1011100070B504460D46206C70B1216CE068014446
:10112000E160D4E90210884201D32168E1602846D9
:10113000226CE168FFF766F970BD2DE9F0410446C5
:101140000F4615464FF00008A66B206C48B9206882
:1011500000282CD1A06801F00BFD80460020A06083
:1011600025E07DB93946226C6068FFF74BF9216CA8
:10117000606808446060D4E90101884217D32068A0
:10118000606014E03946226CE068FFF73BF9216C9F
:10119000E068411AE1602168E068884203D2216C6E
:1011A000A068411AE160022D01D106B1761E701CC3
:1011B000A0634046BDE8F08110B50446206B00F006
:1011C000C7FD204600F0C4FD10BD00000146084ADE
:1011D000126812680AB9012200E000220A600A6857
:1011E00022B9034A1268D268106800E000207047F4
:1011F0007C00002030B54FF42053174800F007045E
:101200002CB1C01D20F00700134C041B1B1B024611
:10121000124C22600024114D6C60D018083820F068
:1012200007000F4C206000240D4D2D686C600C4DA4
:101230002D682C601146441A4C60094C24680C60DF
:10124000084D4C682C60084D4C682C604FF00044F1
:10125000064D2C6030BD0000080400209C000020DA
:10126000A4000020AC000020A8000020B80000204E
:1012700000BFFFF729FF064800680128F9D94FF0A1
:10128000805004490860BFF34F8FBFF36F8FF0E7C2
:10129000FC00002004ED00E02DE9F04106460D467B
:1012A00017469846069C0DB9246000E02760E66367
:1012B00025640121204601F075F984F85080002052
:1012C000A064BDE8F08100002DE9F05F82460F4682
:1012D00090469B460A9E0C9C4FEA8801A522206BF3
:1012E000FFF7D5F8A8F10100216B01EB800929F087
:1012F000070909F0070008B9012000E0002028B91B
:101300004FF4587224A12EA0FEF7D6FF87B1002516
:1013100007E0795D04F134004155785D00B902E0E1
:101320006D1C102DF5D300BF00214320015502E0B4
:10133000002084F83400202E01D2012000E000209B
:1013400028B940F2973214A11DA0FEF7B5FF202E58
:1013500000D31F26E662E66400202065201D00F011
:1013600046FC04F1180000F042FC2461C6F12000A4
:10137000A06164620020606584F8580084F8590018
:101380005A465146484600F0FFFB20600B9808B1D2
:101390000B980460BDE8F09F2E2E5C2E2E5C4D69EC
:1013A00064646C6577617265735C467265655254FE
:1013B0004F535C7372635C7461736B732E630000D4
:1013C0004572726F723A2025732C2025640D0A0035
:1013D00010B5002407E004EB84010F4A02EB810002
:1013E00000F0F8FB641C202CF5D30C4800F0F2FB55
:1013F0000B4800F0EFFB0B4800F0ECFB0A4800F054
:10140000E9FB0A4800F0E6FB044809490860044883
:101410000849086010BD0000FC0000207C0300208B
:1014200090030020A4030020B8030020CC03002078
:10143000400000204400002010B50146164800E09E
:10144000006803688B42FBD30246436813448B4217
:1014500004D143684C682344436001460A464B6804
:1014600013440468A34211D10C4C03682468A342BE
:1014700008D04B680468646823444B6003681B68A9
:101480000B6005E0054B1B680B6001E003680B6017
:10149000884200D0016010BD9C000020A400002004
:1014A0002DE9F04104460D4616461F464FF0000850
:1014B00065602461B5420CD8F01BA169884202D353
:1014C0004FF0010811E0211D0948006800F092FB6F
:1014D0000BE0BE4204D2BD4202D34FF0010804E04B
:1014E000211D0448006800F085FB4046BDE8F081FE
:1014F000800000207C00002070B5054600F0A0FBB5
:10150000A86B08B9012400E0002400F0E3FB2046AA
:1015100070BD0000F1B50098846C00262CB940F62F
:10152000D43220A129A0FEF7C7FEA06BE16B884250
:1015300001D2012000E0002028B940F6D53219A1DF
:1015400022A0FEF7B9FEA06BE16B884227D294F986
:101550004550002269462046FFF7EFFD0646681C0D
:1015600060B9606A08B9012000E00020B0B904F158
:10157000240001F087FB88B101260FE07F2D01D008
:10158000012000E0002028B940F6F53205A10FA0A7
:10159000FEF792FE681C40B284F8450000BF30465A
:1015A000F8BD00002E2E5C2E2E5C4D6964646C65C7
:1015B00077617265735C4672656552544F535C7314
:1015C00072635C71756575652E6300004572726F9C
:1015D000723A2025732C2025640D0A0070B505464B
:1015E0000E460E480068C068C468201D00F0DEFA90
:1015F00094F8280000F0040028B13246294620461D
:1016000000F000F905E094F8280000F0FE0084F8EE
:1016100028002046216A884770BD00007C00002019
:1016200070B586B08AE0029800280CDA03AE2EB9B5
:1016300040F2063247A151A0FEF73EFED6E9002057
:10164000B168904700BF0298002877DB049C60696E
:1016500008B9012000E0002010B9201D00F0A6FA12
:1016600001A800F0FBF8054602980A2864D2DFE8DA
:1016700000F06305072E365306082F3700BF00BF62
:1016800000BF94F8280040F0010084F82800039877
:10169000A269811803462A462046FFF701FFA8B138
:1016A00094F8280000F0040038B10398A26981186A
:1016B0002A46204600F0A6F805E094F8280000F03D
:1016C000FE0084F828002046216A884735E000BFE4
:1016D00094F8280000F0FE0084F828002DE000BFF8
:1016E00094F8280040F0010084F828000398A061D5
:1016F000A06908B1012000E0002028B940F2593269
:1017000014A11EA0FEF7D8FDA06941192B462A4658
:101710002046FFF7C5FE10E094F8280000F0020014
:1017200018B9204600F014FB05E094F8280000F0FA
:10173000FE0084F8280000E000BF00BF002202A9DC
:101740001248006800F0AEFF00287FF46CAF06B0CE
:1017500070BD00002E2E5C2E2E5C4D6964646C659D
:1017600077617265735C4672656552544F535C7362
:1017700072635C74696D6572732E63004572726F7B
:10178000723A2025732C2025640D0A008400002065
:10179000F8B505460C4600F095FD684600F05EF889
:1017A0000646009820BB44B9B54206D801F012FBAA
:1017B00031462846FFF712FF1CE03CB10E48006896
:1017C000006808B9012000E000200446A91B224659
:1017D0000A48006800F086FB01F0FCFA50B94FF0AF
:1017E000805007490860BFF34F8FBFF36F8F01E050
:1017F00001F0F0FAF8BD0000800000208400002015
:1018000004ED00E070B504460D46164604E0A069FC
:1018100005442046216A8847A06941192B46324673
:101820002046FFF73DFE0028F1D170BD0948006851
:10183000006808B9012000E0002020B14FF0FF301F
:101840000549086005E003480068C068006802496F
:1018500008607047400000206C00002070B504460E
:1018600001F08AF8054607480068854204D200F076
:101870000BF80120206001E0002020600148056095
:10188000284670BD8C00002070B508E00D48006847
:10189000C06804684FF0FF312046FFF79FFE0948FB
:1018A0000068006808B9012000E000200028EDD0A1
:1018B0000448056804480068024908600248056059
:1018C00070BD00007C000020800000200B480068F4
:1018D000401C08B9012000E0002020B9CE2208A158
:1018E00015A0FEF7E9FC00BF502080F31188BFF37C
:1018F0004F8FBFF36F8F00BF00BFFEE79000002047
:101900002E2E5C2E2E5C4D6964646C657761726569
:10191000735C4672656552544F535C706F727461AC
:10192000626C655C525644535C41524D5F434D338B
:101930005C706F72742E63004572726F723A20256C
:10194000732C2025640D0A0008B500BF6846FFF718
:101950003DFC044620460099FFF71AFFFFF760FEA2
:10196000F4E770B5044600F06BF994F9455019E0BE
:10197000A06C30B12046FFF7CDFD88B100F0BCFB74
:101980000EE0606A08B9012000E0002038B904F1D7
:10199000240001F077F918B100F0AEFB00E003E09D
:1019A000681E45B2002DE3DC00BFFF2084F845002F
:1019B00000F090F900F044F994F9445010E02069E7
:1019C00008B9012000E0002048B904F1100001F03E
:1019D00059F908B100F090FB681E45B200E001E043
:1019E000002DECDC00BFFF2084F8440000F072F909
:1019F00070BD00002DE9F04104464FF0000800F0F2
:101A000061FC4948006808B9FFF7F4FB47480068E3
:101A10002040002875D1002C23D004F10800A042FA
:101A20001FD9083404F0070000281BD004F0070079
:101A3000C0F108002044A04211D904F00700C0F111
:101A40000800044404F0070008B9012000E0002069
:101A500040B99C2236A144A0FEF72EFC02E00024EF
:101A600000E00024002C4CD043480068844248D851
:101A7000424E3046056801E02E462D686868A04257
:101A800002D228680028F7D127480068854238D05C
:101A9000306800F10808286830606868001B10286A
:101AA00013D92F1907F0070008B9012000E0002022
:101AB00020B9CF221EA12CA0FEF7FEFB6868001BF8
:101AC00078606C603846FFF7B7FC2B496868096896
:101AD000081A2949086008460068294909688842A7
:101AE00003D22548006826490860104968680968DB
:101AF000084368600020286022480068401C214993
:101B0000086001F067F908F0070008B9012000E05B
:101B1000002028B94FF4887205A113A0FEF7CCFB72
:101B20004046BDE8F0810000A4000020B80000207D
:101B30002E2E5C2E2E5C4D6964646C657761726537
:101B4000735C4672656552544F535C706F7274617A
:101B5000626C655C4D656D4D616E675C686561705A
:101B60005F342E63000000004572726F723A2025C8
:101B7000732C2025640D0A00A80000209C00002082
:101B8000AC000020B0000020001F4FF08073036005
:101B9000001F21F001030360001F034B0360143892
:101BA0000260203870470000CD18000801460A691D
:101BB000D1E901309860D1E901035860506888424A
:101BC00001D188685060002008611068401E1060D4
:101BD0001068704700F1080141604FF0FF318160EB
:101BE00000F10801C160016100210160704700211E
:101BF0000161704710B502460B685C1C0CB9106996
:101C000007E002F1080000E04068446824689C4254
:101C1000FAD944684C604C68A160886041600A61F0
:101C20001468641C146010BD42684A6093688B603D
:101C3000936859609160086103685B1C036070479A
:101C400010B500BF502080F31188BFF34F8FBFF352
:101C50006F8F00BF0B480068401C0A4908600846A7
:101C6000006801280DD108480068C0B208B90120F9
:101C700000E0002028B940F2751204A111A0FEF77F
:101C80001BFB10BD9000002004ED00E02E2E5C2E0A
:101C90002E5C4D6964646C6577617265735C467235
:101CA000656552544F535C706F727461626C655C11
:101CB000525644535C41524D5F434D335C706F72DA
:101CC000742E63004572726F723A2025732C2025A2
:101CD000640D0A0010B50B48006828B94FF4BE72B5
:101CE00009A117A0FEF7E8FA06480068401E05495A
:101CF00008600846006820B9002080F3118800BF02
:101D000000BF10BD900000202E2E5C2E2E5C4D6971
:101D100064646C6577617265735C46726565525484
:101D20004F535C706F727461626C655C52564453C1
:101D30005C41524D5F434D335C706F72742E630093
:101D40004572726F723A2025732C2025640D0A00AB
:101D500070B506463546002E3AD0083D2C461D4942
:101D600060680968084008B1012000E0002028B937
:101D70004FF4927218A126A0FEF79EFA206808B9C7
:101D8000012000E0002028B940F2251212A120A075
:101D9000FEF792FA0F49606809680840C0B12068F0
:101DA000B0B90C49606809688843606000F08AFA3D
:101DB0001B49606809680844194908602046FFF714
:101DC0003BFB18480068401C1649086001F002F807
:101DD00070BD0000B80000202E2E5C2E2E5C4D69D8
:101DE00064646C6577617265735C467265655254B4
:101DF0004F535C706F727461626C655C4D656D4DC4
:101E0000616E675C686561705F342E63000000007E
:101E10004572726F723A2025732C2025640D0A00DA
:101E2000A8000020B400002000204FF0E02108614D
:101E3000886107480068C0084FF47A71B0FBF1F080
:101E4000401E4FF0E0214861032008617047000008
:101E5000000000202DE9F04105460F4600262DB96F
:101E600040F6C92210A11AA0FEF726FABFB100243D
:101E700012E01B4800EBC4004068A84203D1184898
:101E800000EBC4060AE036B9154850F8340010B922
:101E9000134800EBC406641C082CEAD300BF0EB143
:101EA00037607560BDE8F0812E2E5C2E2E5C4D698A
:101EB00064646C6577617265735C467265655254E3
:101EC0004F535C7372635C71756575652E630000BA
:101ED0004572726F723A2025732C2025640D0A001A
:101EE000BC0000202DE9F04105460E4617462C4661
:101EF000FFF7A6FE94F94400401C10B9002084F8B6
:101F0000440094F94500401C10B9002084F84500B5
:101F1000FFF7E0FEA06B28B93A46314604F12400F1
:101F200000F024F92046FFF71CFDBDE8F081000019
:101F300070B504460025ACB10F48006808B901200F
:101F400000E0002028B940F249520CA115A0FEF78C
:101F5000B3F900F0B7F900212046FEF7A7FF00F023
:101F600039FF05463DB94FF0805012490860BFF374
:101F70004F8FBFF36F8F70BD780000202E2E5C2E28
:101F80002E5C4D6964646C6577617265735C467242
:101F9000656552544F535C7372635C7461736B7309
:101FA0002E6300004572726F723A2025732C202533
:101FB000640D0A0004ED00E070B50546FFF740FE31
:101FC00015B92F48006800E028460446201DFFF799
:101FD000EDFD78B9E06A00EB80002A4951F8200055
:101FE00040B994F82C1001208840274909688143A2
:101FF00025480160A06A18B104F11800FFF7D6FD6A
:1020000022480068401C214908601D48006884423D
:1020100009D1211D1E48FFF707FE1E480068401C1D
:102020001C49086006E01C480068401E1A49086008
:10203000FFF7FCFBFFF74EFE11480068844202D018
:102040002046FFF7B9F815480068C0B10C48006891
:10205000844214D11248006808B9012000E0002031
:1020600028B940F2DC420FA118A0FEF725F94FF085
:1020700080501A490860BFF34F8FBFF36F8F70BD58
:102080003C000020FC0000205400002068000020DC
:10209000B8030020480000204C0000205800002019
:1020A000780000202E2E5C2E2E5C4D6964646C65D9
:1020B00077617265735C4672656552544F535C7309
:1020C00072635C7461736B732E6300004572726F90
:1020D000723A2025732C2025640D0A0004ED00E0DF
:1020E00003490968016003490968416070470000BD
:1020F0006400002050000020012001490860704762
:102100006000002070B504460D462CB940F61C4214
:1021100007A111A0FEF7D0F8134801681831204636
:10212000FFF768FD01212846FEF7C0FE70BD0000E4
:102130002E2E5C2E2E5C4D6964646C657761726531
:10214000735C4672656552544F535C7372635C7482
:1021500061736B732E6300004572726F723A2025B3
:10216000732C2025640D0A003C00002070B5044645
:102170000E4615462CB940F6524211A11AA0FEF7A0
:102180009BF860681C490968C8611B498268096836
:102190000A6219490968183182685160164909684C
:1021A00018318160144909688C622168491C2160DA
:1021B0000DB14FF0FF3629463046FEF777FE70BD71
:1021C0002E2E5C2E2E5C4D6964646C6577617265A1
:1021D000735C4672656552544F535C7372635C74F2
:1021E00061736B732E6300004572726F723A202523
:1021F000732C2025640D0A003C0000201CB51B48F0
:1022000000210B468022CDE9001019A11A4800F0E8
:1022100073FB0446012C02D100F0AEFE0446012CF3
:1022200015D100BF502080F31188BFF34F8FBFF34B
:102230006F8F00BF4FF0FF30104908600120104938
:10224000086000200F49086000F0A2F80BE0601C55
:1022500008B1012000E0002028B94FF404620AA16F
:1022600013A0FEF729F8164800681CBD7000002076
:1022700049444C4500000000711200086C00002029
:1022800058000020500000202E2E5C2E2E5C4D6940
:1022900064646C6577617265735C467265655254FF
:1022A0004F535C7372635C7461736B732E630000D5
:1022B0004572726F723A2025732C2025640D0A0036
:1022C0007400002002480068401C01490860704703
:1022D0007800002010B51B48006818B101201A4989
:1022E00008602DE000201849086018480068B0FA1E
:1022F00080F0C0F11F0404EB8400154951F8200060
:1023000008B1012000E0002028B940F6024211A1E6
:102310001AA0FDF7D1FF04EB84010D4A02EB810006
:1023200041684968416000F1080142688A4202D16F
:102330004168496841604168C968144A116000BF3A
:1023400010BD000078000020600000205400002034
:10235000FC0000202E2E5C2E2E5C4D6964646C65A2
:1023600077617265735C4672656552544F535C7356
:1023700072635C7461736B732E6300004572726FDD
:10238000723A2025732C2025640D0A003C000020A1
:102390001CB53B4C204600780190FF202146087078
:1023A0000846007800909DF8000000F0F0009DF8CD
:1023B0000010884201D1012000E0002028B940F23D
:1023C0001F1230A13DA0FDF777FF9DF8000000F03F
:1023D00050003E49087007203D49086009E03C482C
:1023E0000068401E3A4908609DF800004006000E53
:1023F00000909DF8000000F080008028EFD0344865
:102400000068C0F10700042801D1012000E000208D
:1024100028B940F233121BA128A0FDF74DFF2C482C
:102420000068C0F10700042801D1012000E000206D
:1024300028B94FF49E7213A120A0FDF73DFF244858
:1024400000680002224908600846008800F4E06045
:1024500008600B49019808701E48006840F470003D
:102460001C4908600846006840F070400860FFF7AB
:10247000DBFC002018490860FDF7C2FE00201CBDEF
:1024800000E400E02E2E5C2E2E5C4D6964646C65C9
:1024900077617265735C4672656552544F535C7028
:1024A0006F727461626C655C525644535C41524D6C
:1024B0005F434D335C706F72742E63004572726FB0
:1024C000723A2025732C2025640D0A009400002008
:1024D0009800002020ED00E09000002010B500BF23
:1024E000502080F31188BFF34F8FBFF36F8F00BF71
:1024F00000F048FA18B14FF080500449086000BF5E
:10250000002080F3118800BF10BD000004ED00E042
:102510002DE9F84305460E4617460024E5B1601E36
:10252000B0FBF5F0B04217D305FB06F010F1550FE4
:1025300012D805FB06F909F15400FFF75BFA0446CF
:102540008CB1A04608F154083B4642463146284625
:102550000094FEF7A1FE06E02CB94FF4E37203A14C
:102560000CA0FDF7A9FE2046BDE8F8832E2E5C2EB8
:102570002E5C4D6964646C6577617265735C46724C
:10258000656552544F535C7372635C717565756514
:102590002E6300004572726F723A2025732C20253D
:1025A000640D0A002DE9F04105460E4601272C4630
:1025B0002CB94FF488722CA135A0FDF77DFE002CBC
:1025C00042D0E06B00283FD04FF0FF31E06BB1FB11
:1025D000F0F0216C884237D3FFF732FBD4E90F12B9
:1025E000206801FB0200A0600020A06320686060FA
:1025F000E06B401E226C216800FB0211E160FF20AD
:1026000084F8440084F845009EB9206908B9012087
:1026100000E00020A8B904F1100000F033FB80B105
:102620004FF080501E490860BFF34F8FBFF36F8F8C
:1026300007E004F11000FFF7CDFA04F12400FFF7E2
:10264000C9FAFFF747FB00E000270FB1012000E0C7
:10265000002028B940F2451203A10DA0FDF72CFE81
:102660003846BDE8F08100002E2E5C2E2E5C4D69B0
:1026700064646C6577617265735C4672656552541B
:102680004F535C7372635C71756575652E630000F2
:102690004572726F723A2025732C2025640D0A0052
:1026A00004ED00E02DE9F74183B005460E464FF0FA
:1026B00000082C462CB940F251524CA155A0FDF710
:1026C000FBFD0EB9206C08B9012000E0002028B9FC
:1026D00040F2555245A14FA0FDF7EEFD00F03CF948
:1026E00008B9059808B9012000E0002028B940F297
:1026F0005A523EA147A0FDF7DFFD00BFFFF7A0FA49
:10270000A76BF7B131462046FEF702FD781EA063A5
:10271000206908B9012000E0002060B904F1100030
:1027200000F0B0FA38B14FF080503E490860BFF376
:102730004F8FBFF36F8FFFF7CDFA012006B0BDE8D2
:10274000F081059818B9FFF7C5FA0020F6E7B8F14F
:10275000000F04D101A8FFF7C3FC4FF00108FFF7F9
:10276000B9FAFFF7AFFDFFF76BFA94F94400401C8C
:1027700010B9002084F8440094F94500401C10B9B9
:10278000002084F84500FFF7A5FA05A901A800F08C
:102790004BF8F0B92046FEF7AFFEA0B104F12400DB
:1027A0000599FFF7AFFC2046FFF7DBF800F012FBBE
:1027B0000028A3D14FF080501A490860BFF34F8F13
:1027C000BFF36F8F9AE72046FFF7CBF800F002FBCC
:1027D00094E72046FFF7C5F800F0FCFA2046FEF724
:1027E0008BFE00288AD00020A8E700002E2E5C2E49
:1027F0002E5C4D6964646C6577617265735C4672CA
:10280000656552544F535C7372635C717565756591
:102810002E6300004572726F723A2025732C2025BA
:10282000640D0A0004ED00E070B506460C462EB9B2
:1028300040F6FD421FA129A0FDF73EFD2CB940F650
:10284000FE421CA125A0FDF737FDFFF7F9F9274847
:1028500002687068131A2648006890F8590030B171
:1028600000202349096881F8590001251EE02068ED
:10287000401C08B9002519E01E49306809688842E3
:1028800006D07068904203D80125002020600DE03A
:102890002068984207D92068C01A20603046FFF7A8
:1028A0001FFC002502E0002020600125FFF712FA3E
:1028B000284670BD2E2E5C2E2E5C4D6964646C65BE
:1028C00077617265735C4672656552544F535C73F1
:1028D00072635C7461736B732E6300004572726F78
:1028E000723A2025732C2025640D0A005000002028
:1028F0003C000020640000202DE9FF4F85B0804699
:1029000089461746DDE912ABB800FFF773F80646B3
:1029100056B15C20FFF76EF804460CB1266304E064
:102920003046FFF715FA00E000247CB10020CDE925
:1029300000ABCDE902403A4649464046089BFEF7C7
:10294000C3FC2046FEF718FB012501E04FF0FF35E0
:10295000284609B0BDE8F08F0549096809B901208A
:1029600005E00449096809B9022000E00020704729
:1029700058000020780000200149086870470000D6
:10298000500000202DE9F0414FF000085F4800683A
:1029900000287DD15E480068451C5D480560002D1B
:1029A0001DD15C480068006808B9012000E00020E3
:1029B00028B940F6C72258A161A0FDF77DFC554813
:1029C00007686348006853490860614807606148C8
:1029D0000068401C5F490860FEF728FF00BF5E48A2
:1029E0000068854277D300BF4A480068006808B98C
:1029F000012000E0002020B14FF0FF305649086070
:102A000068E044480068C068C4686668B54202D29D
:102A1000514806605EE06069D4E902128A60D4E938
:102A200002214A60211D42688A4201D1E168416069
:102A3000002262610168491E0160A06A98B1A06A23
:102A4000D4E907128A60D4E907214A6004F1180129
:102A500042688A4201D1216A41600022A262016873
:102A6000491E016000BF94F82C10012088403B49AA
:102A70000968084339490860E16A01EB8101384A75
:102A800002EB81014868A0608268E260211D00E0DD
:102A900033E0826851608160E16A01EB8101304A74
:102AA00002EB81026261E16A01EB81012C4A52F87A
:102AB0002110491CE26A02EB8202294B43F82210E2
:102AC0002849E06A0968C96A88428DD34FF0010835
:102AD0008AE700E000BF23480068C06A00EB80007E
:102AE0001F4951F82000012801D94FF001081E4864
:102AF000006808B14FF0010804E01C480068401C61
:102B00001A4908604046BDE8F081000078000020C6
:102B100050000020400000202E2E5C2E2E5C4D69BF
:102B200064646C6577617265735C46726565525466
:102B30004F535C7372635C7461736B732E6300003C
:102B40004572726F723A2025732C2025640D0A009D
:102B500044000020640000206C000020540000208D
:102B6000FC0000203C000020600000205C000020F1
:102B700070B505462C460026002D5ED03048006812
:102B8000844201D1012000E0002028B941F24F0227
:102B90002CA136A0FDF790FB206D28B941F2500220
:102BA00028A132A0FDF788FB206D401E2065E16C56
:102BB000E06A884241D0206D00283ED1201DFEF7FA
:102BC000F5FF40B994F82C10012088402B49096882
:102BD00081432A480160E06CE062E06AC0F12000B5
:102BE000A06194F82C10012088402449096808430A
:102BF00022490860E16A01EB8101214A02EB81016F
:102C00004868A0608268E260211D8268516081602E
:102C1000E16A01EB81011A4A02EB81026261E16A19
:102C200001EB8101164A52F82110491CE26A02EBBD
:102C30008202134B43F822100126304670BD00007B
:102C40003C0000202E2E5C2E2E5C4D6964646C6569
:102C500077617265735C4672656552544F535C735D
:102C600072635C7461736B732E6300004572726FE4
:102C7000723A2025732C2025640D0A005400002090
:102C8000FC00002070B50646F068C4682CB940F618
:102C900082423CA145A0FDF70FFBA06AD4E90712D0
:102CA0008A60D4E907214A6004F1180142688A4227
:102CB00001D1216A41600022A2620168491E0160BF
:102CC0003E48006800283DD16069D4E902128A605C
:102CD000D4E902214A60211D42688A4201D1E1689B
:102CE0004160002262610168491E016094F82C1065
:102CF0000120884032490968084331490860E16A87
:102D000001EB81012F4A02EB81014868A0608268D3
:102D1000E260211D826851608160E16A01EB8101FE
:102D2000284A02EB81026261E16A01EB8101254AD6
:102D300052F82110491CE26A02EB8202214B43F84F
:102D4000221010E020494868E0618268226204F1A4
:102D500018018268516081601B4AA26211460968AD
:102D6000491C116000BF1949E06A0968C96A8842B4
:102D700004D9012501201649086000E000252846F5
:102D800070BD00002E2E5C2E2E5C4D6964646C6557
:102D900077617265735C4672656552544F535C731C
:102DA00072635C7461736B732E6300004572726FA3
:102DB000723A2025732C2025640D0A00780000202B
:102DC00054000020FC000020A40300203C00002050
:102DD0006000002070B5002400265048006828B923
:102DE00040F6B3024EA158A0FDF766FAFEF728FFA1
:102DF0004A480068401E49490860084600680028A3
:102E00007ED15548006800287AD05BE05348C068FE
:102E1000C468A06AD4E907128A60D4E907214A602D
:102E200004F1180142688A4201D1216A41600022FE
:102E3000A2620168491E01606069D4E902128A60D9
:102E4000D4E902214A60211D42688A4201D1E16829
:102E50004160002262610168491E016094F82C10F3
:102E6000012088403E49096808433D490860E16AFD
:102E700001EB81013B4A02EB81014868A060826856
:102E8000E260211D826851608160E16A01EB81018D
:102E9000344A02EB81026261E16A01EB8101314A4D
:102EA00052F82110491CE26A02EB82022D4B43F8D2
:102EB00022102D49E06A0968C96A884202D30120BC
:102EC0002A4908602548006808B9012000E0002070
:102ED00000289BD00CB1FEF7A9FC2548056865B118
:102EE00000BFFFF74FFD10B10120204908606D1EA3
:102EF000002DF6D100201E4908601C48006800E043
:102F000008E038B1012630071A490860BFF34F8F37
:102F1000BFF36F8FFEF7DEFE304670BD78000020F5
:102F20002E2E5C2E2E5C4D6964646C657761726533
:102F3000735C4672656552544F535C7372635C7484
:102F400061736B732E6300004572726F723A2025B5
:102F5000732C2025640D0A004C000020A4030020DF
:102F600054000020FC0000203C00002060000020F5
:102F70005C00002004ED00E01CB50024FEF772F8B0
:102F80000B48006858B10B481F2100234FF4807292
:102F9000CDE9001008A10A48FFF7AEFC04462CB9A1
:102FA00040F2191207A111A0FDF786F920461CBDB9
:102FB0008400002088000020546D72205376630046
:102FC000491900082E2E5C2E2E5C4D6964646C65D8
:102FD00077617265735C4672656552544F535C73DA
:102FE00072635C74696D6572732E63004572726FF3
:102FF000723A2025732C2025640D0A001C3000082D
:1030000000000020BC0000006C010008D83000085F
:10301000BC000020AC3100008801000800A24A0476
:103020000000000000000000010203040607080978
:103030000000000000000000000000000102030486
:103040000102030406070809020406080000000044
:103050000000000000000000000000000000000070
:103060000000000000000000000000000000000060
:103070000000000000000000000000000000000050
:103080000000000000000000000000000000000040
:103090001F00000000000000000000000000000011
:1030A000000000000000000000000000AAAAAAAA78
:1030B0000000000000000000000000000000000010
:1030C0000000000000000000000000000000000000
:0830D0000000000000000000F8
:0400000508000131BD
:00000001FF
