:020000040800F2
:100000007032002075020008C90900086F08000856
:10001000C50900083D070008990F0008000000000E
:10002000000000000000000000000000DD010008EA
:10003000410700080000000021020008A90C000888
:100040008F0200088F0200088F0200088F0200084C
:100050008F0200088F0200088F0200088F0200083C
:100060008F0200088F0200088F0200088F0200082C
:100070008F0200088F0200088F0200088F0200081C
:100080008F0200088F0200088F0200088F0200080C
:100090008F0200088F0200088F0200088F020008FC
:1000A0008F0200088F0200088F0200088F020008EC
:1000B0008F0200088F0200088F0200088F020008DC
:1000C0008F0200088F0200088F0200088F020008CC
:1000D0008F0200088F0200088F0200088F020008BC
:1000E0008F0200088F0200088F0200088F020008AC
:1000F0008F0200088F0200088F0200088F0200089C
:100100008F0200088F0200088F0200088F0200088B
:100110008F0200088F0200088F0200088F0200087B
:100120008F0200088F0200088F0200088F0200086B
:1001300000F002F800F042F80AA090E8000C8244B7
:100140008344AAF10107DA4501D100F037F8AFF294
:10015000090EBAE80F0013F0010F18BFFB1A43F0A5
:10016000010318477433000094330000103A24BF91
:1001700078C878C1FAD8520724BF30C830C144BF0C
:1001800004680C607047000000230024002500264E
:10019000103A28BF78C1FBD8520728BF30C148BFEA
:1001A0000B607047642900F0F180732900F026820B
:1001B000002070471FB51FBD10B510BD00F08CFAB0
:1001C0001146FFF7F7FF00F06FFF00F0AAFA03B443
:1001D000FFF7F2FF03BC00F0E1FE0000224B1968BC
:1001E0000868B0E8F00F80F30988BFF36F8F4FF015
:1001F000000080F311884EF00D0E704700000000E3
:1002000006480068006880F3088862B661B6BFF3EC
:100210004F8FBFF36F8F00DF00BF00BF08ED00E01E
:10022000EFF30980BFF36F8F0F4B1A6820E9F00FCF
:10023000106008B54FF0500080F31188BFF34F8F66
:10024000BFF36F8F02F0C4F94FF0000080F3118804
:10025000BDE8084019680868B0E8F00F80F3098825
:10026000BFF36F8F704700BF40000020EFF30580A1
:10027000704700000948804709480047FEE7FEE74D
:10028000FEE7FEE7FEE7FEE7FEE7FEE7FEE7FEE746
:1002900004480549054A064B704700000D0D00084B
:1002A00031010008702C002070320020702E0020D8
:1002B000702E0020704700000FB4044910B503AA47
:1002C000029800F09FF910BC5DF814FB18000020A4
:1002D0002DE9F0410E460446002020622046E168E8
:1002E000884730B3252805D0D4E901219047206AFA
:1002F000401CF2E7E168204600278847050018D037
:10030000A5F14100192802D820354FF40067324684
:10031000294620462760FFF745FF40B1012804D059
:10032000F61D26F007060836D8E7361DD6E728461C
:10033000DAE7206ABDE8F08170B50C460546012A6F
:1003400005D02878800600D5EA69002302E0012361
:1003500005E05B1C934202D2E05C0028F9D1A86959
:10036000E618C01AA861286A184428622846AFF324
:10037000008004E0D5E9012114F8010B9047B44254
:10038000F8D32846AFF3008070BD00002DE9F0419E
:100390000646002410687529314616A510D0AFF323
:1003A0000080002802DA404213A507E031688A077E
:1003B00001D512A502E0490704D511A5012401E0E9
:1003C000AFF3008000210A2206F1240709E0B0FB08
:1003D000F2FCB0FBF2F302FB1C00303078541846FC
:1003E000491C0028F3D123462A463046BDE8F04197
:1003F00000F080B8000000002D0000002B0000007D
:1004000020000000032A40F2308010F0030C00F0BE
:10041000158011F8013BBCF1020F624498BF11F83E
:1004200001CB00F8013B38BF11F8013BA2F10402F7
:1004300098BF00F801CB38BF00F8013B11F003036F
:1004400000F0F280083AC0F0088051F8043B083A06
:1004500051F804CBA0E80810F5E7121D5CBF51F875
:10046000043B40F8043BAFF30080D20724BF11F8EF
:10047000013B11F801CB48BF11F8012B24BF00F854
:10048000013B00F801CB48BF00F8012B704702F098
:10049000FF0343EA032242EA024200F0F9B84FF0B8
:1004A000000200B5134694469646203922BFA0E8C4
:1004B0000C50A0E80C50B1F12001BFF4F7AF0907D0
:1004C00028BFA0E80C5048BF0CC05DF804EB8900C1
:1004D00028BF40F8042B08BF704748BF20F8022B04
:1004E00011F0804F18BF00F8012B7047704770471C
:1004F000704770472DE9F0470D46994692460446ED
:1005000000F124080168880604D5E06921F0100193
:10051000216000E00120A84201DD471B00E0002728
:10052000A1697A1902EB0900081AA0612078C006B7
:1005300002D42046AFF30080002608E0D4E9012170
:100540001AF806009047206A401C761C20624E452F
:10055000F4DB2078C0060AD52046AFF3008006E021
:10056000D4E9012130209047206A401C2062381EC7
:10057000A7F10107F4DC07E0D4E9012118F8050030
:100580009047206A401C2062281EA5F10105F3DC7B
:100590002046AFF300802078000602D50220BDE897
:1005A000F0870120FBE7000001694A1C026108781E
:1005B000704700B58FB0CDE90131002105910549A3
:1005C0007944CDE9031011466846FFF781FE0FB06C
:1005D00000BD0000E5FFFFFF10B5436913B1AFF3A5
:1005E000008001E0FFF7A8FE012010BD127800F1A5
:1005F00024010A7000224A700122EDE711684FF0D1
:10060000FF32E9E7074B70B50D467B44FFF7D1FF9A
:100610000446284600F05CF810B14FF0FF3070BD82
:10062000204670BDF309000010B5203AC0F00B80E1
:10063000B1E81850203AA0E81850B1E81850A0E8E6
:100640001850BFF4F5AF5FEA027C24BFB1E8185040
:10065000A0E8185044BF18C918C0BDE810405FEAB0
:10066000827C24BF51F8043B40F8043B08BF70472C
:10067000D20728BF31F8023B48BF11F8012B28BF31
:1006800020F8023B48BF00F8012B70474FF00002F2
:100690000429C0F0128010F0030C3FF402AFCCF13B
:1006A000040CBCF1020F18BF00F8012BA8BF20F802
:1006B000022BA1EB0C01FFF7F4BE5FEAC17C24BF63
:1006C00000F8012B00F8012B48BF00F8012B704700
:1006D000007B00F080007047754600F02BF8AE46B6
:1006E00005006946534620F00700854618B020B53E
:1006F000FFF7CEFDBDE820404FF000064FF00007A9
:100700004FF000084FF0000B21F00701AC46ACE8B9
:10071000C009ACE8C009ACE8C009ACE8C0098D4626
:10072000704710B50446AFF300802046BDE8104086
:10073000FFF74DBD004870470C2C002000BFFEE7BE
:1007400070472DE9F04102460025002600200023D5
:100750000024002791F803C00CF00F0591F803C0A6
:100760000CF0100CBCF1000F03D091F802C04CEA61
:10077000050591F800C0BCF1000F31D014680020CD
:100780002BE04FF0010C0CFA00F3B1F800C00CEABA
:1007900003069E4220D183004FF00F0C0CFA03F7A2
:1007A000BC4305FA03FC4CEA040491F803C0BCF115
:1007B000280F06D14FF0010C0CFA00FCC2F814C04F
:1007C0000AE091F803C0BCF1480F05D14FF0010CCD
:1007D0000CFA00FCC2F810C0401C0828D1D31460E9
:1007E000B1F800C0BCF1FF0F34DD546800202EE0EA
:1007F00000F1080C4FF0010808FA0CF3B1F800C042
:100800000CEA03069E4221D183004FF00F0C0CFA34
:1008100003F7BC4305FA03FC4CEA040491F803C057
:10082000BCF1280F05D100F1080C08FA0CF8C2F849
:10083000148091F803C0BCF1480F07D100F1080CF7
:100840004FF0010808FA0CF8C2F81080401C082884
:10085000CED35460BDE8F0810246002093680B407F
:100860000BB1012000E0002070470161704700BF1C
:10087000FEE7000008B50121042000F0B1F80121D5
:10088000402000F0ADF81820ADF8000048208DF8A9
:10089000030069460648FFF754FF0120ADF8000049
:1008A00028208DF8030069460248FFF74AFF08BD7B
:1008B000001801400008014010B5002429480078C4
:1008C00000283AD001212848FFF7C6FF012809D0A7
:1008D00010212648FFF7C0FF20B108212348FFF769
:1008E000BBFF10BB0A2000F05BFB01211E48FFF795
:1008F000B3FF012809D010211C48FFF7ADFF20B13C
:1009000008211A48FFF7A8FF78B900201549087098
:1009100010211648FFF7A0FF08B901240DE00821B7
:100920001248FFF799FF08B9022406E001210E489A
:10093000FFF792FF012800D1032401210A48FFF7A5
:100940008BFF68B910210948FFF786FF012807D1FE
:1009500008210648FFF780FF012801D101490870EE
:10096000204610BD30000020000801400018014062
:1009700008B50121082000F033F80121402000F0E3
:100980002FF82020ADF8000010208DF80300032080
:100990008DF8020069460948FFF7D3FE2020ADF824
:1009A000000069460648FFF7CCFE20210348FFF708
:1009B0005CFF20210248FFF758FF08BD000C0140F2
:1009C0000018014000BFFEE77047000002490143E4
:1009D000024A1160704700000000FA050CED00E0CB
:1009E00029B1064A92690243044B9A6104E0034A22
:1009F00092698243014B9A617047000000100240E7
:100A000030B500210022002400232D4D6D6805F033
:100A10000C0121B1042905D0082923D105E0294D75
:100A2000056022E0274D05601FE0254D6D6805F447
:100A30007012234D6D6805F48034022505EB924257
:100A40001CB9214D554305600BE01D4D6D6805F443
:100A500000351DB11C4D5543056002E0194D55434D
:100A6000056002E0174D056000BF00BF144D6D68C2
:100A700005F0F0010909154D6B5C0568DD40456026
:100A80000F4D6D6805F4E061090A104D6B5C456817
:100A9000DD4085600A4D6D6805F46051C90A0B4D53
:100AA0006B5C4568DD40C560054D6D6805F44041EF
:100AB000890B074D6B5CC568B5FBF3F5056130BD6F
:100AC0000010024000127A0000093D001C000020C6
:100AD0002C00002010B500F001F810BD0CB500206E
:100AE000019000903348006840F48030314908603C
:100AF00000BF3048006800F4003000900198401CAE
:100B00000190009818B90198B0F5A06FF1D129486B
:100B1000006800F4003010B10120009001E00020D6
:100B200000900098012843D12348006840F010004D
:100B3000214908600846006820F003000860084664
:100B4000006840F0020008601A484068194948608F
:100B50000846406848600846406840F48060486045
:100B60000846406820F47C1048600846406840F41D
:100B7000E81048600846006840F08070086000BFD8
:100B80000C48006800F000700028F9D0094840685F
:100B900020F00300074948600846406840F0020022
:100BA000486000BF0348406800F00C000828F9D1F5
:100BB0000CBD000000100240002002407CB505463C
:100BC000012401F0BBF91748012100234022CDE99F
:100BD000001015A1164802F00DF80446012C03D1AF
:100BE00014A0FFF769FB02E018A0FFF765FB1D48A2
:100BF000022100234022CDE900101BA11C4801F076
:100C0000F9FF0446012C03D11AA0FFF755FB02E0BF
:100C10001EA0FFF751FB2348006801F04BFB01F0D9
:100C2000D7F97CBD380000205461736B310000009F
:100C30006D0D00085461736B31C8CECEF1B4B4BDF4
:100C4000A8B3C9B9A6210D0A000000005461736B56
:100C500031C8CECEF1B4B4BDA8CAA7B0DC210D0A0C
:100C6000000000003C0000205461736B3200000063
:100C7000D50D00085461736B32C8CECEF1B4B4BD4B
:100C8000A8B3C9B9A6210D0A000000005461736B16
:100C900032C8CECEF1B4B4BDA8CAA7B0DC210D0ACB
:100CA000000000003400002010B502F0C3F8012855
:100CB00001D001F091FD10BD10B500224FF0E023EE
:100CC0001A611A46126922F004021A61C31700EB76
:100CD0005373C3F3CF030C4C2380C31700EB537340
:100CE000D9104FF47A7251434FF0E022126942F06A
:100CF00002024FF0E0231A611A465161126942F074
:100D000001021A6110BD00001400002010B5134844
:100D1000006840F001001149086008464068104929
:100D200008400E494860084600680E4908400B49D3
:100D300008600846006820F4802008600846406883
:100D400020F4FE0048604FF41F008860FFF7C2FEE9
:100D50004FF000600449086010BD00000010024020
:100D60000000FFF8FFFFF6FE08ED00E0002416E0AB
:100D70004FF0FF320121002001F02AF8044674B13F
:100D80000748006880F020000549086005480068B1
:100D900080F020000349086003A0FFF78DFAE7E721
:100DA0000C0C01400C180140BDD3CAD5C8CECEF101
:100DB000CDA8D6AAB3C9B9A6A3ACC4A3C4E2BBF15B
:100DC000C8A1B6FED6B5D0C5BAC5C1BFA3A10D0A8C
:100DD0000000000008B5002412E0FFF76DFD044696
:100DE0005CB108A0FFF768FA002002230246014622
:100DF00000900C48006801F02DFF0A2001F016FA5F
:100E0000EBE70000C8CECEF1CDA8D6AAC4A3C4E2B9
:100E1000B6FED6B5D0C5BAC5C1BFCACDB7C5A3A1A8
:100E20000D0A00003800002010B586B004460121EC
:100E300044F20400FFF7D4FD4FF40070ADF8140045
:100E400018208DF8170003208DF8160005A9144806
:100E5000FFF777FC4FF48060ADF8140004208DF8A4
:100E6000170003208DF8160005A90D48FFF769FC4F
:100E700001940020ADF80800ADF80A00ADF80C00B0
:100E8000ADF810000C20ADF80E0001A9054800F0E7
:100E900017F80121034800F007F806B010BD000064
:100EA000000801400038014021B1828942F400521B
:100EB000828104E082894DF6FF731A408281704777
:100EC0002DE9F04786B005460E460024A24600BF35
:100ED000A1460027B08900B100BF2F462C8A4CF6EE
:100EE000FF700440F08804432C82AC894EF6F31066
:100EF0000440B08831890843718908430443AC81B8
:100F0000AC8A4FF6FF400440B0890443AC8201A88C
:100F1000FFF776FD1F48874202D1DDF810A001E0FF
:100F2000DDF80CA0A88900F4004040B10AEBCA002B
:100F300000EB0A1031684900B0FBF1F807E00AEB5A
:100F4000CA0000EB0A1031688900B0FBF1F8642098
:100F5000B8FBF0F004012009642101FB1089A88985
:100F600000F4004040B1322000EBC900B0FBF1F0CA
:100F700000F00700044308E0322000EB0910642170
:100F8000B0FBF1F000F00F0004432C8106B0BDE887
:100F9000F08700000038014000BFFEE700BF704747
:100FA00030B50446002504E04FF47A7000F004F8F0
:100FB0006D1CA542F8D330BD70B5034600224FF03A
:100FC000E02675690D4E368803FB06F44FF0E026E7
:100FD000B16910E04FF0E026B06988420BD088423A
:100FE00002D20E1A324402E02E1A0E443244014656
:100FF000A24200D300E0EDE700BF70BD1400002066
:1010000000BF054A128802F04002002AF9D0C2B29D
:10101000014B1B1D1A807047003801401CB501248C
:101020000B48012100234022CDE9001009A10D4801
:1010300001F0E0FD0446012C03D10BA0FFF73CF9C1
:1010400002E011A0FFF738F901F056FA1CBD0000CC
:101050003400002053746172745461736B43726581
:1010600061746500BD0B0008537461727454617340
:101070006B437265617465C8CECEF1B4B4BDA8B3DC
:10108000C9B9A6210D0A00005374617274546173CA
:101090006B437265617465C8CECEF1B4B4BDA8CAA5
:1010A000A7B0DC210D0A000010B54FF44070FFF727
:1010B0008DFC4820FFF700FE4FF4E130FFF7B4FE4F
:1010C000FFF756FCFFF7D6FBFFF7A8FF002010BD87
:1010D0002DE9F04105460E462948076800202949B8
:1010E000096881F8590027480068001D00F0DCFEFF
:1010F00050B92448006890F82C10012088402249FB
:101100000968814320480160681CD8B9D6B11F49DD
:1011100048681C49096888601A4982680968CA6079
:1011200018490968091D8268516016490968091D36
:101130008160164A134909684A6111460968491CC9
:1011400011601AE07C190F4800684460BC4207D265
:101150000C480168091D0E48006800F0C9FE0CE04B
:1011600008480168091D0B48006800F0C1FE0A48E4
:101170000068844201D208480460BDE8F0810000A4
:10118000540000204000002058000020D003002020
:1011900048000020440000207000002010B50446E4
:1011A00000F0CCFE31480068401C304908603048EF
:1011B000006840B92E4804600846006801280DD137
:1011C00000F018FA0AE02B48006838B9284800688F
:1011D000C06AE16A884201D8254804602648006850
:1011E000401C2549086008460068606494F82C108B
:1011F0000120884021490968084320490860E16AC4
:1012000001EB81011E4A02EB81014868A0608268FF
:10121000E260211D826851608160E16A01EB810119
:10122000174A02EB81026261E16A01EB8101144A13
:1012300052F82110491CE26A02EB8202104B43F87B
:10124000221000F0C5FE0B48006868B1084800682D
:10125000C06AE16A884207D24FF0805009490860AD
:10126000BFF34F8FBFF36F8F10BD00005000002001
:10127000400000205C0000206C000020580000208E
:101280000001002004ED00E010B500F057FE10480A
:101290000068D0B90F4800F01BFE0F4800F018FEA0
:1012A0000C480E4908600C480D49086000221021C6
:1012B000052001F0ABFA064908600846006820B135
:1012C00008A10348006800F043FF00F081FE10BD54
:1012D00088000020E4030020F803002080000020A4
:1012E00084000020546D72510000000010B516E01B
:1012F00000F024FE0C48C068C468201D00F0D4FD36
:101300000A480068401E0949086009480068401EF4
:101310000749086000F05CFE204600F05FF80448D2
:1013200000680028E4D110BDBC030020500000205C
:101330004C00002070B504460D46206C70B1216C45
:10134000E0680144E160D4E90210884201D32168D9
:10135000E1602846226CE168FFF754F870BD2DE982
:10136000F04104460F4615464FF00008A66B206C6E
:1013700048B9206800282CD1A06801F067FE80469B
:101380000020A06025E07DB93946226C6068FFF737
:1013900039F8216C606808446060D4E90101884232
:1013A00017D32068606014E03946226CE068FFF7CC
:1013B00029F8216CE068411AE1602168E068884200
:1013C00003D2216CA068411AE160022D01D106B15F
:1013D000761E701CA0634046BDE8F08110B504463F
:1013E000206B00F033FE204600F030FE10BD000000
:1013F0000146084A126812680AB9012200E0002278
:101400000A600A6822B9034A1268D268106800E0CC
:10141000002070478000002030B54FF4205317485B
:1014200000F007042CB1C01D20F00700134C041B72
:101430001B1B0246124C22600024114D6C60D01818
:10144000083820F007000F4C206000240D4D2D6857
:101450006C600C4D2D682C601146441A4C60094C90
:1014600024680C60084D4C682C60084D4C682C605A
:101470004FF00044064D2C6030BD00000C040020ED
:10148000A0000020A8000020B0000020AC00002038
:10149000BC00002000BFFFF729FF064800680128B4
:1014A000F9D94FF0805004490860BFF34F8FBFF364
:1014B0006F8FF0E70001002004ED00E02DE9F0411E
:1014C00006460D4617469846069C0DB9246000E076
:1014D0002760E66325640121204601F0E1F984F8E4
:1014E00050800020A064BDE8F08100002DE9F05F8D
:1014F00082460F4690469B460A9E0C9C4FEA880106
:10150000A522206BFEF7C3FFA8F10100216B01EBC0
:10151000800929F0070909F0070008B9012000E057
:10152000002028B94FF4587224A12EA0FEF7C4FE63
:1015300087B1002507E0795D04F134004155785DFD
:1015400000B902E06D1C102DF5D300BF002143202F
:10155000015502E0002084F83400202E01D2012041
:1015600000E0002028B940F2973214A11DA0FEF738
:10157000A3FE202E00D31F26E662E664002020652D
:10158000201D00F0B2FC04F1180000F0AEFC246154
:10159000C6F12000A06164620020606584F85800F4
:1015A00084F859005A465146484600F0FFFB206037
:1015B0000B9808B10B980460BDE8F09F2E2E5C2EAE
:1015C0002E5C4D6964646C6577617265735C46720C
:1015D000656552544F535C7372635C7461736B73D3
:1015E0002E6300004572726F723A2025732C2025FD
:1015F000640D0A0010B5002407E004EB84010F4AD3
:1016000002EB810000F064FC641C202CF5D30C4834
:1016100000F05EFC0B4800F05BFC0B4800F058FC4F
:101620000A4800F055FC0A4800F052FC04480949F9
:10163000086004480849086010BD0000000100204F
:101640008003002094030020A8030020BC03002096
:10165000D0030020440000204800002010B50146BF
:10166000164800E0006803688B42FBD302464368DB
:1016700013448B4204D143684C68234443600146C1
:101680000A464B6813440468A34211D10C4C03680A
:101690002468A34208D04B680468646823444B6004
:1016A00003681B680B6005E0054B1B680B6001E0DD
:1016B00003680B60884200D0016010BDA0000020CC
:1016C000A80000202DE9F04104460D4616461F46AD
:1016D0004FF0000865602461B5420CD8F01BA16989
:1016E000884202D34FF0010811E0211D094800682B
:1016F00000F0FEFB0BE0BE4204D2BD4202D34FF02D
:10170000010804E0211D0448006800F0F1FB404698
:10171000BDE8F081840000208000002070B50546FF
:1017200000F00CFCA86B08B9012400E0002400F0D4
:101730004FFC204670BD0000F1B50098846C002677
:101740002CB940F6D43220A129A0FEF7B5FDA06B3C
:10175000E16B884201D2012000E0002028B940F668
:10176000D53219A122A0FEF7A7FDA06BE16B88423C
:1017700027D294F94550002269462046FFF7EFFD35
:101780000646681C60B9606A08B9012000E00020C4
:10179000B0B904F1240001F0E3FC88B101260FE0A8
:1017A0007F2D01D0012000E0002028B940F6F5325D
:1017B00005A10FA0FEF780FD681C40B284F845002B
:1017C00000BF3046F8BD00002E2E5C2E2E5C4D6909
:1017D00064646C6577617265735C467265655254CA
:1017E0004F535C7372635C71756575652E630000A1
:1017F0004572726F723A2025732C2025640D0A0001
:1018000070B505460E460E480068C068C468201DC5
:1018100000F04AFB94F8280000F0040028B132469A
:101820002946204600F000F905E094F8280000F071
:10183000FE0084F828002046216A884770BD000019
:101840008000002070B586B08AE0029800280CDA8B
:1018500003AE2EB940F2063247A151A0FEF72CFD8F
:10186000D6E90020B168904700BF0298002877DBD6
:10187000049C606908B9012000E0002010B9201D17
:1018800000F012FB01A800F0FBF8054602980A28B8
:1018900064D2DFE800F06305072E365306082F37C1
:1018A00000BF00BF00BF94F8280040F0010084F89A
:1018B00028000398A269811803462A462046FFF7AC
:1018C00001FFA8B194F8280000F0040038B1039893
:1018D000A26981182A46204600F0A6F805E094F88F
:1018E000280000F0FE0084F828002046216A88477E
:1018F00035E000BF94F8280000F0FE0084F82800CE
:101900002DE000BF94F8280040F0010084F8280082
:101910000398A061A06908B1012000E0002028B967
:1019200040F2593214A11EA0FEF7C6FCA06941196D
:101930002B462A462046FFF7C5FE10E094F8280003
:1019400000F0020018B9204600F080FB05E094F892
:10195000280000F0FE0084F8280000E000BF00BF6F
:10196000002202A91248006801F01AF800287FF44A
:101970006CAF06B070BD00002E2E5C2E2E5C4D6943
:1019800064646C6577617265735C46726565525418
:101990004F535C7372635C74696D6572732E630080
:1019A0004572726F723A2025732C2025640D0A004F
:1019B00088000020F8B505460C4600F001FE684698
:1019C00000F05EF80646009820BB44B9B54206D840
:1019D00001F06EFC31462846FFF712FF1CE03CB1D7
:1019E0000E480068006808B9012000E000200446A5
:1019F000A91B22460A48006800F0F2FB01F058FCDF
:101A000050B94FF0805007490860BFF34F8FBFF3C4
:101A10006F8F01E001F04CFCF8BD00008400002055
:101A20008800002004ED00E070B504460D4616461F
:101A300004E0A06905442046216A8847A06941194D
:101A40002B4632462046FFF73DFE0028F1D170BDFF
:101A500009480068006808B9012000E0002020B1B2
:101A60004FF0FF300549086005E003480068C06892
:101A700000680249086070474400002070000020A0
:101A800070B5044601F0E6F905460748006885424E
:101A900004D200F00BF80120206001E0002020605B
:101AA00001480560284670BD9000002070B508E030
:101AB0000D480068C06804684FF0FF312046FFF70A
:101AC0009FFE09480068006808B9012000E0002076
:101AD0000028EDD004480568044800680249086001
:101AE0000248056070BD00008000002084000020D6
:101AF0000B480068401C08B9012000E0002020B914
:101B0000CE2208A115A0FEF7D7FB00BF502080F31E
:101B10001188BFF34F8FBFF36F8F00BF00BFFEE789
:101B2000940000202E2E5C2E2E5C4D6964646C6542
:101B300077617265735C4672656552544F535C7091
:101B40006F727461626C655C525644535C41524DD5
:101B50005F434D335C706F72742E63004572726F19
:101B6000723A2025732C2025640D0A0008B500BFA9
:101B70006846FFF73DFC044620460099FFF71AFF30
:101B8000FFF760FEF4E770B5044600F0D7F994F96A
:101B9000455019E0A06C30B12046FFF7CDFD88B16B
:101BA00000F028FC0EE0606A08B9012000E0002087
:101BB00038B904F1240001F0D3FA18B100F01AFC8E
:101BC00000E003E0681E45B2002DE3DC00BFFF200B
:101BD00084F8450000F0FCF900F0B0F994F94450A5
:101BE00010E0206908B9012000E0002048B904F1A4
:101BF000100001F0B5FA08B100F0FCFB681E45B218
:101C000000E001E0002DECDC00BFFF2084F8440080
:101C100000F0DEF970BD00002DE9F04104464FF000
:101C2000000800F0CDFC4948006808B9FFF7F4FB54
:101C3000474800682040002875D1002C23D004F1CB
:101C40000800A0421FD9083404F0070000281BD068
:101C500004F00700C0F108002044A04211D904F0AC
:101C60000700C0F10800044404F0070008B901208F
:101C700000E0002040B99C2236A144A0FEF71CFBE6
:101C800002E0002400E00024002C4CD0434800680F
:101C9000844248D8424E3046056801E02E462D6801
:101CA0006868A04202D228680028F7D12748006857
:101CB000854238D0306800F10808286830606868CC
:101CC000001B102813D92F1907F0070008B90120AD
:101CD00000E0002020B9CF221EA12CA0FEF7ECFAD4
:101CE0006868001B78606C603846FFF7B7FC2B49CA
:101CF00068680968081A294908600846006829497F
:101D00000968884203D225480068264908601049BE
:101D100068680968084368600020286022480068F5
:101D2000401C2149086001F0C3FA08F0070008B917
:101D3000012000E0002028B94FF4887205A113A00B
:101D4000FEF7BAFA4046BDE8F0810000A800002086
:101D5000BC0000202E2E5C2E2E5C4D6964646C65E8
:101D600077617265735C4672656552544F535C705F
:101D70006F727461626C655C4D656D4D616E675C20
:101D8000686561705F342E63000000004572726FF9
:101D9000723A2025732C2025640D0A00AC00002027
:101DA000A0000020B0000020B4000020001F4FF071
:101DB00080730360001F21F001030360001F034BC9
:101DC000036014380260203870470000F11A0008E0
:101DD0002DE9F04104460F4616460CB9012000E0FB
:101DE000002028B941F266221FA129A0FEF764FA5B
:101DF00000F0A4F82A480068543050F8240080B954
:101E00000121274800685830015556B13046FFF788
:101E10005FF94FF0805023490860BFF34F8FBFF345
:101E20006F8F00F0D5F800F089F81D480068543035
:101E300050F824506DB137B1002119480068543072
:101E400040F8241005E0681E15490968543141F82E
:101E500024000021124800685830015500F0B8F8FD
:101E60002846BDE8F08100002E2E5C2E2E5C4D69C8
:101E700064646C6577617265735C46726565525423
:101E80004F535C7372635C7461736B732E630000F9
:101E90004572726F723A2025732C2025640D0A005A
:101EA0004000002004ED00E001460A69D1E901305C
:101EB0009860D1E9010358605068884201D1886870
:101EC0005060002008611068401E10601068704764
:101ED00000F1080141604FF0FF31816000F108011D
:101EE000C1600161002101607047002101617047FC
:101EF00010B502460B685C1C0CB9106907E002F1D2
:101F0000080000E04068446824689C42FAD94468AC
:101F10004C604C68A160886041600A611468641C70
:101F2000146010BD42684A6093688B609368596082
:101F30009160086103685B1C0360704710B500BFC7
:101F4000502080F31188BFF34F8FBFF36F8F00BF16
:101F50000B480068401C0A490860084600680128D0
:101F60000DD108480068C0B208B9012000E0002087
:101F700028B940F2751204A111A0FEF79DF910BD19
:101F80009400002004ED00E02E2E5C2E2E5C4D69A6
:101F900064646C6577617265735C46726565525402
:101FA0004F535C706F727461626C655C525644533F
:101FB0005C41524D5F434D335C706F72742E630011
:101FC0004572726F723A2025732C2025640D0A0029
:101FD00010B50B48006828B94FF4BE7209A117A0CC
:101FE000FEF76AF906480068401E05490860084681
:101FF000006820B9002080F3118800BF00BF10BD29
:10200000940000202E2E5C2E2E5C4D6964646C655D
:1020100077617265735C4672656552544F535C70AC
:102020006F727461626C655C525644535C41524DF0
:102030005F434D335C706F72742E63004572726F34
:10204000723A2025732C2025640D0A0070B50646CF
:102050003546002E3AD0083D2C461D496068096877
:10206000084008B1012000E0002028B94FF4927226
:1020700018A126A0FEF720F9206808B9012000E089
:10208000002028B940F2251212A120A0FEF714F971
:102090000F49606809680840C0B12068B0B90C49B0
:1020A000606809688843606000F08AFA1B496068CC
:1020B00009680844194908602046FFF7CFFA184814
:1020C0000068401C1649086001F0F2F870BD00007D
:1020D000BC0000202E2E5C2E2E5C4D6964646C6565
:1020E00077617265735C4672656552544F535C70DC
:1020F0006F727461626C655C4D656D4D616E675C9D
:10210000686561705F342E63000000004572726F75
:10211000723A2025732C2025640D0A00AC000020A3
:10212000B800002000204FF0E021086188610748D6
:102130000068C0084FF47A71B0FBF1F0401E4FF018
:10214000E021486103200861704700000000002082
:102150002DE9F04105460F4600262DB940F6C9226B
:1021600010A11AA0FEF7A8F8BFB1002412E01B4886
:1021700000EBC4004068A84203D1184800EBC40635
:102180000AE036B9154850F8340010B9134800EB8E
:10219000C406641C082CEAD300BF0EB1376075601A
:1021A000BDE8F0812E2E5C2E2E5C4D6964646C655A
:1021B00077617265735C4672656552544F535C7308
:1021C00072635C71756575652E6300004572726F90
:1021D000723A2025732C2025640D0A00C0000020CF
:1021E0002DE9F04105460E4617462C46FFF7A6FEA0
:1021F00094F94400401C10B9002084F8440094F97C
:102200004500401C10B9002084F84500FFF7E0FEAF
:10221000A06B28B93A46314604F1240000F024F9B5
:102220002046FFF7B0FCBDE8F081000070B5044621
:102230000025ACB10F48006808B9012000E000207B
:1022400028B940F249520CA115A0FEF735F800F06C
:10225000B7F900212046FEF73BFF01F029F80546BB
:102260003DB94FF0805012490860BFF34F8FBFF364
:102270006F8F70BD7C0000202E2E5C2E2E5C4D6971
:1022800064646C6577617265735C4672656552540F
:102290004F535C7372635C7461736B732E630000E5
:1022A0004572726F723A2025732C2025640D0A0046
:1022B00004ED00E070B50546FFF740FE15B92F4864
:1022C000006800E028460446201DFFF7EDFD78B9C0
:1022D000E06A00EB80002A4951F8200040B994F8E8
:1022E0002C10012088402749096881432548016056
:1022F000A06A18B104F11800FFF7D6FD2248006863
:10230000401C214908601D480068844209D1211DF4
:102310001E48FFF707FE1E480068401C1C49086065
:1023200006E01C480068401E1A490860FFF790FB51
:10233000FFF74EFE11480068844202D02046FFF7A6
:102340004DF815480068C0B10C480068844214D1AB
:102350001248006808B9012000E0002028B940F2C6
:10236000DC420FA118A0FDF7A7FF4FF080501A49DB
:102370000860BFF34F8FBFF36F8F70BD4000002028
:1023800000010020580000206C000020BC03002049
:102390004C000020500000205C0000207C00002049
:1023A0002E2E5C2E2E5C4D6964646C6577617265BF
:1023B000735C4672656552544F535C7372635C7410
:1023C00061736B732E6300004572726F723A202541
:1023D000732C2025640D0A0004ED00E00349096810
:1023E00001600349096841607047000068000020EF
:1023F000540000200120014908607047640000205B
:1024000070B504460D462CB940F61C4207A111A038
:10241000FDF752FF1348016818312046FFF768FDA9
:1024200001212846FEF754FE70BD00002E2E5C2EC2
:102430002E5C4D6964646C6577617265735C46728D
:10244000656552544F535C7372635C7461736B7354
:102450002E6300004572726F723A2025732C20257E
:10246000640D0A004000002070B504460E46154673
:102470002CB940F6524211A11AA0FDF71DFF606869
:102480001C490968C8611B49826809680A621949C0
:1024900009681831826851601649096818318160ED
:1024A000144909688C622168491C21600DB14FF004
:1024B000FF3629463046FEF70BFE70BD2E2E5C2EF1
:1024C0002E5C4D6964646C6577617265735C4672FD
:1024D000656552544F535C7372635C7461736B73C4
:1024E0002E6300004572726F723A2025732C2025EE
:1024F000640D0A00400000201CB51B4800210B465B
:102500008022CDE9001019A11A4800F073FB04469F
:10251000012C02D100F09EFF0446012C15D100BF12
:10252000502080F31188BFF34F8FBFF36F8F00BF30
:102530004FF0FF301049086001201049086000206A
:102540000F49086000F0A2F80BE0601C08B1012000
:1025500000E0002028B94FF404620AA113A0FDF79F
:10256000ABFE164800681CBD7400002049444C4571
:102570000000000095140008700000205C0000209E
:10258000540000202E2E5C2E2E5C4D6964646C6518
:1025900077617265735C4672656552544F535C7324
:1025A00072635C7461736B732E6300004572726FAB
:1025B000723A2025732C2025640D0A007800002033
:1025C00002480068401C0149086070477C000020F8
:1025D00010B51B48006818B101201A4908602DE0A9
:1025E00000201849086018480068B0FA80F0C0F16F
:1025F0001F0404EB8400154951F8200008B10120A4
:1026000000E0002028B940F6024211A11AA0FDF70F
:1026100053FE04EB84010D4A02EB810041684968D6
:10262000416000F1080142688A4202D1416849686C
:1026300041604168C968144A116000BF10BD0000C4
:102640007C000020640000205800002000010020D1
:102650002E2E5C2E2E5C4D6964646C65776172650C
:10266000735C4672656552544F535C7372635C745D
:1026700061736B732E6300004572726F723A20258E
:10268000732C2025640D0A00400000201CB53B4C33
:10269000204600780190FF20214608700846007807
:1026A00000909DF8000000F0F0009DF800108842B6
:1026B00001D1012000E0002028B940F21F1230A112
:1026C0003DA0FDF7F9FD9DF8000000F050003E49E7
:1026D000087007203D49086009E03C480068401E3A
:1026E0003A4908609DF800004006000E00909DF8F1
:1026F000000000F080008028EFD034480068C0F16E
:102700000700042801D1012000E0002028B940F290
:1027100033121BA128A0FDF7CFFD2C480068C0F1A3
:102720000700042801D1012000E0002028B94FF45F
:102730009E7213A120A0FDF7BFFD2448006800028F
:10274000224908600846008800F4E06008600B49F0
:10275000019808701E48006840F470001C49086029
:102760000846006840F070400860FFF7DBFC00207E
:1027700018490860FDF744FD00201CBD00E400E09E
:102780002E2E5C2E2E5C4D6964646C6577617265DB
:10279000735C4672656552544F535C706F7274611E
:1027A000626C655C525644535C41524D5F434D33FD
:1027B0005C706F72742E63004572726F723A2025DE
:1027C000732C2025640D0A00980000209C00002036
:1027D00020ED00E09400002010B500BF502080F3F1
:1027E0001188BFF34F8FBFF36F8F00BF00F038FB2E
:1027F00018B14FF080500449086000BF002080F3FA
:10280000118800BF10BD000004ED00E02DE9F84381
:1028100005460E4617460024E5B1601EB0FBF5F0F4
:10282000B04217D305FB06F010F1550F12D805FB87
:1028300006F909F15400FFF7EFF904468CB1A04600
:1028400008F154083B464246314628460094FEF7BC
:1028500035FE06E02CB94FF4E37203A10CA0FDF79E
:102860002BFD2046BDE8F8832E2E5C2E2E5C4D6994
:1028700064646C6577617265735C46726565525419
:102880004F535C7372635C71756575652E630000F0
:102890004572726F723A2025732C2025640D0A0050
:1028A0002DE9F04105460E4601272C462CB94FF480
:1028B00088722CA135A0FDF7FFFC002C42D0E06B04
:1028C00000283FD04FF0FF31E06BB1FBF0F0216CFE
:1028D000884237D3FFF732FBD4E90F12206801FB9F
:1028E0000200A0600020A06320686060E06B401ED2
:1028F000226C216800FB0211E160FF2084F8440093
:1029000084F845009EB9206908B9012000E0002044
:10291000A8B904F1100000F023FC80B14FF0805002
:102920001E490860BFF34F8FBFF36F8F07E004F1BC
:102930001000FFF7CDFA04F12400FFF7C9FAFFF702
:1029400047FB00E000270FB1012000E0002028B97C
:1029500040F2451203A10DA0FDF7AEFC3846BDE8DC
:10296000F08100002E2E5C2E2E5C4D6964646C6537
:1029700077617265735C4672656552544F535C7340
:1029800072635C71756575652E6300004572726FC8
:10299000723A2025732C2025640D0A0004ED00E016
:1029A0002DE9F74183B005460E464FF000082C464E
:1029B0002CB940F251524CA155A0FDF77DFC0EB947
:1029C000206C08B9012000E0002028B940F25552DF
:1029D00045A14FA0FDF770FC00F02CFA08B905984E
:1029E00008B9012000E0002028B940F25A523EA167
:1029F00047A0FDF761FC00BFFFF7A0FAA76BF7B196
:102A000031462046FEF796FC781EA063206908B97F
:102A1000012000E0002060B904F1100000F0A0FBEC
:102A200038B14FF080503E490860BFF34F8FBFF37D
:102A30006F8FFFF7CDFA012006B0BDE8F081059851
:102A400018B9FFF7C5FA0020F6E7B8F1000F04D176
:102A500001A8FFF7C3FC4FF00108FFF7B9FAFFF731
:102A6000AFFDFFF76BFA94F94400401C10B9002049
:102A700084F8440094F94500401C10B9002084F803
:102A80004500FFF7A5FA05A901A800F04BF8F0B939
:102A90002046FEF743FEA0B104F124000599FFF79C
:102AA000AFFC2046FFF76FF800F002FC0028A3D12E
:102AB0004FF080501A490860BFF34F8FBFF36F8FFC
:102AC0009AE72046FFF75FF800F0F2FB94E7204614
:102AD000FFF759F800F0ECFB2046FEF71FFE002838
:102AE0008AD00020A8E700002E2E5C2E2E5C4D69B7
:102AF00064646C6577617265735C46726565525497
:102B00004F535C7372635C71756575652E6300006D
:102B10004572726F723A2025732C2025640D0A00CD
:102B200004ED00E070B506460C462EB940F6FD42B5
:102B30001FA129A0FDF7C0FB2CB940F6FE421CA145
:102B400025A0FDF7B9FBFFF7F9F92748026870687F
:102B5000131A2648006890F8590030B10020234924
:102B6000096881F8590001251EE02068401C08B959
:102B7000002519E01E4930680968884206D070684F
:102B8000904203D80125002020600DE02068984283
:102B900007D92068C01A20603046FFF71FFC0025C7
:102BA00002E0002020600125FFF712FA284670BDE0
:102BB0002E2E5C2E2E5C4D6964646C6577617265A7
:102BC000735C4672656552544F535C7372635C74F8
:102BD00061736B732E6300004572726F723A202529
:102BE000732C2025640D0A005400002040000020B2
:102BF000680000202DE9FF4F85B0804689461746C2
:102C0000DDE912ABB800FFF707F8064656B15C20C5
:102C1000FFF702F804460CB1266304E03046FFF7E4
:102C200015FA00E000247CB10020CDE900ABCDE92D
:102C300002403A4649464046089BFEF757FC20466C
:102C4000FEF7ACFA012501E04FF0FF35284609B048
:102C5000BDE8F08F2DE9F05F07460D461646984611
:102C6000DDF828A04FF0010B0DB9012000E0002095
:102C700028B941F208325CA165A0FDF71DFB2FB910
:102C800041F2093258A162A0FDF716FB3C46FFF75E
:102C900055F9BAF1000F05D004F1540050F82500A1
:102CA000CAF8000004F1580010F8059002214155BF
:102CB000B8F1050F29D2DFE808F027030D171C0033
:102CC00004F1540050F82500304304F1540141F858
:102CD000250028E004F1540050F82500401C04F1C0
:102CE000540141F825001EE004F1540040F825602D
:102CF00019E0B9F1020F04D004F1540040F8256046
:102D000001E04FF0000B0EE00DE04548006808B907
:102D1000012000E0002028B941F23E3232A13CA05F
:102D2000FDF7CAFA00BF00BFB9F1010F56D16069C3
:102D3000D4E902128A60D4E902214A60211D426866
:102D40008A4201D1E1684160002262610168491E46
:102D5000016094F82C10012088403249096808432A
:102D600030490860E16A01EB81012F4A02EB8101E1
:102D70004868A0608268E260211D826851608160BD
:102D8000E16A01EB8101284A02EB81026261E16A9A
:102D900001EB8101244A52F82110491CE26A02EB3E
:102DA0008202214B43F82210A06A08B9012000E0FA
:102DB000002028B941F24D320BA115A0FDF77CFA95
:102DC0001A49E06A0968C96A884207D94FF08050F9
:102DD00017490860BFF34F8FBFF36F8FFFF7F8F805
:102DE0005846BDE8F09F00002E2E5C2E2E5C4D69EB
:102DF00064646C6577617265735C46726565525494
:102E00004F535C7372635C7461736B732E63000069
:102E10004572726F723A2025732C2025640D0A00CA
:102E20005400002058000020000100204000002035
:102E300004ED00E00549096809B9012005E00449ED
:102E4000096809B9022000E0002070475C000020FA
:102E50007C000020014908687047000054000020F1
:102E60002DE9F0414FF000085F48006800287DD14F
:102E70005E480068451C5D480560002D1DD15C481A
:102E80000068006808B9012000E0002028B940F679
:102E9000C72258A161A0FDF70FFA5548076863489B
:102EA0000068534908606148076061480068401C39
:102EB0005F490860FEF7CCFD00BF5E4800688542B0
:102EC00077D300BF4A480068006808B9012000E0D5
:102ED000002020B14FF0FF305649086068E04448B8
:102EE0000068C068C4686668B54202D2514806608E
:102EF0005EE06069D4E902128A60D4E902214A6086
:102F0000211D42688A4201D1E1684160002262616C
:102F10000168491E0160A06A98B1A06AD4E907124D
:102F20008A60D4E907214A6004F1180142688A42A4
:102F300001D1216A41600022A2620168491E01603C
:102F400000BF94F82C10012088403B4909680843D1
:102F500039490860E16A01EB8101384A02EB8101DD
:102F60004868A0608268E260211D00E033E082686A
:102F700051608160E16A01EB8101304A02EB81021C
:102F80006261E16A01EB81012C4A52F82110491C6F
:102F9000E26A02EB8202294B43F822102849E06AD8
:102FA0000968C96A88428DD34FF001088AE700E0BA
:102FB00000BF23480068C06A00EB80001F4951F839
:102FC0002000012801D94FF001081E48006808B10F
:102FD0004FF0010804E01C480068401C1A490860D2
:102FE0004046BDE8F08100007C0000205400002035
:102FF000440000202E2E5C2E2E5C4D6964646C65AE
:1030000077617265735C4672656552544F535C73A9
:1030100072635C7461736B732E6300004572726F30
:10302000723A2025732C2025640D0A0048000020E8
:1030300068000020700000205800002000010020DF
:1030400040000020640000206000002070B50546AC
:103050002C460026002D5ED030480068844201D105
:10306000012000E0002028B941F24F022CA136A037
:10307000FDF722F9206D28B941F2500228A132A0B3
:10308000FDF71AF9206D401E2065E16CE06A884268
:1030900041D0206D00283ED1201DFEF705FF40B92C
:1030A00094F82C10012088402B49096881432A4854
:1030B0000160E06CE062E06AC0F12000A06194F879
:1030C0002C100120884024490968084322490860DF
:1030D000E16A01EB8101214A02EB81014868A060AD
:1030E0008268E260211D826851608160E16A01EBC3
:1030F00081011A4A02EB81026261E16A01EB8101FE
:10310000164A52F82110491CE26A02EB8202134B64
:1031100043F822100126304670BD00004000002018
:103120002E2E5C2E2E5C4D6964646C657761726531
:10313000735C4672656552544F535C7372635C7482
:1031400061736B732E6300004572726F723A2025B3
:10315000732C2025640D0A00580000200001002077
:1031600070B50646F068C4682CB940F682423CA1AE
:1031700045A0FDF7A1F8A06AD4E907128A60D4E956
:1031800007214A6004F1180142688A4201D1216A8C
:1031900041600022A2620168491E01603E48006849
:1031A00000283DD16069D4E902128A60D4E9022185
:1031B0004A60211D42688A4201D1E16841600022D3
:1031C00062610168491E016094F82C10012088405A
:1031D00032490968084331490860E16A01EB81011D
:1031E0002F4A02EB81014868A0608268E260211DDD
:1031F000826851608160E16A01EB8101284A02EB3B
:1032000081026261E16A01EB8101254A52F82110D5
:10321000491CE26A02EB8202214B43F8221010E0C3
:1032200020494868E0618268226204F118018268DE
:10323000516081601B4AA26211460968491C1160F5
:1032400000BF1949E06A0968C96A884204D90125A2
:1032500001201649086000E00025284670BD0000E6
:103260002E2E5C2E2E5C4D6964646C6577617265F0
:10327000735C4672656552544F535C7372635C7441
:1032800061736B732E6300004572726F723A202572
:10329000732C2025640D0A007C00002058000020BB
:1032A00000010020A803002040000020640000204E
:1032B00070B5002400265048006828B940F6B302D3
:1032C0004EA158A0FCF7F8FFFEF738FE4A48006808
:1032D000401E494908600846006800287ED15548CC
:1032E000006800287AD05BE05348C068C468A06AD0
:1032F000D4E907128A60D4E907214A6004F1180171
:1033000042688A4201D1216A41600022A2620168BA
:10331000491E01606069D4E902128A60D4E9022181
:103320004A60211D42688A4201D1E1684160002261
:1033300062610168491E016094F82C1001208840E8
:103340003E49096808433D490860E16A01EB810193
:103350003B4A02EB81014868A0608268E260211D5F
:10336000826851608160E16A01EB8101344A02EBBD
:1033700081026261E16A01EB8101314A52F8211058
:10338000491CE26A02EB82022D4B43F822102D49C0
:10339000E06A0968C96A884202D301202A490860A4
:1033A0002548006808B9012000E0002000289BD0D3
:1033B0000CB1FEF74DFB2548056865B100BFFFF76E
:1033C0004FFD10B10120204908606D1E002DF6D17F
:1033D00000201E4908601C48006800E008E038B181
:1033E000012630071A490860BFF34F8FBFF36F8F74
:1033F000FEF7EEFD304670BD7C0000202E2E5C2EC8
:103400002E5C4D6964646C6577617265735C4672AD
:10341000656552544F535C7372635C7461736B7374
:103420002E6300004572726F723A2025732C20259E
:10343000640D0A0050000020A8030020580000205E
:1034400000010020400000206400002060000020F7
:1034500004ED00E01CB50024FDF716FF0B480068E2
:1034600058B10B481F2100234FF48072CDE90010A2
:1034700008A10A48FFF7BEFB04462CB940F2191216
:1034800007A111A0FCF718FF20461CBD88000020F2
:103490008C000020546D7220537663006D1B000871
:1034A0002E2E5C2E2E5C4D6964646C6577617265AE
:1034B000735C4672656552544F535C7372635C74FF
:1034C000696D6572732E63004572726F723A2025C2
:1034D000732C2025640D0A00F83400080000002039
:1034E000C00000006C010008B8350008C0000020D2
:1034F000B03100008801000800A24A04000000006A
:103500000000000001020304060708090000000093
:103510000000000000000000010203040102030497
:103520000607080902040608010000000000000068
:10353000000000000000000000000000000000008B
:10354000000000000000000000000000000000007B
:10355000000000000000000000000000000000006B
:10356000000000000000000000000000000000005B
:103570001F0000000000000000000000000000002C
:10358000000000000000000000000000AAAAAAAA93
:10359000000000000000000000000000000000002B
:1035A000000000000000000000000000000000001B
:0835B000000000000000000013
:0400000508000131BD
:00000001FF
