Component: ARM Compiler 5.06 update 7 (build 960) Tool: armlink [4d3601]

==============================================================================

Section Cross References

    startup_stm32f10x_hd.o(RESET) refers to startup_stm32f10x_hd.o(STACK) for __initial_sp
    startup_stm32f10x_hd.o(RESET) refers to startup_stm32f10x_hd.o(.text) for Reset_Handler
    startup_stm32f10x_hd.o(RESET) refers to stm32f10x_it.o(i.NMI_Handler) for NMI_Handler
    startup_stm32f10x_hd.o(RESET) refers to stm32f10x_it.o(i.HardFault_Handler) for HardFault_Handler
    startup_stm32f10x_hd.o(RESET) refers to stm32f10x_it.o(i.MemManage_Handler) for MemManage_Handler
    startup_stm32f10x_hd.o(RESET) refers to stm32f10x_it.o(i.BusFault_Handler) for BusFault_Handler
    startup_stm32f10x_hd.o(RESET) refers to stm32f10x_it.o(i.UsageFault_Handler) for UsageFault_Handler
    startup_stm32f10x_hd.o(RESET) refers to port.o(.emb_text) for SVC_Handler
    startup_stm32f10x_hd.o(RESET) refers to stm32f10x_it.o(i.DebugMon_Handler) for DebugMon_Handler
    startup_stm32f10x_hd.o(RESET) refers to stm32f10x_it.o(i.SysTick_Handler) for SysTick_Handler
    startup_stm32f10x_hd.o(.text) refers to system_stm32f10x.o(i.SystemInit) for SystemInit
    startup_stm32f10x_hd.o(.text) refers to entry.o(.ARM.Collect$$$$00000000) for __main
    system_stm32f10x.o(i.SetSysClock) refers to system_stm32f10x.o(i.SetSysClockTo72) for SetSysClockTo72
    system_stm32f10x.o(i.SystemCoreClockUpdate) refers to system_stm32f10x.o(.data) for SystemCoreClock
    system_stm32f10x.o(i.SystemInit) refers to system_stm32f10x.o(i.SetSysClock) for SetSysClock
    stm32f10x_gpio.o(i.GPIO_AFIODeInit) refers to stm32f10x_rcc.o(i.RCC_APB2PeriphResetCmd) for RCC_APB2PeriphResetCmd
    stm32f10x_gpio.o(i.GPIO_DeInit) refers to stm32f10x_rcc.o(i.RCC_APB2PeriphResetCmd) for RCC_APB2PeriphResetCmd
    stm32f10x_rcc.o(i.RCC_GetClocksFreq) refers to stm32f10x_rcc.o(.data) for APBAHBPrescTable
==============================================================================

Removing Unused input sections from the image.

    Removing startup_stm32f10x_hd.o(HEAP), (512 bytes).
    Removing core_cm3.o(.emb_text), (32 bytes).
    Removing system_stm32f10x.o(i.SystemCoreClockUpdate), (164 bytes).
    Removing stm32f10x_gpio.o(i.GPIO_AFIODeInit), (20 bytes).
    Removing stm32f10x_gpio.o(i.GPIO_DeInit), (200 bytes).
    Removing stm32f10x_gpio.o(i.GPIO_ETH_MediaInterfaceConfig), (12 bytes).
    Removing stm32f10x_gpio.o(i.GPIO_EXTILineConfig), (64 bytes).
    Removing stm32f10x_gpio.o(i.GPIO_EventOutputCmd), (12 bytes).
    Removing stm32f10x_gpio.o(i.GPIO_EventOutputConfig), (32 bytes).
    Removing stm32f10x_gpio.o(i.GPIO_PinLockConfig), (18 bytes).
    Removing stm32f10x_gpio.o(i.GPIO_PinRemapConfig), (144 bytes).
    Removing stm32f10x_gpio.o(i.GPIO_ReadInputData), (8 bytes).
    Removing stm32f10x_gpio.o(i.GPIO_ReadInputDataBit), (18 bytes).
    Removing stm32f10x_gpio.o(i.GPIO_ReadOutputData), (8 bytes).
    Removing stm32f10x_gpio.o(i.GPIO_ReadOutputDataBit), (18 bytes).
    Removing stm32f10x_gpio.o(i.GPIO_ResetBits), (4 bytes).
    Removing stm32f10x_gpio.o(i.GPIO_StructInit), (16 bytes).
    Removing stm32f10x_gpio.o(i.GPIO_Write), (4 bytes).
==============================================================================

Image Symbol Table

    Local Symbols

    Symbol Name                              Value     Ov Type        Size  Object(Section)

    ../clib/microlib/division.c              0x00000000   Number         0  uldiv.o ABSOLUTE
    ../clib/microlib/division.c              0x00000000   Number         0  uidiv.o ABSOLUTE
    ../clib/microlib/init/entry.s            0x00000000   Number         0  entry7a.o ABSOLUTE
    ../clib/microlib/init/entry.s            0x00000000   Number         0  entry5.o ABSOLUTE
    ../clib/microlib/init/entry.s            0x00000000   Number         0  entry2.o ABSOLUTE
    ../clib/microlib/init/entry.s            0x00000000   Number         0  entry10b.o ABSOLUTE
    ../clib/microlib/init/entry.s            0x00000000   Number         0  entry7b.o ABSOLUTE
    ../clib/microlib/init/entry.s            0x00000000   Number         0  entry8a.o ABSOLUTE
    ../clib/microlib/init/entry.s            0x00000000   Number         0  entry9a.o ABSOLUTE
    ../clib/microlib/init/entry.s            0x00000000   Number         0  entry9b.o ABSOLUTE
    ../clib/microlib/init/entry.s            0x00000000   Number         0  entry10a.o ABSOLUTE
    ../clib/microlib/init/entry.s            0x00000000   Number         0  entry11a.o ABSOLUTE
    ../clib/microlib/init/entry.s            0x00000000   Number         0  entry.o ABSOLUTE
    ../clib/microlib/init/entry.s            0x00000000   Number         0  entry11b.o ABSOLUTE
    ../clib/microlib/init/entry.s            0x00000000   Number         0  entry12a.o ABSOLUTE
    ../clib/microlib/init/entry.s            0x00000000   Number         0  entry12b.o ABSOLUTE
    ../clib/microlib/init/entry.s            0x00000000   Number         0  entry8b.o ABSOLUTE
    ../clib/microlib/longlong.c              0x00000000   Number         0  llsshr.o ABSOLUTE
    ../clib/microlib/longlong.c              0x00000000   Number         0  llushr.o ABSOLUTE
    ../clib/microlib/longlong.c              0x00000000   Number         0  llshl.o ABSOLUTE
    ../clib/microlib/printf/printf.c         0x00000000   Number         0  printf2.o ABSOLUTE
    ../clib/microlib/printf/printf.c         0x00000000   Number         0  printf1.o ABSOLUTE
    ../clib/microlib/printf/printf.c         0x00000000   Number         0  printf0.o ABSOLUTE
    ../clib/microlib/printf/printf.c         0x00000000   Number         0  printfb.o ABSOLUTE
    ../clib/microlib/printf/printf.c         0x00000000   Number         0  printf8.o ABSOLUTE
    ../clib/microlib/printf/printf.c         0x00000000   Number         0  printfa.o ABSOLUTE
    ../clib/microlib/printf/printf.c         0x00000000   Number         0  printf7.o ABSOLUTE
    ../clib/microlib/printf/printf.c         0x00000000   Number         0  printf6.o ABSOLUTE
    ../clib/microlib/printf/printf.c         0x00000000   Number         0  printf5.o ABSOLUTE
    ../clib/microlib/printf/printf.c         0x00000000   Number         0  printf4.o ABSOLUTE
    ../clib/microlib/printf/printf.c         0x00000000   Number         0  printf3.o ABSOLUTE
    ../clib/microlib/printf/stubs.s          0x00000000   Number         0  stubs.o ABSOLUTE
    ../clib/microlib/stdio/streams.c         0x00000000   Number         0  stdout.o ABSOLUTE
    ../clib/microlib/string/memcpy.c         0x00000000   Number         0  memcpyb.o ABSOLUTE
    ../clib/microlib/string/memcpy.c         0x00000000   Number         0  memcpya.o ABSOLUTE
    ../clib/microlib/stubs.s                 0x00000000   Number         0  iusefp.o ABSOLUTE
    ../fplib/microlib/fpadd.c                0x00000000   Number         0  dadd.o ABSOLUTE
    ../fplib/microlib/fpdiv.c                0x00000000   Number         0  ddiv.o ABSOLUTE
    ../fplib/microlib/fpepilogue.c           0x00000000   Number         0  depilogue.o ABSOLUTE
    ../fplib/microlib/fpfix.c                0x00000000   Number         0  dfixul.o ABSOLUTE
    ../fplib/microlib/fpmul.c                0x00000000   Number         0  dmul.o ABSOLUTE
    ..\FreeRTOS\port\MemMang\heap_4.c        0x00000000   Number         0  heap_4.o ABSOLUTE
    ..\FreeRTOS\port\RVDS\ARM_CM3\port.c     0x00000000   Number         0  port.o ABSOLUTE
    ..\FreeRTOS\src\croutine.c               0x00000000   Number         0  croutine.o ABSOLUTE
    ..\FreeRTOS\src\event_groups.c           0x00000000   Number         0  event_groups.o ABSOLUTE
    ..\FreeRTOS\src\list.c                   0x00000000   Number         0  list.o ABSOLUTE
    ..\FreeRTOS\src\queue.c                  0x00000000   Number         0  queue.o ABSOLUTE
    ..\FreeRTOS\src\tasks.c                  0x00000000   Number         0  tasks.o ABSOLUTE
    ..\FreeRTOS\src\timers.c                 0x00000000   Number         0  timers.o ABSOLUTE
    ..\Libraries\CMSIS\core_cm3.c            0x00000000   Number         0  core_cm3.o ABSOLUTE
    ..\Libraries\CMSIS\startup\startup_stm32f10x_hd.s 0x00000000   Number         0  startup_stm32f10x_hd.o ABSOLUTE
    ..\Libraries\CMSIS\system_stm32f10x.c    0x00000000   Number         0  system_stm32f10x.o ABSOLUTE
    ..\Libraries\FWlib\src\misc.c            0x00000000   Number         0  misc.o ABSOLUTE
    ..\Libraries\FWlib\src\stm32f10x_gpio.c  0x00000000   Number         0  stm32f10x_gpio.o ABSOLUTE
    ..\Libraries\FWlib\src\stm32f10x_rcc.c   0x00000000   Number         0  stm32f10x_rcc.o ABSOLUTE
    ..\Libraries\FWlib\src\stm32f10x_usart.c 0x00000000   Number         0  stm32f10x_usart.o ABSOLUTE
    ..\User\HARDWARE\src\key.c               0x00000000   Number         0  key.o ABSOLUTE
    ..\User\HARDWARE\src\led.c               0x00000000   Number         0  led.o ABSOLUTE
    ..\User\HARDWARE\src\usart.c             0x00000000   Number         0  usart.o ABSOLUTE
    ..\User\main.c                           0x00000000   Number         0  main.o ABSOLUTE
    ..\User\stm32f10x_it.c                   0x00000000   Number         0  stm32f10x_it.o ABSOLUTE
    ..\\FreeRTOS\\port\\RVDS\\ARM_CM3\\port.c 0x00000000   Number         0  port.o ABSOLUTE
    ..\\Libraries\\CMSIS\\core_cm3.c         0x00000000   Number         0  core_cm3.o ABSOLUTE
    cdrcmple.s                               0x00000000   Number         0  cdrcmple.o ABSOLUTE
    dc.s                                     0x00000000   Number         0  dc.o ABSOLUTE
    handlers.s                               0x00000000   Number         0  handlers.o ABSOLUTE
    init.s                                   0x00000000   Number         0  init.o ABSOLUTE
    RESET                                    0x08000000   Section      304  startup_stm32f10x_hd.o(RESET)
    .ARM.Collect$$$$00000000                 0x08000130   Section        0  entry.o(.ARM.Collect$$$$00000000)
    .ARM.Collect$$$$00000001                 0x08000130   Section        4  entry2.o(.ARM.Collect$$$$00000001)
    .ARM.Collect$$$$00000004                 0x08000134   Section        4  entry5.o(.ARM.Collect$$$$00000004)
    .ARM.Collect$$$$00000008                 0x08000138   Section        0  entry7b.o(.ARM.Collect$$$$00000008)
    .ARM.Collect$$$$0000000A                 0x08000138   Section        0  entry8b.o(.ARM.Collect$$$$0000000A)
    .ARM.Collect$$$$0000000B                 0x08000138   Section        8  entry9a.o(.ARM.Collect$$$$0000000B)
    .ARM.Collect$$$$0000000E                 0x08000140   Section        4  entry12b.o(.ARM.Collect$$$$0000000E)
    .ARM.Collect$$$$0000000F                 0x08000144   Section        0  entry10a.o(.ARM.Collect$$$$0000000F)
    .ARM.Collect$$$$00000011                 0x08000144   Section        0  entry11a.o(.ARM.Collect$$$$00000011)
    .ARM.Collect$$$$00002712                 0x08000144   Section        4  entry2.o(.ARM.Collect$$$$00002712)
    __lit__00000000                          0x08000144   Data           4  entry2.o(.ARM.Collect$$$$00002712)
    .emb_text                                0x08000148   Section      150  port.o(.emb_text)
    .text                                    0x080001e0   Section       36  startup_stm32f10x_hd.o(.text)
    .text                                    0x08000204   Section        0  memcpya.o(.text)
    .text                                    0x08000228   Section        0  uidiv.o(.text)
    .text                                    0x08000254   Section       36  init.o(.text)
    i.AppTaskCreate                          0x08000278   Section        0  main.o(i.AppTaskCreate)
    AppTaskCreate                            0x08000279   Thumb Code   136  main.o(i.AppTaskCreate)
    i.BSP_Init                               0x0800035c   Section        0  main.o(i.BSP_Init)
    BSP_Init                                 0x0800035d   Thumb Code    28  main.o(i.BSP_Init)
    i.BusFault_Handler                       0x08000378   Section        0  stm32f10x_it.o(i.BusFault_Handler)
    i.DebugMon_Handler                       0x0800037c   Section        0  stm32f10x_it.o(i.DebugMon_Handler)
    i.GPIO_Init                              0x0800037e   Section        0  stm32f10x_gpio.o(i.GPIO_Init)
    i.GPIO_SetBits                           0x08000494   Section        0  stm32f10x_gpio.o(i.GPIO_SetBits)
    i.HardFault_Handler                      0x08000498   Section        0  stm32f10x_it.o(i.HardFault_Handler)
    i.KEY_Init                               0x0800049c   Section        0  key.o(i.KEY_Init)
    i.LED_Init                               0x080004e0   Section        0  led.o(i.LED_Init)
    i.MemManage_Handler                      0x08000534   Section        0  stm32f10x_it.o(i.MemManage_Handler)
    i.NMI_Handler                            0x08000538   Section        0  stm32f10x_it.o(i.NMI_Handler)
    i.NVIC_PriorityGroupConfig               0x0800053c   Section        0  misc.o(i.NVIC_PriorityGroupConfig)
    i.RCC_APB2PeriphClockCmd                 0x08000550   Section        0  stm32f10x_rcc.o(i.RCC_APB2PeriphClockCmd)
    i.RCC_GetClocksFreq                      0x08000570   Section        0  stm32f10x_rcc.o(i.RCC_GetClocksFreq)
    i.SetSysClock                            0x08000644   Section        0  system_stm32f10x.o(i.SetSysClock)
    SetSysClock                              0x08000645   Thumb Code     8  system_stm32f10x.o(i.SetSysClock)
    i.SetSysClockTo72                        0x0800064c   Section        0  system_stm32f10x.o(i.SetSysClockTo72)
    SetSysClockTo72                          0x0800064d   Thumb Code   214  system_stm32f10x.o(i.SetSysClockTo72)
    i.Swtmr1_Callback                        0x0800072c   Section        0  main.o(i.Swtmr1_Callback)
    Swtmr1_Callback                          0x0800072d   Thumb Code    52  main.o(i.Swtmr1_Callback)
    i.Swtmr2_Callback                        0x0800079c   Section        0  main.o(i.Swtmr2_Callback)
    Swtmr2_Callback                          0x0800079d   Thumb Code    52  main.o(i.Swtmr2_Callback)
    i.SysTick_Handler                        0x0800080c   Section        0  stm32f10x_it.o(i.SysTick_Handler)
    i.SystemInit                             0x0800081c   Section        0  system_stm32f10x.o(i.SystemInit)
    i.USART1_Init                            0x0800087c   Section        0  usart.o(i.USART1_Init)
    i.USART_Cmd                              0x08000900   Section        0  stm32f10x_usart.o(i.USART_Cmd)
    i.USART_GetFlagStatus                    0x08000918   Section        0  stm32f10x_usart.o(i.USART_GetFlagStatus)
    i.USART_Init                             0x08000934   Section        0  stm32f10x_usart.o(i.USART_Init)
    i.USART_SendData                         0x08000a0c   Section        0  stm32f10x_usart.o(i.USART_SendData)
    i.UsageFault_Handler                     0x08000a14   Section        0  stm32f10x_it.o(i.UsageFault_Handler)
    i.__0printf$3                            0x08000a18   Section        0  printf3.o(i.__0printf$3)
    i.__scatterload_copy                     0x08000a38   Section       14  handlers.o(i.__scatterload_copy)
    i.__scatterload_null                     0x08000a46   Section        2  handlers.o(i.__scatterload_null)
    i.__scatterload_zeroinit                 0x08000a48   Section       14  handlers.o(i.__scatterload_zeroinit)
    i._printf_core                           0x08000a58   Section        0  printf3.o(i._printf_core)
    _printf_core                             0x08000a59   Thumb Code   436  printf3.o(i._printf_core)
    i.fputc                                  0x08000c10   Section        0  usart.o(i.fputc)
    i.main                                   0x08000c34   Section        0  main.o(i.main)
    i.prvAddCurrentTaskToDelayedList         0x08000ca8   Section        0  tasks.o(i.prvAddCurrentTaskToDelayedList)
    prvAddCurrentTaskToDelayedList           0x08000ca9   Thumb Code   124  tasks.o(i.prvAddCurrentTaskToDelayedList)
    i.prvAddNewTaskToReadyList               0x08000d40   Section        0  tasks.o(i.prvAddNewTaskToReadyList)
    prvAddNewTaskToReadyList                 0x08000d41   Thumb Code   150  tasks.o(i.prvAddNewTaskToReadyList)
    i.prvCheckForValidListAndQueue           0x08000df4   Section        0  timers.o(i.prvCheckForValidListAndQueue)
    prvCheckForValidListAndQueue             0x08000df5   Thumb Code    72  timers.o(i.prvCheckForValidListAndQueue)
    i.prvCheckTasksWaitingTermination        0x08000e58   Section        0  tasks.o(i.prvCheckTasksWaitingTermination)
    prvCheckTasksWaitingTermination          0x08000e59   Thumb Code    86  tasks.o(i.prvCheckTasksWaitingTermination)
    i.prvCopyDataFromQueue                   0x08000ebc   Section        0  queue.o(i.prvCopyDataFromQueue)
    prvCopyDataFromQueue                     0x08000ebd   Thumb Code    42  queue.o(i.prvCopyDataFromQueue)
    i.prvCopyDataToQueue                     0x08000ee6   Section        0  queue.o(i.prvCopyDataToQueue)
    prvCopyDataToQueue                       0x08000ee7   Thumb Code   106  queue.o(i.prvCopyDataToQueue)
    i.prvDeleteTCB                           0x08000f50   Section        0  tasks.o(i.prvDeleteTCB)
    prvDeleteTCB                             0x08000f51   Thumb Code    18  tasks.o(i.prvDeleteTCB)
    i.prvGetNextExpireTime                   0x08000f64   Section        0  timers.o(i.prvGetNextExpireTime)
    prvGetNextExpireTime                     0x08000f65   Thumb Code    36  timers.o(i.prvGetNextExpireTime)
    i.prvHeapInit                            0x08000f8c   Section        0  heap_4.o(i.prvHeapInit)
    prvHeapInit                              0x08000f8d   Thumb Code    98  heap_4.o(i.prvHeapInit)
    i.prvIdleTask                            0x08001008   Section        0  tasks.o(i.prvIdleTask)
    prvIdleTask                              0x08001009   Thumb Code    32  tasks.o(i.prvIdleTask)
    i.prvInitialiseNewQueue                  0x08001030   Section        0  queue.o(i.prvInitialiseNewQueue)
    prvInitialiseNewQueue                    0x08001031   Thumb Code    38  queue.o(i.prvInitialiseNewQueue)
    i.prvInitialiseNewTask                   0x08001058   Section        0  tasks.o(i.prvInitialiseNewTask)
    prvInitialiseNewTask                     0x08001059   Thumb Code   154  tasks.o(i.prvInitialiseNewTask)
    i.prvInitialiseNewTimer                  0x0800111c   Section        0  timers.o(i.prvInitialiseNewTimer)
    prvInitialiseNewTimer                    0x0800111d   Thumb Code    68  timers.o(i.prvInitialiseNewTimer)
    i.prvInitialiseTaskLists                 0x0800118c   Section        0  tasks.o(i.prvInitialiseTaskLists)
    prvInitialiseTaskLists                   0x0800118d   Thumb Code    70  tasks.o(i.prvInitialiseTaskLists)
    i.prvInsertBlockIntoFreeList             0x080011f4   Section        0  heap_4.o(i.prvInsertBlockIntoFreeList)
    prvInsertBlockIntoFreeList               0x080011f5   Thumb Code    96  heap_4.o(i.prvInsertBlockIntoFreeList)
    i.prvInsertTimerInActiveList             0x0800125c   Section        0  timers.o(i.prvInsertTimerInActiveList)
    prvInsertTimerInActiveList               0x0800125d   Thumb Code    80  timers.o(i.prvInsertTimerInActiveList)
    i.prvIsQueueEmpty                        0x080012b4   Section        0  queue.o(i.prvIsQueueEmpty)
    prvIsQueueEmpty                          0x080012b5   Thumb Code    26  queue.o(i.prvIsQueueEmpty)
    i.prvIsQueueFull                         0x080012ce   Section        0  queue.o(i.prvIsQueueFull)
    prvIsQueueFull                           0x080012cf   Thumb Code    30  queue.o(i.prvIsQueueFull)
    i.prvProcessExpiredTimer                 0x080012ec   Section        0  timers.o(i.prvProcessExpiredTimer)
    prvProcessExpiredTimer                   0x080012ed   Thumb Code    84  timers.o(i.prvProcessExpiredTimer)
    i.prvProcessReceivedCommands             0x08001370   Section        0  timers.o(i.prvProcessReceivedCommands)
    prvProcessReceivedCommands               0x08001371   Thumb Code   222  timers.o(i.prvProcessReceivedCommands)
    i.prvProcessTimerOrBlockTask             0x08001480   Section        0  timers.o(i.prvProcessTimerOrBlockTask)
    prvProcessTimerOrBlockTask               0x08001481   Thumb Code   102  timers.o(i.prvProcessTimerOrBlockTask)
    i.prvResetNextTaskUnblockTime            0x080014f4   Section        0  tasks.o(i.prvResetNextTaskUnblockTime)
    prvResetNextTaskUnblockTime              0x080014f5   Thumb Code    42  tasks.o(i.prvResetNextTaskUnblockTime)
    i.prvSampleTimeNow                       0x08001528   Section        0  timers.o(i.prvSampleTimeNow)
    prvSampleTimeNow                         0x08001529   Thumb Code    40  timers.o(i.prvSampleTimeNow)
    i.prvSwitchTimerLists                    0x08001554   Section        0  timers.o(i.prvSwitchTimerLists)
    prvSwitchTimerLists                      0x08001555   Thumb Code   140  timers.o(i.prvSwitchTimerLists)
    i.prvTaskExitError                       0x08001614   Section        0  port.o(i.prvTaskExitError)
    prvTaskExitError                         0x08001615   Thumb Code    48  port.o(i.prvTaskExitError)
    i.prvTimerTask                           0x08001680   Section        0  timers.o(i.prvTimerTask)
    prvTimerTask                             0x08001681   Thumb Code    26  timers.o(i.prvTimerTask)
    i.prvUnlockQueue                         0x0800169a   Section        0  queue.o(i.prvUnlockQueue)
    prvUnlockQueue                           0x0800169b   Thumb Code   126  queue.o(i.prvUnlockQueue)
    i.pvPortMalloc                           0x08001718   Section        0  heap_4.o(i.pvPortMalloc)
    i.pxPortInitialiseStack                  0x08001868   Section        0  port.o(i.pxPortInitialiseStack)
    i.uxListRemove                           0x0800188c   Section        0  list.o(i.uxListRemove)
    i.vListInitialise                        0x080018b4   Section        0  list.o(i.vListInitialise)
    i.vListInitialiseItem                    0x080018ce   Section        0  list.o(i.vListInitialiseItem)
    i.vListInsert                            0x080018d4   Section        0  list.o(i.vListInsert)
    i.vListInsertEnd                         0x08001908   Section        0  list.o(i.vListInsertEnd)
    i.vPortEnterCritical                     0x08001920   Section        0  port.o(i.vPortEnterCritical)
    i.vPortExitCritical                      0x080019a4   Section        0  port.o(i.vPortExitCritical)
    i.vPortFree                              0x08001a10   Section        0  heap_4.o(i.vPortFree)
    i.vPortSetupTimerInterrupt               0x08001ac4   Section        0  port.o(i.vPortSetupTimerInterrupt)
    i.vPortValidateInterruptPriority         0x08001ae4   Section        0  port.o(i.vPortValidateInterruptPriority)
    i.vQueueAddToRegistry                    0x08001b80   Section        0  queue.o(i.vQueueAddToRegistry)
    i.vQueueWaitForMessageRestricted         0x08001bac   Section        0  queue.o(i.vQueueWaitForMessageRestricted)
    i.vTaskDelete                            0x08001bf8   Section        0  tasks.o(i.vTaskDelete)
    i.vTaskMissedYield                       0x08001d08   Section        0  tasks.o(i.vTaskMissedYield)
    i.vTaskPlaceOnEventList                  0x08001d14   Section        0  tasks.o(i.vTaskPlaceOnEventList)
    i.vTaskPlaceOnEventListRestricted        0x08001d6c   Section        0  tasks.o(i.vTaskPlaceOnEventListRestricted)
    i.vTaskSetTimeOutState                   0x08001dcc   Section        0  tasks.o(i.vTaskSetTimeOutState)
    i.vTaskStartScheduler                    0x08001e1c   Section        0  tasks.o(i.vTaskStartScheduler)
    i.vTaskSuspendAll                        0x08001ecc   Section        0  tasks.o(i.vTaskSuspendAll)
    i.vTaskSwitchContext                     0x08001edc   Section        0  tasks.o(i.vTaskSwitchContext)
    i.xPortStartScheduler                    0x08001f88   Section        0  port.o(i.xPortStartScheduler)
    i.xPortSysTickHandler                    0x08002028   Section        0  port.o(i.xPortSysTickHandler)
    i.xQueueGenericCreate                    0x0800205c   Section        0  queue.o(i.xQueueGenericCreate)
    i.xQueueGenericReceive                   0x080020d4   Section        0  queue.o(i.xQueueGenericReceive)
    i.xQueueGenericReset                     0x08002284   Section        0  queue.o(i.xQueueGenericReset)
    i.xQueueGenericSend                      0x08002338   Section        0  queue.o(i.xQueueGenericSend)
    i.xQueueGenericSendFromISR               0x080024e0   Section        0  queue.o(i.xQueueGenericSendFromISR)
    i.xTaskCheckForTimeOut                   0x080025e4   Section        0  tasks.o(i.xTaskCheckForTimeOut)
    i.xTaskCreate                            0x08002688   Section        0  tasks.o(i.xTaskCreate)
    i.xTaskGetSchedulerState                 0x080026e8   Section        0  tasks.o(i.xTaskGetSchedulerState)
    i.xTaskGetTickCount                      0x08002708   Section        0  tasks.o(i.xTaskGetTickCount)
    i.xTaskIncrementTick                     0x08002714   Section        0  tasks.o(i.xTaskIncrementTick)
    i.xTaskRemoveFromEventList               0x08002878   Section        0  tasks.o(i.xTaskRemoveFromEventList)
    i.xTaskResumeAll                         0x08002930   Section        0  tasks.o(i.xTaskResumeAll)
    i.xTimerCreate                           0x08002a54   Section        0  timers.o(i.xTimerCreate)
    i.xTimerCreateTimerTask                  0x08002a84   Section        0  timers.o(i.xTimerCreateTimerTask)
    i.xTimerGenericCommand                   0x08002afc   Section        0  timers.o(i.xTimerGenericCommand)
    .data                                    0x20000000   Section       20  system_stm32f10x.o(.data)
    .data                                    0x20000014   Section       20  stm32f10x_rcc.o(.data)
    APBAHBPrescTable                         0x20000014   Data          16  stm32f10x_rcc.o(.data)
    ADCPrescTable                            0x20000024   Data           4  stm32f10x_rcc.o(.data)
    .data                                    0x20000028   Section       20  main.o(.data)
    AppTaskCreate_Handle                     0x20000028   Data           4  main.o(.data)
    Swtmr1_Handle                            0x2000002c   Data           4  main.o(.data)
    Swtmr2_Handle                            0x20000030   Data           4  main.o(.data)
    TmrCb_Count1                             0x20000034   Data           4  main.o(.data)
    TmrCb_Count2                             0x20000038   Data           4  main.o(.data)
    .data                                    0x2000003c   Section       60  tasks.o(.data)
    pxDelayedTaskList                        0x20000040   Data           4  tasks.o(.data)
    pxOverflowDelayedTaskList                0x20000044   Data           4  tasks.o(.data)
    uxDeletedTasksWaitingCleanUp             0x20000048   Data           4  tasks.o(.data)
    uxCurrentNumberOfTasks                   0x2000004c   Data           4  tasks.o(.data)
    xTickCount                               0x20000050   Data           4  tasks.o(.data)
    uxTopReadyPriority                       0x20000054   Data           4  tasks.o(.data)
    xSchedulerRunning                        0x20000058   Data           4  tasks.o(.data)
    uxPendedTicks                            0x2000005c   Data           4  tasks.o(.data)
    xYieldPending                            0x20000060   Data           4  tasks.o(.data)
    xNumOfOverflows                          0x20000064   Data           4  tasks.o(.data)
    uxTaskNumber                             0x20000068   Data           4  tasks.o(.data)
    xNextTaskUnblockTime                     0x2000006c   Data           4  tasks.o(.data)
    xIdleTaskHandle                          0x20000070   Data           4  tasks.o(.data)
    uxSchedulerSuspended                     0x20000074   Data           4  tasks.o(.data)
    .data                                    0x20000078   Section       20  timers.o(.data)
    pxCurrentTimerList                       0x20000078   Data           4  timers.o(.data)
    pxOverflowTimerList                      0x2000007c   Data           4  timers.o(.data)
    xTimerQueue                              0x20000080   Data           4  timers.o(.data)
    xTimerTaskHandle                         0x20000084   Data           4  timers.o(.data)
    xLastTime                                0x20000088   Data           4  timers.o(.data)
    .data                                    0x2000008c   Section       24  heap_4.o(.data)
    xStart                                   0x2000008c   Data           8  heap_4.o(.data)
    pxEnd                                    0x20000094   Data           4  heap_4.o(.data)
    xFreeBytesRemaining                      0x20000098   Data           4  heap_4.o(.data)
    xMinimumEverFreeBytesRemaining           0x2000009c   Data           4  heap_4.o(.data)
    xBlockAllocatedBit                       0x200000a0   Data           4  heap_4.o(.data)
    .data                                    0x200000a4   Section       12  port.o(.data)
    uxCriticalNesting                        0x200000a4   Data           4  port.o(.data)
    ucMaxSysCallPriority                     0x200000a8   Data           1  port.o(.data)
    ulMaxPRIGROUPValue                       0x200000ac   Data           4  port.o(.data)
    .data                                    0x200000b0   Section        4  stdout.o(.data)
    .bss                                     0x200000b4   Section       80  queue.o(.bss)
    .bss                                     0x20000104   Section      740  tasks.o(.bss)
    pxReadyTasksLists                        0x20000104   Data         640  tasks.o(.bss)
    xDelayedTaskList1                        0x20000384   Data          20  tasks.o(.bss)
    xDelayedTaskList2                        0x20000398   Data          20  tasks.o(.bss)
    xPendingReadyList                        0x200003ac   Data          20  tasks.o(.bss)
    xTasksWaitingTermination                 0x200003c0   Data          20  tasks.o(.bss)
    xSuspendedTaskList                       0x200003d4   Data          20  tasks.o(.bss)
    .bss                                     0x200003e8   Section       40  timers.o(.bss)
    xActiveTimerList1                        0x200003e8   Data          20  timers.o(.bss)
    xActiveTimerList2                        0x200003fc   Data          20  timers.o(.bss)
    .bss                                     0x20000410   Section    36864  heap_4.o(.bss)
    ucHeap                                   0x20000410   Data       36864  heap_4.o(.bss)
    STACK                                    0x20009410   Section     1024  startup_stm32f10x_hd.o(STACK)

    Global Symbols

    Symbol Name                              Value     Ov Type        Size  Object(Section)

    BuildAttributes$$THM_ISAv4$P$D$K$B$S$PE$A:L22UL41UL21$X:L11$S22US41US21$IEEE1$IW$USESV6$~STKCKD$USESV7$~SHL$OSPACE$ROPI$EBA8$MICROLIB$REQ8$PRES8$EABIv2 0x00000000   Number         0  anon$$obj.o ABSOLUTE
    __ARM_use_no_argv                        0x00000000   Number         0  main.o ABSOLUTE
    _printf_a                                0x00000000   Number         0  stubs.o ABSOLUTE
    _printf_c                                0x00000000   Number         0  stubs.o ABSOLUTE
    _printf_charcount                        0x00000000   Number         0  stubs.o ABSOLUTE
    _printf_d                                0x00000000   Number         0  stubs.o ABSOLUTE
    _printf_e                                0x00000000   Number         0  stubs.o ABSOLUTE
    _printf_f                                0x00000000   Number         0  stubs.o ABSOLUTE
    _printf_flags                            0x00000000   Number         0  stubs.o ABSOLUTE
    _printf_fp_dec                           0x00000000   Number         0  stubs.o ABSOLUTE
    _printf_fp_hex                           0x00000000   Number         0  stubs.o ABSOLUTE
    _printf_g                                0x00000000   Number         0  stubs.o ABSOLUTE
    _printf_i                                0x00000000   Number         0  stubs.o ABSOLUTE
    _printf_int_dec                          0x00000000   Number         0  stubs.o ABSOLUTE
    _printf_l                                0x00000000   Number         0  stubs.o ABSOLUTE
    _printf_lc                               0x00000000   Number         0  stubs.o ABSOLUTE
    _printf_ll                               0x00000000   Number         0  stubs.o ABSOLUTE
    _printf_lld                              0x00000000   Number         0  stubs.o ABSOLUTE
    _printf_lli                              0x00000000   Number         0  stubs.o ABSOLUTE
    _printf_llo                              0x00000000   Number         0  stubs.o ABSOLUTE
    _printf_llu                              0x00000000   Number         0  stubs.o ABSOLUTE
    _printf_llx                              0x00000000   Number         0  stubs.o ABSOLUTE
    _printf_longlong_dec                     0x00000000   Number         0  stubs.o ABSOLUTE
    _printf_longlong_hex                     0x00000000   Number         0  stubs.o ABSOLUTE
    _printf_longlong_oct                     0x00000000   Number         0  stubs.o ABSOLUTE
    _printf_ls                               0x00000000   Number         0  stubs.o ABSOLUTE
    _printf_mbtowc                           0x00000000   Number         0  stubs.o ABSOLUTE
    _printf_n                                0x00000000   Number         0  stubs.o ABSOLUTE
    _printf_o                                0x00000000   Number         0  stubs.o ABSOLUTE
    _printf_p                                0x00000000   Number         0  stubs.o ABSOLUTE
    _printf_percent                          0x00000000   Number         0  stubs.o ABSOLUTE
    _printf_pre_padding                      0x00000000   Number         0  stubs.o ABSOLUTE
    _printf_return_value                     0x00000000   Number         0  stubs.o ABSOLUTE
    _printf_s                                0x00000000   Number         0  stubs.o ABSOLUTE
    _printf_sizespec                         0x00000000   Number         0  stubs.o ABSOLUTE
    _printf_str                              0x00000000   Number         0  stubs.o ABSOLUTE
    _printf_truncate_signed                  0x00000000   Number         0  stubs.o ABSOLUTE
    _printf_truncate_unsigned                0x00000000   Number         0  stubs.o ABSOLUTE
    _printf_u                                0x00000000   Number         0  stubs.o ABSOLUTE
    _printf_wc                               0x00000000   Number         0  stubs.o ABSOLUTE
    _printf_wctomb                           0x00000000   Number         0  stubs.o ABSOLUTE
    _printf_widthprec                        0x00000000   Number         0  stubs.o ABSOLUTE
    _printf_x                                0x00000000   Number         0  stubs.o ABSOLUTE
    __arm_fini_                               - Undefined Weak Reference
    __cpp_initialize__aeabi_                  - Undefined Weak Reference
    __cxa_finalize                            - Undefined Weak Reference
    __decompress                              - Undefined Weak Reference
    _clock_init                               - Undefined Weak Reference
    _microlib_exit                            - Undefined Weak Reference
    __Vectors_Size                           0x00000130   Number         0  startup_stm32f10x_hd.o ABSOLUTE
    __Vectors                                0x08000000   Data           4  startup_stm32f10x_hd.o(RESET)
    __Vectors_End                            0x08000130   Data           0  startup_stm32f10x_hd.o(RESET)
    __main                                   0x08000131   Thumb Code     0  entry.o(.ARM.Collect$$$$00000000)
    _main_stk                                0x08000131   Thumb Code     0  entry2.o(.ARM.Collect$$$$00000001)
    _main_scatterload                        0x08000135   Thumb Code     0  entry5.o(.ARM.Collect$$$$00000004)
    __main_after_scatterload                 0x08000139   Thumb Code     0  entry5.o(.ARM.Collect$$$$00000004)
    _main_clock                              0x08000139   Thumb Code     0  entry7b.o(.ARM.Collect$$$$00000008)
    _main_cpp_init                           0x08000139   Thumb Code     0  entry8b.o(.ARM.Collect$$$$0000000A)
    _main_init                               0x08000139   Thumb Code     0  entry9a.o(.ARM.Collect$$$$0000000B)
    __rt_lib_shutdown_fini                   0x08000141   Thumb Code     0  entry12b.o(.ARM.Collect$$$$0000000E)
    __rt_final_cpp                           0x08000145   Thumb Code     0  entry10a.o(.ARM.Collect$$$$0000000F)
    __rt_final_exit                          0x08000145   Thumb Code     0  entry11a.o(.ARM.Collect$$$$00000011)
    SVC_Handler                              0x08000149   Thumb Code    32  port.o(.emb_text)
    __asm___6_port_c_39a90d8d__prvStartFirstTask 0x0800016d   Thumb Code    28  port.o(.emb_text)
    PendSV_Handler                           0x0800018d   Thumb Code    72  port.o(.emb_text)
    vPortGetIPSR                             0x080001d9   Thumb Code     6  port.o(.emb_text)
    Reset_Handler                            0x080001e1   Thumb Code     8  startup_stm32f10x_hd.o(.text)
    ADC1_2_IRQHandler                        0x080001fb   Thumb Code     0  startup_stm32f10x_hd.o(.text)
    ADC3_IRQHandler                          0x080001fb   Thumb Code     0  startup_stm32f10x_hd.o(.text)
    CAN1_RX1_IRQHandler                      0x080001fb   Thumb Code     0  startup_stm32f10x_hd.o(.text)
    CAN1_SCE_IRQHandler                      0x080001fb   Thumb Code     0  startup_stm32f10x_hd.o(.text)
    DMA1_Channel1_IRQHandler                 0x080001fb   Thumb Code     0  startup_stm32f10x_hd.o(.text)
    DMA1_Channel2_IRQHandler                 0x080001fb   Thumb Code     0  startup_stm32f10x_hd.o(.text)
    DMA1_Channel3_IRQHandler                 0x080001fb   Thumb Code     0  startup_stm32f10x_hd.o(.text)
    DMA1_Channel4_IRQHandler                 0x080001fb   Thumb Code     0  startup_stm32f10x_hd.o(.text)
    DMA1_Channel5_IRQHandler                 0x080001fb   Thumb Code     0  startup_stm32f10x_hd.o(.text)
    DMA1_Channel6_IRQHandler                 0x080001fb   Thumb Code     0  startup_stm32f10x_hd.o(.text)
    DMA1_Channel7_IRQHandler                 0x080001fb   Thumb Code     0  startup_stm32f10x_hd.o(.text)
    DMA2_Channel1_IRQHandler                 0x080001fb   Thumb Code     0  startup_stm32f10x_hd.o(.text)
    DMA2_Channel2_IRQHandler                 0x080001fb   Thumb Code     0  startup_stm32f10x_hd.o(.text)
    DMA2_Channel3_IRQHandler                 0x080001fb   Thumb Code     0  startup_stm32f10x_hd.o(.text)
    DMA2_Channel4_5_IRQHandler               0x080001fb   Thumb Code     0  startup_stm32f10x_hd.o(.text)
    EXTI0_IRQHandler                         0x080001fb   Thumb Code     0  startup_stm32f10x_hd.o(.text)
    EXTI15_10_IRQHandler                     0x080001fb   Thumb Code     0  startup_stm32f10x_hd.o(.text)
    EXTI1_IRQHandler                         0x080001fb   Thumb Code     0  startup_stm32f10x_hd.o(.text)
    EXTI2_IRQHandler                         0x080001fb   Thumb Code     0  startup_stm32f10x_hd.o(.text)
    EXTI3_IRQHandler                         0x080001fb   Thumb Code     0  startup_stm32f10x_hd.o(.text)
    EXTI4_IRQHandler                         0x080001fb   Thumb Code     0  startup_stm32f10x_hd.o(.text)
    EXTI9_5_IRQHandler                       0x080001fb   Thumb Code     0  startup_stm32f10x_hd.o(.text)
    FLASH_IRQHandler                         0x080001fb   Thumb Code     0  startup_stm32f10x_hd.o(.text)
    FSMC_IRQHandler                          0x080001fb   Thumb Code     0  startup_stm32f10x_hd.o(.text)
    I2C1_ER_IRQHandler                       0x080001fb   Thumb Code     0  startup_stm32f10x_hd.o(.text)
    I2C1_EV_IRQHandler                       0x080001fb   Thumb Code     0  startup_stm32f10x_hd.o(.text)
    I2C2_ER_IRQHandler                       0x080001fb   Thumb Code     0  startup_stm32f10x_hd.o(.text)
    I2C2_EV_IRQHandler                       0x080001fb   Thumb Code     0  startup_stm32f10x_hd.o(.text)
    PVD_IRQHandler                           0x080001fb   Thumb Code     0  startup_stm32f10x_hd.o(.text)
    RCC_IRQHandler                           0x080001fb   Thumb Code     0  startup_stm32f10x_hd.o(.text)
    RTCAlarm_IRQHandler                      0x080001fb   Thumb Code     0  startup_stm32f10x_hd.o(.text)
    RTC_IRQHandler                           0x080001fb   Thumb Code     0  startup_stm32f10x_hd.o(.text)
    SDIO_IRQHandler                          0x080001fb   Thumb Code     0  startup_stm32f10x_hd.o(.text)
    SPI1_IRQHandler                          0x080001fb   Thumb Code     0  startup_stm32f10x_hd.o(.text)
    SPI2_IRQHandler                          0x080001fb   Thumb Code     0  startup_stm32f10x_hd.o(.text)
    SPI3_IRQHandler                          0x080001fb   Thumb Code     0  startup_stm32f10x_hd.o(.text)
    TAMPER_IRQHandler                        0x080001fb   Thumb Code     0  startup_stm32f10x_hd.o(.text)
    TIM1_BRK_IRQHandler                      0x080001fb   Thumb Code     0  startup_stm32f10x_hd.o(.text)
    TIM1_CC_IRQHandler                       0x080001fb   Thumb Code     0  startup_stm32f10x_hd.o(.text)
    TIM1_TRG_COM_IRQHandler                  0x080001fb   Thumb Code     0  startup_stm32f10x_hd.o(.text)
    TIM1_UP_IRQHandler                       0x080001fb   Thumb Code     0  startup_stm32f10x_hd.o(.text)
    TIM2_IRQHandler                          0x080001fb   Thumb Code     0  startup_stm32f10x_hd.o(.text)
    TIM3_IRQHandler                          0x080001fb   Thumb Code     0  startup_stm32f10x_hd.o(.text)
    TIM4_IRQHandler                          0x080001fb   Thumb Code     0  startup_stm32f10x_hd.o(.text)
    TIM5_IRQHandler                          0x080001fb   Thumb Code     0  startup_stm32f10x_hd.o(.text)
    TIM6_IRQHandler                          0x080001fb   Thumb Code     0  startup_stm32f10x_hd.o(.text)
    TIM7_IRQHandler                          0x080001fb   Thumb Code     0  startup_stm32f10x_hd.o(.text)
    TIM8_BRK_IRQHandler                      0x080001fb   Thumb Code     0  startup_stm32f10x_hd.o(.text)
    TIM8_CC_IRQHandler                       0x080001fb   Thumb Code     0  startup_stm32f10x_hd.o(.text)
    TIM8_TRG_COM_IRQHandler                  0x080001fb   Thumb Code     0  startup_stm32f10x_hd.o(.text)
    TIM8_UP_IRQHandler                       0x080001fb   Thumb Code     0  startup_stm32f10x_hd.o(.text)
    UART4_IRQHandler                         0x080001fb   Thumb Code     0  startup_stm32f10x_hd.o(.text)
    UART5_IRQHandler                         0x080001fb   Thumb Code     0  startup_stm32f10x_hd.o(.text)
    USART1_IRQHandler                        0x080001fb   Thumb Code     0  startup_stm32f10x_hd.o(.text)
    USART2_IRQHandler                        0x080001fb   Thumb Code     0  startup_stm32f10x_hd.o(.text)
    USART3_IRQHandler                        0x080001fb   Thumb Code     0  startup_stm32f10x_hd.o(.text)
    USBWakeUp_IRQHandler                     0x080001fb   Thumb Code     0  startup_stm32f10x_hd.o(.text)
    USB_HP_CAN1_TX_IRQHandler                0x080001fb   Thumb Code     0  startup_stm32f10x_hd.o(.text)
    USB_LP_CAN1_RX0_IRQHandler               0x080001fb   Thumb Code     0  startup_stm32f10x_hd.o(.text)
    WWDG_IRQHandler                          0x080001fb   Thumb Code     0  startup_stm32f10x_hd.o(.text)
    __aeabi_memcpy                           0x08000205   Thumb Code    36  memcpya.o(.text)
    __aeabi_memcpy4                          0x08000205   Thumb Code     0  memcpya.o(.text)
    __aeabi_memcpy8                          0x08000205   Thumb Code     0  memcpya.o(.text)
    __aeabi_uidiv                            0x08000229   Thumb Code     0  uidiv.o(.text)
    __aeabi_uidivmod                         0x08000229   Thumb Code    44  uidiv.o(.text)
    __scatterload                            0x08000255   Thumb Code    28  init.o(.text)
    __scatterload_rt2                        0x08000255   Thumb Code     0  init.o(.text)
    BusFault_Handler                         0x08000379   Thumb Code     4  stm32f10x_it.o(i.BusFault_Handler)
    DebugMon_Handler                         0x0800037d   Thumb Code     2  stm32f10x_it.o(i.DebugMon_Handler)
    GPIO_Init                                0x0800037f   Thumb Code   278  stm32f10x_gpio.o(i.GPIO_Init)
    GPIO_SetBits                             0x08000495   Thumb Code     4  stm32f10x_gpio.o(i.GPIO_SetBits)
    HardFault_Handler                        0x08000499   Thumb Code     4  stm32f10x_it.o(i.HardFault_Handler)
    KEY_Init                                 0x0800049d   Thumb Code    60  key.o(i.KEY_Init)
    LED_Init                                 0x080004e1   Thumb Code    76  led.o(i.LED_Init)
    MemManage_Handler                        0x08000535   Thumb Code     4  stm32f10x_it.o(i.MemManage_Handler)
    NMI_Handler                              0x08000539   Thumb Code     2  stm32f10x_it.o(i.NMI_Handler)
    NVIC_PriorityGroupConfig                 0x0800053d   Thumb Code    10  misc.o(i.NVIC_PriorityGroupConfig)
    RCC_APB2PeriphClockCmd                   0x08000551   Thumb Code    26  stm32f10x_rcc.o(i.RCC_APB2PeriphClockCmd)
    RCC_GetClocksFreq                        0x08000571   Thumb Code   192  stm32f10x_rcc.o(i.RCC_GetClocksFreq)
    SysTick_Handler                          0x0800080d   Thumb Code    16  stm32f10x_it.o(i.SysTick_Handler)
    SystemInit                               0x0800081d   Thumb Code    78  system_stm32f10x.o(i.SystemInit)
    USART1_Init                              0x0800087d   Thumb Code   124  usart.o(i.USART1_Init)
    USART_Cmd                                0x08000901   Thumb Code    24  stm32f10x_usart.o(i.USART_Cmd)
    USART_GetFlagStatus                      0x08000919   Thumb Code    26  stm32f10x_usart.o(i.USART_GetFlagStatus)
    USART_Init                               0x08000935   Thumb Code   210  stm32f10x_usart.o(i.USART_Init)
    USART_SendData                           0x08000a0d   Thumb Code     8  stm32f10x_usart.o(i.USART_SendData)
    UsageFault_Handler                       0x08000a15   Thumb Code     4  stm32f10x_it.o(i.UsageFault_Handler)
    __0printf$3                              0x08000a19   Thumb Code    22  printf3.o(i.__0printf$3)
    __1printf$3                              0x08000a19   Thumb Code     0  printf3.o(i.__0printf$3)
    __2printf                                0x08000a19   Thumb Code     0  printf3.o(i.__0printf$3)
    __scatterload_copy                       0x08000a39   Thumb Code    14  handlers.o(i.__scatterload_copy)
    __scatterload_null                       0x08000a47   Thumb Code     2  handlers.o(i.__scatterload_null)
    __scatterload_zeroinit                   0x08000a49   Thumb Code    14  handlers.o(i.__scatterload_zeroinit)
    fputc                                    0x08000c11   Thumb Code    32  usart.o(i.fputc)
    main                                     0x08000c35   Thumb Code    56  main.o(i.main)
    pvPortMalloc                             0x08001719   Thumb Code   262  heap_4.o(i.pvPortMalloc)
    pxPortInitialiseStack                    0x08001869   Thumb Code    30  port.o(i.pxPortInitialiseStack)
    uxListRemove                             0x0800188d   Thumb Code    40  list.o(i.uxListRemove)
    vListInitialise                          0x080018b5   Thumb Code    26  list.o(i.vListInitialise)
    vListInitialiseItem                      0x080018cf   Thumb Code     6  list.o(i.vListInitialiseItem)
    vListInsert                              0x080018d5   Thumb Code    52  list.o(i.vListInsert)
    vListInsertEnd                           0x08001909   Thumb Code    24  list.o(i.vListInsertEnd)
    vPortEnterCritical                       0x08001921   Thumb Code    68  port.o(i.vPortEnterCritical)
    vPortExitCritical                        0x080019a5   Thumb Code    48  port.o(i.vPortExitCritical)
    vPortFree                                0x08001a11   Thumb Code   120  heap_4.o(i.vPortFree)
    vPortSetupTimerInterrupt                 0x08001ac5   Thumb Code    26  port.o(i.vPortSetupTimerInterrupt)
    vPortValidateInterruptPriority           0x08001ae5   Thumb Code    86  port.o(i.vPortValidateInterruptPriority)
    vQueueAddToRegistry                      0x08001b81   Thumb Code    38  queue.o(i.vQueueAddToRegistry)
    vQueueWaitForMessageRestricted           0x08001bad   Thumb Code    74  queue.o(i.vQueueWaitForMessageRestricted)
    vTaskDelete                              0x08001bf9   Thumb Code   192  tasks.o(i.vTaskDelete)
    vTaskMissedYield                         0x08001d09   Thumb Code     8  tasks.o(i.vTaskMissedYield)
    vTaskPlaceOnEventList                    0x08001d15   Thumb Code    42  tasks.o(i.vTaskPlaceOnEventList)
    vTaskPlaceOnEventListRestricted          0x08001d6d   Thumb Code    50  tasks.o(i.vTaskPlaceOnEventListRestricted)
    vTaskSetTimeOutState                     0x08001dcd   Thumb Code    32  tasks.o(i.vTaskSetTimeOutState)
    vTaskStartScheduler                      0x08001e1d   Thumb Code   108  tasks.o(i.vTaskStartScheduler)
    vTaskSuspendAll                          0x08001ecd   Thumb Code    12  tasks.o(i.vTaskSuspendAll)
    vTaskSwitchContext                       0x08001edd   Thumb Code   110  tasks.o(i.vTaskSwitchContext)
    xPortStartScheduler                      0x08001f89   Thumb Code   140  port.o(i.xPortStartScheduler)
    xPortSysTickHandler                      0x08002029   Thumb Code    46  port.o(i.xPortSysTickHandler)
    xQueueGenericCreate                      0x0800205d   Thumb Code    78  queue.o(i.xQueueGenericCreate)
    xQueueGenericReceive                     0x080020d5   Thumb Code   386  queue.o(i.xQueueGenericReceive)
    xQueueGenericReset                       0x08002285   Thumb Code   136  queue.o(i.xQueueGenericReset)
    xQueueGenericSend                        0x08002339   Thumb Code   380  queue.o(i.xQueueGenericSend)
    xQueueGenericSendFromISR                 0x080024e1   Thumb Code   218  queue.o(i.xQueueGenericSendFromISR)
    xTaskCheckForTimeOut                     0x080025e5   Thumb Code   116  tasks.o(i.xTaskCheckForTimeOut)
    xTaskCreate                              0x08002689   Thumb Code    96  tasks.o(i.xTaskCreate)
    xTaskGetSchedulerState                   0x080026e9   Thumb Code    24  tasks.o(i.xTaskGetSchedulerState)
    xTaskGetTickCount                        0x08002709   Thumb Code     6  tasks.o(i.xTaskGetTickCount)
    xTaskIncrementTick                       0x08002715   Thumb Code   272  tasks.o(i.xTaskIncrementTick)
    xTaskRemoveFromEventList                 0x08002879   Thumb Code   118  tasks.o(i.xTaskRemoveFromEventList)
    xTaskResumeAll                           0x08002931   Thumb Code   214  tasks.o(i.xTaskResumeAll)
    xTimerCreate                             0x08002a55   Thumb Code    48  timers.o(i.xTimerCreate)
    xTimerCreateTimerTask                    0x08002a85   Thumb Code    56  timers.o(i.xTimerCreateTimerTask)
    xTimerGenericCommand                     0x08002afd   Thumb Code   116  timers.o(i.xTimerGenericCommand)
    Region$$Table$$Base                      0x08002ba0   Number         0  anon$$obj.o(Region$$Table)
    Region$$Table$$Limit                     0x08002bc0   Number         0  anon$$obj.o(Region$$Table)
    SystemCoreClock                          0x20000000   Data           4  system_stm32f10x.o(.data)
    AHBPrescTable                            0x20000004   Data          16  system_stm32f10x.o(.data)
    pxCurrentTCB                             0x2000003c   Data           4  tasks.o(.data)
    __stdout                                 0x200000b0   Data           4  stdout.o(.data)
    xQueueRegistry                           0x200000b4   Data          80  queue.o(.bss)
    __initial_sp                             0x20009810   Data           0  startup_stm32f10x_hd.o(STACK)



==============================================================================

Memory Map of the image

  Image Entry point : 0x08000131

  Load Region LR_IROM1 (Base: 0x08000000, Size: 0x00002c74, Max: 0x00080000, ABSOLUTE)

    Execution Region ER_IROM1 (Exec base: 0x08000000, Load base: 0x08000000, Size: 0x00002bc0, Max: 0x00080000, ABSOLUTE)

    Exec Addr    Load Addr    Size         Type   Attr      Idx    E Section Name        Object

    0x08000000   0x08000000   0x00000130   Data   RO            3    RESET               startup_stm32f10x_hd.o
    0x08000130   0x08000130   0x00000000   Code   RO         1810  * .ARM.Collect$$$$00000000  mc_w.l(entry.o)
    0x08000130   0x08000130   0x00000004   Code   RO         2078    .ARM.Collect$$$$00000001  mc_w.l(entry2.o)
    0x08000134   0x08000134   0x00000004   Code   RO         2081    .ARM.Collect$$$$00000004  mc_w.l(entry5.o)
    0x08000138   0x08000138   0x00000000   Code   RO         2083    .ARM.Collect$$$$00000008  mc_w.l(entry7b.o)
    0x08000138   0x08000138   0x00000000   Code   RO         2085    .ARM.Collect$$$$0000000A  mc_w.l(entry8b.o)
    0x08000138   0x08000138   0x00000008   Code   RO         2086    .ARM.Collect$$$$0000000B  mc_w.l(entry9a.o)
    0x08000140   0x08000140   0x00000004   Code   RO         2093    .ARM.Collect$$$$0000000E  mc_w.l(entry12b.o)
    0x08000144   0x08000144   0x00000000   Code   RO         2088    .ARM.Collect$$$$0000000F  mc_w.l(entry10a.o)
    0x08000144   0x08000144   0x00000000   Code   RO         2090    .ARM.Collect$$$$00000011  mc_w.l(entry11a.o)
    0x08000144   0x08000144   0x00000004   Code   RO         2079    .ARM.Collect$$$$00002712  mc_w.l(entry2.o)
    0x08000148   0x08000148   0x00000096   Code   RO         1639    .emb_text           port.o
    0x080001de   0x080001de   0x00000002   PAD
    0x080001e0   0x080001e0   0x00000024   Code   RO            4    .text               startup_stm32f10x_hd.o
    0x08000204   0x08000204   0x00000024   Code   RO         1813    .text               mc_w.l(memcpya.o)
    0x08000228   0x08000228   0x0000002c   Code   RO         2095    .text               mc_w.l(uidiv.o)
    0x08000254   0x08000254   0x00000024   Code   RO         2110    .text               mc_w.l(init.o)
    0x08000278   0x08000278   0x000000e4   Code   RO          671    i.AppTaskCreate     main.o
    0x0800035c   0x0800035c   0x0000001c   Code   RO          672    i.BSP_Init          main.o
    0x08000378   0x08000378   0x00000004   Code   RO          837    i.BusFault_Handler  stm32f10x_it.o
    0x0800037c   0x0800037c   0x00000002   Code   RO          838    i.DebugMon_Handler  stm32f10x_it.o
    0x0800037e   0x0800037e   0x00000116   Code   RO          143    i.GPIO_Init         stm32f10x_gpio.o
    0x08000494   0x08000494   0x00000004   Code   RO          151    i.GPIO_SetBits      stm32f10x_gpio.o
    0x08000498   0x08000498   0x00000004   Code   RO          839    i.HardFault_Handler  stm32f10x_it.o
    0x0800049c   0x0800049c   0x00000044   Code   RO         1771    i.KEY_Init          key.o
    0x080004e0   0x080004e0   0x00000054   Code   RO         1798    i.LED_Init          led.o
    0x08000534   0x08000534   0x00000004   Code   RO          840    i.MemManage_Handler  stm32f10x_it.o
    0x08000538   0x08000538   0x00000002   Code   RO          841    i.NMI_Handler       stm32f10x_it.o
    0x0800053a   0x0800053a   0x00000002   PAD
    0x0800053c   0x0800053c   0x00000014   Code   RO          256    i.NVIC_PriorityGroupConfig  misc.o
    0x08000550   0x08000550   0x00000020   Code   RO          295    i.RCC_APB2PeriphClockCmd  stm32f10x_rcc.o
    0x08000570   0x08000570   0x000000d4   Code   RO          303    i.RCC_GetClocksFreq  stm32f10x_rcc.o
    0x08000644   0x08000644   0x00000008   Code   RO           24    i.SetSysClock       system_stm32f10x.o
    0x0800064c   0x0800064c   0x000000e0   Code   RO           25    i.SetSysClockTo72   system_stm32f10x.o
    0x0800072c   0x0800072c   0x00000070   Code   RO          673    i.Swtmr1_Callback   main.o
    0x0800079c   0x0800079c   0x00000070   Code   RO          674    i.Swtmr2_Callback   main.o
    0x0800080c   0x0800080c   0x00000010   Code   RO          842    i.SysTick_Handler   stm32f10x_it.o
    0x0800081c   0x0800081c   0x00000060   Code   RO           27    i.SystemInit        system_stm32f10x.o
    0x0800087c   0x0800087c   0x00000084   Code   RO         1716    i.USART1_Init       usart.o
    0x08000900   0x08000900   0x00000018   Code   RO          495    i.USART_Cmd         stm32f10x_usart.o
    0x08000918   0x08000918   0x0000001a   Code   RO          498    i.USART_GetFlagStatus  stm32f10x_usart.o
    0x08000932   0x08000932   0x00000002   PAD
    0x08000934   0x08000934   0x000000d8   Code   RO          502    i.USART_Init        stm32f10x_usart.o
    0x08000a0c   0x08000a0c   0x00000008   Code   RO          512    i.USART_SendData    stm32f10x_usart.o
    0x08000a14   0x08000a14   0x00000004   Code   RO          843    i.UsageFault_Handler  stm32f10x_it.o
    0x08000a18   0x08000a18   0x00000020   Code   RO         1906    i.__0printf$3       mc_w.l(printf3.o)
    0x08000a38   0x08000a38   0x0000000e   Code   RO         2122    i.__scatterload_copy  mc_w.l(handlers.o)
    0x08000a46   0x08000a46   0x00000002   Code   RO         2123    i.__scatterload_null  mc_w.l(handlers.o)
    0x08000a48   0x08000a48   0x0000000e   Code   RO         2124    i.__scatterload_zeroinit  mc_w.l(handlers.o)
    0x08000a56   0x08000a56   0x00000002   PAD
    0x08000a58   0x08000a58   0x000001b8   Code   RO         1913    i._printf_core      mc_w.l(printf3.o)
    0x08000c10   0x08000c10   0x00000024   Code   RO         1722    i.fputc             usart.o
    0x08000c34   0x08000c34   0x00000074   Code   RO          675    i.main              main.o
    0x08000ca8   0x08000ca8   0x00000098   Code   RO         1181    i.prvAddCurrentTaskToDelayedList  tasks.o
    0x08000d40   0x08000d40   0x000000b4   Code   RO         1182    i.prvAddNewTaskToReadyList  tasks.o
    0x08000df4   0x08000df4   0x00000064   Code   RO         1472    i.prvCheckForValidListAndQueue  timers.o
    0x08000e58   0x08000e58   0x00000064   Code   RO         1183    i.prvCheckTasksWaitingTermination  tasks.o
    0x08000ebc   0x08000ebc   0x0000002a   Code   RO         1027    i.prvCopyDataFromQueue  queue.o
    0x08000ee6   0x08000ee6   0x0000006a   Code   RO         1028    i.prvCopyDataToQueue  queue.o
    0x08000f50   0x08000f50   0x00000012   Code   RO         1184    i.prvDeleteTCB      tasks.o
    0x08000f62   0x08000f62   0x00000002   PAD
    0x08000f64   0x08000f64   0x00000028   Code   RO         1473    i.prvGetNextExpireTime  timers.o
    0x08000f8c   0x08000f8c   0x0000007c   Code   RO         1590    i.prvHeapInit       heap_4.o
    0x08001008   0x08001008   0x00000028   Code   RO         1185    i.prvIdleTask       tasks.o
    0x08001030   0x08001030   0x00000026   Code   RO         1029    i.prvInitialiseNewQueue  queue.o
    0x08001056   0x08001056   0x00000002   PAD
    0x08001058   0x08001058   0x000000c4   Code   RO         1186    i.prvInitialiseNewTask  tasks.o
    0x0800111c   0x0800111c   0x00000070   Code   RO         1474    i.prvInitialiseNewTimer  timers.o
    0x0800118c   0x0800118c   0x00000068   Code   RO         1187    i.prvInitialiseTaskLists  tasks.o
    0x080011f4   0x080011f4   0x00000068   Code   RO         1591    i.prvInsertBlockIntoFreeList  heap_4.o
    0x0800125c   0x0800125c   0x00000058   Code   RO         1475    i.prvInsertTimerInActiveList  timers.o
    0x080012b4   0x080012b4   0x0000001a   Code   RO         1030    i.prvIsQueueEmpty   queue.o
    0x080012ce   0x080012ce   0x0000001e   Code   RO         1031    i.prvIsQueueFull    queue.o
    0x080012ec   0x080012ec   0x00000084   Code   RO         1476    i.prvProcessExpiredTimer  timers.o
    0x08001370   0x08001370   0x00000110   Code   RO         1477    i.prvProcessReceivedCommands  timers.o
    0x08001480   0x08001480   0x00000074   Code   RO         1478    i.prvProcessTimerOrBlockTask  timers.o
    0x080014f4   0x080014f4   0x00000034   Code   RO         1188    i.prvResetNextTaskUnblockTime  tasks.o
    0x08001528   0x08001528   0x0000002c   Code   RO         1479    i.prvSampleTimeNow  timers.o
    0x08001554   0x08001554   0x000000c0   Code   RO         1480    i.prvSwitchTimerLists  timers.o
    0x08001614   0x08001614   0x0000006c   Code   RO         1640    i.prvTaskExitError  port.o
    0x08001680   0x08001680   0x0000001a   Code   RO         1481    i.prvTimerTask      timers.o
    0x0800169a   0x0800169a   0x0000007e   Code   RO         1032    i.prvUnlockQueue    queue.o
    0x08001718   0x08001718   0x00000150   Code   RO         1592    i.pvPortMalloc      heap_4.o
    0x08001868   0x08001868   0x00000024   Code   RO         1641    i.pxPortInitialiseStack  port.o
    0x0800188c   0x0800188c   0x00000028   Code   RO          990    i.uxListRemove      list.o
    0x080018b4   0x080018b4   0x0000001a   Code   RO          991    i.vListInitialise   list.o
    0x080018ce   0x080018ce   0x00000006   Code   RO          992    i.vListInitialiseItem  list.o
    0x080018d4   0x080018d4   0x00000034   Code   RO          993    i.vListInsert       list.o
    0x08001908   0x08001908   0x00000018   Code   RO          994    i.vListInsertEnd    list.o
    0x08001920   0x08001920   0x00000084   Code   RO         1643    i.vPortEnterCritical  port.o
    0x080019a4   0x080019a4   0x0000006c   Code   RO         1644    i.vPortExitCritical  port.o
    0x08001a10   0x08001a10   0x000000b4   Code   RO         1593    i.vPortFree         heap_4.o
    0x08001ac4   0x08001ac4   0x00000020   Code   RO         1645    i.vPortSetupTimerInterrupt  port.o
    0x08001ae4   0x08001ae4   0x0000009c   Code   RO         1646    i.vPortValidateInterruptPriority  port.o
    0x08001b80   0x08001b80   0x0000002c   Code   RO         1036    i.vQueueAddToRegistry  queue.o
    0x08001bac   0x08001bac   0x0000004a   Code   RO         1039    i.vQueueWaitForMessageRestricted  queue.o
    0x08001bf6   0x08001bf6   0x00000002   PAD
    0x08001bf8   0x08001bf8   0x00000110   Code   RO         1197    i.vTaskDelete       tasks.o
    0x08001d08   0x08001d08   0x0000000c   Code   RO         1199    i.vTaskMissedYield  tasks.o
    0x08001d14   0x08001d14   0x00000058   Code   RO         1201    i.vTaskPlaceOnEventList  tasks.o
    0x08001d6c   0x08001d6c   0x00000060   Code   RO         1202    i.vTaskPlaceOnEventListRestricted  tasks.o
    0x08001dcc   0x08001dcc   0x00000050   Code   RO         1206    i.vTaskSetTimeOutState  tasks.o
    0x08001e1c   0x08001e1c   0x000000b0   Code   RO         1207    i.vTaskStartScheduler  tasks.o
    0x08001ecc   0x08001ecc   0x00000010   Code   RO         1209    i.vTaskSuspendAll   tasks.o
    0x08001edc   0x08001edc   0x000000ac   Code   RO         1210    i.vTaskSwitchContext  tasks.o
    0x08001f88   0x08001f88   0x000000a0   Code   RO         1647    i.xPortStartScheduler  port.o
    0x08002028   0x08002028   0x00000034   Code   RO         1648    i.xPortSysTickHandler  port.o
    0x0800205c   0x0800205c   0x00000078   Code   RO         1040    i.xQueueGenericCreate  queue.o
    0x080020d4   0x080020d4   0x000001b0   Code   RO         1041    i.xQueueGenericReceive  queue.o
    0x08002284   0x08002284   0x000000b4   Code   RO         1042    i.xQueueGenericReset  queue.o
    0x08002338   0x08002338   0x000001a8   Code   RO         1043    i.xQueueGenericSend  queue.o
    0x080024e0   0x080024e0   0x00000104   Code   RO         1044    i.xQueueGenericSendFromISR  queue.o
    0x080025e4   0x080025e4   0x000000a4   Code   RO         1211    i.xTaskCheckForTimeOut  tasks.o
    0x08002688   0x08002688   0x00000060   Code   RO         1212    i.xTaskCreate       tasks.o
    0x080026e8   0x080026e8   0x00000020   Code   RO         1215    i.xTaskGetSchedulerState  tasks.o
    0x08002708   0x08002708   0x0000000c   Code   RO         1216    i.xTaskGetTickCount  tasks.o
    0x08002714   0x08002714   0x00000164   Code   RO         1218    i.xTaskIncrementTick  tasks.o
    0x08002878   0x08002878   0x000000b8   Code   RO         1221    i.xTaskRemoveFromEventList  tasks.o
    0x08002930   0x08002930   0x00000124   Code   RO         1223    i.xTaskResumeAll    tasks.o
    0x08002a54   0x08002a54   0x00000030   Code   RO         1484    i.xTimerCreate      timers.o
    0x08002a84   0x08002a84   0x00000078   Code   RO         1485    i.xTimerCreateTimerTask  timers.o
    0x08002afc   0x08002afc   0x000000a4   Code   RO         1486    i.xTimerGenericCommand  timers.o
    0x08002ba0   0x08002ba0   0x00000020   Data   RO         2120    Region$$Table       anon$$obj.o


    Execution Region RW_IRAM1 (Exec base: 0x20000000, Load base: 0x08002bc0, Size: 0x00009810, Max: 0x00010000, ABSOLUTE)

    Exec Addr    Load Addr    Size         Type   Attr      Idx    E Section Name        Object

    0x20000000   0x08002bc0   0x00000014   Data   RW           28    .data               system_stm32f10x.o
    0x20000014   0x08002bd4   0x00000014   Data   RW          323    .data               stm32f10x_rcc.o
    0x20000028   0x08002be8   0x00000014   Data   RW          676    .data               main.o
    0x2000003c   0x08002bfc   0x0000003c   Data   RW         1226    .data               tasks.o
    0x20000078   0x08002c38   0x00000014   Data   RW         1492    .data               timers.o
    0x2000008c   0x08002c4c   0x00000018   Data   RW         1598    .data               heap_4.o
    0x200000a4   0x08002c64   0x0000000c   Data   RW         1649    .data               port.o
    0x200000b0   0x08002c70   0x00000004   Data   RW         2094    .data               mc_w.l(stdout.o)
    0x200000b4        -       0x00000050   Zero   RW         1050    .bss                queue.o
    0x20000104        -       0x000002e4   Zero   RW         1225    .bss                tasks.o
    0x200003e8        -       0x00000028   Zero   RW         1491    .bss                timers.o
    0x20000410        -       0x00009000   Zero   RW         1597    .bss                heap_4.o
    0x20009410        -       0x00000400   Zero   RW            1    STACK               startup_stm32f10x_hd.o


==============================================================================

Image component sizes


      Code (inc. data)   RO Data    RW Data    ZI Data      Debug   Object Name

         0          0          0          0          0       4516   core_cm3.o
         0          0          0          0          0       9384   event_groups.o
       744        168          0         24      36864       3819   heap_4.o
        68          8          0          0          0        503   key.o
        84          8          0          0          0        507   led.o
       148          0          0          0          0       3102   list.o
       596        272          0         20          0      15159   main.o
        20         10          0          0          0        507   misc.o
       934        304          0         12          0      10069   port.o
      1902        224          0          0         80      14549   queue.o
        36          8        304          0       1024        860   startup_stm32f10x_hd.o
       282          0          0          0          0       2475   stm32f10x_gpio.o
        36          0          0          0          0       3063   stm32f10x_it.o
       244         26          0         20          0       3829   stm32f10x_rcc.o
       274          6          0          0          0       3976   stm32f10x_usart.o
       328         28          0         20          0     228521   system_stm32f10x.o
      2890        814          0         60        740      26237   tasks.o
      1454        374          0         20         40      10038   timers.o
       168         12          0          0          0       2466   usart.o

    ----------------------------------------------------------------------
     10220       2262        336        176      38748     343580   Object Totals
         0          0         32          0          0          0   (incl. Generated)
        12          0          0          0          0          0   (incl. Padding)

    ----------------------------------------------------------------------

      Code (inc. data)   RO Data    RW Data    ZI Data      Debug   Library Member Name

         0          0          0          0          0          0   entry.o
         0          0          0          0          0          0   entry10a.o
         0          0          0          0          0          0   entry11a.o
         4          0          0          0          0          0   entry12b.o
         8          4          0          0          0          0   entry2.o
         4          0          0          0          0          0   entry5.o
         0          0          0          0          0          0   entry7b.o
         0          0          0          0          0          0   entry8b.o
         8          4          0          0          0          0   entry9a.o
        30          0          0          0          0          0   handlers.o
        36          8          0          0          0         68   init.o
        36          0          0          0          0         68   memcpya.o
       472         14          0          0          0        184   printf3.o
         0          0          0          4          0          0   stdout.o
        44          0          0          0          0         80   uidiv.o

    ----------------------------------------------------------------------
       644         30          0          4          0        400   Library Totals
         2          0          0          0          0          0   (incl. Padding)

    ----------------------------------------------------------------------

      Code (inc. data)   RO Data    RW Data    ZI Data      Debug   Library Name

       642         30          0          4          0        400   mc_w.l

    ----------------------------------------------------------------------
       644         30          0          4          0        400   Library Totals

    ----------------------------------------------------------------------

==============================================================================


      Code (inc. data)   RO Data    RW Data    ZI Data      Debug   

     10864       2292        336        180      38748     339244   Grand Totals
     10864       2292        336        180      38748     339244   ELF Image Totals
     10864       2292        336        180          0          0   ROM Totals

==============================================================================

    Total RO  Size (Code + RO Data)                11200 (  10.94kB)
    Total RW  Size (RW Data + ZI Data)             38928 (  38.02kB)
    Total ROM Size (Code + RO Data + RW Data)      11380 (  11.11kB)

==============================================================================

