:020000040800F2
:1000000090970020E1010008490700080D0600084C
:1000100045070008CB030008550D0008000000004C
:10002000000000000000000000000000490100087E
:10003000ED040008000000008D010008CD09000853
:10004000FB010008FB010008FB010008FB010008A0
:10005000FB010008FB010008FB010008FB01000890
:10006000FB010008FB010008FB010008FB01000880
:10007000FB010008FB010008FB010008FB01000870
:10008000FB010008FB010008FB010008FB01000860
:10009000FB010008FB010008FB010008FB01000850
:1000A000FB010008FB010008FB010008FB01000840
:1000B000FB010008FB010008FB010008FB01000830
:1000C000FB010008FB010008FB010008FB01000820
:1000D000FB010008FB010008FB010008FB01000810
:1000E000FB010008FB010008FB010008FB01000800
:1000F000FB010008FB010008FB010008FB010008F0
:10010000FB010008FB010008FB010008FB010008DF
:10011000FB010008FB0100083D0A0008FB01000884
:10012000FB010008FB010008FB010008FB010008BF
:10013000DFF810D000F09EF8004800474D1000088E
:10014000AFF3008090970020224B19680868B0E850
:10015000F00F80F30988BFF36F8F4FF0000080F33A
:1001600011884EF00D0E7047000000000648006830
:10017000006880F3088862B661B6BFF34F8FBFF3A3
:100180006F8F00DF00BF00BF08ED00E0EFF30980D4
:10019000BFF36F8F0F4B1A6820E9F00F106008B59E
:1001A0004FF0500080F31188BFF34F8FBFF36F8F74
:1001B00001F0B2FE4FF0000080F31188BDE8084066
:1001C00019680868B0E8F00F80F30988BFF36F8FF3
:1001D000704700BF38000020EFF305807047000033
:1001E0000648804706480047FEE7FEE7FEE7FEE7D1
:1001F000FEE7FEE7FEE7FEE7FEE7FEE7DD090008B3
:1002000031010008D2B201E000F8012B491EFBD2F7
:1002100070470022F6E710B513460A460446194611
:10022000FFF7F0FF204610BD421C10F8011B00290B
:10023000FBD1801A7047034611F8012B00F8012BFF
:10024000002AF9D11846704730B50B460146002008
:100250002022012409E021FA02F59D4205D303FA88
:1002600002F5491B04FA02F52844151EA2F1010209
:10027000F1DC30BD064C074D06E0E06840F00103BC
:1002800094E8070098471034AC42F6D3FFF754FFC8
:10029000E0230008002400081CB5012401F020FB25
:1002A0001B48012100238022CDE9001019A11C4820
:1002B00001F012FF0446012C02D11AA000F04CFDFF
:1002C0001F48022100238022CDE900101DA12048F3
:1002D00001F002FF0446012C02D11EA000F03CFDFB
:1002E0002348032100234FF40072CDE9001021A11F
:1002F000234801F0F1FE0446012C02D121A000F0B8
:100300002BFD2648006801F009FC01F02BFB1CBD09
:100310002C0000204C4544305F5461736B0000009A
:10032000110600084C4544305F5461736BC8CECE53
:10033000F1B4B4BDA8B3C9B9A6210D0A00000000EC
:10034000300000204C4544315F5461736B00000065
:10035000810600084C4544315F5461736BC8CECEB2
:10036000F1B4B4BDA8B3C9B9A6210D0A00000000BC
:10037000340000204350555F5461736B000000004F
:10038000D10300084350555F5461736BC8CECEF162
:10039000B4B4BDA8B3C9B9A6210D0A002800002035
:1003A00010B5472140F2E73000F05CFB10BD10B5FE
:1003B0004FF4407000F002FA4FF4E13000F0FEFB21
:1003C00000F096F9FFF7ECFF10BD00BFFEE700005C
:1003D000E4B02AE04FF4C8716846FFF71AFF684698
:1003E00001F0CAFC11A000F0B7FC1CA000F0B4FCA6
:1003F000694626A000F0B0FC0CA000F0ADFC4FF464
:10040000C8716846FFF705FF684601F04BFC20A065
:1004100000F0A2FC69461DA000F09EFC26A000F0A2
:100420009BFC4FF47A7001F03DFBD3E72D2D2D2D71
:100430002D2D2D2D2D2D2D2D2D2D2D2D2D2D2D2DEC
:100440002D2D2D2D2D2D2D2D2D2D2D2D2D2D2D2DDC
:100450002D2D2D2D2D2D2D2D2D0D0A00C8CECEF19B
:10046000C3FB202020202020C8CECEF1D7B4CCACB6
:1004700020D3C5CFC8BCB6202020CAA3D3E0D5BBAB
:1004800020C8CECEF1D0F2BAC50D0A002573000007
:10049000C8CECEF1C3FB20202020202020D4CBD0FA
:1004A000D0BCC6CAFD202020202020202020C0FB58
:1004B000D3C3C2CA0D0A00002D2D2D2D2D2D2D2D9B
:1004C0002D2D2D2D2D2D2D2D2D2D2D2D2D2D2D2D5C
:1004D0002D2D2D2D2D2D2D2D2D2D2D2D2D2D2D2D4C
:1004E0002D2D2D2D2D0D0A0A0000000070472DE93D
:1004F000F0410246002500260020002300240027AA
:1005000091F803C00CF00F0591F803C00CF0100C2B
:10051000BCF1000F03D091F802C04CEA050591F838
:1005200000C0BCF1000F31D0146800202BE04FF068
:10053000010C0CFA00F3B1F800C00CEA03069E426D
:1005400020D183004FF00F0C0CFA03F7BC4305FADF
:1005500003FC4CEA040491F803C0BCF1280F06D157
:100560004FF0010C0CFA00FCC2F814C00AE091F83C
:1005700003C0BCF1480F05D14FF0010C0CFA00FC90
:10058000C2F810C0401C0828D1D31460B1F800C0D4
:10059000BCF1FF0F34DD546800202EE000F1080CA0
:1005A0004FF0010808FA0CF3B1F800C00CEA03069A
:1005B0009E4221D183004FF00F0C0CFA03F7BC438D
:1005C00005FA03FC4CEA040491F803C0BCF1280FBF
:1005D00005D100F1080C08FA0CF8C2F8148091F863
:1005E00003C0BCF1480F07D100F1080C4FF001081F
:1005F00008FA0CF8C2F81080401C0828CED35460CA
:10060000BDE8F081416170470161704700BFFEE7BE
:1006100015E020210A48FFF7F5FF0AA000F09CFB37
:100620004FF4FA7001F03EFA20210548FFF7ECFF85
:100630000BA000F091FB4FF4FA7001F033FAE8E7F9
:10064000000C01404C4544305F5461736B2052757F
:100650006E6E696E672C4C4544305F4F4E0D0A003C
:100660004C4544305F5461736B2052756E6E696EF9
:10067000672C4C4544305F4F46460D0A0000000091
:1006800015E020210A48FFF7BDFF0AA000F064FB37
:100690004FF4FA7001F006FA20210548FFF7B4FF85
:1006A0000BA000F059FB4FF4FA7001F0FBF9E8E7FA
:1006B000001801404C4544315F5461736B20527502
:1006C0006E6E696E672C4C4544305F4F4E0D0A00CC
:1006D0004C4544315F5461736B2052756E6E696E88
:1006E000672C4C4544305F4F46460D0A0000000021
:1006F00008B50121082000F07BF80121402000F01E
:1007000077F82020ADF8000010208DF803000320BA
:100710008DF8020069460948FFF7E9FE2020ADF890
:10072000000069460648FFF7E2FE20210348FFF774
:100730006BFF20210248FFF767FF08BD000C014056
:100740000018014000BFFEE77047000070B50021AF
:1007500000230F22C47804B3154C246804F4E06429
:10076000C4F5E064210AC1F10403CA40447804FAE4
:1007700003F184781440214309010E4C0678A155F9
:10078000047804F01F050124AC4005786D11AD001C
:1007900005F1E025C5F8004109E0047804F01F05E3
:1007A0000124AC40044D0678761145F8264070BD12
:1007B0000CED00E000E400E080E100E002490143CC
:1007C000024A1160704700000000FA050CED00E0DD
:1007D00029B1064AD2690243044BDA6104E0034AB4
:1007E000D2698243014BDA61704700000010024079
:1007F00029B1064A92690243044B9A6104E0034A14
:1008000092698243014B9A617047000000100240D8
:1008100030B500210022002400232D4D6D6805F025
:100820000C0121B1042905D0082923D105E0294D67
:10083000056022E0274D05601FE0254D6D6805F439
:100840007012234D6D6805F48034022505EB924249
:100850001CB9214D554305600BE01D4D6D6805F435
:1008600000351DB11C4D5543056002E0194D55433F
:10087000056002E0174D056000BF00BF144D6D68B4
:1008800005F0F0010909154D6B5C0568DD40456018
:100890000F4D6D6805F4E061090A104D6B5C456809
:1008A000DD4085600A4D6D6805F46051C90A0B4D45
:1008B0006B5C4568DD40C560054D6D6805F44041E1
:1008C000890B074D6B5CC568B5FBF3F5056130BD61
:1008D0000010024000127A0000093D0014000020C0
:1008E0002400002010B500F001F810BD0CB5002068
:1008F000019000903348006840F48030314908602E
:1009000000BF3048006800F4003000900198401C9F
:100910000190009818B90198B0F5A06FF1D129485D
:10092000006800F4003010B10120009001E00020C8
:1009300000900098012843D12348006840F010003F
:10094000214908600846006820F003000860084656
:10095000006840F0020008601A4840681949486081
:100960000846406848600846406840F48060486037
:100970000846406820F47C1048600846406840F40F
:10098000E81048600846006840F08070086000BFCA
:100990000C48006800F000700028F9D00948406851
:1009A00020F00300074948600846406840F0020014
:1009B000486000BF0348406800F00C000828F9D1E7
:1009C0000CBD0000001002400020024010B501F0F4
:1009D000B3FB012801D001F065FB10BD10B5134831
:1009E000006840F00100114908600846406810495D
:1009F00008400E494860084600680E4908400B4907
:100A000008600846006820F48020086008464068B6
:100A100020F4FE0048604FF41F008860FFF762FF7B
:100A20004FF000600449086010BD00000010024053
:100A30000000FFF8FFFFF6FE08ED00E010B5012111
:100A4000064800F04FF820B105480068401C0449F2
:100A500008600121014800F036F810BD0010004088
:100A6000A00000207FB505460C4601211020FFF7AD
:100A7000AFFEADF80850ADF8044001A90F4800F0F2
:100A80004BF836208DF8000005208DF8010000207D
:100A90008DF8020001208DF803006846FFF756FE2E
:100AA0000121064800F00CF801221146034800F02D
:100AB0002AF80121014800F009F87FBD001000402C
:100AC000CA4302827047CA430282704721B102883A
:100AD00042F00102028004E002884FF6FE731A40E1
:100AE0000280704730B50246002000230024158A9A
:100AF00005EA0103958905EA010413B10CB101204F
:100B000000E0002030BD1AB183890B43838102E0ED
:100B100083898B4383817047002202881D4B984252
:100B20000ED01D4B98420BD0B0F1804F08D01B4B1C
:100B3000984205D01A4B984202D01A4B984204D1E1
:100B40004FF68F731A404B881A43174B984207D0C1
:100B5000164B984204D04FF6FF431A40CB881A43F5
:100B600002808B8883850B8803850A4B98420BD0C3
:100B7000094B984208D00E4B984205D00D4B984235
:100B800002D00D4B984201D10B7A03860123838258
:100B900070470000002C0140003401400004004078
:100BA00000080040000C004000100040001400400D
:100BB00000400140004401400048014010B586B0AB
:100BC000044601210420FFF713FE01218803FFF7EB
:100BD0000FFE4FF40070ADF8140018208DF81700C8
:100BE00003208DF8160005A91348FFF780FC4FF489
:100BF0008060ADF8140004208DF8170003208DF8F4
:100C0000160005A90C48FFF772FC01940020ADF80E
:100C10000800ADF80A00ADF80C00ADF810000C208B
:100C2000ADF80E0001A9054800F024F801210348A1
:100C300000F006F806B010BD000801400038014081
:100C400021B1828942F40052828104E082894DF60A
:100C5000FF731A408281704702460020B1F5007F81
:100C600000D100BF13880B400BB1012000E0002031
:100C7000704700002DE9F04786B005460E46002477
:100C8000A24600BFA1460027B08900B100BF2F4691
:100C90002C8A4CF6FF700440F08804432C82AC8907
:100CA0004EF6F3100440B088318908437189084337
:100CB0000443AC81AC8A4FF6FF400440B089044342
:100CC000AC8201A8FFF7A4FD1F48874202D1DDF8DE
:100CD00010A001E0DDF80CA0A88900F4004040B1AC
:100CE0000AEBCA0000EB0A1031684900B0FBF1F8CA
:100CF00007E00AEBCA0000EB0A1031688900B0FB7C
:100D0000F1F86420B8FBF0F004012009642101FB34
:100D10001089A88900F4004040B1322000EBC900DE
:100D2000B0FBF1F000F00700044308E0322000EBD4
:100D300009106421B0FBF1F000F00F0004432C8196
:100D400006B0BDE8F087000000380140C1F308029A
:100D50008280704700BFFEE70FB4054B10B503A9B2
:100D6000044A029800F02CF810BC5DF814FB000057
:100D700029100008A40000200FB4084B10B504A9E6
:100D800002AA039800F01CF8044602A9002000F013
:100D9000F3F8204610BC5DF814FB0000790F000842
:100DA00002E008C8121F08C1002AFAD17047704734
:100DB000002001E001C1121F002AFBD17047000092
:100DC0002DE9FF4F8BB09A460F460546002606E0F8
:100DD00025280BD052460D9990476D1C761C28781B
:100DE0000028F5D10FB03046BDE8F08F0024A046B2
:100DF0000122604900E0044315F8013F203B02FA5C
:100E000003F00842F7D128782E2817D115F8010FE2
:100E100044F004042A280ED06FF02F022878A0F1A5
:100E2000300109290AD808EB880102EB410100EBE7
:100E300001086D1CF2E757F8048B6D1C28786928AF
:100E40003ED006DC0028CDD063280BD0642804D126
:100E500036E0732810D075284BD052460D99904734
:100E6000761C85E017F8040B8DF8000000208DF843
:100E70000100E946012003E057F8049B4FF0FF30E2
:100E800061074FF0000401D40AE0641C44450DDA08
:100E90008442FADB19F804100029F6D106E0641C3C
:100EA0008442FCDB19F804100029F8D1264404E040
:100EB00019F8010B52460D999047641EF8D257E07D
:100EC00001CF4FF00A0B002802DA40422D2102E048
:100ED000210504D52B218DF82410012103E0E10721
:100EE00005D02021F7E70DF1200908910CE0002141
:100EF000F9E701CF4FF00A0BF9E75946FFF7A4F9DC
:100F000001F1300209F8012D0028F6D1ADEB0900FE
:100F100000F1200B600701D44FF00108D84502DD35
:100F2000A8EB0B0000E000208046002406E009A8A2
:100F30005246005D0D999047641C761C08988442C7
:100F4000F5DB04E0302052460D999047761CB8F14D
:100F50000001A8F10108F5DC05E019F8010B524683
:100F60000D999047761CBBF10001ABF1010BF4DC4D
:100F70006D1C34E7092801000A68531C0B601070CF
:100F8000704700002DE9F04107463E462EB940F279
:100F9000FB4216A11BA0FFF7DFFE1E480068864239
:100FA00001D100241EE000F09BFC756900F0DAFC22
:100FB00019480068854203D018480068854201D16D
:100FC00002240FE01648854205D1B06A08B903240F
:100FD00008E0022406E01348854200D00DB904243D
:100FE00000E001242046BDE8F08100002E2E5C4682
:100FF00072656552544F535C7372635C7461736BBA
:10100000732E63004572726F723A25732C25640D3E
:101010000A000000380000203C00002040000020B2
:10102000780300206403002070B504460D46E1B249
:101030000548FFF78BFE00BF80210348FFF70CFE39
:101040000028F9D0204670BD003801401CB50124AD
:10105000FFF7ADF90BA0FFF77FFE0F48012100233A
:101060008022CDE900100DA1104801F035F80446AA
:10107000012C02D100F0F0FE02E00DA0FFF76CFEA3
:1010800000BFFEE7D3B2BCFEB3F5CABCBBAFCDEA2E
:10109000B3C90D0A00000000280000204170705400
:1010A00061736B437265617465000000990200080A
:1010B000C8CECEF1B4B4BDA8CAA7B0DC0D0A0000FA
:1010C0002DE9F04105460E461C4807681C4800689B
:1010D000001D00F05FFB50B91948006890F82C1013
:1010E0000120884017490968814316480160681C3F
:1010F00038B936B112480168091D134800F0E4FB05
:101100001AE07C190E4800684460BC4207D20C48C3
:101110000168091D0D48006800F0BCFB0CE00848A0
:101120000168091D0A48006800F0B4FB094800681E
:10113000844201D207480460BDE8F0814C000020E1
:1011400038000020500000207803002040000020DC
:101150003C0000206800002010B5044600F0C0FBF1
:1011600024480068401C234908602348006840B9AF
:10117000214804600846006801280DD100F040F9BC
:101180000AE01E48006838B91B480068C06AE16A76
:10119000884201D81848046019480068401C184962
:1011A000086008460068606494F82C1001208840AC
:1011B00014490968084313490860E16A01EB810199
:1011C000114A02EB8100211D00F07EFB00F0CAFBFA
:1011D0000A48006868B108480068C06AE16A884245
:1011E00007D24FF0805009490860BFF34F8FBFF31B
:1011F0006F8F10BD480000203800002054000020F0
:101200006400002050000020A800002004ED00E051
:1012100070B523E000F078FE1348006808B901209B
:1012200000E00020054601F049F8BDB900F058FB88
:101230000D48C068C468201D00F0ACFA0B48006877
:10124000401E0A4908600A480068401E08490860B4
:1012500000F088FB204600F00DF800BF044800684D
:101260000028D7D170BD0000640300204800002092
:101270004400002010B50446206B00F0A9FB204676
:1012800000F0A6FB10BD000030B54FF41043174826
:1012900000F007042CB1C01D20F00700134C041B04
:1012A0001B1B0246124C22600024114D6C60D018AA
:1012B000083820F007000F4C206000240D4D2D68E9
:1012C0006C600C4D2D682C601146441A4C60094C22
:1012D00024680C60084D4C682C60084D4C682C60EC
:1012E0004FF00044064D2C6030BD00008C03002000
:1012F0007C000020840000208C000020880000205A
:101300009000002000BFFFF783FF06480068012817
:10131000F9D94FF0805004490860BFF34F8FBFF3F5
:101320006F8FF0E7A800002004ED00E02DE9F05FEA
:1013300082460E4617469B46DDF828800C9CB90075
:10134000A522206BFEF75EFF781E216B01EB800962
:1013500029F0070909F0070008B9012000E0002082
:1013600028B940F22B321CA121A0FFF7F5FC002583
:1013700007E0715D04F134004155705D00B902E091
:101380006D1C102DF5D300BF002143200155B8F18D
:10139000200F01D34FF01F08C4F82C80201D00F04F
:1013A00076FA04F1180000F072FA2461C8F1200006
:1013B000A06164620020E064206584F854005A460D
:1013C0005146484600F0D4F920600B9808B10B98BC
:1013D0000460BDE8F09F00002E2E5C4672656552E9
:1013E000544F535C7372635C7461736B732E630050
:1013F0004572726F723A25732C25640D0A00000045
:1014000010B5002407E004EB84010F4A02EB8100D1
:1014100000F030FA641C202CF5D30C4800F02AFAB6
:101420000B4800F027FA0B4800F024FA0A4800F0B5
:1014300021FA0A4800F01EFA0448094908600448E5
:101440000849086010BD0000A80000202803002003
:101450003C03002050030020640300207803002098
:101460003C0000204000002010B50146164800E076
:10147000006803688B42FBD30246436813448B42E7
:1014800004D143684C682344436001460A464B68D4
:1014900013440468A34211D10C4C03682468A3428E
:1014A00008D04B680468646823444B6003681B6879
:1014B0000B6005E0054B1B680B6001E003680B60E7
:1014C000884200D0016010BD7C0000208400002014
:1014D0002DE9F04707460C4690460026206848B3A1
:1014E000204641684968416000F1080142688A422B
:1014F00002D14168496841604168D1F80C9000BF51
:10150000204641684968416000F1080142688A420A
:1015100002D14168496841604168CD6806EBC60068
:1015200007EB800143460122284600F07FFB761C32
:101530004D45E5D13046BDE8F08700000A4909680D
:10154000096809B9012100E0002121B14FF0FF3104
:10155000064A116006E004490968C968C868034A78
:1015600041681160704700003C00002068000020C6
:101570000246002101E0521C491C1078A528FAD02F
:10158000890888B2704700000B480068401C08B901
:10159000012000E0002020B9F42208A111A0FFF7EB
:1015A000DBFB00BF502080F31188BFF34F8FBFF3E8
:1015B0006F8F00BF00BFFEE7940000202E2E5C4618
:1015C00072656552544F535C706F72745C5256442E
:1015D000535C41524D5F434D335C706F72742E63A8
:1015E000000000004572726F723A25732C25640D5D
:1015F0000A00000070B505460E4631462846FEF743
:101600001AFE2846FEF710FE044602E02020285568
:10161000641C0F2CFAD300202855281970BD000037
:101620002DE9F04104464FF0000800F06DFC3E4803
:10163000006808B9FFF728FE3C48006820400028F1
:101640005FD1A4B1083404F0070080B104F00700B2
:10165000C0F10800044404F0070008B9012000E0CC
:10166000002020B9BF2232A13AA0FFF775FB002C61
:1016700047D03C480068844243D83B4E304605681A
:1016800001E02E462D686868A04202D22868002832
:10169000F7D125480068854233D0306800F108084A
:1016A000286830606868001B102813D92F1907F0CC
:1016B000070008B9012000E0002020B9EC221CA19D
:1016C00024A0FFF749FB6868001B78606C6038460F
:1016D000FFF7CAFE234968680968081A21490860AB
:1016E0000846006821490968884203D21D480068FD
:1016F0001E4908600D496868096808436860002051
:10170000286000F0DBFD08F0070008B9012000E0C8
:10171000002028B94FF4967205A10EA0FFF71CFB1C
:101720004046BDE8F08100008400002090000020C9
:101730002E2E5C4672656552544F535C706F727406
:101740005C4D656D4D616E675C686561705F342EE0
:10175000630000004572726F723A25732C25640D88
:101760000A000000880000207C0000208C0000207F
:10177000001F4FF080730360001F21F0010303601E
:10178000001F034B036014380260203870470000CC
:101790008915000801460A69D1E901309860D1E94C
:1017A000010358605068884201D188685060002069
:1017B00008611068401E1060106870472DE9F04104
:1017C0000546884616460024202700F09DFB224847
:1017D000006880453AD300BF7F1E07EB87021F4B8E
:1017E00003EB820104EBC40205EB82000122FFF748
:1017F0006FFE0444002FEFD104EBC40105EB810020
:10180000022217490968FFF763FE044404EBC40190
:1018100005EB8100022213490968FFF759FE0444D1
:1018200004EBC40105EB810004220F49FFF750FED1
:10183000044404EBC40105EB810003220B49FFF7CC
:1018400047FE044416B10A480068306000F036FDD7
:101850002046BDE8F081000048000020A8000020DC
:101860003C0000204000002064030020780300209A
:10187000A000002000F1080141604FF0FF318160BD
:1018800000F10801C1600161002101607047002181
:101890000161704710B502460B685C1C0CB91069F9
:1018A00007E002F1080000E04068446824689C42B8
:1018B000FAD944684C604C68A160886041600A6154
:1018C0001468641C146010BD42684A6093688B60A1
:1018D000936859609160086103685B1C03607047FE
:1018E00010B500BF502080F31188BFF34F8FBFF3B6
:1018F0006F8F00BF0B480068401C0A49086008460B
:10190000006801280DD108480068C0B208B901205C
:1019100000E0002028B94FF4BD7204A10DA0FFF72C
:101920001BFA10BD9400002004ED00E02E2E5C4652
:1019300072656552544F535C706F72745C525644BA
:10194000535C41524D5F434D335C706F72742E6334
:10195000000000004572726F723A25732C25640DE9
:101960000A00000010B50B48006828B940F2811247
:1019700009A113A0FFF7F0F906480068401E0549C9
:1019800008600846006820B9002080F3118800BF75
:1019900000BF10BD940000202E2E5C46726565527B
:1019A000544F535C706F72745C525644535C415296
:1019B0004D5F434D335C706F72742E630000000006
:1019C0004572726F723A25732C25640D0A0000006F
:1019D00070B506463546002E35D0083D2C461A49CE
:1019E00060680968084008B1012000E0002028B9BB
:1019F0004FF4A07215A11EA0FFF7AEF9206808B938
:101A0000012000E0002028B940F241120FA118A0E7
:101A1000FFF7A2F90C4960680968084098B120688E
:101A200088B90949606809688843606000F06CFA09
:101A30001349606809680844114908602046FFF7A7
:101A400013FD00F03BFC70BD900000202E2E5C4684
:101A500072656552544F535C706F72745C4D656D66
:101A60004D616E675C686561705F342E63000000D5
:101A70004572726F723A25732C25640D0A000000BE
:101A800088000020064800684FF47A71B0FBF1F03E
:101A9000401E4FF0E02148610720086170470000B8
:101AA0000000002070B504460025ACB10F48006866
:101AB00008B9012000E0002028B940F2CF420CA173
:101AC00011A0FFF749F900F01FFA00212046FFF7A7
:101AD000F7FA00F0F3FB05463DB94FF080500E4990
:101AE0000860BFF34F8FBFF36F8F70BD7000002091
:101AF0002E2E5C4672656552544F535C7372635C64
:101B00007461736B732E63004572726F723A257342
:101B10002C25640D0A00000004ED00E070B50546B8
:101B2000FFF7DEFE15B92D48006800E028460446A0
:101B3000201DFFF72FFE78B9E06A00EB80002849EE
:101B400051F8200040B994F82C1001208840254914
:101B50000968814323480160A06A18B104F11800A4
:101B6000FFF718FE20480068401C1F4908601B480A
:101B70000068844209D1211D1C48FFF7A5FE1C48BE
:101B80000068401C1A49086009E01A480068401EB5
:101B9000184908602046FFF76DFBFFF7CFFCFFF701
:101BA000E1FE15480068C0B10C480068844214D1B9
:101BB0001248006808B9012000E0002028B940F26E
:101BC00065420FA114A0FFF7C7F84FF080501649E7
:101BD0000860BFF34F8FBFF36F8F70BD38000020D8
:101BE000A8000020500000206400002064030020B2
:101BF0004400002048000020540000207000002015
:101C00002E2E5C4672656552544F535C7372635C52
:101C10007461736B732E63004572726F723A257331
:101C20002C25640D0A00000004ED00E02DE9F041D0
:101C300007460C4690461E4617B91948006800E052
:101C400038460546256005F134006060E86A206189
:101C5000286BE061686CA060207B032807D100F04E
:101C600053F9A86A08B10220207300F027FB002076
:101C70006061E86CA061052E01D0267303E0384650
:101C8000FFF780F92073B8F1000F04D0286BFFF73D
:101C90006FFC208401E000202084BDE8F08100007A
:101CA00038000020FEB50546002028702B4800684B
:101CB00002902A49096801EBC1018800FFF7B0FCD6
:101CC0000446002C48D06A4620460299FFF776FD6C
:101CD000029064210098B0FBF1F000900098002879
:101CE00037D00020019030E0019800EBC00004EBF9
:101CF000800080690099B0FBF1F6019800EBC0000C
:101D000004EB800041682846FFF774FC05465EB18D
:101D1000019800EBC00004EB8000334610A18269FB
:101D20002846FFF729F809E0019800EBC00004EB12
:101D300080000EA182692846FFF71EF82846FEF7AC
:101D400073FA05440198401C0190DDE901018842C5
:101D5000CAD32046FFF73CFEFEBD0000480000202D
:101D60000925750909257525250D0A000925750917
:101D7000093C3125250D0A007FB505460020287055
:101D80003048006803902F49096801EBC1018800C1
:101D9000FFF746FC0446002C53D00022204603994E
:101DA000FFF70CFD03900020029043E0029800EB47
:101DB000C00004EB8000007B012806D0022806D07A
:101DC000032806D0042808D105E0522607E0422661
:101DD00005E0532603E0442601E0002600BF00BFD3
:101DE000029800EBC00004EB800041682846FFF732
:101DF00001FC0546029800EBC00004EB80008068FF
:101E0000029901EBC10104EB8101098CCDE90010BD
:101E1000029800EBC00004EB800032460AA103697F
:101E20002846FEF7A9FF2846FEF7FEF9054402986A
:101E3000401C0290DDE902018842B7D32046FFF73B
:101E4000C7FD7FBD480000200925630925750925C8
:101E5000750925750D0A00001CB5194800210B46AF
:101E60008022CDE9001017A1184800F035F904468A
:101E7000012C17D100BF502080F31188BFF34F8F82
:101E8000BFF36F8F00BF4FF0FF3011490860012092
:101E9000104908600020104908601049086000F0EF
:101EA000B1F80BE0601C08B1012000E0002028B967
:101EB00040F284720AA110A0FEF74EFF1CBD000084
:101EC0006C00002049444C45000000000513000848
:101ED00068000020540000204C000020A0000020DA
:101EE0002E2E5C4672656552544F535C7372635C70
:101EF0007461736B732E63004572726F723A25734F
:101F00002C25640D0A00000002480068401C0149AD
:101F1000086070477000002010B52848006818B1AC
:101F200001202749086047E000202549086025482E
:101F30000068254908600846006824490968884205
:101F40000BD92349096801F14C00C96C1E4A12687B
:101F50001E4B1B68D21A114401601B4800681B49C4
:101F600008601C480068B0FA80F0C0F11F0404EB60
:101F70008400194951F8200008B1012000E0002038
:101F800028B940F6F62215A11AA0FEF7E5FE04EBEB
:101F90008401114A02EB810041684968416000F107
:101FA000080142688A4202D141684968416041683B
:101FB000C968074A116000BF10BD00007000002012
:101FC0005C000020A00000207800002074000020A9
:101FD0003800002050000020A80000202E2E5C4673
:101FE00072656552544F535C7372635C7461736BBA
:101FF000732E63004572726F723A25732C25640D3F
:102000000A0000001CB52248014609780191FF2111
:10201000024611700146097800919DF8001001F008
:1020200050011C4A117007211B4A116009E01A492E
:102030000968491E184A11609DF800104906090EEA
:1020400000919DF8001001F080018029EFD0124925
:1020500009680902104A11601146098801F4E0611B
:1020600011600B4A019911700C48006840F470002F
:102070000A4908600846006840F070400860FFF7B1
:1020800001FD002006490860FEF770F800201CBD25
:1020900000E400E0980000209C00002020ED00E01B
:1020A0009400002010B500BF502080F31188BFF3CA
:1020B0004F8FBFF36F8F00BF00F04EF818B14FF095
:1020C00080500449086000BF002080F3118800BFE1
:1020D00010BD000004ED00E02DE9FF4F85B0804603
:1020E00089461746DDE912ABB800FFF799FA0646B4
:1020F00056B15820FFF794FA04460CB1266304E069
:102100003046FFF765FC00E000247CB10020CDE9FB
:1021100000ABCDE902403A4649464046089BFFF7EE
:1021200005F92046FFF718F8012501E04FF0FF35CB
:10213000284609B0BDE8F08F0549096809B90120B2
:1021400005E00449096809B9022000E00020704751
:1021500054000020700000202DE9F0414FF00008ED
:1021600041480068002872D140480068451C3F483B
:102170000560EDB93E480068006808B9012000E03C
:10218000002028B940F6D9123AA140A0FEF7E4FD9C
:102190003748076841480068354908603F4807608C
:1021A0003F480068401C3E490860FFF7C7F900BF80
:1021B0003C48006885423CD300BF2D480068006859
:1021C00008B9012000E0002020B14FF0FF30354970
:1021D00008602DE026480068C068C4686668B5429B
:1021E00002D23048066023E0201DFFF7D3FAA06A30
:1021F00018B104F11800FFF7CDFA94F82C10012063
:10220000884029490968084327490860E16A01EBC9
:102210008101264A02EB8100211DFFF755FB24496D
:10222000E06A0968C96A8842C7D34FF00108C4E769
:1022300000BF1F480068C06A00EB80001B4951F8CE
:102240002000012801D94FF0010805E0FFE71948F7
:102250000068401C174908601748006808B14FF033
:1022600001084046BDE8F081700000204C000020CD
:102270003C0000202E2E5C4672656552544F535C24
:102280007372635C7461736B732E63004572726F5B
:10229000723A25732C25640D0A00000040000020CE
:1022A000600000206800002050000020A8000020EE
:1022B00038000020580000205C00002070B5002489
:1022C00000263448006828B94FF4FD6232A138A0D6
:1022D000FEF742FDFFF704FB2E480068401E2D4923
:1022E00008600846006800284FD13548006800287B
:1022F0004BD024E03348C068C46804F11800FFF7ED
:1023000049FA201DFFF746FA94F82C100120884066
:102310002D49096808432C490860E16A01EB8101F5
:102320002A4A02EB8100211DFFF7CEFA2849E06A14
:102330000968C96A884202D30120264908602148F9
:10234000006808B9012000E000200028D2D00CB1BC
:10235000FFF7F4F82048056865B100BFFFF7FCFE01
:1023600010B101201B4908606D1E002DF6D1002020
:10237000194908601748006838B101263007174925
:102380000860BFF34F8FBFF36F8FFFF7EBFA304654
:1023900070BD0000700000202E2E5C4672656552F4
:1023A000544F535C7372635C7461736B732E630080
:1023B0004572726F723A25732C25640D0A00000075
:1023C000480000205003002050000020A8000020FA
:1023D000380000205C0000205800002004ED00E0E0
:1023E0000024000800000020A8000000A00D000844
:1023F000A8240008A8000020E8960000B00D0008FE
:1024000000A24A04000000000000000001020304D2
:10241000060708090000000001020304010203048A
:10242000060708090204060800000000000000007A
:10243000000000000000000000000000000000009C
:10244000000000000000000000000000000000008C
:10245000000000000000000000000000000000007C
:10246000000000000000000000000000000000006C
:10247000000000000000000000000000000000005C
:10248000000000000000000000000000000000004C
:1024900000000000AAAAAAAA000000000000000094
:0824A000000000000000000034
:0400000508000131BD
:00000001FF
