:020000040800F2
:10000000A8120020E1010008D90400082504000816
:10001000D504000801030008D5080008000000000E
:10002000000000000000000000000000490100087E
:1000300005030008000000008D010008CD0600083F
:10004000FB010008FB010008FB010008FB010008A0
:10005000FB010008FB010008FB010008FB01000890
:10006000FB010008FB010008FB010008FB01000880
:10007000FB010008FB010008FB010008FB01000870
:10008000FB010008FB010008FB010008FB01000860
:10009000FB010008FB010008FB010008FB01000850
:1000A000FB010008FB010008FB010008FB01000840
:1000B000FB010008FB010008FB010008FB01000830
:1000C000FB010008FB010008FB010008FB01000820
:1000D000FB010008FB010008FB010008FB01000810
:1000E000FB010008FB010008FB010008FB01000800
:1000F000FB010008FB010008FB010008FB010008F0
:10010000FB010008FB010008FB010008FB010008DF
:10011000FB010008FB010008FB010008FB010008CF
:10012000FB010008FB010008FB010008FB010008BF
:10013000DFF810D000F07CF800480047F50A00080E
:10014000AFF30080A8120020224B19680868B0E8BD
:10015000F00F80F30988BFF36F8F4FF0000080F33A
:1001600011884EF00D0E7047000000000648006830
:10017000006880F3088862B661B6BFF34F8FBFF3A3
:100180006F8F00DF00BF00BF08ED00E0EFF30980D4
:10019000BFF36F8F0F4B1A6820E9F00F106008B59E
:1001A0004FF0500080F31188BFF34F8FBFF36F8F74
:1001B00001F090F94FF0000080F31188BDE808408D
:1001C00019680868B0E8F00F80F30988BFF36F8FF3
:1001D000704700BF30000020EFF30580704700003B
:1001E0000648804706480047FEE7FEE7FEE7FEE7D1
:1001F000FEE7FEE7FEE7FEE7FEE7FEE7DD060008B6
:100200003101000830B50B460146002020220124B0
:1002100009E021FA02F59D4205D303FA02F5491BD4
:1002200004FA02F52844151EA2F10102F1DC30BDEA
:10023000064C074D06E0E06840F0010394E8070033
:1002400098471034AC42F6D3FFF776FFA0190008A8
:10025000C01900080EB500F029FF0F480F4904220D
:100260000023CDE90021029080220DA10F4801F06A
:10027000F1F90F4908600846006818B10DA000F0B8
:100280002BFB02E011A000F027FB1648006801F0EC
:100290002BF800F04DFF0EBDE0040020E00200202E
:1002A0004C45445F5461736B000000007D040008FE
:1002B0002C0000204C45445F5461736BC8CECEF1D6
:1002C000B4B4BDA8B3C9B9A6210D0A004C45445F1A
:1002D0005461736BC8CECEF1B4B4BDA8CAA7B0DC6C
:1002E000210D0A002800002010B54FF4407000F0E6
:1002F000F5F84FF4E13000F021FA00F095F810BD68
:1003000000BFFEE770472DE9F041024600250026B8
:10031000002000230024002791F803C00CF00F05F3
:1003200091F803C00CF0100CBCF1000F03D091F851
:1003300002C04CEA050591F800C0BCF1000F31D0B5
:10034000146800202BE04FF0010C0CFA00F3B1F818
:1003500000C00CEA03069E4220D183004FF00F0C30
:100360000CFA03F7BC4305FA03FC4CEA040491F8C9
:1003700003C0BCF1280F06D14FF0010C0CFA00FCB1
:10038000C2F814C00AE091F803C0BCF1480F05D1CF
:100390004FF0010C0CFA00FCC2F810C0401C0828F9
:1003A000D1D31460B1F800C0BCF1FF0F34DD546844
:1003B00000202EE000F1080C4FF0010808FA0CF3C1
:1003C000B1F800C00CEA03069E4221D183004FF031
:1003D0000F0C0CFA03F7BC4305FA03FC4CEA0404C7
:1003E00091F803C0BCF1280F05D100F1080C08FA00
:1003F0000CF8C2F8148091F803C0BCF1480F07D183
:1004000000F1080C4FF0010808FA0CF8C2F810804F
:10041000401C0828CED35460BDE8F081416170478C
:100420000161704700BFFEE708B50121082000F018
:100430005FF80121402000F05BF82020ADF80000BB
:1004400010208DF8030003208DF80200694609484A
:10045000FFF759FF2020ADF8000069460648FFF776
:1004600052FF20210348FFF7DBFF20210248FFF75E
:10047000D7FF08BD000C0140001801401DE02021FD
:100480000E48FFF7CBFF20210D48FFF7C7FF4FF4C1
:10049000FA7000F0EDFE0BA000F01EFA20210748D4
:1004A000FFF7BEFF20210648FFF7BAFF4FF4FA70AE
:1004B00000F0DEFE05A000F00FFAE0E7000C0140BE
:1004C000001801404C4544BFAA0D0A004C4544B9F0
:1004D000D80D0A0000BFFEE7704700000249014343
:1004E000024A1160704700000000FA050CED00E0C0
:1004F00029B1064A92690243044B9A6104E0034A17
:1005000092698243014B9A617047000000100240DB
:1005100030B500210022002400232D4D6D6805F028
:100520000C0121B1042905D0082923D105E0294D6A
:10053000056022E0274D05601FE0254D6D6805F43C
:100540007012234D6D6805F48034022505EB92424C
:100550001CB9214D554305600BE01D4D6D6805F438
:1005600000351DB11C4D5543056002E0194D554342
:10057000056002E0174D056000BF00BF144D6D68B7
:1005800005F0F0010909154D6B5C0568DD4045601B
:100590000F4D6D6805F4E061090A104D6B5C45680C
:1005A000DD4085600A4D6D6805F46051C90A0B4D48
:1005B0006B5C4568DD40C560054D6D6805F44041E4
:1005C000890B074D6B5CC568B5FBF3F5056130BD64
:1005D0000010024000127A0000093D0014000020C3
:1005E0002400002010B500F001F810BD0CB500206B
:1005F000019000903348006840F480303149086031
:1006000000BF3048006800F4003000900198401CA2
:100610000190009818B90198B0F5A06FF1D1294860
:10062000006800F4003010B10120009001E00020CB
:1006300000900098012843D12348006840F0100042
:10064000214908600846006820F003000860084659
:10065000006840F0020008601A4840681949486084
:100660000846406848600846406840F4806048603A
:100670000846406820F47C1048600846406840F412
:10068000E81048600846006840F08070086000BFCD
:100690000C48006800F000700028F9D00948406854
:1006A00020F00300074948600846406840F0020017
:1006B000486000BF0348406800F00C000828F9D1EA
:1006C0000CBD0000001002400020024010B501F0F7
:1006D00013F8012801D000F0A3FF10BD10B5134896
:1006E000006840F001001149086008464068104960
:1006F00008400E494860084600680E4908400B490A
:1007000008600846006820F48020086008464068B9
:1007100020F4FE0048604FF41F008860FFF762FF7E
:100720004FF000600449086010BD00000010024056
:100730000000FFF8FFFFF6FE08ED00E010B586B000
:10074000044601210420FFF7D3FE01218803FFF7AF
:10075000CFFE4FF40070ADF8140018208DF817008C
:1007600003208DF8160005A91348FFF7CCFD4FF4C0
:100770008060ADF8140004208DF8170003208DF878
:10078000160005A90C48FFF7BEFD01940020ADF846
:100790000800ADF80A00ADF80C00ADF810000C2010
:1007A000ADF80E0001A9054800F024F80121034826
:1007B00000F006F806B010BD000801400038014006
:1007C00021B1828942F40052828104E082894DF68F
:1007D000FF731A408281704702460020B1F5007F06
:1007E00000D100BF13880B400BB1012000E00020B6
:1007F000704700002DE9F04786B005460E460024FC
:10080000A24600BFA1460027B08900B100BF2F4615
:100810002C8A4CF6FF700440F08804432C82AC898B
:100820004EF6F3100440B0883189084371890843BB
:100830000443AC81AC8A4FF6FF400440B0890443C6
:10084000AC8201A8FFF764FE1F48874202D1DDF8A1
:1008500010A001E0DDF80CA0A88900F4004040B130
:100860000AEBCA0000EB0A1031684900B0FBF1F84E
:1008700007E00AEBCA0000EB0A1031688900B0FB00
:10088000F1F86420B8FBF0F004012009642101FBB9
:100890001089A88900F4004040B1322000EBC90063
:1008A000B0FBF1F000F00700044308E0322000EB59
:1008B00009106421B0FBF1F000F00F0004432C811B
:1008C00006B0BDE8F087000000380140C1F308021F
:1008D0008280704700BFFEE70FB4054B10B503A937
:1008E000044A029800F018F810BC5DF814FB0000F0
:1008F000D10A00089000002002E008C8121F08C1B9
:10090000002AFAD170477047002001E001C1121F90
:10091000002AFBD1704700002DE9FF4F8BB09A46AB
:100920000F460546002606E025280BD052460D99B5
:1009300090476D1C761C28780028F5D10FB0304602
:10094000BDE8F08F0024A0460122604900E0044386
:1009500015F8013F203B02FA03F00842F7D128784E
:100960002E2817D115F8010F44F004042A280ED0C0
:100970006FF02F022878A0F1300109290AD808EB7E
:10098000880102EB410100EB01086D1CF2E757F80A
:10099000048B6D1C287869283ED006DC0028CDD059
:1009A00063280BD0642804D136E0732810D0752852
:1009B0004BD052460D999047761C85E017F8040BF2
:1009C0008DF8000000208DF80100E946012003E0C9
:1009D00057F8049B4FF0FF3061074FF0000401D43B
:1009E0000AE0641C44450DDA8442FADB19F804106D
:1009F0000029F6D106E0641C8442FCDB19F80410DF
:100A00000029F8D1264404E019F8010B52460D994B
:100A10009047641EF8D257E001CF4FF00A0B002830
:100A200002DA40422D2102E0210504D52B218DF868
:100A30002410012103E0E10705D02021F7E70DF1A3
:100A4000200908910CE00021F9E701CF4FF00A0BD3
:100A5000F9E75946FFF7D6FB01F1300209F8012DFD
:100A60000028F6D1ADEB090000F1200B600701D49E
:100A70004FF00108D84502DDA8EB0B0000E0002094
:100A80008046002406E009A85246005D0D99904773
:100A9000641C761C08988442F5DB04E03020524642
:100AA0000D999047761CB8F10001A8F10108F5DC1A
:100AB00005E019F8010B52460D999047761CBBF1E1
:100AC0000001ABF1010BF4DC6D1C34E709280100D7
:100AD00070B504460D46E1B20548FFF7F7FE00BFCA
:100AE00080210348FFF778FE0028F9D0204670BD2A
:100AF000003801400EB5FFF7F7FB0CA0FFF7ECFE46
:100B00000F48104903220023CDE9002102908022E2
:100B10000DA1114800F09EFD1049086008460068CC
:100B200008B100F069FC00BFFEE70000D3B2BCFED4
:100B3000B3F5CABCBBAFCDEAB3C90D0A00000000D3
:100B400094020020940000204170705461736B4344
:100B500072656174650000005502000828000020DD
:100B60002DE9F04105460E461C4807681C48006800
:100B7000001D00F045FA50B91948006890F82C1093
:100B80000120884017490968814316480160681CA4
:100B900038B936B112480168091D134800F07AFAD5
:100BA0001AE07C190E4800684460BC4207D20C4829
:100BB0000168091D0D48006800F052FA0CE0084871
:100BC0000168091D0A48006800F04AFA09480068EF
:100BD000844201D207480460BDE8F081440000204F
:100BE0003000002048000020940E00203800002033
:100BF000340000206000002010B5044600F056FAD2
:100C000023480068401C224908602248006840B917
:100C1000204804600846006801280DD100F026F93C
:100C20000AE01D48006838B91A480068C06AE16ADD
:100C3000884201D81748046018480068401C1749CA
:100C4000086094F82C100120884015490968084371
:100C500013490860E16A01EB8101124A02EB81004D
:100C6000211D00F017FA00F063FA0B48006868B124
:100C700008480068C06AE16A884207D24FF0805095
:100C800009490860BFF34F8FBFF36F8F10BD00009D
:100C900040000020300000204C0000205C000020BC
:100CA00048000020C40B002004ED00E070B523E0F4
:100CB00000F008FC1348006808B9012000E000209B
:100CC000054600F0DBFDBDB900F0F0F90D48C06845
:100CD000C468201D00F094F90B480068401E0A49C2
:100CE00008600A480068401E0849086000F020FAC1
:100CF000204600F00DF800BF044800680028D7D156
:100D000070BD0000800E0020400000203C0000204C
:100D100010B5044694F8490030B9206B00F03EFA53
:100D2000204600F03BFA15E094F84900012803D171
:100D3000204600F033FA0DE094F84900022801D172
:100D4000012000E0002028B940F6296202A108A095
:100D5000FFF7C2FD10BD00002E2E5C467265655285
:100D6000544F535C7372635C7461736B732E6300D6
:100D70004572726F723A25732C25640D0A000000CB
:100D800000BFFFF793FF064800680128F9D94FF02C
:100D9000805004490860BFF34F8FBFF36F8FF0E7B7
:100DA000C40B002004ED00E02DE9FF5F81460E46F4
:100DB0009246DDE90E7B109CAAF10100216B01EB4C
:100DC000800828F0070808F0070008B9012000E0B3
:100DD000002028B940F22B321AA120A0FFF77CFD99
:100DE000002507E0715D04F134004155705D00B9E4
:100DF00002E06D1C102DF5D300BF002143200155EA
:100E0000202F00D31F27E762201D00F026F904F1F0
:100E1000180000F022F92461C7F12000A06164628B
:100E20000020606484F8480049464046039A00F078
:100E3000D5F82060BBF1000F01D0CBF80040BDE831
:100E4000FF9F00002E2E5C4672656552544F535C26
:100E50007372635C7461736B732E63004572726F9F
:100E6000723A25732C25640D0A00000010B5002489
:100E700007E004EB84010F4A02EB810000F0E0F888
:100E8000641C202CF5D30C4800F0DAF80B4800F075
:100E9000D7F80B4800F0D4F80A4800F0D1F80A4817
:100EA00000F0CEF804480949086004480849086081
:100EB00010BD0000C40B0020440E0020580E00207E
:100EC0006C0E0020800E0020940E002034000020C4
:100ED0003800002010B50146164800E0006803689D
:100EE0008B42FBD30246436813448B4204D14368D0
:100EF0004C682344436001460A464B681344046827
:100F0000A34211D10C4C03682468A34208D04B685B
:100F10000468646823444B6003681B680B6005E049
:100F2000054B1B680B6001E003680B60884200D032
:100F3000016010BD6C000020740000200A4909689F
:100F4000096809B9012100E0002121B14FF0FF310A
:100F5000064A116006E004490968C968C868034A7E
:100F600041681160704700003400002060000020DC
:100F70000B480068401C08B9012000E0002020B99F
:100F8000F42208A111A0FFF7A7FC00BF502080F3B6
:100F90001188BFF34F8FBFF36F8F00BF00BFFEE715
:100FA000840000202E2E5C4672656552544F535CBF
:100FB000706F72745C525644535C41524D5F434DA6
:100FC000335C706F72742E63000000004572726FA4
:100FD000723A25732C25640D0A000000001F4FF0A3
:100FE00080730360001F21F001030360001F034BA7
:100FF000036014380260203870470000710F000849
:1010000001460A69D1E901309860D1E901035860CD
:101010005068884201D188685060002008611068DB
:10102000401E106010687047034B0360034B0B6059
:1010300080231360704700002C05002078050020F5
:1010400000F1080141604FF0FF31816000F10801BB
:10105000C16001610021016070470021016170479A
:1010600010B502460B685C1C0CB9106907E002F170
:10107000080000E04068446824689C42FAD944684B
:101080004C604C68A160886041600A611468641C0F
:10109000146010BD42684A6093688B609368596021
:1010A0009160086103685B1C0360704710B500BF66
:1010B000502080F31188BFF34F8FBFF36F8F00BFB5
:1010C0000B480068401C0A4908600846006801286F
:1010D0000DD108480068C0B208B9012000E0002026
:1010E00028B94FF4BD7204A10DA0FFF7F5FB10BDA8
:1010F0008400002004ED00E02E2E5C4672656552EF
:10110000544F535C706F72745C525644535C41523E
:101110004D5F434D335C706F72742E6300000000AE
:101120004572726F723A25732C25640D0A00000017
:1011300010B50B48006828B940F2811209A113A02C
:10114000FFF7CAFB06480068401E054908600846CC
:10115000006820B9002080F3118800BF00BF10BDD7
:10116000840000202E2E5C4672656552544F535CFD
:10117000706F72745C525644535C41524D5F434DE4
:10118000335C706F72742E63000000004572726FE2
:10119000723A25732C25640D0A00000070B50646CE
:1011A0003546002E35D0083D2C461A49606809683E
:1011B000084008B1012000E0002028B94FF4A072D7
:1011C00015A11EA0FFF788FB206808B9012000E0E8
:1011D000002028B940F241120FA118A0FFF77CFBB4
:1011E0000C4960680968084098B1206888B90949C5
:1011F000606809688843606000F064F913496068BA
:1012000009680844114908602046FFF763FE00F0B2
:1012100035FB70BD800000202E2E5C467265655245
:10122000544F535C706F72745C4D656D4D616E67A9
:101230005C686561705F342E630000004572726FF8
:10124000723A25732C25640D0A00000078000020F6
:10125000064800684FF47A71B0FBF1F0401E4FF081
:10126000E02148610720086170470000000000206D
:1012700070B504460025ACB10F48006808B90120DC
:1012800000E0002028B940F2CF420CA111A0FFF7E6
:1012900023FB00F017F900212046FFF761FC00F066
:1012A000EDFA05463DB94FF080500E490860BFF396
:1012B0004F8FBFF36F8F70BD680000202E2E5C46ED
:1012C00072656552544F535C7372635C7461736BE7
:1012D000732E63004572726F723A25732C25640D6C
:1012E0000A00000004ED00E070B50546FFF7DEFEE1
:1012F00015B92D48006800E028460446201DFFF778
:101300007FFE78B9E06A00EB8000284951F82000A0
:1013100040B994F82C100120884025490968814380
:1013200023480160A06A18B104F11800FFF768FEB5
:1013300020480068401C1F4908601B480068844220
:1013400009D1211D1C48FFF7A5FE1C480068401C60
:101350001A49086009E01A480068401E18490860E8
:101360002046FFF7D5FCFFF7E9FDFFF7E1FE154842
:101370000068C0B10C480068844214D1124800686B
:1013800008B9012000E0002028B940F265420FA111
:1013900014A0FFF7A1FA4FF0805016490860BFF380
:1013A0004F8FBFF36F8F70BD30000020C40B002043
:1013B000480000205C000020800E00203C0000203F
:1013C000400000204C000020680000202E2E5C46CB
:1013D00072656552544F535C7372635C7461736BD6
:1013E000732E63004572726F723A25732C25640D5B
:1013F0000A00000004ED00E010B586B00020059062
:10140000049003AA04A905A8FFF70EFE0022DDE957
:1014100004101346CDE90021029019A11A48039A3D
:1014200000F018F9194908600846006808B101245D
:1014300000E00024012C15D100BF502080F311885A
:10144000BFF34F8FBFF36F8F00BF4FF0FF301049D6
:10145000086001200F49086000200F49086000F073
:101460008FF80BE0601C08B1012000E0002028B9D3
:1014700040F2847209A10FA0FFF72EFA06B010BD4A
:1014800049444C4500000000810D00086400002024
:10149000600000204C000020440000202E2E5C46FE
:1014A00072656552544F535C7372635C7461736B05
:1014B000732E63004572726F723A25732C25640D8A
:1014C0000A00000002480068401C0149086070479B
:1014D0006800002010B51B48006818B101201A49A7
:1014E00008602DE000201849086018480068B0FA2C
:1014F00080F0C0F11F0404EB8400154951F820006E
:1015000008B1012000E0002028B940F6F62211A120
:1015100016A0FFF7E1F904EB84010D4A02EB81000C
:1015200041684968416000F1080142688A4202D17D
:101530004168496841604168C968104A116000BF4C
:1015400010BD00006800002054000020480000206A
:10155000C40B00202E2E5C4672656552544F535CBE
:101560007372635C7461736B732E63004572726F88
:10157000723A25732C25640D0A000000300000200B
:101580001CB52248014609780191FF2102461170DD
:101590000146097800919DF8001001F050011C4AA5
:1015A000117007211B4A116009E01A490968491E98
:1015B000184A11609DF800104906090E00919DF827
:1015C000001001F080018029EFD01249096809025A
:1015D000104A11601146098801F4E06111600B4A5C
:1015E000019911700C48006840F470000A490860C5
:1015F0000846006840F070400860FFF729FE0020B0
:1016000006490860FEF7B2FD00201CBD00E400E0C2
:10161000880000208C00002020ED00E084000020E5
:1016200010B500BF502080F31188BFF34F8FBFF378
:101630006F8F00BF00F070F818B14FF08050044970
:10164000086000BF002080F3118800BF10BD0000BB
:1016500004ED00E02DE9F04F85B00746884691463D
:101660009A46DDE90EB6109C0EB1012000E0002084
:1016700028B940F2552216A11BA0FFF72DF90CB195
:10168000012000E0002028B940F2562210A116A047
:10169000FFF722F9ACB1A6B125462E63022085F8EA
:1016A0004900002004A953464A46CDE900B1CDE9DE
:1016B000025041463846FFF777FB2846FFF79CFA71
:1016C00001E000200490049805B0BDE8F08F000010
:1016D0002E2E5C4672656552544F535C7372635C88
:1016E0007461736B732E63004572726F723A257367
:1016F0002C25640D0A0000000549096809B901207C
:1017000005E00449096809B9022000E0002070479B
:101710004C000020680000202DE9F0414FF0000847
:1017200041480068002872D140480068451C3F4885
:101730000560EDB93E480068006808B9012000E086
:10174000002028B940F6D9123AA140A0FFF7C4F80A
:101750003748076841480068354908603F480760D6
:101760003F480068401C3E490860FFF7E7FB00BFA8
:101770003C48006885423CD300BF2D4800680068A3
:1017800008B9012000E0002020B14FF0FF303549BA
:1017900008602DE026480068C068C4686668B542E5
:1017A00002D23048066023E0201DFFF729FCA06A22
:1017B00018B104F11800FFF723FC94F82C10012055
:1017C000884029490968084327490860E16A01EB14
:1017D0008101264A02EB8100211DFFF75BFC2449B1
:1017E000E06A0968C96A8842C7D34FF00108C4E7B4
:1017F00000BF1F480068C06A00EB80001B4951F819
:101800002000012801D94FF0010805E0FFE7194841
:101810000068401C174908601748006808B14FF07D
:1018200001084046BDE8F081680000204400002027
:10183000340000202E2E5C4672656552544F535C76
:101840007372635C7461736B732E63004572726FA5
:10185000723A25732C25640D0A0000003800002020
:10186000580000206000002048000020C40B002029
:1018700030000020500000205400002070B50024EB
:1018800000263448006828B94FF4FD6232A138A020
:10189000FFF722F8FFF70AFC2E480068401E2D498A
:1018A00008600846006800284FD1354800680028C5
:1018B0004BD024E03348C068C46804F11800FFF737
:1018C0009FFB201DFFF79CFB94F82C100120884003
:1018D0002D49096808432C490860E16A01EB810140
:1018E0002A4A02EB8100211DFFF7D4FB2849E06A58
:1018F0000968C96A884202D3012026490860214844
:10190000006808B9012000E000200028D2D00CB106
:10191000FFF714FB2048056865B100BFFFF7FCFE28
:1019200010B101201B4908606D1E002DF6D100206A
:10193000194908601748006838B10126300717496F
:101940000860BFF34F8FBFF36F8FFFF7F1FB304697
:1019500070BD0000680000202E2E5C467265655246
:10196000544F535C7372635C7461736B732E6300CA
:101970004572726F723A25732C25640D0A000000BF
:10198000400000206C0E002048000020C40B002006
:1019900030000020540000205000002004ED00E042
:1019A000C01900080000002094000000F80800089A
:1019B000541A0008940000201412000008090008BE
:1019C00000A24A040000000000000000010203041D
:1019D00006070809000000000102030401020304D5
:1019E00006070809020406080000000000000000C5
:1019F00000000000000000000000000000000000E7
:101A000000000000000000000000000000000000D6
:101A100000000000000000000000000000000000C6
:101A200000000000000000000000000000000000B6
:101A300000000000000000000000000000000000A6
:101A400000000000AAAAAAAA0000000000000000EE
:041A50000000000092
:0400000508000131BD
:00000001FF
